:100000000C941F110C9447110C9447110C94471138
:100010000C9447110C9447110C9447110C94471100
:100020000C9447110C9447110C940E270C947D27C7
:100030000C9447110C9447110C9447110C944711E0
:100040000C9447110C9447110C9447110C944711D0
:100050000C9447110C9447110C9447110C94C4262E
:100060000C9447110C9447110C9447110C944711B0
:100070000C9447110C9447110C9447110C944711A0
:100080000C9447110C9447110C9447110C94471190
:100090000C9447110C9447110C9447110C94471180
:1000A0000C9447110C94242D0C9447110502010067
:1000B00002F9060B0C1100003500000000004000A2
:1000C0000000000000640000000000FF00000001CC
:1000D000000061010A131B231002000000000066EB
:1000E000042C547CA42000030000000060000000E9
:1000F0000000010403031F0502020001F9060B0CB6
:100100001100003500000000004000000000000069
:100110000000000000008000000001000061010AF2
:10012000131B231002000000000066042C547CA462
:10013000200003000000006600000000000104032E
:10014000031F020407101800F0F0F8F0F8F8FCF8AC
:10015000FCFCFEFCFEFEFFFEFFFCFEFCFEF8FCF8D5
:10016000FCF0F8F0F800F0006363FF7FFFFFFF9FF3
:10017000FFE7FFF9FFFFFFFFFFFFFFFFFFFFFFFFAD
:10018000FF7FFF7FFF007F000E0C1E0C1F183F1A21
:100190003F357F357F6BFF6BFF357F357F1A3F180B
:1001A0003F0C1F0C1E000E00F0F0F8F0F8F8FCF801
:1001B000FCFCFEFCFEFEFFFEFFFCFEFCFEF8FCF875
:1001C000FCF0F8F0F800F0007F7FFF7FFFFFFFFFFB
:1001D000FFFFFFFFFFFFFFFFFFF9FFE7FF9FFFFFAD
:1001E000FF7FFF63FF0063000E0C1E0C1F183F1AF9
:1001F0003F357F357F6BFF6BFF357F357F1A3F18AB
:100200003F0C1F0C1E000E00F0F0F8F0F8F8FCF8A0
:10021000FCFCFEFCFEFEFFFEFF7CFE7CFE38FCB814
:10022000FC10F8F0F800F0007F7FFF7FFFF9FFE798
:10023000FF9FFFFFFFFFFFF0FFF9FFF8FFFCFFFC50
:10024000FF7EFF63FF0063000E0C1E0C1F183F1A99
:100250003F357F357F6BFF6BFF357F357F1A3F184A
:100260003F0C1F0C1E000E00F0F0F810F8B8FC3820
:10027000FC7CFE7CFEFEFFFEFFFCFEFCFEF8FCF8B4
:10028000FCF0F8F0F800F0006363FF7EFFFCFFFC79
:10029000FFF8FFF9FFF0FFFFFFFFFF9FFFE7FFF908
:1002A000FF7FFF7FFF007F000E0C1E0C1F183F1A00
:1002B0003F357F357F6BFF6BFF357F357F1A3F18EA
:1002C0003F0C1F0C1E000E008000C080C080FCF898
:1002D000FCFCFEFCFEFEFFCEFFE0FEF0F878FC78B2
:1002E000FC30F8F0F800F0007F7FFF7FFFF9FF8718
:1002F000FFFFFFFFFFFFFFF1FFF8FFF8FFFCFFFC30
:10030000FF7EFF63FF0063000E0C1E0C1F081F0A18
:100310003F357F357F6BFF6BFF357F357F0A3F08A9
:100320001F0C1F0C1E000E180800C0C0F0F0F830A3
:10033000F8183C0C1E0C1E0C1E060F060F060F06AE
:100340000F060F060F060F060F0C1E0C1E0C1E18B4
:100350003C30F8F0F8C0F000C00003030F0F1F0C92
:100360001F183C30783078307860F060F060F060D2
:10037000F060F060F060F060F0307830783078183D
:100380003C0C1F0F1F030F0003101800F0F0F8F0D3
:10039000F8F8FCF8FCFCFEFCFEFEFFFEFFFCFEFC99
:1003A000FEF8FC80F800800000000000FFFFFFFF67
:1003B000FF7FFFBFFF3FFFFFFFFFFFFFFFFFFFFFCD
:1003C000FFFFFFFFFFFFFFFCFF00FC000F0F1F0FF1
:1003D0001F1C3F1D3F3E7F3F7F7FFF7FFF3F7F3FD3
:1003E0007F1F3F1F3F0F1F0F1F000F000000000067
:1003F0008080F8F8FCFCFEFCFEFEFFFEFFFCFEFC2D
:10040000FEF8FCF8FCF0F8F0F800F000FCFCFFFF50
:10041000FFFFFFFFFFFFFFFFFFFFFFFFFFFFFF3FAC
:10042000FFBFFF7FFFFFFFFFFF00FF000F0F1F0F4A
:100430001F1F3F1F3F3F7F3F7F7FFF7FFF3F7F3E6D
:100440007F1D3F1C3F0F1F0F1F000F00000000000B
:1004500000008080C0C0E0C0E0E0F0E0F0F0F8F024
:10046000F8F8FC78FC70F8F0F800F000E0E0F8F83C
:10047000FCFCFF7FFF7FFFFFFFFFFFFFFF41FF6CE3
:10048000FF20FF36FF10FFFFFF00FF000F0F1F0FC1
:100490001F1F3F1C3F3B7F387F7FFF7FFF207F3741
:1004A0007F163F1A3F081F0F1F000F00F0F0F87073
:1004B000F878FCF8FCF0F8F0F8E0F0E0F0C0E0C00C
:1004C000E080C0008000000000000000FFFFFF107F
:1004D000FF36FF20FF6CFF41FFFFFFFFFFFFFF7FA5
:1004E000FF7FFFFCFFF8FCE0F800E0000F0F1F08A3
:1004F0001F1A3F163F377F207F7FFF7FFF387F3BEC
:100500007F1C3F1F3F0F1F0F1F000F000000000048
:1005100000000000000000000000000000000000DB
:10052000000000000000000000000000E0E0F0F02B
:10053000F8F8FCF8FCFCFEFCFEECFED4FEB4FEB4C5
:10054000FEA8FCD8FCF0F8E0F000E00009010B0385
:100550001F071F073F0F3F0F3F0F3F0F3F0F3F0F7B
:100560003F073F071F031F010B00090000000000A9
:100570008080C0C0E0E0F0E0F060F0A0F0A0F060AB
:10058000F0C0E080C00080000000000000003F3F9D
:100590007F7FFFFFFFFFFFFFFFFEFFF9FFF7FFF782
:1005A000FFF8FF7FFF3F7F003F00000000000800D2
:1005B00008001C001D013F013F013F013F013F01B9
:1005C0003F001D001C0008000800000000000000A3
:1005D000E0E0F8F8FCFCFEFEFFE6FF1AFFF6FF0C79
:1005E000FEF8FCE0F800E000000000000000000061
:1005F00007071F1F3F3F7F7FFF7FFF7FFF7EFF3F7C
:100600007F1F3F071F0007000000000000000000E0
:10061000080008001C001C003E003E003E003E009A
:100620001C001C0008000800000000000000000082
:10063000000000008080C080C080C080C080C0807A
:10064000C000800000000000000000000000FCFC72
:10065000FEFEFFFFFFFFFFFFFFF9FFE6FFDEFFDD0E
:10066000FFE3FFFEFFFCFE00FC00000000000800AE
:1006700009011F031F073F073F073F073F073F07CA
:100680003F031F011F00090008000000F0D0F8D050
:10069000F8B0FCB0FC70FE60FEE0FFE6FF7CFE7C84
:1006A000FEB8FCB8FCD0F8D0F800F000E0A0F1A053
:1006B000F171FB41FFBBFFBBFF76FF76FFBBFFBBCA
:1006C000FF41FF71FBA0F1A0F100E0000F0F1F0F31
:1006D0001F173F173F327F327F7DFF7DFF3E7F3EFA
:1006E0007F1F3F1F3F0F1F0F1F000F00F0D0F8D0DC
:1006F000F8B8FCB8FC7CFE7CFEE6FFE0FF60FE7014
:10070000FEB0FCB0FCD0F8D0F800F000E0A0F1A002
:10071000F171FB41FFBBFFBBFF76FF76FFBBFFBB69
:10072000FF41FF71FBA0F1A0F100E0000F0F1F0FD0
:100730001F1F3F1F3F3E7F3E7F7DFF7DFF327F3289
:100740007F173F173F0F1F0F1F000F00F0D0F8D08B
:10075000F8B8FCB8FC7CFE7CFECEFF0EFF0CFE1C45
:10076000FE98FC18FCD0F8D0F800F000E0A0F1A052
:10077000F171FB41FFBBFFBBFF76FF76FFBBFFB80C
:10078000FF41FF70FBA0F1A0F100E0000F0F1F0F71
:100790001F193F193F367F367F7DFF7DFF3E7F3E2D
:1007A0007F1F3F1F3F0F1F0F1F000F00F0D0F8D01B
:1007B000F818FC98FC1CFE0CFE0EFFCEFF7CFE7CA5
:1007C000FEB8FCB8FCD0F8D0F800F000E0A0F1A032
:1007D000F170FB41FFB8FFBBFF76FF76FFBBFFBBAD
:1007E000FF41FF71FBA0F1A0F100E0000F0F1F0F10
:1007F0001F1F3F1F3F3E7F3E7F7DFF7DFF367F36C1
:100800007F193F193F0F1F0F1F000F081000FE0038
:10081000FE38FE38FE38FE00FE00FE000000270015
:1008200027022700270227002700270000000000DA
:10083000FF1CFF38FE38FE00FC0000000000000036
:100840001301270027024F004F00000000000000A6
:100850000000FF1CFF00FC00000000000000000082
:10086000000013012F004F000000000000000000F6
:1008700000000000FF000000000000000000000079
:10088000000000004F000000000000000000000019
:100890000000FC1CFF00FF00000000000000000042
:1008A00000004F012F0013000000000000000000B6
:1008B000FC38FE38FE1CFF00FF00000000000000B6
:1008C0004F024F0027012700130000000000FEFC2C
:1008D000FE3CFE3CFE3CFEFCFE00FE00000027034A
:1008E0002702270227022703270027000000000015
:1008F000FFFEFF3CFEF8FE00FC00000000000000D0
:100900001301270227074F004F00000000000000DE
:100910000000FFFCFF00FC000000000000000000E1
:10092000000013012F004F00000000000000000035
:1009300000000000FF0000000000000000000000B8
:10094000000000004F000000000000000000000058
:100950000000FCFEFF00FF0000000000000000009F
:1009600000004F012F0013000000000000000000F5
:10097000FCF8FE3CFEFEFF00FF000000000000004F
:100980004F074F0227012700130000000000FCA8BA
:10099000FCA8FEA0FE80FE00FC00FC000000270278
:1009A0002702270227022702270027000000000055
:1009B000FE54FEA0FE00FE00F80000000000000053
:1009C0001301270227044F004F0000000000000021
:1009D0000000FE00FE00F800000000000000000023
:1009E000000013002F004F00000000000000000076
:1009F00000000000FE0000000000000000000000F9
:100A0000000000004F000000000000000000000097
:100A10000000F800FE00FE000000000000000000E2
:100A200000004F002F001300000000000000000035
:100A3000F800FEA0FE54FE00FE00000000000000D2
:100A40004F044F0227012700130000000000380068
:100A50007C00FE08FE08FE107C003800000020002C
:100A600020002000200020002000200000000000C6
:100A70001C00FE08FE20FE007000000000000000C8
:100A80001000200020004000400000000000000096
:100A900000001C00FE0070000000000000000000CC
:100AA00000001000200040000000000000000000D6
:100AB00000000000FE000000000000000000000038
:100AC00000000000400000000000000000000000E6
:100AD00000007000FE001C0000000000000000008C
:100AE0000000400020001000000000000000000096
:100AF0007000FE08FE08FE001C0000000000000060
:100B00004000400020002000100000000000FCF821
:100B1000FC00FCA8FCA8FCF8FC00FC00000027037B
:100B200027002702270227032700270000000000D4
:100B3000FEFCFEA8FCF0FC00F80000000000000035
:100B40001301270227074F004F000000000000009C
:100B50000000FEF0FE00F8000000000000000000B1
:100B6000000013032F004F000000000000000000F1
:100B700000000000FE000000000000000000000077
:100B8000000000004F000000000000000000000016
:100B90000000F8F0FE00FE00000000000000000071
:100BA00000004F032F0013000000000000000000B1
:100BB000F8F0FCA8FCFCFE00FE00000000000000B5
:100BC0004F074F0227012700130000000000F848DC
:100BD000FC48FC9CFE9CFE48FC48FC00F8003F01E1
:100BE0007F017F02FF02FF017F017F003F00F88845
:100BF000FC88FC1CFE1CFE88FC88FC00F8003F0200
:100C00007F027F05FF05FF027F027F003F00F8089B
:100C1000FC08FC1CFE1CFE08FC08FC00F8003F055C
:100C20007F057F0AFF0AFF057F057F003F00F80868
:100C3000FC08FC1CFE1CFE08FC08FC00F8003F0A37
:100C40007F0A7F14FF14FF0A7F0A7F003F00F80825
:100C5000FC08FC1CFE1CFE08FC08FC00F8003F140D
:100C60007F147F28FF28FF147F147F003F00F808BF
:100C7000FC08FC1CFE1CFE08FC08FC00F8003F28D9
:100C80007F287F50FF50FF287F287F003F00785843
:100C9000FC5CFEBEFFBEFF5CFE58FC0078003C30F2
:100CA0007E307E60FF60FF307E307E003C007858F2
:100CB000FC5CFEBEFFBEFF5CFE58FC0078003C30D2
:100CC0007E307E60FF60FF307E307E003C007858D2
:100CD000FC5CFEBEFFBEFF5CFE58FC0078003C30B2
:100CE0007E307E60FF60FF307E307E003C007840CA
:100CF000FC40FE80FF80FF40FE40FC0078003C305E
:100D00007E307E60FF60FF307E307E003C007840A9
:100D1000FC40FE80FF80FF40FE40FC0078003C303D
:100D20007E307E60FF60FF307E307E003C00784089
:100D3000FC40FE80FF80FF40FE40FC0078003C301D
:100D40007E307E60FF60FF307E307E003C00808021
:100D5000C0C0E0E0F0E0F0C0E080C00080003F3DB7
:100D60007F3D7F7BFF7BFF3D7F3D7F003F0080809D
:100D7000C0C0E0E0F0E0F0C0E080C00080003F3D97
:100D80007F3D7F7BFF7BFF3D7F3D7F003F0080807D
:100D9000C0C0E0E0F0E0F0C0E080C00080003F3D77
:100DA0007F3D7F7BFF7BFF3D7F3D7F003F008000DD
:100DB000C000E000F000F000E000C00080003F0252
:100DC0007F027F04FF04FF027F027F003F0080005C
:100DD000C000E000F000F000E000C00080003F0232
:100DE0007F027F04FF04FF027F027F003F0080003C
:100DF000C000E000F000F000E000C00080003F0212
:100E00007F027F04FF04FF027F027F003F16100075
:100E1000000000000000000000000080808080C012
:100E2000C0C0C0E0E0E0E0C0C0C0C0808080800002
:100E30000000000000000000000000040404040E94
:100E40000E0E0E1F1F1F1F3F3F3F3F7F7F7F7FFF05
:100E5000FFFFFF7F7F7F7F3F3F3F3F1F1F1F1F0E13
:100E60000E0E0E040404040000000000F0E0F01078
:100E7000F8D0F838FCB8FC7CFE7CFEFEFFFEFF7C60
:100E8000FE7CFEB8FCB8FC50F850F8A0F000F00072
:100E90000000000000000000070307000F070F001C
:100EA0001F0F1F003F1F3F007F2A7F153F153F0A7E
:100EB0001F0A1F050F050F0207000700000000F0C2
:100EC000F008F8D0F0A0E040C0FEFE01FFC6FE38FA
:100ED000F806FEF9FFC6FE38F870F08CFC02FEFC46
:100EE000FCC0C030F0CCFC02FEFCFC040407070888
:100EF0000F0F0F1E1F1D1F203F3F3F7C7F437FFFB3
:100F0000FF8FFF717F7E7F3F3F203F1B1F1C1F0F06
:100F10000F080F0707040400000000000080804055
:100F2000C020E010F008F804FC02FEABFF55FF0201
:100F3000FE04FC08F810F020E040C08080000000B3
:100F400000000004040606090F080F101F101F20E0
:100F50003F203F407F407FAAFFD5FF407F407F205A
:100F60003F203F101F101F080F090F060604040042
:100F7000000000000000000080008000C080C00071
:100F8000E0C0E000E0E0E000E0C0E000C080C000C1
:100F90008000800000000000000000000E040E0031
:100FA0001F0E1F003F1F3F207F2F7F70FF77FFF82E
:100FB000FFFBFF70FF77FF207F2F7F003F1F3F0069
:100FC0001F0E1F000E040E000000000000000000B5
:100FD0000000008080808040C040C0A0E0A0E040D1
:100FE000C040C08080808000000000000000000041
:100FF000000000040404040A0E0A0E151F151F2E1B
:101000003F2E3F5B7F5B7FB5FFB5FF5B7F5B7F2E36
:101010003F2E3F151F151F0A0E0A0E04040404007C
:10102000000000000000000000000080808080C000
:10103000C0C0C060E060E0C0C0C0C08080808000F0
:101040000000000000000000000000040404040E82
:101050000E0E0E1B1F1B1F353F353F6E7F6E7FDB55
:10106000FFDBFF6E7F6E7F353F353F1B1F1B1F0E63
:101070000E0E0E0404040400000000000000000036
:101080000000000080008080C080C0C0E0C0E08020
:10109000C080C00080008000000000000000000050
:1010A00000000000040004040E040E0E1F0E1F1B9F
:1010B0003F1B3F357F357F6EFF6EFF357F357F1BD2
:1010C0003F1B3F0E1F0E1F040E040E000400040100
:1010D00008000102030405060708090A0B0C0D0E9F
:1010E0000F101112131415161718191A1B1C1D1E98
:1010F0001F0A282040402090CCE2FA797D1717087B
:101100000A0505020201015050E8E8F4F4FAFA7DFC
:10111000BDF0F8F3F307037B7CFE7F0F03010602AB
:1011200003000000007D79FAE2CC902040402001CD
:1011300001020205050A081717BD7DFAFAF4F4E862
:10114000E850507FFE7C7B0307F3F3F8F0000000CB
:101150000003020601030F1710000000000000004A
:101160008080C0C0E0C0E0E0F0F0F870F878FCB833
:10117000FCDCFEDCFEEEFFECFE74FE70FC78FCF0A6
:10118000F8F0F8E0F000E000F8F8FEFEFFFFFF1FC7
:10119000FFE7FFFBFF7DFF1EFF0FFF07FF03FF03BE
:1011A000FF01FFFEFFFEFFFFFFFFFFFFFF00FFFF4E
:1011B000FFFFFF00FF00E0E0F0F0F8F0F878FC70CF
:1011C000FC74FEECFEEEFFDCFEDCFEB8FC78FC708E
:1011D000F8F0F8E0F0C0E0C0E080C000800000005F
:1011E00000000000FFFFFFFFFF00FFFFFFFFFFFF0A
:1011F000FFFEFFFEFF01FF03FF03FF07FF0FFF1EC0
:10120000FF7DFFFBFFE7FF1FFFFFFFFEFFF8FE0074
:10121000F8000000000000008080C0C0E0C0E0E0F6
:10122000F0F0F870F878FCB8FCDCFEDCFEEEFFECC9
:10123000FE74FE70FC78FCF0F8F0F8E0F000E000DE
:10124000F8F8FEFEFFFFFF1FFFE7FFFBFF7DFF1E1D
:101250007F0F1F070F0307030701FFFEFFFEFFFFBE
:10126000FFFFFFFFFF00FFFFFFFFFF00FF00E0E0C9
:10127000F0F0F8F0F878FC70FC74FEECFEEEFFDCA9
:10128000FEDCFEB8FC78FC70F8F0F8E0F0C0E0C0DE
:10129000E080C0008000000000000000FFFFFFFFB2
:1012A000FF00FFFFFFFFFFFFFFFEFFFEFF01FF0349
:1012B000070307070F0F1F1E3F7DFFFBFFE7FF1F01
:1012C000FFFFFFFEFFF8FE00F80F2000FF00FF0009
:1012D000FF00FF00FF00FFFFFF8FFF4FFF1FFFFF1B
:1012E000FF00FFFFFFFFFF00FF00FF00FF00FF0008
:1012F000FF00FF00FFFFFFFFFFFFFFFFFFFFFF00FB
:10130000FFFFFFFFFF00FF80FFC0FFC0FFE0FFE027
:10131000FFF0FFF7FFEFFFEFFF5FFF5FFF007F3F93
:101320007F1F3F003F0F1F070F070F030703070132
:1013300003010300010001000000000000000000A4
:1013400000000000FFFFFFFFFF00FFFFFF1FFF4F38
:10135000FF8FFFFFFF00FF00FF00FF00FF00FF0007
:10136000FF00FFFFFFFFFF00FFFFFFFFFFFFFFFF8B
:10137000FFFFFF00FF00FF00FF00FF00FF00FF0076
:101380003F1F3F3F7F007F5FFF5FFFEFFFEFFFF7F4
:10139000FFF0FFE0FFE0FFC0FFC0FF80FF000000A4
:1013A0000000000000000000000001000101030136
:1013B0000303070307070F070F0F1F0000000000BC
:1013C000000000000000FFFFFF8FFF4FFF1FFFFF27
:1013D000FF00FFFFFFFFFF00FF0000000000000014
:1013E00000000000FFFFFFFFFFFFFFFFFFFFFF0008
:1013F000FFFFFFFFFF00FF80C0C0E0C0E0E0F0E0C3
:10140000F0F0FFF7FFEFFFEFFF5FFF5FFF007F3FB1
:101410007F1F3F003F0F1F070F070F030703070141
:1014200003010300010001000000000000000000B3
:1014300000000000FFFFFFFFFF00FFFFFF1FFF4F47
:10144000FF8FFFFFFF00FF00000000000000000012
:101450000000FFFFFFFFFF00FFFFFFFFFFFFFFFF99
:10146000FFFFFF00FF000000000000000000000080
:101470003F1F3F3F7F007F5FFF5FFFEFFFEFFFF703
:10148000FFF0FFE0F0E0F0C0E0C0E080C00000004E
:101490000000000000000000000001000101030145
:1014A0000303070307070F070F0F1F0820000000A3
:1014B000000000000000FFFFFFFFFF00FF00000032
:1014C000000000000000FFFFFFFFFF00FF00000022
:1014D000000000000000FFFFFFFFFF00FF00000012
:1014E0000000000000007F1F3F1F3F001F00FFFFA4
:1014F000FFFFFF00FF000000000000000000FFFFF2
:10150000FFFFFF00FF000000000000000000FFFFE1
:10151000FFFFFF00FF0000000000000000001F1F91
:101520003F1F3F003F000000000000000000FFFFE1
:10153000FFFFFFFFFF00FFFFFFFFFF00FF00FFFFB8
:10154000FFFFFFFFFF00FFFFFFFFFF00FF00FFFFA8
:10155000FFFFFFFFFF00FFFFFFFFFF00FF00070788
:101560000F070F0F1F003F1F3F1F3F001F00FFFF10
:10157000FFFFFF00FFFFFFFFFFFFFF00FF00FFFF78
:10158000FFFFFF00FFFFFFFFFFFFFF00FF00FFFF68
:10159000FFFFFF00FFFFFFFFFFFFFF00FF001F1F18
:1015A0003F1F3F003F0F1F070F070F00070A208054
:1015B00080000050500000AAAA00000000000000B7
:1015C000000000AAAA000055550000AAAA000000C9
:1015D00000000000100000AAAA000055550000AA53
:1015E000AA000000000000000000000A0A00000538
:1015F00005000002020000000000000000000000E2
:10160000000000000000000000AAAA0000505000E6
:1016100000808000000010000000000000AAAA0066
:101620000055550000AAAA000000000000000000BC
:1016300000AAAA000055550000AAAA000000000058
:10164000000000000002020000050500000A0A0078
:101650000000A000000054000000AA000000550097
:101660000000AA000000AA00000055000000AA0027
:10167000000055001000AA000000AA00000055005C
:101680000000AA00000055000000AA000000AA0007
:101690000000550000002A000000150000000A00AC
:1016A000AA00000055000000AA000000540000003D
:1016B000A0000000AA00100055000000AA000000D1
:1016C00055000000AA000000AA000000550000001C
:1016D000AA00000055000000AA0000000A00000057
:1016E000150000002A00000055000000AA0000DEDE
:1016F0001CDB1C7D1C7A1C771C741C711C6E1C511D
:101700001CE11C4C163019231916192E1C0919FC42
:1017100018EF180B1CE218D518C818E81BBB18AE38
:1017200018A118C51B441A03081F111F121F101DF2
:10173000151711151F07041F17151D1F151D010172
:101740001F1F151F17151F03087F417F427F407918
:10175000494F41497F0F087F4F49797F49790101FE
:101760007F7F497F4F497F050800007E00007D7D17
:1017700000007F06067670707676760000F0F0F74F
:10178000000070707606060000760606FEFEFE007B
:1017900000000076000070707600000508FEFFFF74
:1017A000FFFEFEBFBFBFFEFEAFAFAFFEFEABABABFB
:1017B000FE07081F11151511111F07081F19191F02
:1017C0001F1F1F05080E1F1D190E020800FFFFFF37
:1017D0005D0880BEA2A280BEA2A2BE80BE84C990C7
:1017E000BE80BE8AEAE2F8FFFFFF80AEAAAABA80F6
:1017F000BEA2A29C80BE8AEAE288A29494A288FF3C
:10180000FFFF88A2BEA280BE84C990BE80BE8AEAC5
:10181000E280BEA2A2BE80FFFFFF80BE8AEAEE8009
:10182000BEA0AFAF80BE9292BE80EE88B88EE0FFC1
:10183000FF80BEA2AA94C09EA0A09EC082BE82F8D5
:1018400082BE82F880BEA2A2BE80BE84C990BE8045
:10185000FFFF80AEAAAABA80BEA2A2A280BE8888DC
:10186000BE80BEAAAAA280BE84E984BE80BEAAAA07
:10187000A280FFFFFFFFFF80B8B0AA868E80FFFF27
:10188000FFFFFF808E86AAB0B880FFFFFFFFFFFF3B
:10189000FFFFFFFFFFFFFFFFFFFF80AEAAAABA8096
:1018A000BEA2A2BE80BEA0A0BE80BE84C990BE80E3
:1018B000BEA2A29CC1FFFFFFFFFF80BEA2A2BE800E
:1018C000BE8AEAE280BE8AEAE2F8FFFFFFFFFF80FD
:1018D000BEA2A2BE80BE84C990BE80FFFFFFFFFFF4
:1018E000FFFFFFFFFFFFFFFFFF8040000000000041
:1018F00000000000000000000000000000000000E8
:10190000000000C0603058CC647266ECD8B060C093
:10191000E038C8EC74747474747474747474E4ECA3
:10192000ECE8E8D8D090B0206040C0808000000093
:101930008020202020202020202020202020202047
:1019400020208000000000000000000000000000D7
:101950000000000000000000000000000000000087
:101960000000000000000000000000000000000077
:10197000000000000000000000000000000080C027
:10198000406020A0B19B9E8C2E73F87F3F9FDE04A9
:10199000F00EE3FC3E1F0F2F2F2F5F3FFFFEFEFEDA
:1019A0007E7C3DBDB97BFBF7F7E6EE0CFD3B82F696
:1019B000ECE8DAB262CA82028282828282AA82AAB7
:1019C00000002A800000000000000000000000A0CD
:1019D0000808888888888888888888888888888887
:1019E000080808A000000000000000000080E030AF
:1019F000C8ECE4F4F6767676746448D8D8ECE7F070
:101A0000FA7B3B93C79FBF3F4FE03E03017C833887
:101A10007F70E7EFEFEFCFDEDEDEDEDE9FBFBFBC25
:101A2000BC7C7C78787370FF7F1FC3388FE0FFFF2A
:101A3000FFFFFFFFFF7C81FE3800000000000080F8
:101A40002008A8AA28282828A828282828A8088AFA
:101A5000280A08A08A8080808080808080AA808078
:101A6000AA0000AA0000000000000080807FC01EC5
:101A70007FFFFFE1CC9EB3A1A1B192DCC1FFFF8348
:101A8000FCB8E79F7FFFFFFFFEFDFAFA3A89E5E623
:101A9000E8CEDEDEDEDDBDBDBD797B7BFBF3F77717
:101AA00067EFEFEFCF5F5E5E5E4F617C7F477379DC
:101AB000FDFDFDFD7D787B7A7A7A7274E4C890B280
:101AC000C0888A20202020222220202802A028024C
:101AD0000000000228A080000000000000000000BC
:101AE000000000AA00808080808080808080810348
:101AF000F2FE05F5F7FBFBFBFBFDFDFDCDCEE6663B
:101B0000666666680FECF5FBFBFDFDFDEDCDCD8D4A
:101B10008B37C7FBFDFDFEFEFEFF03E7E6CE9E9D75
:101B2000C23EDAE5F6F7F7F3F37373FFFFFFFFFF4B
:101B3000FEFEF900FFFFFFFFFFFFFF0FE626C6FED8
:101B4000FEFEFEFDFAF408D0E8F4FAFAFAFAFA1A00
:101B5000FAFAF4E8907088F6F4F4E8E8E8E8D0A03F
:101B6000A0A0A0AAA040800080808020202020206B
:101B7000231FFEE11FFFFFFFFFFFFFFFFFE01C66CB
:101B800042424242A7AC3BD3C7CFCFDFFFFFFF7F2C
:101B90007FFE19171F1FDFDFBF3FF0B7FB1D1E1EA3
:101BA00011D05FDFBF7FFFBFFF3C3C1FDFDFBF3FC8
:101BB000FFBFFD101F1F1FFFFF1F1F1C1BD8DFBF14
:101BC0003FFF9FCFCF63F0CF3F7FFFFFFFFFC7C631
:101BD000C7E7777703F0FFFFFFFFFFFFFF07F3196A
:101BE0000919131313180F20202020A2A2A2A2A2C9
:101BF000A2A2A18F3EF1CFCFCFCF4FC7A7A7A6A755
:101C0000B3B3B3B3B3B9A9ACA4A4A4A4A4A4A4A625
:101C1000A2FF80808080BFB2DBCFF0BFFF808080DA
:101C200080F7CE8CB7F8AFBFF0C0C080BFB2DBCFBB
:101C3000F0AFFF80808080FFFF80808080BFB4DBBA
:101C4000CFF0BFA2A2A2A2A3A3A2A4A4A4A4A4A4CE
:101C5000A4A4A2AEB0B3B3A7A7A7A727B89FA7A075
:101C6000A2A2A2A2A2A2A2A2A2A2A2AAAAAAAAAA2C
:101C7000AAAAAAAAAAAAAAAAA8873CFF00000000AA
:101C80000000000000000000000000000000000054
:101C90000000000000000000000000000000000044
:101CA0000000000000000000000000000000000034
:101CB0000000000000000000000000000000000024
:101CC0000000000000000000000000000000000014
:101CD0000000000000000000000FA0AAAAAAAAAA03
:101CE000AAAAAAAAAAAAAAAAAAAAAA1E1800C03878
:101CF000C6E9ADE1D1DDDDE1FDFDFDFDFDFDFDFD53
:101D0000FDFDFDF5BDF9C638C21502004106080803
:101D1000C84848D000F81FDF5F5F9F3FFF18C050E2
:101D20004808080808666100082050885020038190
:101D30003943988A888B88898A888A889B423A03A3
:101D4000401238100002006018000000000000007F
:101D50000000000000000000000000000000000083
:101D6000007F415D55577F416D6D517F4155555DF8
:101D70007F416D6D417F057D417D057F4155555DFD
:101D80007F415D5D633E007F415D55497F1177472F
:101D9000711F0000000000000000000000000000B3
:101DA0000000000000000000000000000000007FB4
:101DB000416D6D417F007F4175151D7F417F5155FC
:101DC00055457F417777417F007F415D55577F4182
:101DD0006D6D417F415F50507F415F50507F415555
:101DE000555D7F415D5D633E007F415F685F417F80
:101DF000416D6D417F417B77417F415D5D637F41F7
:101E00006D6D417F0000000000007F416D6D417FDE
:101E1000417B77417F415D5D633E007F417D137D66
:101E2000417F416D6D417F417B77417F11774771E4
:101E30001F007F417D137D417F416D6D417F417B5F
:101E400077417F117747711F007F415D5D417F05BD
:101E50007D417D057F417777417F4155555D7F41CC
:101E60006D6D517F515555457F0308007F3E7F00C2
:101E70007F80401020208040104849204D4154541C
:101E80002041524520594F5520494D5052455353FA
:101E90004544203F2020200048454C4C4F204152D3
:101EA0004455424F5900484156452041204E494330
:101EB00045204441590047414D45204F5645520069
:101EC000001F111F111F101D151711151F07041FCB
:101ED00017151D1F151D01011F1F151F17151F00A9
:101EE0000A00100A00040A110A0A0A110A0401155C
:101EF000020E17161F051F1F150A1F11111F110EA5
:101F00001F15111F05011F111D1F041F111F11197E
:101F1000111F1F06191F10101F071F1F011F1F1160
:101F20001F1F05070F091F1F051A17151D011F0188
:101F30001F101F0F100F1F1C1F1B041B071C07194E
:101F40001513180000050010001B00210026006C6E
:101F50000074007D008C00A700AC00B100C000CF71
:101F600000F000F600FC000B0111015A016201664D
:101F7000016C010612001640009D249F41FA0DA736
:101F800041F419A314A3FE41F40DA30DA314A31946
:101F9000A3FEFD0201FC02FEFC01FC02FEFC02FDB0
:101FA0000103FC044CFEFC044CFCFC044DFC04FD51
:101FB0000103FC044CFEFC044CFCFC044C03FC043C
:101FC000FD01034C07FC044C05FC044C03FD01041B
:101FD000FD01034C07FC044C05FC044C03FC044DC0
:101FE000FC04FE4030FD0203FD02019E07130017B2
:101FF000FD01059F31A72FA731A72CA728A72CA744
:1020000025AFFE31A733A734A733A734A731A733B1
:10201000A731A733A72FA731A72FA731A7FE2DA739
:1020200031AFFE33A734AFFE38A736A738A734A7A1
:102030002FA734A72CAFFE31A72FA731A72CA72895
:10204000A32CA725B3FE31A733A734A733A334A706
:1020500034A731A333A731A333A733A72FA331A7C5
:102060002FA331A731A3FEA32DA331AFFEA333A32A
:1020700034AFFE38A736A738A734A72FA334A72C30
:10208000B3FE4000DFDFDFCF403041E8FD0108FC58
:1020900009FC0AFD0108FC09FC0BFD010C4C07FCC6
:1020A00009FC0A4DFD010C4C07FC09FC0B4DFD0120
:1020B0000DFC0EFC0FFD010DFC0EFC10FD01114C82
:1020C00007FC0EFC0F4DFD01114C07FC0EFC104DE2
:1020D0009F4904402041FAAFFEFD0314FEFD0215A6
:1020E000FD0214FC14FD0F15FC14FD0F159F0000DC
:1020F00006011501260137014A015D0172018801BF
:102100009F01B801D201EE010B022A024B026E02BE
:102110009302BA02E40210033F037003A403DC033A
:10212000170455049704DD0427057505C805200626
:102130007D06E0064907B8072D08A9082D09B90949
:102140004D0AEA0A900B400CFA0CC00D910E6F0F6D
:102150005A1053115B1272139A14D4152017801859
:10216000F519801B231DDE1EB420A622B524080B02
:102170000002020200000904000001020200000542
:10218000240010010524010101042402060524068F
:1021900000010705810310004009040100020A0044
:1021A000000007050202400000070583024000000E
:1021B0000403090412010002EF02014041233680AA
:1021C00000010102030141726475696E6F204C4C7D
:1021D000430041726475696E6F204C656F6E617269
:1021E000646F00D5F08D14A1C881CFD9F1AF200064
:1021F00004000003000B001C000100000040009FD1
:102200009DA04030FD07029FFC034CFBFC034CFDEE
:10221000FC034CFFFC034C00FE41FC25AF29AF2C16
:10222000AFFE58181B18C320DB170B1FE41E182322
:10223000FE22831FEF22CB2250224D16F02D1124B7
:102240001FBECFEFDAE0DEBFCDBF11E0A0E0B1E00E
:10225000EEE2F0E602C005900D92A433B107D9F783
:1022600028E0A4E3B1E001C01D92AF36B207E1F768
:1022700011E1CFE1D1E104C02197FE010E940830B5
:10228000CE31D107C9F70E940F2E0C9415300C9453
:1022900000008130A9F028F0823019F1833059F123
:1022A000089586E0689FF0011124E15CF74F828178
:1022B00093810197938382838081918102970EC0DD
:1022C00086E0689FF0011124E15CF74F82819381E1
:1022D0000197938382838081918102969183808389
:1022E000089586E0689FF0011124E15CF74F828138
:1022F00093810196EECF86E0689FF0011124E15CA6
:10230000F74F828193810196D5CFFC01809117060A
:10231000882311F13FB7F89482E08093E90020917F
:10232000F200822F90E01816190614F481E090E074
:10233000882339F0289844E6409316064091F1002E
:102340004083222339F02091F200211103C02BE6B3
:102350002093E8003FBF08958FEF9FEF08952FB7B8
:10236000F89483E08093E9009091E800892F8072CF
:1023700095FF04C09091F20080E4891B2FBF08955F
:1023800080910E0681110DC082E080930A0684E0E0
:1023900080930B0610920D0610920C0681E080933C
:1023A0000E068AE096E008953FB7F89480910606FD
:1023B00090910706A0910806B091090626B5A89B42
:1023C00005C02F3F19F00196A11DB11D3FBFBA2FC7
:1023D000A92F982F8827BC01CD01620F711D811D87
:1023E000911D42E0660F771F881F991F4A95D1F70C
:1023F00008958F929F92AF92BF92CF92DF92EF9209
:10240000FF926B017C010E94D4114B015C01C1144D
:10241000D104E104F104B9F00E94D41168197909DA
:102420008A099B09683E73408105910580F321E08C
:10243000C21AD108E108F10888EE880E83E0981EE0
:10244000A11CB11CE4CFFF90EF90DF90CF90BF9024
:10245000AF909F908F90089565E070E080E090E0ED
:102460000C94F9114091F5015091F6012091F3017E
:102470003091F40142175307B4F49091E80095703D
:10248000E1F39091E80092FD19C08093F1008091F2
:10249000F5019091F60101968F739927892B19F414
:1024A0008EEF8093E8008091F5019091F6010196FE
:1024B0009093F6018093F50181E0089580E00895FE
:1024C000DF92EF92FF920F931F93CF93DF93D82E5B
:1024D0008A01EB017B01E40EF51ECE15DF0559F0F4
:1024E000D7FE12C0FE0184910E9432122196811102
:1024F000F4CF0FEF1FEFC801DF91CF911F910F9124
:10250000FF90EF90DF9008958881EECF0F931F9397
:10251000CF93DF931F92CDB7DEB782E0898342E489
:1025200050E06EE671E280E80E9460120E94C011E5
:10253000DC0112960D911C910115110589F0D8014D
:10254000ED91FC910280F381E02DBE016F5F7F4F22
:10255000C801099597FD04C0F80100851185ECCFED
:1025600089810F90DF91CF911F910F910895615054
:1025700030F02091F100FC0120830196F8CF2898DB
:1025800084E68093160608958F929F92AF92BF9231
:10259000CF92DF92EF92FF920F931F93CF93DF932F
:1025A0006C017B018A0180910D01882309F45CC0D4
:1025B00080911706882309F457C08091F90180FFA4
:1025C00005C08091E00082608093E000E801B12CBA
:1025D0008AEFA82E93E0892E2AE3922E209711F4F9
:1025E000BB20D9F10E94AF1181110AC0AA94AA2080
:1025F000D9F161E070E080E090E00E94F911EECF47
:102600008C171D0611F00CF08C2F9FB7F894809258
:10261000E9002091E80025FD02C09FBFDFCF282FF1
:1026200030E0C21BD30BF701815020F04191409361
:10263000F100FACFE20EF31EBB2021F09092E800E9
:10264000B12CEBCF8091E80085FDE7CF9092E800B8
:10265000BB24B394209709F3F3CF5D9884E680936D
:10266000F801101611063CF081E090E0F60193832A
:10267000828310E000E0C801DF91CF911F910F919C
:10268000FF90EF90DF90CF90BF90AF909F908F9092
:102690000895CF93DF931F92CDB7DEB76983DC0136
:1026A000ED91FC910280F381E02D41E050E0BE010C
:1026B0006F5F7F4F09950F90DF91CF91089583E071
:1026C0008093E9008091F200882319F08AE38093D7
:1026D000E80008950E94AF1190E00895CF93DF9332
:1026E0001F92CDB7DEB7FC018485958597FD08C0A4
:1026F0002FEF3FEF358724870F90DF91CF9108951B
:10270000CE0101960E948511019719F4898190E00C
:10271000F3CF8FEF9FEFF0CF0F931F93CF93DF9304
:102720001F92CDB7DEB78C01FC018485958597FF9C
:102730000BC0CE0101960E948511019771F4898129
:1027400090E0F80195878487F801848595850F903E
:10275000DF91CF911F910F9108958FEF9FEFF1CFF0
:10276000FC018485958597FD0BC09FB7F89482E0A6
:102770008093E9008091F2009FBF90E00196089558
:102780009FB7F89482E08093E9008091F2009FBFA8
:1027900090E0089590E0880F991FE0911407F09160
:1027A0001507E80FF91F8591949120911207309138
:1027B0001307820F931F08954F925F926F927F923B
:1027C0008F929F92AF92BF92CF92DF92EF92FF9241
:1027D0000F931F93CF93DF934C015901FC2DC02F12
:1027E000D0E0CE01880D991D181619060CF06CC0AA
:1027F00020E8821691040CF067C09B012E0D311D5C
:10280000121613060CF060C0603471050CF05CC049
:102810004115510509F458C0E62FE770FE2EDB0183
:1028200077FD179633E0B595A7953A95E1F73A2FDE
:1028300077FF04C0FF2011F03FEF3A0F662777279C
:102840006819790997FC02C070E060E08038910552
:102850000CF44BC090E89819961BA32F032E000C84
:10286000BB0B1A2F10953F3F0CF010E021E08E2D8E
:10287000877009F420E0E694E694E694E20EAE0D4B
:10288000B11D19971CF028E0E22EE31AE11A310F6E
:1028900020E83203D0011124A80DB91DA60FB71FDF
:1028A000019F600D711D1124460F571F0F2D0F2C16
:1028B000000C110BF33009F41CC1C8F4F13009F419
:1028C000D0C0F23009F47CC0DF91CF911F910F91FD
:1028D000FF90EF90DF90CF90BF90AF909F908F9040
:1028E0007F906F905F904F900895902FB5CFFA3FF3
:1028F000B1F1232F2E0DFB3F39F7321729F3BD011C
:1029000061507E4FD12CC12CC91608F0A4C0FA0129
:10291000EC0DFD1DE491F0E04F01002E02C0880C8B
:10292000991C0A94E2F737FD06C0FB018081E82C70
:10293000E0948E218083FF2061F0373054F45B01F6
:10294000F0E8AF0EB11CE92CE094F50180818E21F6
:102950008083FFEFCF1ADF0A6F5F7F4FD5CF232F22
:102960002E0D321709F4B0CFBD0161507E4FD12C2E
:10297000C12CC91608F069C0FA01EC0DFD1DE491E7
:10298000F0E04F01002E02C0880C991C0A94E2F777
:1029900037FD04C0FB01808188298083FF2051F02E
:1029A000373044F45B01F0E8AF0EB11CF5018081D3
:1029B00089298083FFEFCF1ADF0A6F5F7F4FD9CF5E
:1029C0006FEF70E00F2C02C0660F771F0A94E2F7DA
:1029D00060957095772E232F2E0D321709F474CF42
:1029E000FD01E150FE4F6F01B12CA12CA91638F565
:1029F000FA01EA0DFB1DE491F0E02F01002E02C068
:102A0000440C551C0A94E2F737FD05C0F60180819D
:102A1000862384298083FF2059F037304CF4460107
:102A2000F0E88F0E911CF401808187218529808335
:102A3000FFEFAF1ABF0A8FEFC81AD80AD7CF3F5F90
:102A40004C0F5D1FA058BF4FC8CF3F5F4C0F5D1F9D
:102A5000A058BF4F86CF3F5F4C0F5D1FA058BF4FA0
:102A60004CCF6A0D7B1D232F2E0D321709F42CCF6E
:102A7000FD01E150FE4F6F01B12CA12CA91688F584
:102A8000FB01EA0DFB1D8490912C002E02C0880CE6
:102A9000991C0A94E2F780949094FA01EA0DFB1DC8
:102AA0006490712C002E02C0660C771C0A94E2F729
:102AB00037FD05C0F6018081882186298083FF20AB
:102AC00049F037303CF4F601E058FF4F808189210E
:102AD00087298083FFEFAF1ABF0A8FEFC81AD80A81
:102AE000CDCF3F5F4C0F5D1F6C0F7D1FA058BF4FB8
:102AF000BCCFC92ED12CFA01E60FF71FA150BE4F53
:102B000000E810E00C191D09CC19DD09BE01660FA3
:102B1000771F41E050E06A010F2C01C0CC0C0A94F1
:102B2000EAF7592F2E2D792ECF93DF93ED01EF96F3
:102B3000EF9622968590A590FF2059F08C9C40013D
:102B4000AC9C500137302CF4E880B094EB20E9289D
:102B5000E99233233AF0EC90A094EA20E828ED9231
:102B60000C94B31511965A9529F72A9551F0572DC3
:102B700033951124E60FF11DA00FB11DC00FD11D1B
:102B8000D9CFDF91CF9111249FCECF92EF920F93A7
:102B9000FA0104913196E4904E5F5F4F2223F9F0E1
:102BA000A1E0B0E03E2D377011F4B0E0A0E0EE2DD2
:102BB000E695E695E695EA0FFB2FF11D0E9FD001F5
:102BC0000F9FB00D112430E0220F331FA29FF001A0
:102BD000A39FF00DB29FF00D11244E0F5F1F23E055
:102BE000C22E30E020E00E94DC130F91EF90CF90D6
:102BF0000895CF92EF920F93CF93DF93DC01FA0108
:102C000004913196E4904E5F5F4F2223D1F0C1E0F2
:102C1000D0E09E2D977011F4D0E0C0E0EE2DE69547
:102C2000E695E695EC0FFD2FF11D0E9FE0010F9F3D
:102C3000D00D11242C9FC0012D9F900D1124480F01
:102C4000591F8AEFC82E30E020E0CD010E94DC132E
:102C5000DF91CF910F91EF90CF9008958FB1809534
:102C6000807F669B88601C9B846008951092F201AF
:102C70003E983F9808953E9A3F9A81E08093F201F2
:102C800008959091FF05982329F4909100069823C8
:102C900081E009F480E008950895089596E0899F01
:102CA000F0011124E15CF74F8481282F30E093E09C
:102CB000359527959A95E1F72370660F6150260F99
:102CC000220F220F220F2871877E282B248308953C
:102CD000E091E30686E0E89FF0011124ED5DF94FF5
:102CE00081818F7D81830895CF92DF92EF92FF9251
:102CF00080915101823059F480914F088770823061
:102D000009F453C048F48823D9F08130B9F1FF9019
:102D1000EF90DF90CF900895833009F46DC0843038
:102D2000B1F70E9468168091EB019091EC01A0919F
:102D3000ED01B091EE0188539F4FAF4FBF4F15C0CB
:102D400080911E0685FDE3CF806280931E060E945F
:102D500068168091EB019091EC01A091ED01B0918A
:102D6000EE018C599F4FAF4FBF4F8093EB01909373
:102D7000EC01A093ED01B093EE01C9CF80911E0646
:102D8000982F9871983119F2885F80931E060E94DF
:102D900068168091EB019091EC01A091ED01B0914A
:102DA000EE010A96A11DB11DE0CF80911C06C090D6
:102DB000EB01D090EC01E090ED01F090EE0183305A
:102DC00098F48F5F80931C060E94681684E1C80EF9
:102DD000D11CE11CF11CC092EB01D092EC01E092FD
:102DE000ED01F092EE0193CF0E94681682E3C80EC7
:102DF000D11CE11CF11CEFCF80911E06982F97701B
:102E0000973009F484CF8F5F80931E060E94681666
:102E10008091EB019091EC01A091ED01B091EE0158
:102E20004E96A11DB11DA1CFA091F001B091F1016D
:102E3000AA0FBB1F2A9FF0012B9FF00D1124660FD4
:102E4000771F57FD2CC0443051054CF442305105DA
:102E5000E9F04330510519F14130510551F0680F47
:102E6000791FE75AFF4F81E0E617F70774F480E017
:102E70000CC09C01261B370BB9012FE030E02E1B44
:102E80003F0B81E06217730794F30895EA54FF4FF4
:102E9000680F791F81E0E617F707BCF3E8CF9C01C4
:102EA000261B370BB9012FEA3FEF2E1B3F0B81E0AA
:102EB0002617370754F7DBCF50E021E00E941417A4
:102EC000882379F190911D0620911F06392F3370C8
:102ED0003230E9F1333009F459C0313019F1223080
:102EE00001F5E091E30626E0E29FF0011124ED5D9B
:102EF000F94F208124FF15C020FD13C090629093EC
:102F00001D062BE130E0309319062093180620911E
:102F1000F0013091F101225E3F4F30931B06209368
:102F20001A0608952A30E9F7E091E30626E0E29FC9
:102F3000F0011124ED5DF94F208125FFF2CF21FD35
:102F4000F0CF906290931D062BE430E0DCCF263169
:102F500041F7E091E30626E0E29FF0011124ED5DE8
:102F6000F94F208126FFDDCF22FDDBCF90629093C9
:102F70001D062BE430E030931906209318062091AB
:102F8000F0013091F1012A5C3F4FC7CF2E3049F656
:102F9000E091E30626E0E29FF0011124ED5DF94F98
:102FA000208127FFBECF23FDBCCF906290931D06EA
:102FB0002BE130E0E0CF20E047E45DE164E170E048
:102FC00080E190E00E94F9158CE00E944116811189
:102FD00010920F0108958091FB0180FD0AC080913D
:102FE0004E0190914F019F5F90934F0181508093CC
:102FF0004E0180914F01803218F084E180934F019F
:1030000080914E01853118F480E280934E0108953D
:1030100020E049EE58E170E060E090E080E00E943E
:10302000F91520910F0140ED57E168E370E081E16F
:1030300090E00C94F915CF93DF93C09152018CE08E
:10304000C89FC02D1124CF5B0E9408180E94EB1767
:10305000D0E080914F0120E049E65EE168E370E056
:103060008C0F9D2F911D0E94C51580914E0120E06F
:1030700049E65EE168E370E08C0F9D2F911D0E9490
:10308000C51580E40E944116882319F084E08093DE
:10309000520180E20E9441168111109252018CE08F
:1030A0000E944116811110920F01DF91CF91089576
:1030B0000F931F93CF930E9408180E94EB17C091A3
:1030C000010188E1C89F8001112480914F0120E017
:1030D00049E65EE168E370E0800F912F911D0E9448
:1030E000C51580914E0120E049E65EE168E370E09D
:1030F000800F912F911D0E94C51580E40E944116FA
:10310000882329F0C33018F4CF5FC093010180E217
:103110000E944116882339F080910101882319F01B
:103120008150809301018CE00E944116882329F090
:10313000809101018F5F80930F01CF911F910F91BB
:1031400008956091F0017091F1016A5C7F4F23E076
:103150004BEA54E18DE190E00C94C5156091F001CB
:103160007091F1016A5C7F4F23E049EC52E18EE0FF
:1031700090E00C94C5156091F0017091F1016A5DC9
:103180007F4F23E047E551E18EE090E00C94C515B8
:103190006091F0017091F1016A5C7F4F22E04BEA8F
:1031A00054E181E590E00C94C5156091F0017091B7
:1031B000F1016A5C7F4F22E049EC52E189E590E041
:1031C0000C94C5156091F0017091F1016A5D7F4F1B
:1031D00022E047E551E181E590E00C94C51560914E
:1031E000F0017091F1016B5E7F4F21E04BEA54E1F9
:1031F0008FE590E00C94C5156091F0017091F1019C
:103200006B5E7F4F21E049EC52E180E590E00C9449
:10321000C5156091F0017091F1016B5F7F4F21E066
:1032200047E551E180E590E00C94C5156091F0010F
:103230007091F1016B5E7F4F20E04BEA54E180E139
:1032400090E00C94C5156091F0017091F1016B5EF6
:103250007F4F20E049EC52E188E190E00C94C515E5
:103260006091F0017091F1016B5F7F4F20E047E5C5
:1032700051E180E190E00C94C5158F929F92AF923E
:10328000BF92CF92DF92EF92FF920F931F93CF9353
:10329000DF930EEF1FEFD0E0C0E0E090F001F09080
:1032A000F101B701675E7F4F6C0F7D1F20E041EF9A
:1032B00050E1C8010E94F915B7016C1B7D0B21E09C
:1032C00041EF50E1C801CE960E94F9152597065F9F
:1032D0001F4FC23E8FEFD80701F783E7C82E81E06A
:1032E000D82EE601AA24A394B12C10E000E096E2C7
:1032F000E90EF11C28814FEC50E14701811A910839
:10330000B401CE01835791400E94F91529814FECF9
:1033100050E1B401C5010E94F9150D3150F51F5F50
:103320000F5F2296E2E0AE0EB11C0B3319F78091CD
:10333000FB019091FC0187709927892B69F480919A
:103340007301F601918191936F01FBEECF16F1E0CD
:10335000DF06B9F78093EB01DF91CF911F910F91B9
:10336000FF90EF90DF90CF90BF90AF909F908F90A5
:1033700008951150D5CF9F92AF92BF92CF92DF9216
:10338000EF92FF920F931F93CF93DF9300E310E030
:10339000D0E0C0E0A12C83E0982E7801D12CC12C84
:1033A000B12C4091F0015091F10182E0B81242C07D
:1033B000A81240C09091E3068091530198133AC03F
:1033C00080914D012091FB013091FC012770332742
:1033D000232B31F48F5F692D0E94D42F90934D01E0
:1033E00020914D012B5FBA016D5C7F4F4DE05EE097
:1033F00080E390E00E94C515B39486E0C80ED11C0E
:103400008CE0E81AF10885E0B812CBCFA394269699
:10341000045F1F4FCE31D10509F0BFCFDF91CF91AF
:103420001F910F91FF90EF90DF90CF90BF90AF90E2
:103430009F900895BA01655E7F4F6C0D7D1D6C0FE6
:103440007D1F20E04DE05EE0C701D4CF0F931F93B6
:10345000CF93DF930E943D190E94BB19C4EED6E0C2
:1034600002E117E0E991F0E0EE0FFF1FE151F94EA4
:1034700085919491FC0109950C171D0799F7DF912F
:10348000CF911F910F9108950895BF92CF92DF922F
:10349000EF92FF920F931F93CF93DF9326E0829FCB
:1034A000F0011124ED5DF94FE180F12C3DE0839FA7
:1034B000A0011124CFE3D8E007E010E0862F81506F
:1034C000990BDC01AA0FBB1FAF5EBE4F4F5E5F4F73
:1034D00025E0C22E36E0D32E6CE0B62E1C82C7014A
:1034E000002E02C0959587950A94E2F780FF36C0BA
:1034F0008D919C911197FA01E01BF10BE80FF91FD8
:10350000249130E083E0359527958A95E1F7822F65
:10351000E491293108F4EC836C2D0E94D42F8D9D09
:10352000B00111246C5F7F4F621B730BB69EF001DC
:10353000B79EF00D11243396F983E883D29EB00133
:10354000D39E700D11246E5E7F4F28EE382F23031B
:10355000C0011124860F971F9B838A8326960150F2
:10356000110908F0BBCFDF91CF911F910F91FF9010
:10357000EF90DF90CF90BF9008959AEA899FA001C5
:10358000112485E591E0689F9001699F300D112419
:10359000CA01820F931F8FEC890F90E064E095952C
:1035A00087956A95E1F7982F990F990F890F241B3A
:1035B000350B92E1930F92959F70890F08950F93A9
:1035C000CF93C22F57FD20C0443051054CF44230F8
:1035D0005105B9F043305105B9F04130510571F052
:1035E000645088500E94BD1A80935001E0915001B0
:1035F000E93168F080E0CF910F9108956450885FC1
:10360000F1CF6D5F8A5FEECF6D5F8650EBCFF0E05C
:10361000EC51F94F8285809351018B3159F3CC23C2
:1036200021F0893039F381E0E6CF011113C08823FE
:1036300009F38930C1F780911D0683FDF4CF909185
:103640001C06915090931C06992339F08860809352
:103650001D06E9CF813069F7CDCF877F8061F7CF35
:10366000E091EF01E150FF0BEE0FFF1FEF5EFE4F09
:103670000190F081E02D339684919091E306282FFC
:1036800030E035952795359527952F71332792177B
:10369000130611F4837008950895CF9390911E0638
:1036A00095FF36C0C82F0E94301B282F8C1330C0C6
:1036B00090911E06905290931E064091EB015091FE
:1036C000EC016091ED017091EE0148515C4F6F4F3C
:1036D0007F4F4093EB015093EC016093ED017093A9
:1036E000EE01E091E30686E0E89FF0011124ED5D34
:1036F000F94F81E090E0A0E0B0E004C0880F991F8E
:10370000AA1FBB1F2A95D2F78095908189238083B9
:10371000CF910895CF9390911E069871A1F1C82F73
:103720000E94301B8C1779F180911E06885080937F
:103730001E068091EB019091EC01A091ED01B091FA
:10374000EE01C296A11DB11D8093EB019093EC0197
:10375000A093ED01B093EE01E091E30686E0E89FCF
:10376000F0011124ED5DF94F81E090E0A0E0B0E0C0
:1037700004C0880F991FAA1FBB1FCA95D2F7809556
:10378000908189238083CF910895CF93DF93C09157
:10379000F001D091F101BE01605D7F4F23E04DEA61
:1037A00055E183E190E00E94C5150E94301B8330F3
:1037B00061F4BE016F5C7F4F23E04DEA55E183E188
:1037C00090E0DF91CF910C94C515DF91CF910895D2
:1037D000CF93DF93C091F001D091F101BE01605D04
:1037E0007F4F22E04DEA55E189E590E00E94C51542
:1037F0000E94301B823061F4BE016F5C7F4F22E07B
:103800004DEA55E189E590E0DF91CF910C94C51523
:10381000DF91CF910895CF93DF93C091F001D091C4
:10382000F101BE01615F7F4F21E04DEA55E185E581
:1038300090E00E94C5150E94301B813061F4BE01EA
:10384000605F7F4F21E04DEA55E185E590E0DF9133
:10385000CF910C94C515DF91CF910895CF93DF934D
:10386000C091F001D091F101BE01615F7F4F20E076
:103870004DEA55E188E190E00E94C5150E94301B99
:1038800081110CC0BE01605F7F4F20E04DEA55E121
:1038900088E190E0DF91CF910C94C515DF91CF9135
:1038A0000895089596E0899FF0011124E15CF74F97
:1038B0002481222391F02770628173818091F0012D
:1038C0009091F101680F791F675F7F4F808191812F
:1038D0004DE05EE003970C94C515089587E00C94C5
:1038E000521C86E00C94521C85E00C94521C84E01F
:1038F0000C94521C83E00C94521C8091FB0190911B
:10390000FC0187709927892B41F4809150088F5FC3
:1039100066E00E94D42F9093500880914F088770E2
:10392000282F220F280F220F80915008280F609116
:103930004D0870914E088091F0019091F101680F4F
:10394000791F6A5F7F4F80914B0890914C084BE044
:1039500058E004960C94C51596E0899FF001112457
:10396000E15CF74F8481282F30E087708130C1F00F
:1039700018F08230C1F0089593E0359527959A9517
:10398000E1F72370628173818091F0019091F101E0
:10399000680F791F49E853E0808191810C94C51527
:1039A00025812C5FEFCF83E0359527958A95E1F748
:1039B0002370285FE7CF81E00C94AC1C80E00C946E
:1039C000AC1CEF92FF920F931F93CF93DF938091E4
:1039D0001D06182F1370012F000F87FF1CC0D0E0A9
:1039E000C0E0E02EF12C60911A0670911B06665023
:1039F00071096C0F7D1F6E197F09809118069091D7
:103A0000190620E047E253E004970E94C515289666
:103A1000C831D10541F780911D0660911A06709159
:103A20001B0624E084FD07C082FF0DC060911A06CA
:103A300070911B06212F45E451E08091180690916A
:103A400019060E94C51580911D0687FF1BC0D0E096
:103A5000C0E010E060911A0670911B066E5F7F4F08
:103A60006C0F7D1F601B710B8091180690911906D9
:103A700021E047E253E004970E94C5152896C8311B
:103A8000D10541F7DF91CF911F910F91FF90EF90FA
:103A9000089540911D06842F807629F0809120069C
:103AA0008F5F809320068091F0019091F101437027
:103AB0002091180630911906423081F14330D1F13E
:103AC0004130A1F097FF08C001969093F1018093D7
:103AD000F0012250310913C080911A0690911B0603
:103AE000019790931B0680931A06F3CF97FF0CC0A3
:103AF00001969093F1018093F0012E5F3F4F309338
:103B0000190620931806089580911A0690911B06B5
:103B1000019790931B0680931A06EFCF833E4FEFD9
:103B2000940714F00197E5CF80911A0690911B0637
:103B30000196EFCF833E4FEF940714F00197C5CF66
:103B400080911A0690911B060196CBCFEF92FF92BF
:103B50000F931F93CF93DF931092720021E030E018
:103B600030934C0120934B01E7E1F7E048EDDF0192
:103B70001D924A95E9F740EF4093100149E14093C7
:103B8000160741E752E050934A01409349013093B0
:103B90004601209345013093DF072093DE0722E49E
:103BA0002093C00021E02093C1002FEF2093D1008B
:103BB00020E82093CF00EC012196FC018491D09362
:103BC0001507C093140790E0880F991FC80FD91FDD
:103BD000CE010496909313078093120737E1E32EEA
:103BE00037E0F32E10E000E0FE01E00FF11F8491BA
:103BF0000E94CA13D7018D939C930F5F1F4FB6E3AA
:103C0000EB0EF11C0430110579F784E0809372000B
:103C1000DF91CF911F910F91FF90EF900895CF9278
:103C2000DF92EF92FF920F931F93CF93DF934EE2B9
:103C300050E06BE170E084EE96E00E940E30E0917F
:103C4000E3064E2F50E026E0E29FF0011124ED5DE7
:103C5000F94F808184FF09C09BE09093E4069CE0CB
:103C60009093E5069DE09093E70680FF03C09EE0F9
:103C70009093E80685FF09C09FE09093E90690E1E4
:103C80009093EA0691E19093EC0681FF03C092E1E4
:103C90009093ED0686FF09C093E19093070794E1A6
:103CA0009093080795E190930A0782FF03C096E17D
:103CB00090930B0787FF09C097E190930C0798E159
:103CC00090930D0799E190930F0783FF03C08AE15A
:103CD0008093100780911D06982F907609F03FC0C1
:103CE000E0911F06F0E0EC51F94F89E0828786E011
:103CF000849FF001859FF00D1124ED5DF94F018146
:103D000010E08FE3C82E88E0D82ED0E0C0E097E026
:103D1000E92EF12CC7018C1B9D0BF80102C0F59513
:103D2000E7958A95E2F7E0FF0AC0F601628180819B
:103D30000E94BD1AE82FF0E0EC51F94FC28721969E
:103D400036E0C30ED11CC830D10521F7DF91CF91E9
:103D50001F910F91FF90EF90DF90CF900895282F43
:103D60002072982F907483708230B1F0833001F10B
:103D7000813061F0222319F089E08093E6069923CF
:103D800009F4B5CF89E080930907B1CF2223B9F3B5
:103D900089E08093EB06F3CF222319F089E080932A
:103DA0000907992309F4A3CF89E08093E6069FCF02
:103DB000222319F089E080930E07992309F497CF05
:103DC00089E08093EB0693CF8091FB019091FC01F9
:103DD00068E770E00E94E02F892BA1F41092720036
:103DE000E7E1F7E088EDDF011D928A95E9F780EFC2
:103DF0008093100182E49FE10E94A61D109252015F
:103E000010920F0120E04BEE5CE164E170E081E391
:103E100090E00C94F91510927200E7E1F7E088ED5C
:103E2000DF011D928A95E9F780EF809310011092CF
:103E3000EB011092EC011092ED011092EE01E8E11D
:103E4000F6E086E0858380E486838CE087831086B5
:103E500083E08483118612861092EF0188E08093BC
:103E60000F010895FC0101900020E9F73197AF019F
:103E7000481B590BBC018FEE97E00C94C4128F9233
:103E80009F92AF92BF920F931F93CF93DF93CDB7C3
:103E9000DEB7A1970FB6F894DEBF0FBECDBF19A253
:103EA000423008F44AE08E010F5D1F4F842E912CA2
:103EB000B12CA12CA50194010E94B22FE62FB901CB
:103EC000CA01EA30F4F4E05DD801EE938D01232BB2
:103ED000242B252B79F790E080E0109719F0CD0185
:103EE0000E94321FA1960FB6F894DEBF0FBECDBF61
:103EF000DF91CF911F910F91BF90AF909F908F90C6
:103F00000895E95CE1CF3F924F925F926F927F926A
:103F10008F929F92AF92BF92CF92DF92EF92FF92D9
:103F20000F931F93CF93DF936091EF016F5F6093C7
:103F3000EF011092E3068CE080931F0682EF9FEF63
:103F40009093F1018093F00183E390E09093190640
:103F5000809318068CE190E090931B0680931A06DC
:103F6000862F8150990BFC01EE0FFF1FEF5EFE4F75
:103F700020813181F9013496E491E0935301A90144
:103F8000F9013490FDE03F9E800111240B5F1F4F2B
:103F9000F9013196C491C00FD12FD11DA3E2B6E033
:103FA00070E0E12CF12C812C912C54018394371674
:103FB00009F46AC011961C92119712961C921297DE
:103FC00013961C92139714961C92149715961C9294
:103FD0001597FA013596E491EC9387E090E06A0139
:103FE000E1E1CE0ED11CF601E81BF90BE491EE23C2
:103FF00089F01196EC91119724013501082E04C027
:10400000440C551C661C771C0A94D2F74E2A119654
:104010004C921197019738F7CA010C96FC01D49085
:10402000ED2DE770E53051F4F801EF0DF11DE20FD1
:10403000F31FE4911296EC931297F394FC01849190
:1040400087708630E0F0CE018E0D911DF901E80FEA
:10405000F91FE4911396EC931397FC013196E20F4C
:10406000F31FE4911496EC931497FC013296E20F3F
:10407000F31FE4911596EC931597F3E0EF0E7F5F35
:10408000435F5F4F169693CF80E00E94451AE4E5A8
:10409000F1E08FE1DF011D928A95E9F7E9E7FEE1A2
:1040A000C4E5D1E0DE019FEF8491882349F080537D
:1040B000803F21F08C9331961196F6CF9C93FBCFE5
:1040C00093E7E92E91E0F92E04E511E0F801619102
:1040D0008F0170E090E080E04AE00E943F1F8EE296
:1040E00091E00E94321FE016F10681F780E391E033
:1040F0000E94321FE3E7F1E088E7DF011D928A9515
:10410000E9F77F0182E7A82E81E0B82E670110E071
:1041100000E09881892F880F890FF801E80FF11DC1
:1041200087FDFA95EF53F14E6491F60161936F01AB
:1041300070E090E080E042E00E943F1F8EE291E05C
:104140000E94321F0F5F1F4F0330110511F7F4E07B
:10415000EF0EF11C2196AC16BD06C1F689E08093E6
:104160000F01DF91CF911F910F91FF90EF90DF90A2
:10417000CF90BF90AF909F908F907F906F905F9007
:104180004F903F900895CF93DF93C091F20182E169
:10419000C89FC02D1124C45D0E9408180E94EB170F
:1041A000D0E080914F0120E049E65EE168E370E0F5
:1041B0008C0F9D2F911D0E94C51580914E0120E00E
:1041C00049E65EE168E370E08C0F9D2F911D0E942F
:1041D000C51580E40E94411681110E943B1680E2C1
:1041E0000E94411681110E9436168CE00E944116F1
:1041F000882379F0C091F20182E090E00E949C2F28
:10420000C81729F06C2F82E090E00E94A42F109232
:104210000F01DF91CF9108953F924F925F926F927D
:104220007F928F929F92AF92BF92CF92DF92EF9246
:10423000FF920F931F93CF93DF93CDB7DEB72A97EB
:104240000FB6F894DEBF0FBECDBFE82E862ECA0192
:10425000B9012AE0AE014F5F5F4F5A010E945B2F08
:10426000F50101900020E9F73197EA19FB096E2E5C
:104270008BEF089F802D1124895F8E1B482E082EFE
:10428000000C5508011113C010E0E6E0FE2E1415D5
:104290001504C4F41F9DC001112420E047E657E136
:1042A00066E370E08B960E94F9151F5FF0CF181639
:1042B0004CF420E047E457E170E060E089E790E0EB
:1042C0000E94F915F12C6201CC0CDD1CCC0CDD1C1C
:1042D000CE0CDF1C440C551C4C0C5D1C10E0062C55
:1042E000000C7708912C76E0372E812F90E0861510
:1042F000970584F5F501E80FF91F20812133A4F01B
:1043000020532A3088F4013089F00230C9F047E6A2
:1043100057E166E370E0C201139D800D911D1124E9
:104320000E94F9151F5FE1CF20E0EDCF880F991FA4
:10433000880F991F47E457E1B4018C0D9D1DF0CF04
:10434000880F991F880F991F47E257E1B4018E0D1E
:104350009F1DE6CF2A960FB6F894DEBF0FBECDBFE5
:10436000DF91CF911F910F91FF90EF90DF90CF9051
:10437000BF90AF909F908F907F906F905F904F9085
:104380003F9008950F93CF93DF93D0E0C0E020E0FB
:104390004AEC57E1BE0186E790E00E94C5152896D9
:1043A000C034D105A1F72091E30630E050E040E0B1
:1043B00001E060E089E70E940C2120911E06277031
:1043C00030E050E040E002E067E18BE70E940C2122
:1043D00020E043EC57E16DE170E08AE790E00E9455
:1043E000F91520911E0630E083E0359527958A95D2
:1043F000E1F723703327032E000C440B550B66E2C4
:104400008BE70E940C2120E04AEB57E16CE270E060
:1044100089E790E00E94F91520911E0625FB2227CE
:1044200020F930E050E040E065E38BE70E940C218A
:1044300020E041EB57E16BE370E089E790E00E94F8
:10444000F91580911D0620911E0684FF14C020647A
:1044500020931E0680911E0686FF1EC020911C061A
:104460004BE957E16BE070E08AE790E0DF91CF9194
:104470000F910C94F9158091FB019091FC0164E17E
:1044800070E00E94E02F892B29F780911C06823072
:1044900008F780E42827DCCFDF91CF910F910895B2
:1044A000909122069F5F909322062091FB0130910C
:1044B000FC0123703327232B51F480911D06282FF4
:1044C0002370233009F064C08C7F80931D069B35D8
:1044D00058F080911D068F77846080931D0610929E
:1044E000220686E080930F010E943D190E94BB19AD
:1044F0000E94C2210E94E11C8091FB019091FC016D
:104500006AE570E00E94E02F892B09F043C0E0913A
:10451000E30636E03E9FF0011124ED5DF94FE281A4
:10452000E093E30620911F06822F65E00E94D42FBE
:10453000839FA00111244C5F5F4F421B51099CE0F7
:10454000949FB001959F700D11246D5F7F4F709304
:10455000190660931806239F900111242E5E3F4F89
:10456000482F58EE5403C0011124820F931F20914D
:10457000F0013091F101820F931F90931B068093FD
:104580001A06109220066091EF018E2F0C94451AA6
:104590008F5F9BCF08950F930E943D190E94BB1916
:1045A0000E94C2210E94E11C2091EB013091EC019C
:1045B0004091ED015091EE0100E066E38BE20E9434
:1045C0000C218CE00E944116882339F010920F01D3
:1045D00082E49FE10F910C94A61D0F9108950E9413
:1045E0003D190E94BB190E94C2218CE00E94411615
:1045F000882319F086E080930F0108950E940F1E12
:104600000E94261A80912006853038F48091FB01A3
:1046100080FF0E94491D0C94C221109220068091B7
:104620001D068F7B80931D0686E080930F01F3CFDC
:104630006F927F928F929F92AF92BF92CF92DF92B2
:10464000EF92FF920F931F93CF93DF930E940F1E61
:104650000E94261AE0911D06E5FDD2C1E4FD09C1C4
:104660008091FB0180FD41C00091F0011091F101AA
:1046700060911A06601B809118060E94BD1A89314C
:1046800010F480931F06C0915201D0E0FE01EF5854
:10469000F14EF4900E942E168F21F81246C08091A0
:1046A0001D068C7F80931D0660911A0670911B0673
:1046B00040E080911806909119060E945C178111C4
:1046C00014C060911A0670911B06601B710B00E00C
:1046D00021E050E040E080911806909119060E9478
:1046E000DF1A8823F9F00E94741688E00E944116B0
:1046F000882319F089E080930F0184E00E9441161D
:10470000882309F4B6C0C091E30680915301C81311
:1047100080C080911F068C3009F07BC088E08093B8
:104720000F01A7C00E94491DE0CFFE01EE58F14ED7
:10473000F4900E942E168F21F8121EC080911D0643
:104740008D7F816080931D0660911A0670911B0613
:1047500041E080911806909119060E945C17811122
:10476000C4CF60911A0670911B06601B710B00E0AC
:1047700021E041E050E0AFCFFE01ED58F14EF49062
:104780000E942E168F21F8121EC080911D068E7F6A
:10479000826080931D0660911A0670911B0642E0AC
:1047A00080911806909119060E945C1781119DCF87
:1047B00060911A0670911B06601B710B00E021E0EE
:1047C00042E050E088CFCC58D14EFE01C4910E9407
:1047D0002E168C23C81389CF80911D068360809389
:1047E0001D0660911A0670911B0643E08091180621
:1047F000909119060E945C17811177CF60911A067B
:1048000070911B06601B710B00E021E043E050E05B
:1048100062CF80911D068370823009F4ADC0833071
:1048200009F4CCC0813009F468C080E00E948A1B82
:1048300080E00E944D1B80914F08982F9770953013
:1048400089F486958695869520911F062550330B11
:104850008217130671F480911D06806880931D06EF
:104860008BE05DCF20911F062550330B963008F06A
:1048700063C080911D0683FF8CC1909121069F5FCC
:10488000909321062091FB013091FC012370332786
:10489000232B21F424E0822780931D0680911D069E
:1048A00024E08227913F08F06DC180931D0680911E
:1048B0001D0684FD12C08091FB019091FC0166E011
:1048C00070E00E94E02FCFE3D8E0FAE0AF2EB12CE9
:1048D000ADE08A2E892B09F465C1DF91CF911F913C
:1048E0000F91FF90EF90DF90CF90BF90AF909F908F
:1048F0008F907F906F900C94C22180911F068A3018
:1049000031F481E00E948A1B81E00E944D1B80915E
:104910004F08982F9770953041F486958695869527
:1049200020911F062150330B93CF20911F06215059
:10493000330B963008F49DCF982F969596959695C3
:104940009217130609F095CF91E0892780934F08BD
:10495000A6E0AC9FF0011124ED5DF94F8381A89F83
:10496000D0011124AD5DB94F858111969C911197AD
:10497000892711968C937DCF80911F06863131F463
:1049800082E00E948A1B82E00E944D1B80914F08AA
:10499000982F9770953049F4869586958695209145
:1049A0001F0630E02B5F3F4F53CF20911F0630E0B2
:1049B0002B5F3F4F963008F0BFCF5BCF80911F0633
:1049C0008E3031F483E00E948A1B83E00E944D1BED
:1049D00080914F08982F9770953049F48695869569
:1049E000869520911F0630E02F5F3F4F31CF9630E4
:1049F00008F43FCF20911F0630E02F5F3F4F9CCF40
:104A000080912006853038F48091FB0180FD31CF04
:104A10000E94491D2ECF3091EF01832F8150990BB9
:104A2000DC01AA0FBB1FAF5EBE4FE370F0E036960D
:104A30008091E3069DE0899FE00DF11D11248D9189
:104A40009C91E80FF91F84918370823069F0833064
:104A500009F479C0813009F07BC08AE080931F0699
:104A60002AE047EF5FEF06C086E180931F0626E14C
:104A70004DED5FEF5093F1014093F001E491F0E0D0
:104A8000F595E795F595E795E093E306822F65E0C8
:104A90000E94D42F682F70E0A6E08A9FC0011124E5
:104AA0000496821B9109FCE0FF2EF89ED001F99E2E
:104AB000B00D112413962A3009F454C008F04DC0EB
:104AC000223009F452C00A0F1B1F109319060093DD
:104AD0001806A6E02A9FC0011124429618EE16037C
:104AE000D001179FB00D11248A0F9B1F2A3009F4A3
:104AF00046C0F0F5223009F442C0C80FD91FC40FD8
:104B0000D51FD0931B06C0931A0610922006632F60
:104B10008E2F0E94451A80911D068F7D80648093A0
:104B20001D0687E080930F01DF91CF911F910F91B8
:104B3000FF90EF90DF90CF90BF90AF909F908F90BD
:104B40007F906F9008958EE080931F062EE090CFA7
:104B500082E080931F0622E084CF2E3031F0263190
:104B600009F0B1CF0AE010E0AECF06EF1FEFABCFF8
:104B70002E3011F0263109F6C5E0D0E0BECFCBEFE4
:104B8000DFEFBBCF877F846080931D0610922106E4
:104B90008ECE84FF90CE8AE080930F0188CEEBE02A
:104BA000AE2EB12C8D818F5F83708D83A091EF012C
:104BB000A150BB0BAA0FBB1FAF5EBE4F8091E30697
:104BC000F501889DE00DF11D1124CF01ED91FC91BF
:104BD000E80FF91FE491EE2351F08C81E82EF12CBF
:104BE00087708130C1F148F0823009F48BC026967D
:104BF0009BE0A916B10499F670CE63E0F594E794B2
:104C00006A95E1F7F3E0EF22FF246A807B80C88099
:104C1000D98020E0A701B301C6010E9414171A2D04
:104C20001170811115C0012F20E0A701B301C60149
:104C30000E94DF1A81110CC08C8190E023E09595D1
:104C400087952A95E1F7612F83700E944911CFCF94
:104C500061E0812F19C053E0F594E7945A95E1F78C
:104C600023E0E222FF246A807B80C880D98020E094
:104C7000A701B301C6010E9414173A2D3170932E7B
:104C8000882329F061E0892D0E944E16B0CF032FB2
:104C900020E0A701B301C6010E94DF1A8111F2CF03
:104CA0008C8190E043E0959587954A95E1F7692DD1
:104CB00083700E944911EA80FB80C880D98043E359
:104CC00050E08EE190E0F601FF27D701BB279C0161
:104CD0002E513109BA016E177F0731F489010E5E3A
:104CE0001F4FA017B10781F16C5071092A5F3F4F28
:104CF0008217930781F70696445F5F4F8C339105C7
:104D000031F775CF33E0F594E7943A95E1F783E016
:104D1000E822FF246A807B80C880D98020E0A70138
:104D2000B301C6010E9414171A2D1170882311F0C7
:104D300060E08FCF012F20E0A701B301C6010E94E0
:104D4000DF1A8111F5CF78CF6C80712C83E07594D8
:104D500067948A95E1F7A3E06A227724E1E06E1A6E
:104D6000710820E0A301B701C6010E941417811148
:104D70003ECF092D20E0A301B701C6010E94DF1A32
:104D8000811135CF60E07FCF1F920F920FB60F9247
:104D900011242F933F938F939F93AF93BF93809151
:104DA000020690910306A0910406B0910506309189
:104DB000010623E0230F2D3758F50196A11DB11DE3
:104DC000209301068093020690930306A0930406A5
:104DD000B09305068091060690910706A0910806FB
:104DE000B09109060196A11DB11D8093060690930E
:104DF0000706A0930806B0930906BF91AF919F9153
:104E00008F913F912F910F900FBE0F901F9018958B
:104E100026E8230F0296A11DB11DD2CF1F920F923B
:104E20000FB60F9211248F939F938091E100909180
:104E3000E100937F9093E10083FF0FC01092E9009F
:104E400091E09093EB001092EC0092E39093ED00D0
:104E50001092170698E09093F00082FF22C093E032
:104E60009093E9009091F200992319F09AE39093BE
:104E7000E8009091F801992341F09091F801915048
:104E80009093F801911101C05D9A909116069923B3
:104E900041F090911606915090931606911101C021
:104EA000289A84FF18C08091E2008E7E81608093F2
:104EB000E2008091E1008F7E8093E1008091F90112
:104EC0008E7E80618093F9019F918F910F900FBE2C
:104ED0000F901F90189580FFF7CF8091E2008E7E93
:104EE00080618093E2008091E1008E7E8093E100FA
:104EF0008091F9018E7E8160E5CF1F920F920FB6EF
:104F00000F921124CF92DF92EF92FF920F931F9393
:104F10002F933F934F935F936F937F938F939F93C1
:104F2000AF93BF93EF93FF93CF93DF93CDB7DEB7EC
:104F30006C97DEBFCDBF1092E9008091E80083FF3F
:104F400025C068E0CE0145960E94B71282EF80939B
:104F5000E8008D8987FF39C09091E80090FFFCCF71
:104F6000982F907609F034C19E894F89588D2F89EA
:104F7000F88C911131C0803861F58091FA018093ED
:104F8000F1001092F1008EEF8093E8006C960FB65E
:104F9000F894DEBF0FBECDBFDF91CF91FF91EF91AF
:104FA000BF91AF919F918F917F916F915F914F9141
:104FB0003F912F911F910F91FF90EF90DF90CF9035
:104FC0000F900FBE0F901F9018959EEF9093E800E2
:104FD000C7CF1092F100D5CF913059F48111D3CFC2
:104FE0004130510581F68091FA018D7F8093FA015D
:104FF000CACF933049F48111C6CF4130510519F61B
:105000008091FA018260F2CF953041F48091E800FE
:1050100080FFFCCF20682093E300B5CF963009F0E5
:10502000A9C00B8D1C8D22E01092E9001092F601B0
:105030001092F501F2122EC01092F4011092F301B9
:105040000E9486121F8299E09983FA8291E09E83E2
:1050500090EA98879AEF99872091F5013091F601AF
:10506000275F3F4F3C832B838D831092E900109282
:10507000F6011092F5011093F4010093F30149E059
:1050800050E0BE016F5F7F4F80E00E9460120E947F
:10509000861279CF1093F4010093F3010E94C0119E
:1050A000DC0112960D911C910115110509F451C1F5
:1050B000D801ED91FC910480F581E02DBE016B5E7D
:1050C0007F4FC8010995009709F03EC1F80100859E
:1050D0001185EACFF3E0FF120EC08F89882309F40F
:1050E00040C0823061F440E860E182ED91E20E94CC
:1050F000BD2D811148CF81E28093EB0047CF8130F5
:1051000029F440E86BE086EC91E2F1CF833099F727
:105110000E94C011DC011296ED90FC908E010F5F91
:105120001F4F6801E114F10479F0D701ED91FC9172
:105130000680F781E02DB801C7010995080F111D00
:10514000F701E084F184EECFD8011C92F6010190C2
:105150000020E9F73197BF016C197D0940E0C601D5
:10516000C6CF60EB71E2FB01449150E080E80E9401
:10517000601209CF973009F4BECF983021F481E056
:105180008093F10000CF993009F0FDCE837009F0D3
:10519000B2CFE6E1F1E081E031E096E32191222314
:1051A00071F08093E9003093EB00DF0111972C91AF
:1051B0002093EC009093ED008F5F873079F78EE7B6
:1051C0008093EA001092EA008F8980931706DBCE65
:1051D0008B8D9C8D1092E9001092F6011092F501D2
:1051E0009093F4018093F301898D811192C08E898F
:1051F0009D89913A49F4813209F07DCF47E050E032
:1052000066E071E080E0B3CF913209F074CF833271
:1052100069F48F89988DB0E0A0E0809302019093AB
:105220000301A0930401B0930501ADCE803269F46F
:105230008091E80082FFFCCF67E086E091E00E9469
:10524000B7128BEF8093E8009ECE823209F09BCE9E
:105250008F8980930D01EEEFFFE7859194918B3F4D
:105260009C4D51F1E0E0F8E080910601909107013A
:10527000A0910801B0910901803B9440A105B105BE
:10528000F1F480910D0180FD1AC0EE3F8AE0F8072D
:1052900089F587E797E79183808380916000809309
:1052A000F70188E19BE00FB6F894A8958093600021
:1052B0000FBE9093600067CEEEEFFAE0D5CF80810D
:1052C00091818737974709F05ECEA895809160005D
:1052D0008861809360008091F70180936000EE3FC9
:1052E0002AE0F20789F08091FE0A9091FF0A9183EB
:1052F000808349CE808191818737980751F29093BE
:10530000FF0A8093FE0AC5CF1092FF0A1092FE0A90
:105310003ACE0E94C011DC0112960D911C9101152C
:10532000110509F4E8CED801ED91FC910190F081CE
:10533000E02DBE016B5E7F4FC8010995811123CE20
:10534000F80100851185EBCF181619060CF41BCE59
:10535000D2CEF1E0FF12BECE64EB71E204CF2F9209
:105360003F924F925F926F927F928F929F92AF92F5
:10537000BF92CF92DF92EF92FF920F931F93CF9342
:10538000DF9335E3C32E31E0D32EC7E1D7E010E041
:1053900000E0772473944BE1942E56E3852E69E068
:1053A000462E6DE3562E22242A94322CEEA5EE23AF
:1053B000A9F08FA59E2F9370891708F49BC0F0E089
:1053C000F595E795F595E795EE0FFF1FE251FF4D37
:1053D00085919491F601928381831FA69CA99923BC
:1053E000F9F08DA9292F2F77022E000C330B82178D
:1053F00013060CF489C08A8197FF7FC081508A838D
:105400008A8181117CC081E08A83EA81F0E0EE0F1D
:10541000FF1FE251FF4D859194919EA38DA31DAA7C
:1054200058A5552321F13AA529A5311119C0422FBC
:10543000407426FF6CC08DA19EA1850F911D57FD64
:105440009A9527FD69C097FD65C0442309F466C09D
:10545000863BF4E29F0714F085EB94E29EA38DA3B4
:1054600081E0830F8AA72F73321708F01AA69BA535
:10547000992371F0EA81EE2359F08DA52CA5482FD0
:105480004F71322F3F71431708F04AC08F5F8DA7CD
:1054900049A9442311F13AA9632F607436FF6CC007
:1054A0008DA19EA12BA950E027FF69C0840F951FF5
:1054B00097FD68C0662309F469C0863B44E29407FF
:1054C00014F085EB94E29EA38DA33F71822F8F7120
:1054D000831708F05DC02F5F2BAB89A19AA10097BD
:1054E00009F45DC08F3F980709F49AC001979AA309
:1054F00089A396C08F5F8FA771CF8F5F80CF8034D5
:1055000008F483CF8FE380CF8F5F8DAB89CF8FA1DE
:1055100090E093CF90E080E04111A0CF8FA3A0CF87
:10552000807EF1F480E28DA78DA5807E51F09F3FB3
:1055300009F1292F22952F70E20F803411F49F700A
:10554000E90F88A9F0E0E80FF11D87FDFA95EE0F4D
:10555000FF1FE251FF4D859194919EA38DA398CF9B
:10556000803231F426FD04C09F3F11F080E4DBCF90
:105570001DA6DACFE0E0E1CF8FA190E093CF841BAE
:10558000950B96CF90E080E061119DCF8FA39DCFCA
:1055900027FF02C01BAAA1CF80E88BAB9ECFC8011A
:1055A0000496672C01C0660C8A95EAF7909E50011C
:1055B000919EB00C1124809EC001819E900D1124FB
:1055C0009C01295E384F790188819981BC016F5F08
:1055D0007F4F79836883FC014491403408F07CC09C
:1055E0004A83442319F088A9480F4A83EA81F0E0EE
:1055F000EE0FFF1FE251FF4D859194919EA38DA365
:1056000089A5811102C08FA58FA38CA585FD1DA63C
:1056100089A19AA10097C1F28F3F980709F066CF40
:1056200020911001822F90E0002E02C09595879561
:105630000A94E2F780FD0AC0033009F0F4C18091BA
:10564000E00790E09595879580934401207F39F598
:105650008091370790916D07890F9091A307890F6B
:105660009091D907890F09F4E6C18FEEA82E87E043
:10567000B82E97E1E92E97E0F92EF70180A10E945C
:10568000CA13F7019183808312A211A2F6E3EF0EF1
:10569000F11CAE14BF0489F780EF809310010F5FF7
:1056A0001F4FE696F5E0CF0ED11C0430110509F02E
:1056B0007DCEDF91CF911F910F91FF90EF90DF9002
:1056C000CF90BF90AF909F908F907F906F905F90A2
:1056D0004F903F902F900895403A08F009C1E42F71
:1056E000E054FF0BEC30F10509F4BFC00CF04CC0E6
:1056F000E530F10509F4A2C0F4F4E230F10509F453
:105700009DC094F4309709F491C0319709F080CF8F
:10571000029699838883FB01649168A780E04134F5
:1057200009F080E489A774CFE330F10509F493C050
:10573000349771F36DCFE830F10509F462C0A4F439
:10574000E630F10509F487C0379709F061CFFB0116
:1057500064916BA79C012D5F3F4F39832883FC0127
:105760003296E491ECA754CFEA30F10509F47BC0FE
:1057700002963B970CF471C099838883FB01849156
:1057800068A9680F68AB44CFE331F10509F477C02D
:1057900064F5EF30F10509F470C0DCF4ED30F1058B
:1057A00009F469C03E9709F033CFFB01259134918C
:1057B00029AB9C012D5F3F4F39832883FC01329632
:1057C0002591349180E04E3409F080E4820F8AAB59
:1057D0001FCFE131F10509F450C03CF302969983E3
:1057E0008883FB0164916CAB13CFEC35F10509F4B0
:1057F00051C04CF4E431F10509F443C0759709F048
:1058000007CF1BA605CFEE35F10509F45CC00CF4FB
:1058100054C0EF35F10509F0FBCE809110018625CB
:10582000809310011FA23AA229A2F2CE0296998378
:105830008883FB0164916FA36FA7EACEFB0164919B
:1058400068A79C012D5F3F4F39832883FC01329666
:10585000E491E9A7DDCE18A6DBCE99838883FB010E
:1058600064916EA7D5CE1EA6D3CE02969983888367
:10587000FB01649187CF18AACBCE19AAC9CE1CAA66
:10588000C7CEFFEFFBA7029699838883FB01649143
:105890006CA7BECE029699838883FB016491E09148
:1058A00016076E0F6093160770E0C2010E94F42F76
:1058B00070934A0160934901ABCE02969983888325
:1058C000FB016491EFCFA7E1B7E021E030E0FC01FC
:1058D000E20FF31FE4919096EC9390972F5F3F4F68
:1058E000D6962530310599F705969983888390CE11
:1058F000403E28F44F59550B5AA349A389CE403E48
:10590000A9F4DE0190E080E09695982F882797957E
:105910008795ED91FD91E4912E2F2F77822BE7FD56
:10592000F3CF8F5B9F4F9AA389A372CE4C3F08F4AD
:105930006FCE24E0240F223008F039C04C3FA9F18B
:10594000029699838883FB016491E881F9819F0124
:105950002F5F3F4F39832883E4915CA15E1701F1EB
:105960004F8D842F90E07BA1D701A80FB91F5196CE
:105970007C93519758965C93D501A80FB91FAA0F35
:10598000BB1FA95EB84F8091120790911307281B87
:10599000390B14963C932E9313974F5F4F8FECA3C4
:1059A0006BA38CA10E94CA13A0CF60E0CECFDE0112
:1059B00090E080E04E3F29F58BA181111FC0EF8D53
:1059C000EE2379F3E150EF8FF0E0D501AE0FBF1F6A
:1059D000AA0FBB1FA95EB84F8091120790911307C1
:1059E00013962D913C91820F931F99838883EE0D1E
:1059F000FF1D81898BA3808D8CA30ACE81508BA340
:105A0000D0CF9695982F882797958795ED91FD9102
:105A1000E4913E2F3F77832BE7FDF3CF680F791F8B
:105A200079836883F5CD8DA19EA1F6019283818350
:105A30008FA180830BCE88EDE7E1F7E011928A9584
:105A4000E9F7109272002BCE2F922FB62F93209150
:105A5000340120952093340109F08BC0BF93AF939C
:105A60000F921F922091400100904201020E00927D
:105A700042012091410110904301121E10924301F6
:105A8000B12DB7FDB095BB0FA0913F01B058BA0240
:105A9000110CA12D2091360100903801020E0092C8
:105AA00038012091370110903901121E10923901EE
:105AB000212D220F2121B091350127FDB195AB0F8A
:105AC00020913B0100903D01020E00923D0120918A
:105AD0003C0110903E01121E10923E01B0913A011D
