:100000000C9425100C944D100C944D100C944D1024
:100010000C944D100C944D100C944D100C944D10EC
:100020000C944D100C944D100C94D6240C94452532
:100030000C944D100C944D100C944D100C944D10CC
:100040000C944D100C944D100C944D100C944D10BC
:100050000C944D100C944D100C944D100C9477276B
:100060000C944D100C944D100C944D100C944D109C
:100070000C944D100C944D100C944D100C944D108C
:100080000C944D100C944D100C944D100C944D107C
:100090000C944D100C944D100C944D100C944D106C
:1000A0000C944D100C94362B0C944D10050201004D
:1000B000F9060B0C110000350000000000400000A4
:1000C00000000000640000000000FF0000000100CC
:1000D0000061010A131B23100200000000006604E7
:1000E0002C547CA4200003000000006000000000ED
:1000F00000010403031F05020200F9060B0C1100A6
:100100000035000000000040000000000000640016
:10011000000000008000000001000061010A131BC4
:10012000231002000000000066042C547CA4200070
:100130000300000000660000000000010403031F2C
:10014000020407101800F0F0F8F0F8F8FCF8FCFCD6
:10015000FEFCFEFEFFFEFFFCFEFCFEF8FCF8FCF0E1
:10016000F8F0F800F0006363FF7FFFFFFF9FFFE7F9
:10017000FFF9FFFFFFFFFFFFFFFFFFFFFFFFFF7F15
:10018000FF7FFF007F000E0C1E0C1F183F1A3F352B
:100190007F357F6BFF6BFF357F357F1A3F183F0C34
:1001A0001F0C1E000E00F0F0F8F0F8F8FCF8FCFC54
:1001B000FEFCFEFEFFFEFFFCFEFCFEF8FCF8FCF081
:1001C000F8F0F800F0007F7FFF7FFFFFFFFFFFFFE9
:1001D000FFFFFFFFFFFFFFF9FFE7FF9FFFFFFF7F2D
:1001E000FF63FF0063000E0C1E0C1F183F1A3F3503
:1001F0007F357F6BFF6BFF357F357F1A3F183F0CD4
:100200001F0C1E000E00F0F0F8F0F8F8FCF8FCFCF3
:10021000FEFCFEFEFFFEFF7CFE7CFE38FCB8FC1000
:10022000F8F0F800F0007F7FFF7FFFF9FFE7FF9F06
:10023000FFFFFFFFFFF0FFF9FFF8FFFCFFFCFF7E71
:10024000FF63FF0063000E0C1E0C1F183F1A3F35A2
:100250007F357F6BFF6BFF357F357F1A3F183F0C73
:100260001F0C1E000E00F0F0F810F8B8FC38FC7CF3
:10027000FE7CFEFEFFFEFFFCFEFCFEF8FCF8FCF040
:10028000F8F0F800F0006363FF7EFFFCFFFCFFF86E
:10029000FFF9FFF0FFFFFFFFFF9FFFE7FFF9FF7F81
:1002A000FF7FFF007F000E0C1E0C1F183F1A3F350A
:1002B0007F357F6BFF6BFF357F357F1A3F183F0C13
:1002C0001F0C1E000E008000C080C080FCF8FCFCEB
:1002D000FEFCFEFEFFCEFFE0FEF0F878FC78FC307E
:1002E000F8F0F800F0007F7FFF7FFFF9FF87FFFF46
:1002F000FFFFFFFFFFF1FFF8FFF8FFFCFFFCFF7EB1
:10030000FF63FF0063000E0C1E0C1F081F0A3F3521
:100310007F357F6BFF6BFF357F357F0A3F081F0CF2
:100320001F0C1E000E180800C0C0F0F0F830F818BE
:100330003C0C1E0C1E0C1E060F060F060F060F06A9
:100340000F060F060F060F0C1E0C1E0C1E183C305D
:10035000F8F0F8C0F000C00003030F0F1F0C1F18C7
:100360003C30783078307860F060F060F060F060B9
:10037000F060F060F060F0307830783078183C0C45
:100380001F0F1F030F0003101800F0F0F8F0F8F82B
:10039000FCF8FCFCFEFCFEFEFFFEFFFCFEFCFEF893
:1003A000FC80F800800000000000FFFFFFFFFF7FDF
:1003B000FFBFFF3FFFFFFFFFFFFFFFFFFFFFFFFF4D
:1003C000FFFFFFFFFFFCFF00FC000F0F1F0F1F1CB4
:1003D0003F1D3F3E7F3F7F7FFF7FFF3F7F3F7F1F70
:1003E0003F1F3F0F1F0F1F000F0000000000808005
:1003F000F8F8FCFCFEFCFEFEFFFEFFFCFEFCFEF837
:10040000FCF8FCF0F8F0F800F000FCFCFFFFFFFF48
:10041000FFFFFFFFFFFFFFFFFFFFFFFFFF3FFFBFEC
:10042000FF7FFFFFFFFFFF00FF000F0F1F0F1F1FCA
:100430003F1F3F3F7F3F7F7FFF7FFF3F7F3E7F1D0F
:100440003F1C3F0F1F0F1F000F00000000000000A7
:100450008080C0C0E0C0E0E0F0E0F0F0F8F0F8F834
:10046000FC78FC70F8F0F800F000E0E0F8F8FCFC34
:10047000FF7FFF7FFFFFFFFFFFFFFF41FF6CFF20BC
:10048000FF36FF10FFFFFF00FF000F0F1F0F1F1FA2
:100490003F1C3F3B7F387F7FFF7FFF207F377F16EA
:1004A0003F1A3F081F0F1F000F00F0F0F870F87898
:1004B000FCF8FCF0F8F0F8E0F0E0F0C0E0C0E0801C
:1004C000C0008000000000000000FFFFFF10FF36AA
:1004D000FF20FF6CFF41FFFFFFFFFFFFFF7FFF7F5C
:1004E000FFFCFFF8FCE0F800E0000F0F1F081F1AE8
:1004F0003F163F377F207F7FFF7FFF387F3B7F1C8A
:100500003F1F3F0F1F0F1F000F00000000000000E3
:1005100000000000000000000000000000000000DB
:1005200000000000000000000000E0E0F0F0F8F83B
:10053000FCF8FCFCFEFCFEECFED4FEB4FEB4FEA80F
:10054000FCD8FCF0F8E0F000E00009010B031F0705
:100550001F073F0F3F0F3F0F3F0F3F0F3F0F3F075B
:100560003F071F031F010B000900000000008080EF
:10057000C0C0E0E0F0E0F060F0A0F0A0F060F0C0FB
:10058000E080C00080000000000000003F3F7F7F4F
:10059000FFFFFFFFFFFFFFFEFFF9FFF7FFF7FFF889
:1005A000FF7FFF3F7F003F000000000008000800C1
:1005B0001C001D013F013F013F013F013F013F0082
:1005C0001D001C0008000800000000000000E0E022
:1005D000F8F8FCFCFEFEFFE6FF1AFFF6FF0CFEF843
:1005E000FCE0F800E0000000000000000000070749
:1005F0001F1F3F3F7F7FFF7FFF7FFF7EFF3F7F1FEC
:100600003F071F0007000000000000000000080076
:1006100008001C001C003E003E003E003E001C0086
:100620001C0008000800000000000000000000009E
:1006300000008080C080C080C080C080C080C000BA
:10064000800000000000000000000000FCFCFEFE36
:10065000FFFFFFFFFFFFFFF9FFE6FFDEFFDDFFE328
:10066000FFFEFFFCFE00FC00000000000800090186
:100670001F031F073F073F073F073F073F073F0392
:100680001F011F00090008000000F0D0F8D0F8B0EA
:10069000FCB0FC70FE60FEE0FFE6FF7CFE7CFEB876
:1006A000FCB8FCD0F8D0F800F000E0A0F1A0F171A7
:1006B000FB41FFBBFFBBFF76FF76FFBBFFBBFF41EC
:1006C000FF71FBA0F1A0F100E0000F0F1F0F1F173B
:1006D0003F173F327F327F7DFF7DFF3E7F3E7F1F92
:1006E0003F1F3F0F1F0F1F000F00F0D0F8D0F8B8CA
:1006F000FCB8FC7CFE7CFEE6FFE0FF60FE70FEB016
:10070000FCB0FCD0F8D0F800F000E0A0F1A0F1714E
:10071000FB41FFBBFFBBFF76FF76FFBBFFBBFF418B
:10072000FF71FBA0F1A0F100E0000F0F1F0F1F1FD2
:100730003F1F3F3E7F3E7F7DFF7DFF327F327F1731
:100740003F173F0F1F0F1F000F00F0D0F8D0F8B871
:10075000FCB8FC7CFE7CFECEFF0EFF0CFE1CFE985F
:10076000FC18FCD0F8D0F800F000E0A0F1A0F17186
:10077000FB41FFBBFFBBFF76FF76FFBBFFB8FF412E
:10078000FF70FBA0F1A0F100E0000F0F1F0F1F1979
:100790003F193F367F367F7DFF7DFF3E7F3E7F1FC7
:1007A0003F1F3F0F1F0F1F000F00F0D0F8D0F818A9
:1007B000FC98FC1CFE0CFE0EFFCEFF7CFE7CFEB8FF
:1007C000FCB8FCD0F8D0F800F000E0A0F1A0F17087
:1007D000FB41FFB8FFBBFF76FF76FFBBFFBBFF41CE
:1007E000FF71FBA0F1A0F100E0000F0F1F0F1F1F12
:1007F0003F1F3F3E7F3E7F7DFF7DFF367F367F1967
:100800003F193F0F1F0F1F000F081000FE00FE389A
:10081000FE38FE38FE00FE00FE0000002700270222
:100820002700270227002700270000000000FF1CE8
:10083000FF38FE38FE00FC0000000000000013013D
:10084000270027024F004F000000000000000000BA
:10085000FF1CFF00FC000000000000000000000082
:1008600013012F004F0000000000000000000000F6
:100870000000FF0000000000000000000000000079
:1008800000004F0000000000000000000000000019
:10089000FC1CFF00FF000000000000000000000042
:1008A0004F012F0013000000000000000000FC3882
:1008B000FE38FE1CFF00FF000000000000004F0299
:1008C0004F0027012700130000000000FEFCFE3C43
:1008D000FE3CFE3CFEFCFE00FE000000270327025B
:1008E0002702270227032700270000000000FFFE41
:1008F000FF3CFEF8FE00FC000000000000001301B9
:10090000270227074F004F000000000000000000F2
:10091000FFFCFF00FC0000000000000000000000E1
:1009200013012F004F000000000000000000000035
:100930000000FF00000000000000000000000000B8
:1009400000004F0000000000000000000000000058
:10095000FCFEFF00FF00000000000000000000009F
:100960004F012F0013000000000000000000FCF801
:10097000FE3CFEFEFF00FF000000000000004F07ED
:100980004F0227012700130000000000FCA8FCA86C
:10099000FEA0FE80FE00FC00FC00000027022702F3
:1009A0002702270227022700270000000000FE542C
:1009B000FEA0FE00FE00F800000000000000130191
:1009C000270227044F004F00000000000000000035
:1009D000FE00FE00F8000000000000000000000023
:1009E00013002F004F000000000000000000000076
:1009F0000000FE00000000000000000000000000F9
:100A000000004F0000000000000000000000000097
:100A1000F800FE00FE0000000000000000000000E2
:100A20004F002F0013000000000000000000F8003D
:100A3000FEA0FE54FE00FE000000000000004F0477
:100A40004F022701270013000000000038007C003F
:100A5000FE08FE08FE107C00380000002000200088
:100A600020002000200020002000000000001C00CA
:100A7000FE08FE20FE0070000000000000001000D4
:100A800020002000400040000000000000000000A6
:100A90001C00FE00700000000000000000000000CC
:100AA00010002000400000000000000000000000D6
:100AB0000000FE0000000000000000000000000038
:100AC00000004000000000000000000000000000E6
:100AD0007000FE001C00000000000000000000008C
:100AE0004000200010000000000000000000700026
:100AF000FE08FE08FE001C00000000000000400090
:100B0000400020002000100000000000FCF8FC0065
:100B1000FCA8FCA8FCF8FC00FC0000002703270050
:100B20002702270227032700270000000000FEFC01
:100B3000FEA8FCF0FC00F80000000000000013011B
:100B4000270227074F004F000000000000000000B0
:100B5000FEF0FE00F80000000000000000000000B1
:100B600013032F004F0000000000000000000000F1
:100B70000000FE0000000000000000000000000077
:100B800000004F0000000000000000000000000016
:100B9000F8F0FE00FE000000000000000000000071
:100BA0004F032F0013000000000000000000F8F0C9
:100BB000FCA8FCFCFE00FE000000000000004F0747
:100BC0004F0227012700130000000000F848FC48EE
:100BD000FC9CFE9CFE48FC48FC00F8003F017F01A5
:100BE0007F02FF02FF017F017F003F00F888FC8841
:100BF000FC1CFE1CFE88FC88FC00F8003F027F0203
:100C00007F05FF05FF027F027F003F00F808FC0818
:100C1000FC1CFE1CFE08FC08FC00F8003F057F05DC
:100C20007F0AFF0AFF057F057F003F00F808FC08E8
:100C3000FC1CFE1CFE08FC08FC00F8003F0A7F0AB2
:100C40007F14FF14FF0A7F0A7F003F00F808FC08AA
:100C5000FC1CFE1CFE08FC08FC00F8003F147F147E
:100C60007F28FF28FF147F147F003F00F808FC084E
:100C7000FC1CFE1CFE08FC08FC00F8003F287F2836
:100C80007F50FF50FF287F287F003F007858FC5C92
:100C9000FEBEFFBEFF5CFE58FC0078003C307E309C
:100CA0007E60FF60FF307E307E003C007858FC5C48
:100CB000FEBEFFBEFF5CFE58FC0078003C307E307C
:100CC0007E60FF60FF307E307E003C007858FC5C28
:100CD000FEBEFFBEFF5CFE58FC0078003C307E305C
:100CE0007E60FF60FF307E307E003C007840FC403C
:100CF000FE80FF80FF40FE40FC0078003C307E30EC
:100D00007E60FF60FF307E307E003C007840FC401B
:100D1000FE80FF80FF40FE40FC0078003C307E30CB
:100D20007E60FF60FF307E307E003C007840FC40FB
:100D3000FE80FF80FF40FE40FC0078003C307E30AB
:100D40007E60FF60FF307E307E003C008080C0C04F
:100D5000E0E0F0E0F0C0E080C00080003F3D7F3D7B
:100D60007F7BFF7BFF3D7F3D7F003F008080C0C0D9
:100D7000E0E0F0E0F0C0E080C00080003F3D7F3D5B
:100D80007F7BFF7BFF3D7F3D7F003F008080C0C0B9
:100D9000E0E0F0E0F0C0E080C00080003F3D7F3D3B
:100DA0007F7BFF7BFF3D7F3D7F003F008000C000D9
:100DB000E000F000F000E000C00080003F027F0291
:100DC0007F04FF04FF027F027F003F008000C0001D
:100DD000E000F000F000E000C00080003F027F0271
:100DE0007F04FF04FF027F027F003F008000C000FD
:100DF000E000F000F000E000C00080003F027F0251
:100E00007F04FF04FF027F027F003F1610000000F6
:100E100000000000000000000080808080C0C0C092
:100E2000C0E0E0E0E0C0C0C0C08080808000000082
:100E3000000000000000000000040404040E0E0E78
:100E40000E1F1F1F1F3F3F3F3F7F7F7F7FFFFFFF23
:100E5000FF7F7F7F7F3F3F3F3F1F1F1F1F0E0E0EF5
:100E60000E040404040000000000F0E0F010F8D0CC
:100E7000F838FCB8FC7CFE7CFEFEFFFEFF7CFE7CAE
:100E8000FEB8FCB8FC50F850F8A0F000F0000000EC
:100E9000000000000000070307000F070F001F0FEE
:100EA0001F003F1F3F007F2A7F153F153F0A1F0A83
:100EB0001F050F050F0207000700000000F0F008F3
:100EC000F8D0F0A0E040C0FEFE01FFC6FE38F806F4
:100ED000FEF9FFC6FE38F870F08CFC02FEFCFCC088
:100EE000C030F0CCFC02FEFCFC04040707080F0F26
:100EF0000F1E1F1D1F203F3F3F7C7F437FFFFF8F43
:100F0000FF717F7E7F3F3F203F1B1F1C1F0F0F087D
:100F10000F07070404000000000000808040C0208C
:100F2000E010F008F804FC02FEABFF55FF02FE04DF
:100F3000FC08F810F020E040C080800000000000B5
:100F40000004040606090F080F101F101F203F2081
:100F50003F407F407FAAFFD5FF407F407F203F205A
:100F60003F101F101F080F090F06060404000000A1
:100F700000000000000080008000C080C000E0C0D1
:100F8000E000E0E0E000E0C0E000C080C0008000E1
:100F9000800000000000000000000E040E001F0E84
:100FA0001F003F1F3F207F2F7F70FF77FFF8FFFB61
:100FB000FF70FF77FF207F2F7F003F1F3F001F0E36
:100FC0001F000E040E0A282040402090CCE2FAF9BF
:100FD000FD9FEFE0F0E7E70F07F7F93F1FDFE7F3CB
:100FE000FDFCFE7CBCF0F8F3F307037B7CFE7F0F77
:100FF000030106020300000000FDF9FAE2CC902094
:10100000404020F9F7070FE7E7F0E0EF9FBC7CFED8
:10101000FCFDF3E7DF1F3F7FFE7C7B0307F3F3F864
:10102000F00000000003020601030F17100000008B
:10103000000000008080C0C0E0C0E0E0F0F0F87088
:10104000F878FCB8FCDCFEDCFEEEFFECFE74FE7013
:10105000FC78FCF0F8F0F8E0F000E000F8F8FEFEB4
:10106000FFFFFF1FFFE7FFFBFF7DFF1EFF0FFF07D7
:10107000FF03FF03FF01FFFEFFFEFFFFFFFFFFFF78
:10108000FF00FFFFFFFFFF00FF00E0E0F0F0F8F0DF
:10109000F878FC70FC74FEECFEEEFFDCFEDCFEB8C3
:1010A000FC78FC70F8F0F8E0F0C0E0C0E080C00030
:1010B0008000000000000000FFFFFFFFFF00FFFFB7
:1010C000FFFFFFFFFFFEFFFEFF01FF03FF03FF0720
:1010D000FF0FFF1EFF7DFFFBFFE7FF1FFFFFFFFE70
:1010E000FFF8FE00F8000000000000008080C0C093
:1010F000E0C0E0E0F0F0F870F878FCB8FCDCFEDC72
:10110000FEEEFFECFE74FE70FC78FCF0F8F0F8E008
:10111000F000E000F8F8FEFEFFFFFF1FFFE7FFFB17
:10112000FF7DFF1E7F0F1F070F0307030701FFFE51
:10113000FFFEFFFFFFFFFFFFFF00FFFFFFFFFF00BE
:10114000FF00E0E0F0F0F8F0F878FC70FC74FEECE2
:10115000FEEEFFDCFEDCFEB8FC78FC70F8F0F8E098
:10116000F0C0E0C0E080C00080000000000000008F
:10117000FFFFFFFFFF00FFFFFFFFFFFFFFFEFFFE80
:10118000FF01FF03070307070F0F1F1E3F7DFFFB34
:10119000FFE7FF1FFFFFFFFEFFF8FE00F80F200034
:1011A000FF00FF00FF00FF00FF00FFFFFF8FFF4F6A
:1011B000FF1FFFFFFF00FFFFFFFFFF00FF00FF001B
:1011C000FF00FF00FF00FF00FFFFFFFFFFFFFFFF2B
:1011D000FFFFFF00FFFFFFFFFF00FF80FFC0FFC01A
:1011E000FFE0FFE0FFF0FFF7FFEFFFEFFF5FFF5FC4
:1011F000FF007F3F7F1F3F003F0F1F070F070F03B9
:1012000007030701030103000100010000000000C3
:101210000000000000000000FFFFFFFFFF00FFFFD5
:10122000FF1FFF4FFF8FFFFFFF00FF00FF00FF00CA
:10123000FF00FF00FF00FFFFFFFFFF00FFFFFFFFBA
:10124000FFFFFFFFFFFFFF00FF00FF00FF00FF00A9
:10125000FF00FF003F1F3F3F7F007F5FFF5FFFEF0B
:10126000FFEFFFF7FFF0FFE0FFE0FFC0FFC0FF80F0
:10127000FF0000000000000000000000000001006E
:10128000010103010303070307070F070F0F1F00E7
:1012900000000000000000000000FFFFFF8FFF4F74
:1012A000FF1FFFFFFF00FFFFFFFFFF00FF00000029
:1012B0000000000000000000FFFFFFFFFFFFFFFF36
:1012C000FFFFFF00FFFFFFFFFF00FF80C0C0E0C087
:1012D000E0E0F0E0F0F0FFF7FFEFFFEFFF5FFF5F10
:1012E000FF007F3F7F1F3F003F0F1F070F070F03C8
:1012F00007030701030103000100010000000000D3
:101300000000000000000000FFFFFFFFFF00FFFFE4
:10131000FF1FFF4FFF8FFFFFFF00FF0000000000D7
:10132000000000000000FFFFFFFFFF00FFFFFFFFC6
:10133000FFFFFFFFFFFFFF00FF00000000000000B5
:10134000000000003F1F3F3F7F007F5FFF5FFFEF18
:10135000FFEFFFF7FFF0FFE0F0E0F0C0E0C0E0805B
:10136000C0000000000000000000000000000100BC
:10137000010103010303070307070F070F0F1F08EE
:1013800020000000000000000000FFFFFFFFFF0042
:10139000FF000000000000000000FFFFFFFFFF0053
:1013A000FF000000000000000000FFFFFFFFFF0043
:1013B000FF0000000000000000007F1F3F1F3F00F3
:1013C0001F00FFFFFFFFFF00FF0000000000000004
:1013D0000000FFFFFFFFFF00FF0000000000000013
:1013E0000000FFFFFFFFFF00FF0000000000000003
:1013F00000001F1F3F1F3F003F00000000000000D3
:101400000000FFFFFFFFFFFFFF00FFFFFFFFFF00E8
:10141000FF00FFFFFFFFFFFFFF00FFFFFFFFFF00D9
:10142000FF00FFFFFFFFFFFFFF00FFFFFFFFFF00C9
:10143000FF0007070F070F0F1F003F1F3F1F3F0051
:101440001F00FFFFFFFFFF00FFFFFFFFFFFFFF0089
:10145000FF00FFFFFFFFFF00FFFFFFFFFFFFFF0099
:10146000FF00FFFFFFFFFF00FFFFFFFFFFFFFF0089
:10147000FF001F1F3F1F3F003F0F1F070F070F00F9
:10148000070A208080000050500000AAAA00000037
:1014900000000000000000AAAA000055550000AAA4
:1014A000AA00000000000000100000AAAA000055D9
:1014B000550000AAAA000000000000000000000A79
:1014C0000A00000505000002020000000000000004
:1014D00000000000000000000000000000AAAA00B8
:1014E000005050000080800000001000000000004C
:1014F00000AAAA000055550000AAAA00000000009A
:101500000000000000AAAA000055550000AAAA0089
:1015100000000000000000000002020000050500BD
:10152000000A0A000000A000000054000000AA0009
:10153000000055000000AA000000AA0000005500AD
:101540000000AA00000055001000AA000000AA0038
:10155000000055000000AA00000055000000AA008D
:101560000000AA000000550000002A00000015003D
:1015700000000A00AA00000055000000AA000000B8
:1015800054000000A0000000AA0010005500000058
:10159000AA00000055000000AA000000AA000000F8
:1015A00055000000AA00000055000000AA0000003D
:1015B0000A000000150000002A000000550000008D
:1015C000AA00006C1C691C0B1C081C051C021CFFDB
:1015D0001BFC1BE21B6F1C851569185C184F18BF9C
:1015E0001B4218351828189C1B1B180E1801187957
:1015F0001BF417E717DA17561BFD1803081F111FF6
:10160000121F101D151711151F07041F17151D1F79
:10161000151D01011F1F151F17151F03087F417F8F
:10162000427F4079494F41497F0F087F4F49797F79
:10163000497901017F7F497F4F497F050800007E7E
:1016400000007D7D00007F0606767070767676005D
:1016500000F0F0F7000070707606060000760606CF
:10166000FEFEFE00000000760000707076000005AF
:1016700008FEFFFFFFFEFEBFBFBFFEFEAFAFAFFE27
:10168000FEABABABFE07081F11151511111F0708A4
:101690001F19191F1F1F1F05080E1F1D190E0208F5
:1016A00000FFFFFF5D0880BEA2A280BEA2A2BE8096
:1016B000BE84C990BE80BE8AEAE2F8FFFFFF80AE1A
:1016C000AAAABA80BEA2A29C80BE8AEAE288A2949C
:1016D00094A288FFFFFF88A2BEA280BE84C990BEEC
:1016E00080BE8AEAE280BEA2A2BE80FFFFFF80BE6B
:1016F0008AEAEE80BEA0AFAF80BE9292BE80EE8836
:10170000B88EE0FFFF80BEA2AA94C09EA0A09EC09B
:1017100082BE82F882BE82F880BEA2A2BE80BE8453
:10172000C990BE80FFFF80AEAAAABA80BEA2A2A2C4
:1017300080BE8888BE80BEAAAAA280BE84E984BE7C
:1017400080BEAAAAA280FFFFFFFFFF80B8B0AA86D2
:101750008E80FFFFFFFFFF808E86AAB0B880FFFF5C
:10176000FFFFFFFFFFFFFFFFFFFFFFFFFFFF80AE59
:10177000AAAABA80BEA2A2BE80BEA0A0BE80BE841D
:10178000C990BE80BEA2A29CC1FFFFFFFFFF80BE2A
:10179000A2A2BE80BE8AEAE280BE8AEAE2F8FFFF29
:1017A000FFFFFF80BEA2A2BE80BE84C990BE80FFA4
:1017B000FFFFFFFFFFFFFFFFFFFFFFFFFF80400076
:1017C0000000000000000000000000000000000019
:1017D00000000000000000C0603058CC647266EC6D
:1017E000D8B060C0E038C8EC7474747474747474E5
:1017F0007474E4ECECE8E8D8D090B0206040C0808D
:101800008000000080202020202020202020202078
:101810002020202020208000000000000000000088
:1018200000000000000000000000000000000000B8
:1018300000000000000000000000000000000000A8
:101840000000000000000000000000000000000098
:10185000000080C0406020A0B19B9E8C2E73F87F5A
:101860003F9FDE04F00EE3FC3E1F0F2F2F2F5F3F44
:10187000FFFEFEFE7E7C3DBDB97BFBF7F7E6EE0C7E
:10188000FD3B82F6ECE8DAB262CA82028282828290
:1018900082AA82AA00002A80000000000000000046
:1018A000000000A008088888888888888888888838
:1018B00088888888080808A0000000000000000050
:1018C0000080E030C8ECE4F4F6767676746448D8AC
:1018D000D8ECE7F0FA7B3B93C79FBF3F4FE03E0356
:1018E000017C83387F70E7EFEFEFCFDEDEDEDEDEF8
:1018F0009FBFBFBCBC7C7C78787370FF7F1FC338F0
:101900008FE0FFFFFFFFFFFFFF7C81FE380000003C
:10191000000000802008A8AA28282828A82828280D
:1019200028A8088A280A08A08A8080808080808071
:1019300080AA8080AA0000AA0000000000000080A9
:10194000807FC01E7FFFFFE1CC9EB3A1A1B192DCDE
:10195000C1FFFF83FCB8E79F7FFFFFFFFEFDFAFAA0
:101960003A89E5E6E8CEDEDEDEDDBDBDBD797B7B16
:10197000FBF3F77767EFEFEFCF5F5E5E5E4F617C63
:101980007F477379FDFDFDFD7D787B7A7A7A7274ED
:10199000E4C890B2C0888A2020202022222020285B
:1019A00002A028020000000228A080000000000021
:1019B00000000000000000AA0080808080808080FD
:1019C00080808103F2FE05F5F7FBFBFBFBFDFDFDCF
:1019D000CDCEE666666666680FECF5FBFBFDFDFDA9
:1019E000EDCDCD8D8B37C7FBFDFDFEFEFEFF03E782
:1019F000E6CE9E9DC23EDAE5F6F7F7F3F37373FF8A
:101A0000FFFFFFFFFEFEF900FFFFFFFFFFFFFF0FDD
:101A1000E626C6FEFEFEFEFDFAF408D0E8F4FAFA69
:101A2000FAFAFA1AFAFAF4E8907088F6F4F4E8E8A8
:101A3000E8E8D0A0A0A0A0AAA040800080808020DC
:101A400020202020231FFEE11FFFFFFFFFFFFFFFDD
:101A5000FFE01C6642424242A7AC3BD3C7CFCFDF78
:101A6000FFFFFF7F7FFE19171F1FDFDFBF3FF0B7AC
:101A7000FB1D1E1E11D05FDFBF7FFFBFFF3C3C1F61
:101A8000DFDFBF3FFFBFFD101F1F1FFFFF1F1F1C1A
:101A90001BD8DFBF3FFF9FCFCF63F0CF3F7FFFFF5C
:101AA000FFFFC7C6C7E7777703F0FFFFFFFFFFFF22
:101AB000FF07F3190919131313180F20202020A270
:101AC000A2A2A2A2A2A2A18F3EF1CFCFCFCF4FC799
:101AD000A7A7A6A7B3B3B3B3B3B9A9ACA4A4A4A44E
:101AE000A4A4A4A6A2FF80808080BFB2DBCFF0BFF9
:101AF000FF80808080F7CE8CB7F8AFBFF0C0C08089
:101B0000BFB2DBCFF0AFFF80808080FFFF8080809E
:101B100080BFB4DBCFF0BFA2A2A2A2A3A3A2A4A4C1
:101B2000A4A4A4A4A4A4A2AEB0B3B3A7A7A7A727B4
:101B3000B89FA7A0A2A2A2A2A2A2A2A2A2A2A2AA67
:101B4000AAAAAAAAAAAAAAAAAAAAAAAAA8873CFF33
:101B50000000000000000000000000000000000085
:101B60000000000000000000000000000000000075
:101B70000000000000000000000000000000000065
:101B80000000000000000000000000000000000055
:101B90000000000000000000000000000000000045
:101BA000000000000000000000000000000FA0AADC
:101BB000AAAAAAAAAAAAAAAAAAAAAAAAAAAAAA1E11
:101BC0001800C038C6E9ADE1D1DDDDE1FDFDFDFD68
:101BD000FDFDFDFDFDFDFDF5BDF9C638C215020098
:101BE00041060808C84848D000F81FDF5F5F9F3FE4
:101BF000FF18C0504808080808666100082050888F
:101C0000502003813943988A888B88898A888A88FA
:101C10009B423A0340123810000200601800000096
:101C200000000000000000000000000000000000B4
:101C300000000000007F415D55577F416D6D517F71
:101C40004155555D7F416D6D417F057D417D057F2E
:101C50004155555D7F415D5D633E007F415D554966
:101C60007F117747711F0000000000000000000096
:101C70000000000000000000000000000000000064
:101C80000000007F416D6D417F007F4175151D7F14
:101C9000417F515555457F417777417F007F415DB9
:101CA00055577F416D6D417F415F50507F415F507F
:101CB000507F4155555D7F415D5D633E007F415FD3
:101CC000685F417F416D6D417F417B77417F415D21
:101CD0005D637F416D6D417F0000000000007F412A
:101CE0006D6D417F417B77417F415D5D633E007F4C
:101CF000417D137D417F416D6D417F417B77417F08
:101D0000117747711F007F417D137D417F416D6DCC
:101D1000417F417B77417F117747711F007F415D94
:101D20005D417F057D417D057F417777417F41554D
:101D3000555D7F416D6D517F515555457F030800BD
:101D40007F3E7F007F8040102020804010180000E0
:101D5000050010001B00210026006C0074007D00AF
:101D60008C00A700AC00B100C000CF00F000F6006E
:101D7000FC000B0111015A01620166016C0106129F
:101D8000001640009D249F41FA0DA741F419A314A9
:101D9000A3FE41F40DA30DA314A319A3FEFD02019C
:101DA000FC02FEFC01FC02FEFC02FD0103FC044CF3
:101DB000FEFC044CFCFC044DFC04FD0103FC044C43
:101DC000FEFC044CFCFC044C03FC04FD01034C072A
:101DD000FC044C05FC044C03FD0104FD01034C070D
:101DE000FC044C05FC044C03FC044DFC04FE403098
:101DF000FD0203FD02019E07130017FD01059F313F
:101E0000A72FA731A72CA728A72CA725AFFE31A75E
:101E100033A734A733A734A731A733A731A733A7F4
:101E20002FA731A72FA731A7FE2DA731AFFE33A7CC
:101E300034AFFE38A736A738A734A72FA734A72C6E
:101E4000AFFE31A72FA731A72CA728A32CA725B316
:101E5000FE31A733A734A733A334A734A731A33364
:101E6000A731A333A733A72FA331A72FA331A731BE
:101E7000A3FEA32DA331AFFEA333A334AFFE38A737
:101E800036A738A734A72FA334A72CB3FE4000DF12
:101E9000DFDFCF403041E8FD0108FC09FC0AFD010D
:101EA00008FC09FC0BFD010C4C07FC09FC0A4DFD6C
:101EB000010C4C07FC09FC0B4DFD010DFC0EFC0F49
:101EC000FD010DFC0EFC10FD01114C07FC0EFC0F7A
:101ED0004DFD01114C07FC0EFC104D9F49044020A4
:101EE00041FAAFFEFD0314FEFD0215FD0214FC14C1
:101EF000FD0F15FC14FD0F159F00000601150126AE
:101F00000137014A015D01720188019F01B801D2C8
:101F100001EE010B022A024B026E029302BA02E4A6
:101F20000210033F037003A403DC03170455049756
:101F300004DD0427057505C80520067D06E0064971
:101F400007B8072D08A9082D09B9094D0AEA0A9012
:101F50000B400CFA0CC00D910E6F0F5A1053115B11
:101F60001272139A14D41520178018F519801B23A8
:101F70001DDE1EB420A622B524D5F08D14A1C88183
:101F8000CFD9F1AF200004000003000B001C0001BA
:101F900000000040009F9DA04030FD07029FFC0311
:101FA0004CFBFC034CFDFC034CFFFC034C00FE41CE
:101FB000FC25AF29AF2CAFFE91175417C01E141784
:101FC000991E721E24210A217A19EC20C8204D2066
:101FD0008615080B0002020200000904000001023D
:101FE000020000052400100105240101010424025F
:101FF00006052406000107058103100040090401BD
:1020000000020A00000007050202400000070583E5
:10201000024000000403090412010002EF02014023
:102020004123368000010102030141726475696E2B
:102030006F204C4C430041726475696E6F204C6593
:102040006F6E6172646F0000CF2B11241FBECFEF43
:10205000DAE0DEBFCDBF11E0A0E0B1E0E8EAFBE5E9
:1020600002C005900D92AE32B107D9F727E0AEE27B
:10207000B1E001C01D92A03DB207E1F710E1C5E259
:10208000D0E104C02197FE010E94C52DC432D107C2
:10209000C9F70E94EE2B0C94D22D0C9400008130D5
:1020A000A9F028F0823019F1833059F1089586E0C3
:1020B000689FF0011124E056F84F828193810197C7
:1020C000938382838081918102970EC086E0689F0E
:1020D000F0011124E056F84F828193810197938398
:1020E000828380819181029691838083089586E026
:1020F000689FF0011124E056F84F82819381019688
:10210000EECF86E0689FF0011124E056F84F8281FF
:1021100093810196D5CFFC0180917805882311F138
:102120003FB7F89482E08093E9002091F200822F7B
:1021300090E01816190614F481E090E0882339F035
:10214000289844E6409377054091F100408322238C
:1021500039F02091F200211103C02BE62093E80012
:102160003FBF08958FEF9FEF08952FB7F89483E056
:102170008093E9009091E800892F807295FF04C058
:102180009091F20080E4891B2FBF089580916F0524
:1021900081110DC082E080936B0584E080936C0513
:1021A00010926E0510926D0581E080936F058BE6AD
:1021B00095E00895CF93DF931F92CDB7DEB7698383
:1021C000DC01ED91FC910280F381E02D41E050E0D3
:1021D000BE016F5F7F4F09950F90DF91CF910895FA
:1021E00083E08093E9008091F200882319F08AE36C
:1021F0008093E80008950E94B51090E00895CF9371
:10220000DF931F92CDB7DEB7FC018485958597FDDE
:1022100008C02FEF3FEF358724870F90DF91CF91D4
:102220000895CE0101960E948B10019719F48981BF
:1022300090E0F3CF8FEF9FEFF0CF0F931F93CF93EB
:10224000DF931F92CDB7DEB78C01FC0184859585A5
:1022500097FF0BC0CE0101960E948B10019771F47D
:10226000898190E0F80195878487F80184859585B8
:102270000F90DF91CF911F910F9108958FEF9FEFF6
:10228000F1CFFC018485958597FD0BC09FB7F8942D
:1022900082E08093E9008091F2009FBF90E0019678
:1022A00008959FB7F89482E08093E9008091F2004E
:1022B0009FBF90E00895409165055091660520917B
:1022C00063053091640542175307B4F49091E80018
:1022D0009570E1F39091E80092FD19C08093F100B0
:1022E000809165059091660501968F739927892BDA
:1022F00019F48EEF8093E800809165059091660552
:102300000196909366058093650581E0089580E0CD
:102310000895EF92FF920F931F93CF93DF93F82EC0
:10232000192FE62E042F81E0860F880F0E945B1183
:1023300083E00E945B11CF2DD12FEC0EFD2EF11CFE
:10234000CE15DF05B9F007FF13C0FE0184910E948E
:102350005B11182F80E00E945B118123219681116F
:10236000EFCFDF91CF911F910F91FF90EF900895E4
:102370008881EDCF81E0F5CFDF92EF92FF920F934E
:102380001F93CF93DF93D82E8A01EB017B01E40EDC
:10239000F51ECE15DF0559F0D7FE12C0FE0184915F
:1023A0000E945B1121968111F4CF0FEF1FEFC8013E
:1023B000DF91CF911F910F91FF90EF90DF900895E3
:1023C0008881EECF0F931F93CF93DF931F92CDB7EA
:1023D000DEB782E0898342E450E062ED7FE180E88D
:1023E0000E94BC110E94C610DC0112960D911C9136
:1023F0000115110589F0D801ED91FC910280F3815E
:10240000E02DBE016F5F7F4FC801099597FD04C0A5
:10241000F80100851185ECCF89810F90DF91CF9174
:102420001F910F910895615030F02091F100FC014F
:1024300020830196F8CF289884E680937705089545
:102440003FB7F89480915F0590916005A091610578
:10245000B091620526B5A89B05C02F3F19F00196E3
:10246000A11DB11D3FBFBA2FA92F982F8827BC01EE
:10247000CD01620F711D811D911D42E0660F771F16
:10248000881F991F4A95D1F708958F929F92AF9216
:10249000BF92CF92DF92EF92FF926B017C010E947C
:1024A00020124B015C01C114D104E104F104B9F024
:1024B0000E942012681979098A099B09683E7340B5
:1024C0008105910580F321E0C21AD108E108F108E5
:1024D00088EE880E83E0981EA11CB11CE4CFFF900B
:1024E000EF90DF90CF90BF90AF909F908F90089526
:1024F00065E070E080E090E00C9445128F929F922E
:10250000AF92BF92CF92DF92EF92FF920F931F9301
:10251000CF93DF936C017B018A0180910F018823A7
:1025200009F45CC080917805882309F457C0809134
:102530006A0580FF05C08091E00082608093E00022
:10254000E801B12C8AEFA82E93E0892E2AE3922E7F
:10255000209711F4BB20D9F10E94B51081110AC057
:10256000AA94AA20D9F161E070E080E090E00E9496
:102570004512EECF8C171D0611F00CF08C2F9FB773
:10258000F8948092E9002091E80025FD02C09FBFE9
:10259000DFCF282F30E0C21BD30BF701815020F092
:1025A00041914093F100FACFE20EF31EBB2021F0DF
:1025B0009092E800B12CEBCF8091E80085FDE7CF49
:1025C0009092E800BB24B394209709F3F3CF5D9871
:1025D00084E680936905101611063CF081E090E0D6
:1025E000F6019383828310E000E0C801DF91CF9170
:1025F0001F910F91FF90EF90DF90CF90BF90AF9021
:102600009F908F90089590E0880F991FE091750634
:10261000F0917606E80FF91F859194912091730649
:1026200030917406820F931F08954F925F926F92BC
:102630007F928F929F92AF92BF92CF92DF92EF9252
:10264000FF920F931F93CF93DF934C015901FC2D01
:10265000C02FD0E0CE01880D991D181619060CF078
:102660006CC020E8821691040CF067C09B012E0D0F
:10267000311D121613060CF060C0603471050CF0A9
:102680005CC04115510509F458C0E62FE770FE2ED5
:10269000DB0177FD179633E0B595A7953A95E1F7FD
:1026A0003A2F77FF04C0FF2011F03FEF3A0F662763
:1026B00077276819790997FC02C070E060E08038DC
:1026C00091050CF44BC090E89819961BA32F032E8C
:1026D000000CBB0B1A2F10953F3F0CF010E021E0CF
:1026E0008E2D877009F420E0E694E694E694E20EDD
:1026F000AE0DB11D19971CF028E0E22EE31AE11A85
:10270000310F20E83203D0011124A80DB91DA60F06
:10271000B71F019F600D711D1124460F571F0F2D0C
:102720000F2C000C110BF33009F41CC1C8F4F1306C
:1027300009F4D0C0F23009F47CC0DF91CF911F9131
:102740000F91FF90EF90DF90CF90BF90AF909F9050
:102750008F907F906F905F904F900895902FB5CF9E
:10276000FA3FB1F1232F2E0DFB3F39F7321729F332
:10277000BD01685A7E4FD12CC12CC91608F0A4C0E7
:10278000FA01EC0DFD1DE491F0E04F01002E02C0B6
:10279000880C991C0A94E2F737FD06C0FB01808182
:1027A000E82CE0948E218083FF2061F0373054F4D0
:1027B0005B01F0E8AF0EB11CE92CE094F5018081DB
:1027C0008E218083FFEFCF1ADF0A6F5F7F4FD5CF57
:1027D000232F2E0D321709F4B0CFBD01685A7E4F5A
:1027E000D12CC12CC91608F069C0FA01EC0DFD1DF1
:1027F000E491F0E04F01002E02C0880C991C0A946D
:10280000E2F737FD04C0FB01808188298083FF2027
:1028100051F0373044F45B01F0E8AF0EB11CF50124
:10282000808189298083FFEFCF1ADF0A6F5F7F4F96
:10283000D9CF6FEF70E00F2C02C0660F771F0A949C
:10284000E2F760957095772E232F2E0D321709F43D
:1028500074CFFD01E85AFE4F6F01B12CA12CA916CF
:1028600038F5FA01EA0DFB1DE491F0E02F01002E8E
:1028700002C0440C551C0A94E2F737FD05C0F6016E
:102880008081862384298083FF2059F037304CF4DF
:102890004601F0E88F0E911CF40180818721852983
:1028A0008083FFEFAF1ABF0A8FEFC81AD80AD7CFBD
:1028B0003F5F4C0F5D1FA058BF4FC8CF3F5F4C0F0D
:1028C0005D1FA058BF4F86CF3F5F4C0F5D1FA058C4
:1028D000BF4F4CCF6A0D7B1D232F2E0D321709F4ED
:1028E0002CCFFD01E85AFE4F6F01B12CA12CA91687
:1028F00088F5FB01EA0DFB1D8490912C002E02C08F
:10290000880C991C0A94E2F780949094FA01EA0DDD
:10291000FB1D6490712C002E02C0660C771C0A947B
:10292000E2F737FD05C0F601808188218629808382
:10293000FF2049F037303CF4F601E058FF4F80812A
:10294000892187298083FFEFAF1ABF0A8FEFC81A4A
:10295000D80ACDCF3F5F4C0F5D1F6C0F7D1FA05875
:10296000BF4FBCCFC92ED12CFA01E60FF71FA85AD2
:10297000BE4F00E810E00C191D09CC19DD09BE019D
:10298000660F771F41E050E06A010F2C01C0CC0CAC
:102990000A94EAF7592F2E2D792ECF93DF93ED016C
:1029A000EF96EF9622968590A590FF2059F08C9C8B
:1029B0004001AC9C500137302CF4E880B094EB20FF
:1029C000E928E99233233AF0EC90A094EA20E82831
:1029D000ED920C94EC1411965A9529F72A9551F022
:1029E000572D33951124E60FF11DA00FB11DC00F17
:1029F000D11DD9CFDF91CF9111249FCECF92EF92ED
:102A00000F93FA0104913196E4904E5F5F4F2223B9
:102A1000F9F0A1E0B0E03E2D377011F4B0E0A0E095
:102A2000EE2DE695E695E695EA0FFB2FF11D0E9F3C
:102A3000D0010F9FB00D112430E0220F331FA29F51
:102A4000F001A39FF00DB29FF00D11244E0F5F1FF8
:102A500023E0C22E30E020E00E9415130F91EF908A
:102A6000CF900895CF92EF920F93CF93DF93DC0135
:102A7000FA0104913196E4904E5F5F4F2223D1F02A
:102A8000C1E0D0E09E2D977011F4D0E0C0E0EE2DB3
:102A9000E695E695E695EC0FFD2FF11D0E9FE00102
:102AA0000F9FD00D11242C9FC0012D9F900D11243C
:102AB000480F591F8AEFC82E30E020E0CD010E9458
:102AC0001513DF91CF910F91EF90CF9008958FB1B3
:102AD0008095807F669B88601C9B8460089510921F
:102AE00053013E983F9808953E9A3F9A81E0809323
:102AF0005301089590915805982329F49091590510
:102B0000982381E009F480E008950895089596E0FF
:102B1000899FF0011124E056F84F8481282F30E07E
:102B200093E0359527959A95E1F72370660F6150EC
:102B3000260F220F220F220F2871877E282B248335
:102B40000895E091440686E0E89FF0011124EC57D7
:102B5000FA4F81818F7D81830895CF92DF92EF922A
:102B6000FF9280914A01823059F48091B0078770BA
:102B7000823009F453C048F48823D9F08130B9F188
:102B8000FF90EF90DF90CF900895833009F46DC0EF
:102B90008430B1F70E94A11580914C0190914D01B4
:102BA000A0914E01B0914F0188539F4FAF4FBF4F3F
:102BB00015C080917F0585FDE3CF806280937F05FE
:102BC0000E94A11580914C0190914D01A0914E0160
:102BD000B0914F018C599F4FAF4FBF4F80934C0125
:102BE00090934D01A0934E01B0934F01C9CF8091B6
:102BF0007F05982F9871983119F2885F80937F052F
:102C00000E94A11580914C0190914D01A0914E011F
:102C1000B0914F010A96A11DB11DE0CF80917D05B5
:102C2000C0904C01D0904D01E0904E01F0904F01CA
:102C3000833098F48F5F80937D050E94A11584E115
:102C4000C80ED11CE11CF11CC0924C01D0924D0168
:102C5000E0924E01F0924F0193CF0E94A11582E3C2
:102C6000C80ED11CE11CF11CEFCF80917F05982F7D
:102C70009770973009F484CF8F5F80937F050E940F
:102C8000A11580914C0190914D01A0914E01B09100
:102C90004F014E96A11DB11DA1CFA0915101B09140
:102CA0005201AA0FBB1F2A9FF0012B9FF00D112488
:102CB000660F771F57FD2CC0443051054CF442304D
:102CC0005105E9F04330510519F14130510551F0FA
:102CD000680F791FE75AFF4F81E0E617F70774F492
:102CE00080E00CC09C01261B370BB9012FE030E0BF
:102CF0002E1B3F0B81E06217730794F30895EA548B
:102D0000FF4F680F791F81E0E617F707BCF3E8CFA4
:102D10009C01261B370BB9012FEA3FEF2E1B3F0BFF
:102D200081E02617370754F7DBCF50E021E00E94FF
:102D30004D16882379F190917E0520918005392FD9
:102D400033703230E9F1333009F459C0313019F1C0
:102D5000223001F5E091440626E0E29FF0011124C3
:102D6000EC57FA4F208124FF15C020FD13C090625C
:102D700090937E052BE130E030937A05209379051E
:102D80002091510130915201225E3F4F30937C05DA
:102D900020937B0508952A30E9F7E091440626E068
:102DA000E29FF0011124EC57FA4F208125FFF2CF6A
:102DB00021FDF0CF906290937E052BE430E0DCCFD4
:102DC000263141F7E091440626E0E29FF00111240C
:102DD000EC57FA4F208126FFDDCF22FDDBCF90623A
:102DE00090937E052BE430E030937A0520937905AB
:102DF00020915101309152012A5C3F4FC7CF2E30B4
:102E000049F6E091440626E0E29FF0011124EC57D8
:102E1000FA4F208127FFBECF23FDBCCF9062909355
:102E20007E052BE130E0E0CF20E04BE15CE164E1A6
:102E300070E080E190E00E9432158CE00E947A15EB
:102E400081111092030108958091540180FD0AC000
:102E500080914701909148019F5F90934801815074
:102E60008093470180914801803218F084E180937B
:102E7000480180914701853118F480E28093470131
:102E8000089520E04DEB57E170E060E090E080E0D5
:102E90000E9432152091030144EA56E168E370E094
:102EA00081E190E00C943215CF93DF93C0914B01F8
:102EB0008CE0C89FC02D1124CF5B0E9441170E9457
:102EC0002417D0E08091480120E04DE35DE168E304
:102ED00070E08C0F9D2F911D0E94FE148091470180
:102EE00020E04DE35DE168E370E08C0F9D2F911DC4
:102EF0000E94FE1480E40E947A15882319F084E071
:102F000080934B0180E20E947A15811110924B014F
:102F10008CE00E947A15811110920301DF91CF910C
:102F200008950F931F93CF930E9441170E94241777
:102F3000C091010188E1C89F80011124809148015E
:102F400020E04DE35DE168E370E0800F912F911D7B
:102F50000E94FE148091470120E04DE35DE168E3AB
:102F600070E0800F912F911D0E94FE1480E40E945A
:102F70007A15882329F0C33018F4CF5FC09301017C
:102F800080E20E947A15882339F08091010188231C
:102F900019F08150809301018CE00E947A158823FA
:102FA00029F0809101018F5F80930301CF911F91E0
:102FB0000F91089560915101709152016A5C7F4FA9
:102FC00023E04FE753E18DE190E00C94FE14609113
:102FD0005101709152016A5C7F4F23E04DE951E14C
:102FE0008EE090E00C94FE146091510170915201BA
:102FF0006A5D7F4F23E04BE250E18EE090E00C945D
:10300000FE1460915101709152016A5C7F4F22E081
:103010004FE753E181E590E00C94FE14609151017B
:10302000709152016A5C7F4F22E04DE951E189E5E0
:1030300090E00C94FE1460915101709152016A5D10
:103040007F4F22E04BE250E181E590E00C94FE14CA
:1030500060915101709152016B5E7F4F21E04FE70B
:1030600053E18FE590E00C94FE1460915101709152
:1030700052016B5E7F4F21E04DE951E180E590E028
:103080000C94FE1460915101709152016B5F7F4F5F
:1030900021E04BE250E180E590E00C94FE14609159
:1030A0005101709152016B5E7F4F20E04FE753E179
:1030B00080E190E00C94FE146091510170915201F6
:1030C0006B5E7F4F20E04DE951E188E190E00C9488
:1030D000FE1460915101709152016B5F7F4F20E0AF
:1030E0004BE250E180E190E00C94FE14EF92FF92ED
:1030F0000F931F93CF93DF930EEF1FEFD0E0C0E04D
:10310000E0905101F0905201B701675E7F4F6C0F64
:103110007D1F20E045EC5FE0C8010E943215B70139
:103120006C1B7D0B21E045EC5FE0C801CE960E9450
:1031300032152597065F1F4FC23E8FEFD80701F764
:10314000DF91CF911F910F91FF90EF900895CF9253
:10315000DF92EF92FF920F931F93CF93DF93D0E014
:10316000C0E080E3E82EF12C670110E000E0609100
:10317000510170915201655E7F4F600F711F6C0F9E
:103180007D1F20E04BE05EE0C6010E94FE140A5F56
:103190001F4F8CE0C81AD1080E31110541F78CE0A1
:1031A000E80EF11C2696CE31D105F1F6DF91CF91D4
:1031B0001F910F91FF90EF90DF90CF9008950F93A4
:1031C0001F93CF93DF930E9476180E94A718C5E43F
:1031D000D6E003E716E0E991F0E0EE0FFF1FED53B4
:1031E000FA4E85919491FC0109950C171D0799F7EA
:1031F000DF91CF911F910F91089508959F92AF9203
:10320000BF92CF92DF92EF92FF920F931F93CF93D3
:10321000DF9326E0829FF0011124EC57FA4FE18002
:10322000F12C3DE0839FA0011124C0EAD7E007E024
:1032300010E0862F8150990BDC01AA0FBB1FAF5EF7
:10324000BE4F405F5F4F25E0A22E36E0B32E6CE00C
:10325000962E1C82C701002E02C0959587950A9470
:10326000E2F780FF36C08D919C911197FA01E01B27
:10327000F10BE80FF91F249130E083E03595279595
:103280008A95E1F7822F6A2D0E94912D8B9DB001C6
:1032900011246C5F7F4F621B730B969E6001979E9B
:1032A000D00C112493E0C90ED11CD982C882B29EE1
:1032B000B001B39E700D11246E5E7F4F28EE382F43
:1032C0002303C0011124860F971F9B838A83E491F7
:1032D000EC8326960150110908F0BBCFDF91CF9106
:1032E0001F910F91FF90EF90DF90CF90BF90AF9024
:1032F0009F9008953F924F925F926F927F928F922C
:103300009F92AF92BF92CF92DF92EF92FF920F9374
:103310001F93CF93DF93609150016F5F60935001D3
:10332000109244068CE08093800582EF9FEF90938B
:1033300052018093510183E390E090937A0580934A
:1033400079058CE190E090937C0580937B05862F36
:103350008150990BFC01EE0FFF1FEF5EFE4F2081A5
:103360003181A901F9013490FDE03F9E80011124D3
:103370000C5F1F4FF9013196C491C00FD12FD11DA1
:10338000A4E8B5E070E0E12CF12C812C912C5401E3
:103390008394371609F46AC011961C9211971296FD
:1033A0001C92129713961C92139714961C921497C2
:1033B00015961C921597FA013496E491EC9387E0E8
:1033C00090E06A01E0E1CE0ED11CF601E81BF90B9A
:1033D000E491EE2389F01196EC91119724013501C7
:1033E000082E04C0440C551C661C771C0A94D2F7A6
:1033F0004E2A11964C921197019738F7CA010B96F5
:10340000FC01D490ED2DE770E53051F4F801EF0D9B
:10341000F11DE20FF31FE4911296EC931297F394CF
:10342000FC01849187708630E0F0CE018E0D911DF5
:10343000F901E80FF91FE4911396EC931397FC013F
:103440003196E20FF31FE4911496EC931497FC016C
:103450003296E20FF31FE4911596EC931597F3E083
:10346000EF0E7F5F435F5F4F169693CF80E00E9421
:10347000FE1886E080930301DF91CF911F910F9199
:10348000FF90EF90DF90CF90BF90AF909F908F9084
:103490007F906F905F904F903F9008959AEA899F38
:1034A000A001112485E591E0689F9001699F300D8E
:1034B0001124CA01820F931F8FEC890F90E064E002
:1034C000959587956A95E1F7982F990F990F890F30
:1034D000241B350B92E1930F92959F70890F0895ED
:1034E0000F93CF93C22F57FD20C0443051054CF4A9
:1034F00042305105B9F043305105B9F04130510522
:1035000071F0645088500E944E1A80934901E091F6
:103510004901E93168F080E0CF910F91089564503E
:10352000885FF1CF6D5F8A5FEECF6D5F8650EBCF26
:10353000F0E0EB5BF94F828580934A018B3159F3C0
:10354000CC2321F0893039F381E0E6CF011113C09B
:10355000882309F38930C1F780917E0583FDF4CF7C
:1035600090917D05915090937D05992339F0886065
:1035700080937E05E9CF813069F7CDCF877F806169
:10358000F7CFE0915001E150FF0BEE0FFF1FEF5E10
:10359000FE4F0190F081E02D339684919091440686
:1035A000282F30E035952795359527952F713327AE
:1035B0009217130611F4837008950895CF93909194
:1035C0007F0595FF36C0C82F0E94C11A282F8C1383
:1035D00030C090917F05905290937F0540914C01AF
:1035E00050914D0160914E0170914F0148515C4FD7
:1035F0006F4F7F4F40934C0150934D0160934E01AC
:1036000070934F01E091440686E0E89FF001112499
:10361000EC57FA4F81E090E0A0E0B0E004C0880FE2
:10362000991FAA1FBB1F2A95D2F7809590818923E5
:103630008083CF910895CF9390917F059871A1F1E8
:10364000C82F0E94C11A8C1779F180917F0588508C
:1036500080937F0580914C0190914D01A0914E0186
:10366000B0914F01C296A11DB11D80934C01909362
:103670004D01A0934E01B0934F01E091440686E0C6
:10368000E89FF0011124EC57FA4F81E090E0A0E0B0
:10369000B0E004C0880F991FAA1FBB1FCA95D2F7BC
:1036A0008095908189238083CF910895CF93DF9374
:1036B000C0915101D0915201BE01605D7F4F23E066
:1036C00041E854E183E190E00E94FE140E94C11A97
:1036D000833061F4BE016F5C7F4F23E041E854E129
:1036E00083E190E0DF91CF910C94FE14DF91CF91B4
:1036F0000895CF93DF93C0915101D0915201BE0143
:10370000605D7F4F22E041E854E189E590E00E944E
:10371000FE140E94C11A823061F4BE016F5C7F4FBB
:1037200022E041E854E189E590E0DF91CF910C94EB
:10373000FE14DF91CF910895CF93DF93C091510193
:10374000D0915201BE01615F7F4F21E041E854E119
:1037500085E590E00E94FE140E94C11A813061F458
:10376000BE01605F7F4F21E041E854E185E590E0D4
:10377000DF91CF910C94FE14DF91CF910895CF93F8
:10378000DF93C0915101D0915201BE01615F7F4F23
:1037900020E041E854E188E190E00E94FE140E949C
:1037A000C11A81110CC0BE01605F7F4F20E041E86B
:1037B00054E188E190E0DF91CF910C94FE14DF9109
:1037C000CF910895089596E0899FF0011124E05665
:1037D000F84F24812770628173818091510190910B
:1037E0005201680F791F675F7F4F808191814BE0A5
:1037F0005EE003970C94FE1487E00C94E31B86E0D4
:103800000C94E31B85E00C94E31B84E00C94E31B15
:1038100083E00C94E31B80915401909155018770D3
:103820009927892B41F48091B1078F5F66E00E9450
:10383000912D9093B1078091B0078770282F220FA8
:10384000280F220F8091B107280F6091AE07709169
:10385000AF078091510190915201680F791F6A5F03
:103860007F4F8091AC079091AD0749E058E00496F6
:103870000C94FE1496E0899FF0011124E056F84F55
:103880008481282F30E087708130C1F018F08230B9
:10389000C1F0089593E0359527959A95E1F7237047
:1038A000628173818091510190915201680F791F5B
:1038B00047E853E0808191810C94FE1425812C5FB0
:1038C000EFCF83E0359527958A95E1F72370285F40
:1038D000E7CF81E00C943A1C80E00C943A1CEF9204
:1038E000FF920F931F93CF93DF9380917E05182F44
:1038F0001370012F000F87FF1CC0D0E0C0E0E02E46
:10390000F12C60917B0570917C05665071096C0FFC
:103910007D1F6E197F098091790590917A0520E0CD
:1039200045E253E004970E94FE142896C831D10561
:1039300041F780917E0560917B0570917C0524E0C4
:1039400084FD07C082FF0DC060917B0570917C05EE
:10395000212F43E451E08091790590917A050E94EE
:10396000FE1480917E0587FF1BC0D0E0C0E010E010
:1039700060917B0570917C056E5F7F4F6C0F7D1FA2
:10398000601B710B8091790590917A0521E045E2E9
:1039900053E004970E94FE142896C831D10541F7E0
:1039A000DF91CF911F910F91FF90EF90089540917B
:1039B0007E05842F807629F0809181058F5F80932A
:1039C00081058091510190915201437020917905B8
:1039D00030917A05423081F14330D1F14130A1F08C
:1039E00097FF08C001969093520180935101225095
:1039F000310913C080917B0590917C0501979093CC
:103A00007C0580937B05F3CF97FF0CC001969093C4
:103A10005201809351012E5F3F4F30937A052093DE
:103A20007905089580917B0590917C05019790938D
:103A30007C0580937B05EFCF833E4FEF940714F016
:103A40000197E5CF80917B0590917C050196EFCFA2
:103A5000833E4FEF940714F00197C5CF80917B050B
:103A600090917C050196CBCFEF92FF920F931F931D
:103A7000CF93DF931092720021E030E03093460143
:103A800020934501E8E7F6E048EDDF011D924A95F5
:103A9000E9F740EF4093100149E14093770641E791
:103AA00052E05093440140934301309340012093EE
:103AB0003F013093400720933F0722E42093C0004A
:103AC00021E02093C1002FEF2093D10020E8209324
:103AD000CF00EC012196FC018491D0937606C0932F
:103AE000750690E0880F991FC80FD91FCE01049664
:103AF000909374068093730638E7E32E36E0F32E36
:103B000010E000E0FE01E00FF11F84910E9403131A
:103B1000D7018D939C930F5F1F4FB6E3EB0EF11C03
:103B20000430110579F784E080937200DF91CF9122
:103B30001F910F91FF90EF900895CF92DF92EF9237
:103B4000FF920F931F93CF93DF934EE250E06BE110
:103B500070E085E496E00E94CB2DE09144064E2F64
:103B600050E026E0E29FF0011124EC57FA4F8081EB
:103B700084FF09C09BE0909345069CE09093460625
:103B80009DE09093480680FF03C09EE09093490615
:103B900085FF09C09FE090934A0690E190934B0601
:103BA00091E190934D0681FF03C092E190934E0600
:103BB00086FF09C093E19093680694E190936906AB
:103BC00095E190936B0682FF03C096E190936C069B
:103BD00087FF09C097E190936D0698E190936E0678
:103BE00099E19093700683FF03C08AE18093710688
:103BF00080917E05982F907609F03FC0E091800576
:103C0000F0E0EB5BF94F89E0828786E0849FF0016A
:103C1000859FF00D1124EC57FA4F018110E080EAE6
:103C2000C82E87E0D82ED0E0C0E097E0E92EF12C36
:103C3000C7018C1B9D0BF80102C0F595E7958A958D
:103C4000E2F7E0FF0AC0F601628180810E944E1A0D
:103C5000E82FF0E0EB5BF94FC287219636E0C30E08
:103C6000D11CC830D10521F7DF91CF911F910F9161
:103C7000FF90EF90DF90CF900895282F2072982F1B
:103C8000907483708230B1F0833001F1813061F043
:103C9000222319F089E080934706992309F4B5CFD0
:103CA00089E080936A06B1CF2223B9F389E080933B
:103CB0004C06F3CF222319F089E080936A069923FA
:103CC00009F4A3CF89E0809347069FCF222319F000
:103CD00089E080936F06992309F497CF89E0809358
:103CE0004C0693CF809154019091550168E770E0A4
:103CF0000E949D2D892BA1F410927200E8E7F6E056
:103D000088EDDF011D928A95E9F780EF809310011D
:103D10008DE49DE10E94341D10924B01109203012D
:103D200020E04FEB5BE164E170E081E390E00C9414
:103D3000321510927200E8E7F6E088EDDF011D927F
:103D40008A95E9F780EF8093100110924C01109250
:103D50004D0110924E0110924F01E9E7F5E086E027
:103D6000858380E486838CE08783108683E0848368
:103D7000118612861092500188E080930301089505
:103D8000CF93DF93C091530182E1C89FC02D1124CE
:103D9000C45D0E9441170E942417D0E08091480121
:103DA00020E04DE35DE168E370E08C0F9D2F911DF5
:103DB0000E94FE148091470120E04DE35DE168E33D
:103DC00070E08C0F9D2F911D0E94FE1480E40E94D4
:103DD0007A1581110E94741580E20E947A15811172
:103DE0000E946F158CE00E947A15882379F0C091AB
:103DF000530182E090E00E947B2DC81729F06C2FC0
:103E000082E090E00E94832D10920301DF91CF9118
:103E100008953F924F925F926F927F928F929F92FE
:103E2000AF92BF92CF92DF92EF92FF920F931F93C8
:103E3000CF93DF93CDB7DEB72A970FB6F894DEBFE6
:103E40000FBECDBFE82E862ECA01B9012AE0AE0111
:103E50004F5F5F4F5A010E943A2DF50101900020FB
:103E6000E9F73197EA19FB096E2E8BEF089F802D39
:103E70001124895F8E1B482E082E000C5508011155
:103E800013C010E0E6E0FE2E14151504C4F41F9DC7
:103E9000C001112420E04BE356E166E370E08B960D
:103EA0000E9432151F5FF0CF18164CF420E04BE152
:103EB00056E170E060E089E790E00E943215F12C55
:103EC0006201CC0CDD1CCC0CDD1CCE0CDF1C440CC8
:103ED000551C4C0C5D1C10E0062C000C7708912C36
:103EE00076E0372E812F90E08615970584F5F50151
:103EF000E80FF91F20812133A4F020532A3088F4E1
:103F0000013089F00230C9F04BE356E166E370E01E
:103F1000C201139D800D911D11240E9432151F5F57
:103F2000E1CF20E0EDCF880F991F880F991F4BE15B
:103F300056E1B4018C0D9D1DF0CF880F991F880F9D
:103F4000991F4BEF55E1B4018E0D9F1DE6CF2A96C8
:103F50000FB6F894DEBF0FBECDBFDF91CF911F919A
:103F60000F91FF90EF90DF90CF90BF90AF909F9018
:103F70008F907F906F905F904F903F9008950F9338
:103F8000CF93DF93D0E0C0E020E04EE956E1BE01E0
:103F900086E790E00E94FE142896C034D105A1F770
:103FA0002091440630E050E040E001E060E089E725
:103FB0000E94091F20917F05277030E050E040E00B
:103FC00002E067E18BE70E94091F20E047E956E124
:103FD0006DE170E08AE790E00E94321520917F0544
:103FE00030E083E0359527958A95E1F723703327F4
:103FF000032E000C440B550B66E28BE70E94091F51
:1040000020E04EE856E16CE270E089E790E00E9423
:10401000321520917F0525FB222720F930E050E062
:1040200040E065E38BE70E94091F20E045E856E188
:104030006BE370E089E790E00E94321580917E0585
:1040400020917F0584FF14C0206420937F05809118
:104050007F0586FF1EC020917D054FE656E16BE08F
:1040600070E08AE790E0DF91CF910F910C943215C8
:10407000809154019091550164E170E00E949D2D62
:10408000892B29F780917D05823008F780E4282765
:10409000DCCFDF91CF910F910895909183059F5FC1
:1040A000909383052091540130915501237033275B
:1040B000232B51F480917E05282F2370233009F0A3
:1040C00064C08C7F80937E059B3558F080917E057F
:1040D0008F77846080937E051092830586E08093BD
:1040E00003010E9476180E94A7180E94BF1F0E9419
:1040F0006F1C80915401909155016AE570E00E9417
:104100009D2D892B09F043C0E091440636E03E9F87
:10411000F0011124EC57FA4FE281E093440620911C
:104120008005822F65E00E94912D839FA0011124BC
:104130004C5F5F4F421B51099CE0949FB001959FDB
:10414000700D11246D5F7F4F70937A056093790530
:10415000239F900111242E5E3F4F482F58EE5403A9
:10416000C0011124820F931F2091510130915201FF
:10417000820F931F90937C0580937B05109281059D
:10418000609150018E2F0C94FE188F5F9BCF089585
:104190000F930E9476180E94A7180E94BF1F0E94CA
:1041A0006F1C20914C0130914D0140914E01509176
:1041B0004F0100E066E38BE20E94091F8CE00E9441
:1041C0007A15882339F0109203018DE49DE10F9157
:1041D0000C94341D0F9108950F930E9476180E943D
:1041E000A7180E94BF1F20914C0130914D014091B2
:1041F0004E0150914F0100E066E38BE20E94091FDF
:104200008CE00E947A15882319F086E080930301E0
:104210000F9108950E949D1D0E94DF1880918105D5
:10422000853038F48091540180FF0E94D71C0C9493
:10423000BF1F1092810580917E058F7B80937E0544
:1042400086E080930301F3CF6F927F928F929F92CB
:10425000AF92BF92CF92DF92EF92FF920F931F9394
:10426000CF93DF930E949D1D0E94DF1880917E05F1
:1042700085FDC9C184FDFEC08091540180FD41C00F
:10428000009151011091520160917B05601B80915A
:1042900079050E944E1A893110F480938005C091EF
:1042A0004B01D0E0FE01EB5BF24EF4900E946715EB
:1042B0008F21F81264C080917E058C7F80937E05EB
:1042C00060917B0570917C0540E08091790590912B
:1042D0007A050E949516811114C060917B0570913A
:1042E0007C05601B710B00E021E050E040E0809114
:1042F000790590917A050E94701A8823E9F10E944D
:10430000AD1588E00E947A15882319F089E0809322
:10431000030184E00E947A15882309F4ABC08091E0
:104320007E058370823009F42AC1833009F449C1C3
:10433000813009F4E3C080E00E941B1B80E00E94F2
:10434000DE1A8091B007982F9770953009F08BC0D6
:10435000869586958695209180052550330B82178A
:10436000130609F087C080917E05806880937E05E2
:104370008BE0809303017EC00E94D71CC2CFFE0158
:10438000EA5BF24EF4900E9467158F21F8121EC06E
:1043900080917E058D7F816080937E0560917B0595
:1043A00070917C0541E08091790590917A050E9499
:1043B00095168111A6CF60917B0570917C05601BDD
:1043C000710B00E021E041E050E091CFFE01E95B9C
:1043D000F24EF4900E9467158F21F8121EC0809152
:1043E0007E058E7F826080937E0560917B05709153
:1043F0007C0542E08091790590917A050E9495169E
:1044000081117FCF60917B0570917C05601B710BE2
:1044100000E021E042E050E06ACFC85BD24EFE01EE
:10442000C4910E9467158C23C8136BCF80917E05C1
:10443000836080937E0560917B0570917C0543E0ED
:104440008091790590917A050E949516811159CF36
:1044500060917B0570917C05601B710B00E021E091
:1044600043E050E044CF209180052550330B963037
:1044700008F063C080917E0583FF9AC19091820508
:104480009F5F9093820520915401309155012370D4
:104490003327232B21F424E0822780937E0580910B
:1044A0007E0524E08227913F08F07BC180937E0542
:1044B00080917E0584FD12C0809154019091550138
:1044C00066E070E00E949D2DC0EAD7E0F9E0AF2ED3
:1044D000B12CADE08A2E892B09F473C1DF91CF9105
:1044E0001F910F91FF90EF90DF90CF90BF90AF9012
:1044F0009F908F907F906F900C94BF1F809180054C
:104500008A3031F481E00E941B1B81E00E94DE1A98
:104510008091B007982F9770953041F486958695D5
:104520008695209180052150330B19CF209180056D
:104530002150330B963008F49DCF982F9695969581
:1045400096959217130609F095CF91E089278093ED
:10455000B007A0914406E6E0EA9FD0011124AC57D1
:10456000BA4F13968C911397E89FF0011124EC57E2
:10457000FA4F15968C919181892781837BCF809109
:104580008005863131F482E00E941B1B82E00E948C
:10459000DE1A8091B007982F9770953049F4869570
:1045A000869586952091800530E02B5F3F4FD7CED2
:1045B0002091800530E02B5F3F4F963008F0BDCF53
:1045C00059CF809180058E3031F483E00E941B1B0F
:1045D00083E00E94DE1A8091B007982F9770953083
:1045E00049F48695869586952091800530E02F5F69
:1045F0003F4FB5CE963008F43DCF2091800530E096
:104600002F5F3F4F9ACF90918105953038F480917C
:10461000540180FD2FCF0E94D71C2CCF90914406CF
:1046200030915001432F4150550BFA01EE0FFF1FFF
:10463000EF5EFE4F40815181FA013396E491F0E044
:10464000F595E795F595E795EF71FF279E171F06FE
:1046500091F488E080930301DF91CF911F910F9136
:10466000FF90EF90DF90CF90BF90AF909F908F9092
:104670007F906F9008958370E82FF0E035968DE07D
:10468000989FE00DF11D1124E40FF51F84918370B4
:10469000823069F0833009F466C0813009F068C067
:1046A0008AE0809380052AE047EF5FEF06C086E14D
:1046B0008093800526E14DED5FEF509352014093CA
:1046C0005101E491F0E0F595E795F595E795E093D4
:1046D0004406822F65E00E94912D682F70E0A6E0CD
:1046E0008A9FC00111240496821B9109FCE0FF2ED1
:1046F000F89ED001F99EB00D112413962A3009F4CA
:1047000040C0D8F5223009F43FC00A0F1B1F109398
:104710007A0500937905A6E02A9FC00111244296EC
:1047200018EE1603D001179FB00D11248A0F9B1F9E
:104730002A30A1F160F5223089F1C80FD91FC40FCA
:10474000D51FD0937C05C0937B0510928105632F04
:104750008E2F0E94FE1880917E058F7D806480934D
:104760007E0587E077CF8EE0809380052EE0A3CF93
:1047700082E08093800522E097CF2E3029F0263109
:1047800021F60AE010E0C1CF06EF1FEFBECF2E30BA
:1047900011F0263191F6C5E0D0E0CFCFCBEFDFEFBF
:1047A000CCCF877F846080937E051092820580CE77
:1047B00084FF82CE8AE0809303017ACEEAE0AE2EB7
:1047C000B12C8D818F5F83708D83A0915001A1509A
:1047D000BB0BAA0FBB1FAF5EBE4F80914406F50115
:1047E000889DE00DF11D1124CF01ED91FC91E80FA2
:1047F000F91FE491EE2351F01C81E12EF12C17708A
:104800001130C9F148F0123009F48DC026964AE003
:10481000A416B10499F662CE63E0F594E7946A9524
:10482000E1F7F3E0EF22FF246A807B80C880D98023
:1048300020E0A701B301C6010E944D161A2D109564
:104840001170811115C0012F20E0A701B301C6012D
:104850000E94701A81110CC08C8190E023E0959524
:1048600087952A95E1F7612F83700E944F10CECF74
:1048700061E0812F1AC053E0F594E7945A95E1F76F
:1048800023E0E222FF246A807B80C880D98020E078
:10489000A701B301C6010E944D169A2D9170992E61
:1048A0009126882329F061E0892D0E948715AECFDB
:1048B000092D20E0A701B301C6010E94701A8111E1
:1048C000F2CF8C8190E043E0959587954A95E1F78A
:1048D000692D83700E944F10EA80FB80C880D980C8
:1048E00043E350E08EE190E0F601FF27D701BB27BC
:1048F0009C012E513109BA016E177F0731F48901ED
:104900000E5E1F4FA017B10789F16C5071092A5F25
:104910003F4F8217930781F70696445F5F4F8C33B2
:10492000910531F773CF33E0F594E7943A95E1F7C9
:1049300033E0E322FF246A807B80C880D98020E0B6
:10494000A701B301C6010E944D161A2D10951170D2
:10495000882311F060E08DCF012F20E0A701B30183
:10496000C6010E94701A8111F5CF76CF6C80712C30
:1049700083E0759467948A95E1F753E06522772484
:1049800081E0681A710820E0A301B701C6010E9406
:104990004D1681113BCF092D20E0A301B701C601BF
:1049A0000E94701A811132CF60E07ECF1F920F9269
:1049B0000FB60F9211248F939F938091E1009091F5
:1049C000E100937F9093E10083FF0FC01092E90014
:1049D00091E09093EB001092EC0092E39093ED0045
:1049E0001092780598E09093F00082FF22C093E047
:1049F0009093E9009091F200992319F09AE3909333
:104A0000E80090916905992341F0909169059150D2
:104A100090936905911101C05D9A90917705992352
:104A200041F090917705915090937705911101C0D5
:104A3000289A84FF18C08091E2008E7E8160809366
:104A4000E2008091E1008F7E8093E10080916A0511
:104A50008E7E806180936A059F918F910F900FBE2B
:104A60000F901F90189580FFF7CF8091E2008E7E07
:104A700080618093E2008091E1008E7E8093E1006E
:104A800080916A058E7E8160E5CF1F920F920FB6EE
:104A90000F921124CF92DF92EF92FF920F931F9308
:104AA0002F933F934F935F936F937F938F939F9336
:104AB000AF93BF93EF93FF93CF93DF93CDB7DEB761
:104AC0006C97DEBFCDBF1092E9008091E80083FFB4
:104AD00025C068E0CE0145960E94131282EF8093B4
:104AE000E8008D8987FF39C09091E80090FFFCCFE6
:104AF000982F907609F034C19E894F89588D2F895F
:104B0000F88C911131C0803861F5809168058093EF
:104B1000F1001092F1008EEF8093E8006C960FB6D2
:104B2000F894DEBF0FBECDBFDF91CF91FF91EF9123
:104B3000BF91AF919F918F917F916F915F914F91B5
:104B40003F912F911F910F91FF90EF90DF90CF90A9
:104B50000F900FBE0F901F9018959EEF9093E80056
:104B6000C7CF1092F100D5CF913059F48111D3CF36
:104B70004130510581F6809168058D7F80936805ED
:104B8000CACF933049F48111C6CF4130510519F68F
:104B9000809168058260F2CF953041F48091E80001
:104BA00080FFFCCF20682093E300B5CF963009F05A
:104BB000A9C00B8D1C8D22E01092E90010926605B1
:104BC00010926505F2122EC01092640510926305D2
:104BD0000E94E2111F8299E09983FA8291E09E83FC
:104BE00090EA98879AEF998720916505309166053C
:104BF000275F3F4F3C832B838D831092E9001092F7
:104C0000660510926505109364050093630549E0FD
:104C100050E0BE016F5F7F4F80E00E94BC110E9498
:104C2000E21179CF10936405009363050E94C610CA
:104C3000DC0112960D911C910115110509F451C169
:104C4000D801ED91FC910480F581E02DBE016B5EF1
:104C50007F4FC8010995009709F03EC1F801008512
:104C60001185EACFF3E0FF120EC08F89882309F483
:104C700040C0823061F440E860E186E390E20E9447
:104C80008911811148CF81E28093EB0047CF8130B9
:104C900029F440E86BE08AE290E2F1CF833099F7A3
:104CA0000E94C610DC011296ED90FC908E010F5F01
:104CB0001F4F6801E114F10479F0D701ED91FC91E7
:104CC0000680F781E02DB801C7010995080F111D75
:104CD000F701E084F184EECFD8011C92F601019037
:104CE0000020E9F73197BF016C197D0940E0C6014A
:104CF000C6CF64E170E2FB01449150E080E80E947D
:104D0000BC1109CF973009F4BECF983021F481E06F
:104D10008093F10000CF993009F0FDCE837009F047
:104D2000B2CFE6E1F1E081E031E096E32191222388
:104D300071F08093E9003093EB00DF0111972C9123
:104D40002093EC009093ED008F5F873079F78EE72A
:104D50008093EA001092EA008F8980937805DBCE79
:104D60008B8D9C8D1092E90010926605109265055E
:104D70009093640580936305898D811192C08E891B
:104D80009D89913A49F4813209F07DCF47E050E0A6
:104D900068E071E080E0B3CF913209F074CF8332E4
:104DA00069F48F89988DB0E0A0E08093040190931E
:104DB0000501A0930601B0930701ADCE803269F4DE
:104DC0008091E80082FFFCCF67E088E091E00E94DC
:104DD00013128BEF8093E8009ECE823209F09BCEB7
:104DE0008F8980930F01EEEFFFE7859194918B3FC0
:104DF0009C4D51F1E0E0F8E08091080190910901AB
:104E0000A0910A01B0910B01803B9440A105B1052E
:104E1000F1F480910F0180FD1AC0EE3F8AE0F8079F
:104E200089F587E797E7918380838091600080937D
:104E3000670588E19BE00FB6F894A8958093600021
:104E40000FBE9093600067CEEEEFFAE0D5CF808181
:104E500091818737974709F05ECEA89580916000D1
:104E60008861809360008091670580936000EE3FC9
:104E70002AE0F20789F08091FE0A9091FF0A91835F
:104E8000808349CE808191818737980751F2909332
:104E9000FF0A8093FE0AC5CF1092FF0A1092FE0A05
:104EA0003ACE0E94C610DC0112960D911C9101159C
:104EB000110509F4E8CED801ED91FC910190F08143
:104EC000E02DBE016B5E7F4FC8010995811123CE95
:104ED000F80100851185EBCF181619060CF41BCECE
:104EE000D2CEF1E0FF12BECE68E170E204CF1F9295
:104EF0000F920FB60F9211242F933F938F939F938E
:104F0000AF93BF9380915B0590915C05A0915D0587
:104F1000B0915E0530915A0523E0230F2D3758F5E7
:104F20000196A11DB11D20935A0580935B059093B6
:104F30005C05A0935D05B0935E0580915F0590913F
:104F40006005A0916105B09162050196A11DB11D9A
:104F500080935F0590936005A0936105B09362050F
:104F6000BF91AF919F918F913F912F910F900FBE65
:104F70000F901F90189526E8230F0296A11DB11DD2
:104F8000D2CF2F923F924F925F926F927F928F92E9
:104F90009F92AF92BF92CF92DF92EF92FF920F93C8
:104FA0001F93CF93DF933FE2C32E31E0D32EC8E7A8
:104FB000D6E010E000E0772473944BE1942E56E3A2
:104FC000852E69E0462E6DE3562E22242A94322C3B
:104FD000EEA5EE23A9F08FA59E2F9370891708F4F4
:104FE0009BC0F0E0F595E795F595E795EE0FFF1F6F
:104FF000E750F14E85919491F601928381831FA62B
:105000009CA99923F9F08DA9292F2F77022E000C46
:10501000330B821713060CF489C08A8197FF7FC077
:1050200081508A838A8181117CC081E08A83EA81F0
:10503000F0E0EE0FFF1FE750F14E859194919EA393
:105040008DA31DAA58A5552321F13AA529A53111F3
:1050500019C0422F407426FF6CC08DA19EA1850F00
:10506000911D57FD9A9527FD69C097FD65C04423A2
:1050700009F466C0863BF4E29F0714F085EB94E2E6
:105080009EA38DA381E0830F8AA72F73321708F0A8
:105090001AA69BA5992371F0EA81EE2359F08DA5FC
:1050A0002CA5482F4F71322F3F71431708F04AC08B
:1050B0008F5F8DA749A9442311F13AA9632F60742A
:1050C00036FF6CC08DA19EA12BA950E027FF69C0BF
:1050D000840F951F97FD68C0662309F469C0863B5D
:1050E00044E2940714F085EB94E29EA38DA33F71F4
:1050F000822F8F71831708F05DC02F5F2BAB89A1C2
:105100009AA1009709F45DC08F3F980709F49AC0EF
:1051100001979AA389A396C08F5F8FA771CF8F5FE6
:1051200080CF803408F483CF8FE380CF8F5F8DAB47
:1051300089CF8FA190E093CF90E080E04111A0CF84
:105140008FA3A0CF807EF1F480E28DA78DA5807E15
:1051500051F09F3F09F1292F22952F70E20F8034E3
:1051600011F49F70E90F88A9F0E0E80FF11D87FDA9
:10517000FA95EE0FFF1FE750F14E859194919EA393
:105180008DA398CF803231F426FD04C09F3F11F0EB
:1051900080E4DBCF1DA6DACFE0E0E1CF8FA190E085
:1051A00093CF841B950B96CF90E080E061119DCF4B
:1051B0008FA39DCF27FF02C01BAAA1CF80E88BAB96
:1051C0009ECFC8010496672C01C0660C8A95EAF749
:1051D000909E5001919EB00C1124809EC001819E32
:1051E000900D11249C012858394F790188819981AB
:1051F000BC016F5F7F4F79836883FC014491403429
:1052000008F07CC04A83442319F088A9480F4A83D8
:10521000EA81F0E0EE0FFF1FE750F14E8591949187
:105220009EA38DA389A5811102C08FA58FA38CA5F4
:1052300085FD1DA689A19AA10097C1F28F3F98070D
:1052400009F066CF20911001822F90E0002E02C05D
:10525000959587950A94E2F780FD0AC0033009F01E
:10526000F4C18091410790E09595879580933E0128
:10527000207F39F5809198069091CE06890F909104
:105280000407890F90913A07890F09F4E6C180E578
:10529000A82E87E0B82E98E7E92E96E0F92EF701C0
:1052A00080A10E940313F7019183808312A211A2AF
:1052B000F6E3EF0EF11CAE14BF0489F780EF809384
:1052C00010010F5F1F4FE696F5E0CF0ED11C0430A2
:1052D000110509F07DCEDF91CF911F910F91FF90C5
:1052E000EF90DF90CF90BF90AF909F908F907F9086
:1052F0006F905F904F903F902F900895403A08F044
:1053000009C1E42FE054FF0BEC30F10509F4BFC0F4
:105310000CF04CC0E530F10509F4A2C0F4F4E23021
:10532000F10509F49DC094F4309709F491C03197C8
:1053300009F080CF029699838883FB01649168A766
:1053400080E0413409F080E489A774CFE330F105AF
:1053500009F493C0349771F36DCFE830F10509F487
:1053600062C0A4F4E630F10509F487C0379709F06C
:1053700061CFFB0164916BA79C012D5F3F4F398387
:105380002883FC013296E491ECA754CFEA30F10572
:1053900009F47BC002963B970CF471C09983888313
:1053A000FB01849168A9680F68AB44CFE331F10534
:1053B00009F477C064F5EF30F10509F470C0DCF44E
:1053C000ED30F10509F469C03E9709F033CFFB01D8
:1053D0002591349129AB9C012D5F3F4F3983288360
:1053E000FC0132962591349180E04E3409F080E43E
:1053F000820F8AAB1FCFE131F10509F450C03CF3B5
:10540000029699838883FB0164916CAB13CFEC35D2
:10541000F10509F451C04CF4E431F10509F443C03D
:10542000759709F007CF1BA605CFEE35F10509F4F6
:105430005CC00CF454C0EF35F10509F0FBCE80914F
:1054400010018625809310011FA23AA229A2F2CE54
:10545000029699838883FB0164916FA36FA7EACEBC
:10546000FB01649168A79C012D5F3F4F398328831E
:10547000FC013296E491E9A7DDCE18A6DBCE998334
:105480008883FB0164916EA7D5CE1EA6D3CE02966B
:1054900099838883FB01649187CF18AACBCE19AA80
:1054A000C9CE1CAAC7CEFFEFFBA7029699838883BB
:1054B000FB0164916CA7BECE029699838883FB01A1
:1054C0006491E09177066E0F6093770670E0C201F9
:1054D0000E94B12D7093440160934301ABCE0296BC
:1054E00099838883FB016491EFCFA8E7B6E021E0C0
:1054F00030E0FC01E20FF31FE4919096EC9390975B
:105500002F5F3F4FD6962530310599F70596998341
:10551000888390CE403E28F44F59550B5AA349A397
:1055200089CE403EA9F4DE0190E080E09695982F68
:10553000882797958795ED91FD91E4912E2F2F77F0
:10554000822BE7FDF3CF8F5B9F4F9AA389A372CE87
:105550004C3F08F46FCE24E0240F223008F039C00D
:105560004C3FA9F1029699838883FB016491E881FD
:10557000F9819F012F5F3F4F39832883E4915CA11C
:105580005E1701F14F8D842F90E07BA1D701A80F0A
:10559000B91F51967C93519758965C93D501A80FEB
:1055A000B91FAA0FBB1FA858B94F809173069091DD
:1055B0007406281B390B14963C932E9313974F5F58
:1055C0004F8FECA36BA38CA10E940313A0CF60E0CC
:1055D000CECFDE0190E080E04E3F29F58BA1811116
:1055E0001FC0EF8DEE2379F3E150EF8FF0E0D5018E
:1055F000AE0FBF1FAA0FBB1FA858B94F80917306EB
:105600009091740613962D913C91820F931F99836C
:105610008883EE0DFF1D81898BA3808D8CA30ACE1C
:1056200081508BA3D0CF9695982F882797958795F3
:10563000ED91FD91E4913E2F3F77832BE7FDF3CF72
:10564000680F791F79836883F5CD8DA19EA1F6013E
:10565000928381838FA180830BCE88EDE8E7F6E00B
:1056600011928A95E9F7109272002BCE2F922FB6E5
:105670002F9320912E01209520932E0109F08BC0AD
:10568000BF93AF930F921F9220913A0100903C017B
:10569000020E00923C0120913B0110903D01121E30
:1056A00010923D01B12DB7FDB095BB0FA09139010E
:1056B000B058BA02110CA12D209130010090320196
:1056C000020E009232012091310110903301121E1E
:1056D00010923301212D220F2121B0912F0127FD9E
:1056E000B195AB0F2091350100903701020E009269
:1056F00037012091360110903801121E10923801A6
:10570000B091340117FCB195AB0FB1E000903F01AF
:1057100010904001000C111C17FC0B2616FC0B26E8
:1057200000923F0110924001B0913E0117FCB195EB
:10573000AB0FB0910001AB0FA093CF00B091460129
:10574000A0914501119729F0B0934601A09345011E
:105750001EC0B0914401A0914301B0934601A093B3
:10576000450178943F934F935F936F937F938F930B
:105770009F93EF93FF9311240E94C127FF91EF9114
:105780009F918F917F916F915F914F913F911F906A
:105790000F90AF91BF912F912FBE2F901895E0E5FC
:1057A000F7E01382128288EE93E0A0E0B0E08483F9
:1057B0009583A683B78380E291E0918380838FEF06
:1057C0009FEF95878487E0EAF7E014821286108ABB
:1057D000168A148E12A210A616A60895789484B57F
:1057E000826084BD84B5816084BD85B5826085BDDD
:1057F00085B5816085BD80916E00816080936E006B
:10580000109281008091810082608093810080915C
:10581000810081608093810080918000816080930D
:10582000800080919100826080939100809191002E
:1058300081608093910080919000816080939000BE
:105840008091C10084608093C1008091C10082601A
:105850008093C1008091C10081608093C1008091DC
:10586000C30081608093C3008091C00082608093F8
:10587000C0008091C20081608093C20080917A0054
:10588000846080937A0080917A00826080937A00AD
:1058900080917A00816080937A0080917A0080689C
:1058A00080937A00109278051092680510926A052C
:1058B0008091D70081608093D70080EA8093D800E0
:1058C00089B5806189BD89B5826089BD09B400FE52
:1058D000FDCF61E070E080E090E00E944512809191
:1058E000D8008F7C80618093D8008091E000807F19
:1058F0008093E0008091E1008E7E8093E1008DE056
:105900008093E200559A209A81EC80937C0085B1C7
:10591000806F85B984B1877E84B984B1876E84B97C
:105920005E9A5F988AB1806D8AB9769A6E9881B3D3
:10593000806F81BB899880B38D7080BB80E58CBD02
:1059400081E08DBD0E9478125F9A0E9478125E9865
:105950005C98E9E7FFE186E89FE124912EBD000015
:105960000DB407FEFDCF31968E179F07B1F75C9AF5
:1059700081E8809364008091650081608093650078
:1059800082E090E00E947B2D882341F10E947415F3
:1059900080E18093020186E89FE10E94341DEE249D
:1059A000E394C8E5D1E000E010E0DD24D3948FB7A4
:1059B000F89440915B0550915C0560915D05709194
:1059C0005E058FBFF0905601FF2059F010925601EE
:1059D0000115110561F30E940000E9CF0E946F15C7
:1059E000D7CF80915701942F981B892F9091020156
:1059F000891738F48F5F891758F7E3BE889513BE6F
:105A0000E7CFD09256014093570180915401909175
:105A10005501019690935501809354018091590549
:105A2000809358050E946715809359058F2DFE01BC
:105A300081118FEF0024819381938193819303944B
:105A4000D1F7E0910301F0E0EE0FFF1FE854F04EB4
:105A500085919491FC010995FE0180E098E0008019
:105A60000EBCF110012C019780FDFDCF0192B9F71A
:105A70000DB4AECFBB272A3051F4992342F4BDE2D6
:105A800090958095709561957F4F8F4F9F4F0C94A7
:105A90004A2DBB27FA01A62F6217710581059105D2
:105AA000330B30FB66F0AA27660F771F881F991FFC
:105AB000AA1FA21710F0A21B63953850A9F7A05D8A
:105AC000AA3308F0A95DA19336F7B111B193108202
:105AD000CA010C946B2DDC01FC01672F71917723B7
