:100000000C94B0100C94D8100C94D8100C94D810F8
:100010000C94D8100C94D8100C94D8100C94D810C0
:100020000C94D8100C94D8100C94DF250C944E2608
:100030000C94D8100C94D8100C94D8100C94D810A0
:100040000C94D8100C94D8100C94D8100C94D81090
:100050000C94D8100C94D8100C94D8100C948028C0
:100060000C94D8100C94D8100C94D8100C94D81070
:100070000C94D8100C94D8100C94D8100C94D81060
:100080000C94D8100C94D8100C94D8100C94D81050
:100090000C94D8100C94D8100C94D8100C94D81040
:1000A0000C94D8100C943F2C0C94D810050201002D
:1000B00002F9060B0C1100003500000000004000A2
:1000C0000000000000640000000000FF00000001CC
:1000D000000061010A131B231002000000000066EB
:1000E000042C547CA42000030000000060000000E9
:1000F0000000010403031F0502020001F9060B0CB6
:100100001100003500000000004000000000000069
:100110000000000000008000000001000061010AF2
:10012000131B231002000000000066042C547CA462
:10013000200003000000006600000000000104032E
:10014000031F020407101800F0F0F8F0F8F8FCF8AC
:10015000FCFCFEFCFEFEFFFEFFFCFEFCFEF8FCF8D5
:10016000FCF0F8F0F800F0006363FF7FFFFFFF9FF3
:10017000FFE7FFF9FFFFFFFFFFFFFFFFFFFFFFFFAD
:10018000FF7FFF7FFF007F000E0C1E0C1F183F1A21
:100190003F357F357F6BFF6BFF357F357F1A3F180B
:1001A0003F0C1F0C1E000E00F0F0F8F0F8F8FCF801
:1001B000FCFCFEFCFEFEFFFEFFFCFEFCFEF8FCF875
:1001C000FCF0F8F0F800F0007F7FFF7FFFFFFFFFFB
:1001D000FFFFFFFFFFFFFFFFFFF9FFE7FF9FFFFFAD
:1001E000FF7FFF63FF0063000E0C1E0C1F183F1AF9
:1001F0003F357F357F6BFF6BFF357F357F1A3F18AB
:100200003F0C1F0C1E000E00F0F0F8F0F8F8FCF8A0
:10021000FCFCFEFCFEFEFFFEFF7CFE7CFE38FCB814
:10022000FC10F8F0F800F0007F7FFF7FFFF9FFE798
:10023000FF9FFFFFFFFFFFF0FFF9FFF8FFFCFFFC50
:10024000FF7EFF63FF0063000E0C1E0C1F183F1A99
:100250003F357F357F6BFF6BFF357F357F1A3F184A
:100260003F0C1F0C1E000E00F0F0F810F8B8FC3820
:10027000FC7CFE7CFEFEFFFEFFFCFEFCFEF8FCF8B4
:10028000FCF0F8F0F800F0006363FF7EFFFCFFFC79
:10029000FFF8FFF9FFF0FFFFFFFFFF9FFFE7FFF908
:1002A000FF7FFF7FFF007F000E0C1E0C1F183F1A00
:1002B0003F357F357F6BFF6BFF357F357F1A3F18EA
:1002C0003F0C1F0C1E000E008000C080C080FCF898
:1002D000FCFCFEFCFEFEFFCEFFE0FEF0F878FC78B2
:1002E000FC30F8F0F800F0007F7FFF7FFFF9FF8718
:1002F000FFFFFFFFFFFFFFF1FFF8FFF8FFFCFFFC30
:10030000FF7EFF63FF0063000E0C1E0C1F081F0A18
:100310003F357F357F6BFF6BFF357F357F0A3F08A9
:100320001F0C1F0C1E000E180800C0C0F0F0F830A3
:10033000F8183C0C1E0C1E0C1E060F060F060F06AE
:100340000F060F060F060F060F0C1E0C1E0C1E18B4
:100350003C30F8F0F8C0F000C00003030F0F1F0C92
:100360001F183C30783078307860F060F060F060D2
:10037000F060F060F060F060F0307830783078183D
:100380003C0C1F0F1F030F0003101800F0F0F8F0D3
:10039000F8F8FCF8FCFCFEFCFEFEFFFEFFFCFEFC99
:1003A000FEF8FC80F800800000000000FFFFFFFF67
:1003B000FF7FFFBFFF3FFFFFFFFFFFFFFFFFFFFFCD
:1003C000FFFFFFFFFFFFFFFCFF00FC000F0F1F0FF1
:1003D0001F1C3F1D3F3E7F3F7F7FFF7FFF3F7F3FD3
:1003E0007F1F3F1F3F0F1F0F1F000F000000000067
:1003F0008080F8F8FCFCFEFCFEFEFFFEFFFCFEFC2D
:10040000FEF8FCF8FCF0F8F0F800F000FCFCFFFF50
:10041000FFFFFFFFFFFFFFFFFFFFFFFFFFFFFF3FAC
:10042000FFBFFF7FFFFFFFFFFF00FF000F0F1F0F4A
:100430001F1F3F1F3F3F7F3F7F7FFF7FFF3F7F3E6D
:100440007F1D3F1C3F0F1F0F1F000F00000000000B
:1004500000008080C0C0E0C0E0E0F0E0F0F0F8F024
:10046000F8F8FC78FC70F8F0F800F000E0E0F8F83C
:10047000FCFCFF7FFF7FFFFFFFFFFFFFFF41FF6CE3
:10048000FF20FF36FF10FFFFFF00FF000F0F1F0FC1
:100490001F1F3F1C3F3B7F387F7FFF7FFF207F3741
:1004A0007F163F1A3F081F0F1F000F00F0F0F87073
:1004B000F878FCF8FCF0F8F0F8E0F0E0F0C0E0C00C
:1004C000E080C0008000000000000000FFFFFF107F
:1004D000FF36FF20FF6CFF41FFFFFFFFFFFFFF7FA5
:1004E000FF7FFFFCFFF8FCE0F800E0000F0F1F08A3
:1004F0001F1A3F163F377F207F7FFF7FFF387F3BEC
:100500007F1C3F1F3F0F1F0F1F000F000000000048
:1005100000000000000000000000000000000000DB
:10052000000000000000000000000000E0E0F0F02B
:10053000F8F8FCF8FCFCFEFCFEECFED4FEB4FEB4C5
:10054000FEA8FCD8FCF0F8E0F000E00009010B0385
:100550001F071F073F0F3F0F3F0F3F0F3F0F3F0F7B
:100560003F073F071F031F010B00090000000000A9
:100570008080C0C0E0E0F0E0F060F0A0F0A0F060AB
:10058000F0C0E080C00080000000000000003F3F9D
:100590007F7FFFFFFFFFFFFFFFFEFFF9FFF7FFF782
:1005A000FFF8FF7FFF3F7F003F00000000000800D2
:1005B00008001C001D013F013F013F013F013F01B9
:1005C0003F001D001C0008000800000000000000A3
:1005D000E0E0F8F8FCFCFEFEFFE6FF1AFFF6FF0C79
:1005E000FEF8FCE0F800E000000000000000000061
:1005F00007071F1F3F3F7F7FFF7FFF7FFF7EFF3F7C
:100600007F1F3F071F0007000000000000000000E0
:10061000080008001C001C003E003E003E003E009A
:100620001C001C0008000800000000000000000082
:10063000000000008080C080C080C080C080C0807A
:10064000C000800000000000000000000000FCFC72
:10065000FEFEFFFFFFFFFFFFFFF9FFE6FFDEFFDD0E
:10066000FFE3FFFEFFFCFE00FC00000000000800AE
:1006700009011F031F073F073F073F073F073F07CA
:100680003F031F011F00090008000000F0D0F8D050
:10069000F8B0FCB0FC70FE60FEE0FFE6FF7CFE7C84
:1006A000FEB8FCB8FCD0F8D0F800F000E0A0F1A053
:1006B000F171FB41FFBBFFBBFF76FF76FFBBFFBBCA
:1006C000FF41FF71FBA0F1A0F100E0000F0F1F0F31
:1006D0001F173F173F327F327F7DFF7DFF3E7F3EFA
:1006E0007F1F3F1F3F0F1F0F1F000F00F0D0F8D0DC
:1006F000F8B8FCB8FC7CFE7CFEE6FFE0FF60FE7014
:10070000FEB0FCB0FCD0F8D0F800F000E0A0F1A002
:10071000F171FB41FFBBFFBBFF76FF76FFBBFFBB69
:10072000FF41FF71FBA0F1A0F100E0000F0F1F0FD0
:100730001F1F3F1F3F3E7F3E7F7DFF7DFF327F3289
:100740007F173F173F0F1F0F1F000F00F0D0F8D08B
:10075000F8B8FCB8FC7CFE7CFECEFF0EFF0CFE1C45
:10076000FE98FC18FCD0F8D0F800F000E0A0F1A052
:10077000F171FB41FFBBFFBBFF76FF76FFBBFFB80C
:10078000FF41FF70FBA0F1A0F100E0000F0F1F0F71
:100790001F193F193F367F367F7DFF7DFF3E7F3E2D
:1007A0007F1F3F1F3F0F1F0F1F000F00F0D0F8D01B
:1007B000F818FC98FC1CFE0CFE0EFFCEFF7CFE7CA5
:1007C000FEB8FCB8FCD0F8D0F800F000E0A0F1A032
:1007D000F170FB41FFB8FFBBFF76FF76FFBBFFBBAD
:1007E000FF41FF71FBA0F1A0F100E0000F0F1F0F10
:1007F0001F1F3F1F3F3E7F3E7F7DFF7DFF367F36C1
:100800007F193F193F0F1F0F1F000F081000FE0038
:10081000FE38FE38FE38FE00FE00FE000000270015
:1008200027022700270227002700270000000000DA
:10083000FF1CFF38FE38FE00FC0000000000000036
:100840001301270027024F004F00000000000000A6
:100850000000FF1CFF00FC00000000000000000082
:10086000000013012F004F000000000000000000F6
:1008700000000000FF000000000000000000000079
:10088000000000004F000000000000000000000019
:100890000000FC1CFF00FF00000000000000000042
:1008A00000004F012F0013000000000000000000B6
:1008B000FC38FE38FE1CFF00FF00000000000000B6
:1008C0004F024F0027012700130000000000FEFC2C
:1008D000FE3CFE3CFE3CFEFCFE00FE00000027034A
:1008E0002702270227022703270027000000000015
:1008F000FFFEFF3CFEF8FE00FC00000000000000D0
:100900001301270227074F004F00000000000000DE
:100910000000FFFCFF00FC000000000000000000E1
:10092000000013012F004F00000000000000000035
:1009300000000000FF0000000000000000000000B8
:10094000000000004F000000000000000000000058
:100950000000FCFEFF00FF0000000000000000009F
:1009600000004F012F0013000000000000000000F5
:10097000FCF8FE3CFEFEFF00FF000000000000004F
:100980004F074F0227012700130000000000FCA8BA
:10099000FCA8FEA0FE80FE00FC00FC000000270278
:1009A0002702270227022702270027000000000055
:1009B000FE54FEA0FE00FE00F80000000000000053
:1009C0001301270227044F004F0000000000000021
:1009D0000000FE00FE00F800000000000000000023
:1009E000000013002F004F00000000000000000076
:1009F00000000000FE0000000000000000000000F9
:100A0000000000004F000000000000000000000097
:100A10000000F800FE00FE000000000000000000E2
:100A200000004F002F001300000000000000000035
:100A3000F800FEA0FE54FE00FE00000000000000D2
:100A40004F044F0227012700130000000000380068
:100A50007C00FE08FE08FE107C003800000020002C
:100A600020002000200020002000200000000000C6
:100A70001C00FE08FE20FE007000000000000000C8
:100A80001000200020004000400000000000000096
:100A900000001C00FE0070000000000000000000CC
:100AA00000001000200040000000000000000000D6
:100AB00000000000FE000000000000000000000038
:100AC00000000000400000000000000000000000E6
:100AD00000007000FE001C0000000000000000008C
:100AE0000000400020001000000000000000000096
:100AF0007000FE08FE08FE001C0000000000000060
:100B00004000400020002000100000000000FCF821
:100B1000FC00FCA8FCA8FCF8FC00FC00000027037B
:100B200027002702270227032700270000000000D4
:100B3000FEFCFEA8FCF0FC00F80000000000000035
:100B40001301270227074F004F000000000000009C
:100B50000000FEF0FE00F8000000000000000000B1
:100B6000000013032F004F000000000000000000F1
:100B700000000000FE000000000000000000000077
:100B8000000000004F000000000000000000000016
:100B90000000F8F0FE00FE00000000000000000071
:100BA00000004F032F0013000000000000000000B1
:100BB000F8F0FCA8FCFCFE00FE00000000000000B5
:100BC0004F074F0227012700130000000000F848DC
:100BD000FC48FC9CFE9CFE48FC48FC00F8003F01E1
:100BE0007F017F02FF02FF017F017F003F00F88845
:100BF000FC88FC1CFE1CFE88FC88FC00F8003F0200
:100C00007F027F05FF05FF027F027F003F00F8089B
:100C1000FC08FC1CFE1CFE08FC08FC00F8003F055C
:100C20007F057F0AFF0AFF057F057F003F00F80868
:100C3000FC08FC1CFE1CFE08FC08FC00F8003F0A37
:100C40007F0A7F14FF14FF0A7F0A7F003F00F80825
:100C5000FC08FC1CFE1CFE08FC08FC00F8003F140D
:100C60007F147F28FF28FF147F147F003F00F808BF
:100C7000FC08FC1CFE1CFE08FC08FC00F8003F28D9
:100C80007F287F50FF50FF287F287F003F00785843
:100C9000FC5CFEBEFFBEFF5CFE58FC0078003C30F2
:100CA0007E307E60FF60FF307E307E003C007858F2
:100CB000FC5CFEBEFFBEFF5CFE58FC0078003C30D2
:100CC0007E307E60FF60FF307E307E003C007858D2
:100CD000FC5CFEBEFFBEFF5CFE58FC0078003C30B2
:100CE0007E307E60FF60FF307E307E003C007840CA
:100CF000FC40FE80FF80FF40FE40FC0078003C305E
:100D00007E307E60FF60FF307E307E003C007840A9
:100D1000FC40FE80FF80FF40FE40FC0078003C303D
:100D20007E307E60FF60FF307E307E003C00784089
:100D3000FC40FE80FF80FF40FE40FC0078003C301D
:100D40007E307E60FF60FF307E307E003C00808021
:100D5000C0C0E0E0F0E0F0C0E080C00080003F3DB7
:100D60007F3D7F7BFF7BFF3D7F3D7F003F0080809D
:100D7000C0C0E0E0F0E0F0C0E080C00080003F3D97
:100D80007F3D7F7BFF7BFF3D7F3D7F003F0080807D
:100D9000C0C0E0E0F0E0F0C0E080C00080003F3D77
:100DA0007F3D7F7BFF7BFF3D7F3D7F003F008000DD
:100DB000C000E000F000F000E000C00080003F0252
:100DC0007F027F04FF04FF027F027F003F0080005C
:100DD000C000E000F000F000E000C00080003F0232
:100DE0007F027F04FF04FF027F027F003F0080003C
:100DF000C000E000F000F000E000C00080003F0212
:100E00007F027F04FF04FF027F027F003F16100075
:100E1000000000000000000000000080808080C012
:100E2000C0C0C0E0E0E0E0C0C0C0C0808080800002
:100E30000000000000000000000000040404040E94
:100E40000E0E0E1F1F1F1F3F3F3F3F7F7F7F7FFF05
:100E5000FFFFFF7F7F7F7F3F3F3F3F1F1F1F1F0E13
:100E60000E0E0E040404040000000000F0E0F01078
:100E7000F8D0F838FCB8FC7CFE7CFEFEFFFEFF7C60
:100E8000FE7CFEB8FCB8FC50F850F8A0F000F00072
:100E90000000000000000000070307000F070F001C
:100EA0001F0F1F003F1F3F007F2A7F153F153F0A7E
:100EB0001F0A1F050F050F0207000700000000F0C2
:100EC000F008F8D0F0A0E040C0FEFE01FFC6FE38FA
:100ED000F806FEF9FFC6FE38F870F08CFC02FEFC46
:100EE000FCC0C030F0CCFC02FEFCFC040407070888
:100EF0000F0F0F1E1F1D1F203F3F3F7C7F437FFFB3
:100F0000FF8FFF717F7E7F3F3F203F1B1F1C1F0F06
:100F10000F080F0707040400000000000080804055
:100F2000C020E010F008F804FC02FEABFF55FF0201
:100F3000FE04FC08F810F020E040C08080000000B3
:100F400000000004040606090F080F101F101F20E0
:100F50003F203F407F407FAAFFD5FF407F407F205A
:100F60003F203F101F101F080F090F060604040042
:100F7000000000000000000080008000C080C00071
:100F8000E0C0E000E0E0E000E0C0E000C080C000C1
:100F90008000800000000000000000000E040E0031
:100FA0001F0E1F003F1F3F207F2F7F70FF77FFF82E
:100FB000FFFBFF70FF77FF207F2F7F003F1F3F0069
:100FC0001F0E1F000E040E000000000000000000B5
:100FD0000000008080808040C040C0A0E0A0E040D1
:100FE000C040C08080808000000000000000000041
:100FF000000000040404040A0E0A0E151F151F2E1B
:101000003F2E3F5B7F5B7FB5FFB5FF5B7F5B7F2E36
:101010003F2E3F151F151F0A0E0A0E04040404007C
:10102000000000000000000000000080808080C000
:10103000C0C0C060E060E0C0C0C0C08080808000F0
:101040000000000000000000000000040404040E82
:101050000E0E0E1B1F1B1F353F353F6E7F6E7FDB55
:10106000FFDBFF6E7F6E7F353F353F1B1F1B1F0E63
:101070000E0E0E0404040400000000000000000036
:101080000000000080008080C080C0C0E0C0E08020
:10109000C080C00080008000000000000000000050
:1010A00000000000040004040E040E0E1F0E1F1B9F
:1010B0003F1B3F357F357F6EFF6EFF357F357F1BD2
:1010C0003F1B3F0E1F0E1F040E040E000400040100
:1010D00008001F110E0501111D150D170A282040CB
:1010E000402090CCE2FA797D1717080A0505020224
:1010F00001015050E8E8F4F4FAFA7DBDF0F8F3F39A
:1011000007037B7CFE7F0F03010602030000000043
:101110007D79FAE2CC9020404020010102020505D1
:101120000A081717BD7DFAFAF4F4E8E850507FFE7C
:101130007C7B0307F3F3F8F00000000003020601D4
:10114000030F1710000000000000008080C0C0E006
:10115000C0E0E0F0F0F870F878FCB8FCDCFEDCFEF3
:10116000EEFFECFE74FE70FC78FCF0F8F0F8E0F0B6
:1011700000E000F8F8FEFEFFFFFF1FFFE7FFFBFFA8
:101180007DFF1EFF0FFF07FF03FF03FF01FFFEFFB1
:10119000FEFFFFFFFFFFFFFF00FFFFFFFFFF00FF5E
:1011A00000E0E0F0F0F8F0F878FC70FC74FEECFE83
:1011B000EEFFDCFEDCFEB8FC78FC70F8F0F8E0F046
:1011C000C0E0C0E080C0008000000000000000FF20
:1011D000FFFFFFFF00FFFFFFFFFFFFFFFEFFFEFF20
:1011E00001FF03FF03FF07FF0FFF1EFF7DFFFBFF54
:1011F000E7FF1FFFFFFFFEFFF8FE00F80000000002
:101200000000008080C0C0E0C0E0E0F0F0F870F8BE
:1012100078FCB8FCDCFEDCFEEEFFECFE74FE70FC3D
:1012200078FCF0F8F0F8E0F000E000F8F8FEFEFFDF
:10123000FFFF1FFFE7FFFBFF7DFF1E7F0F1F070F55
:101240000307030701FFFEFFFEFFFFFFFFFFFFFF96
:1012500000FFFFFFFFFF00FF00E0E0F0F0F8F0F814
:1012600078FC70FC74FEECFEEEFFDCFEDCFEB8FCED
:1012700078FC70F8F0F8E0F0C0E0C0E080C00080DA
:1012800000000000000000FFFFFFFFFF00FFFFFF66
:10129000FFFFFFFFFEFFFEFF01FF03070307070F2E
:1012A0000F1F1E3F7DFFFBFFE7FF1FFFFFFFFEFF3E
:1012B000F8FE00F80F2000FF00FF00FF00FF00FF16
:1012C00000FFFFFF8FFF4FFF1FFFFFFF00FFFFFF2C
:1012D000FFFF00FF00FF00FF00FF00FF00FF00FF17
:1012E000FFFFFFFFFFFFFFFFFFFF00FFFFFFFFFF0D
:1012F00000FF80FFC0FFC0FFE0FFE0FFF0FFF7FF4F
:10130000EFFFEFFF5FFF5FFF007F3F7F1F3F003F6B
:101310000F1F070F070F0307030701030103000156
:10132000000100000000000000000000000000FFBD
:10133000FFFFFFFF00FFFFFF1FFF4FFF8FFFFFFFBC
:1013400000FF00FF00FF00FF00FF00FF00FFFFFFA6
:10135000FFFF00FFFFFFFFFFFFFFFFFFFFFF00FF9B
:1013600000FF00FF00FF00FF00FF003F1F3F3F7F27
:10137000007F5FFF5FFFEFFFEFFFF7FFF0FFE0FF92
:10138000E0FFC0FFC0FF80FF000000000000000081
:10139000000000000001000101030103030703072F
:1013A000070F070F0F1F00000000000000000000E3
:1013B00000FFFFFF8FFF4FFF1FFFFFFF00FFFFFF3B
:1013C000FFFF00FF0000000000000000000000FF21
:1013D000FFFFFFFFFFFFFFFFFFFF00FFFFFFFFFF1C
:1013E00000FF80C0C0E0C0E0E0F0E0F0F0FFF7FFF9
:1013F000EFFFEFFF5FFF5FFF007F3F7F1F3F003F7B
:101400000F1F070F070F0307030701030103000165
:10141000000100000000000000000000000000FFCC
:10142000FFFFFFFF00FFFFFF1FFF4FFF8FFFFFFFCB
:1014300000FF0000000000000000000000FFFFFFB0
:10144000FFFF00FFFFFFFFFFFFFFFFFFFFFF00FFAA
:1014500000000000000000000000003F1F3F3F7F31
:10146000007F5FFF5FFFEFFFEFFFF7FFF0FFE0F0B0
:10147000E0F0C0E0C0E080C000000000000000001C
:10148000000000000001000101030103030703073E
:10149000070F070F0F1F08200000000000000000CA
:1014A00000FFFFFFFFFF00FF000000000000000042
:1014B00000FFFFFFFFFF00FF000000000000000032
:1014C00000FFFFFFFFFF00FF000000000000000022
:1014D000007F1F3F1F3F001F00FFFFFFFFFF00FFB8
:1014E000000000000000000000FFFFFFFFFF00FF02
:1014F000000000000000000000FFFFFFFFFF00FFF2
:101500000000000000000000001F1F3F1F3F003FC1
:10151000000000000000000000FFFFFFFFFFFFFFD2
:1015200000FFFFFFFFFF00FF00FFFFFFFFFFFFFFC8
:1015300000FFFFFFFFFF00FF00FFFFFFFFFFFFFFB8
:1015400000FFFFFFFFFF00FF0007070F070F0F1F40
:10155000003F1F3F1F3F001F00FFFFFFFFFF00FF77
:10156000FFFFFFFFFFFF00FF00FFFFFFFFFF00FF88
:10157000FFFFFFFFFFFF00FF00FFFFFFFFFF00FF78
:10158000FFFFFFFFFFFF00FF001F1F3F1F3F003F48
:101590000F1F070F070F00070A2080800000505020
:1015A0000000AAAA00000000000000000000AAAA93
:1015B000000055550000AAAA00000000000000101D
:1015C0000000AAAA000055550000AAAA00000000C9
:1015D0000000000000000A0A0000050500000202E9
:1015E00000000000000000000000000000000000FB
:1015F00000000000AAAA00005050000080800000F7
:101600000010000000000000AAAA000055550000CC
:10161000AAAA00000000000000000000AAAA000022
:1016200055550000AAAA00000000000000000000BC
:1016300002020000050500000A0A000000A00000E8
:101640000054000000AA00000055000000AA00009D
:1016500000AA00000055000000AA0000005500107C
:1016600000AA000000AA00000055000000AA000027
:101670000055000000AA000000AA0000005500006C
:10168000002A000000150000000A00AA0000005512
:10169000000000AA00000054000000A0000000AA02
:1016A00000100055000000AA00000055000000AA2C
:1016B000000000AA00000055000000AA000000552C
:1016C000000000AA0000000A000000150000002A27
:1016D00000000055000000AA00007B1D781D1A1DA7
:1016E000171D141D111D0E1D0B1DEE1C7E1D101649
:1016F000F418E718DA18CB1CCD18C018B318A81CBA
:10170000A61899188C18851C7F1872186518621C09
:10171000081A03081F111F121F101D151711151F7E
:1017200007041F17151D1F151D01011F1F151F176A
:10173000151F03087F417F427F4079494F41497F10
:101740000F087F4F49797F497901017F7F497F4F9A
:10175000497F050800007E00007D7D00007F0606B1
:101760007670707676760000F0F0F7000070707694
:1017700006060000760606FEFEFE0000000076006B
:101780000070707600000508FEFFFFFFFEFEBFBF81
:10179000BFFEFEAFAFAFFEFEABABABFE07081F1147
:1017A000151511111F07081F19191F1F1F1F0508E5
:1017B0000E1F1D190E020800FFFFFF5D0880BEA26C
:1017C000A280BEA2A2BE80BE84C990BE80BE8AEAAC
:1017D000E2F8FFFFFF80AEAAAABA80BEA2A29C8058
:1017E000BE8AEAE288A29494A288FFFFFF88A2BE84
:1017F000A280BE84C990BE80BE8AEAE280BEA2A258
:10180000BE80FFFFFF80BE8AEAEE80BEA0AFAF8041
:10181000BE9292BE80EE88B88EE0FFFF80BEA2AA84
:1018200094C09EA0A09EC082BE82F882BE82F88034
:10183000BEA2A2BE80BE84C990BE80FFFF80AEAAB9
:10184000AABA80BEA2A2A280BE8888BE80BEAAAA72
:10185000A280BE84E984BE80BEAAAAA280FFFFFF48
:10186000FFFF80B8B0AA868E80FFFFFFFFFF808E4B
:1018700086AAB0B880FFFFFFFFFFFFFFFFFFFFFF5B
:10188000FFFFFFFFFF80AEAAAABA80BEA2A2BE8061
:10189000BEA0A0BE80BE84C990BE80BEA2A29CC1D4
:1018A000FFFFFFFFFF80BEA2A2BE80BE8AEAE280E9
:1018B000BE8AEAE2F8FFFFFFFFFF80BEA2A2BE8061
:1018C000BE84C990BE80FFFFFFFFFFFFFFFFFFFF49
:1018D000FFFFFFFF8040000000000000000000004C
:1018E0000000000000000000000000000000C060D8
:1018F0003058CC647266ECD8B060C0E038C8EC7484
:10190000747474747474747474E4ECECE8E8D8D08F
:1019100090B0206040C08080000000802020202007
:101920002020202020202020202020202080000097
:1019300000000000000000000000000000000000A7
:101940000000000000000000000000000000000097
:101950000000000000000000000000000000000087
:1019600000000000000000000080C0406020A0B126
:101970009B9E8C2E73F87F3F9FDE04F00EE3FC3EAF
:101980001F0F2F2F2F5F3FFFFEFEFE7E7C3DBDB958
:101990007BFBF7F7E6EE0CFD3B82F6ECE8DAB26291
:1019A000CA82028282828282AA82AA00002A8000DF
:1019B00000000000000000000000A00808888888DF
:1019C0008888888888888888888888080808A00087
:1019D000000000000000000080E030C8ECE4F4F6F5
:1019E000767676746448D8D8ECE7F0FA7B3B93C7F8
:1019F0009FBF3F4FE03E03017C83387F70E7EFEFEE
:101A0000EFCFDEDEDEDEDE9FBFBFBCBC7C7C787845
:101A10007370FF7F1FC3388FE0FFFFFFFFFFFFFFE3
:101A20007C81FE38000000000000802008A8AA2861
:101A3000282828A828282828A8088A280A08A08A48
:101A40008080808080808080AA8080AA0000AA0098
:101A500000000000000080807FC01E7FFFFFE1CCFF
:101A60009EB3A1A1B192DCC1FFFF83FCB8E79F7FC9
:101A7000FFFFFFFEFDFAFA3A89E5E6E8CEDEDEDE9C
:101A8000DDBDBDBD797B7BFBF3F77767EFEFEFCF74
:101A90005F5E5E5E4F617C7F477379FDFDFDFD7D7E
:101AA000787B7A7A7A7274E4C890B2C0888A2020EF
:101AB0002020222220202802A02802000000022844
:101AC000A080000000000000000000000000AA004C
:101AD0008080808080808080808103F2FE05F5F721
:101AE000FBFBFBFBFDFDFDCDCEE666666666680F83
:101AF000ECF5FBFBFDFDFDEDCDCD8D8B37C7FBFD83
:101B0000FDFEFEFEFF03E7E6CE9E9DC23EDAE5F651
:101B1000F7F7F3F37373FFFFFFFFFFFEFEF900FF1C
:101B2000FFFFFFFFFFFF0FE626C6FEFEFEFEFDFAEB
:101B3000F408D0E8F4FAFAFAFAFA1AFAFAF4E890A1
:101B40007088F6F4F4E8E8E8E8D0A0A0A0A0AAA085
:101B50004080008080802020202020231FFEE11F65
:101B6000FFFFFFFFFFFFFFFFE01C6642424242A76C
:101B7000AC3BD3C7CFCFDFFFFFFF7F7FFE19171F1F
:101B80001FDFDFBF3FF0B7FB1D1E1E11D05FDFBFA1
:101B90007FFFBFFF3C3C1FDFDFBF3FFFBFFD101FCC
:101BA0001F1FFFFF1F1F1C1BD8DFBF3FFF9FCFCF93
:101BB00063F0CF3F7FFFFFFFFFC7C6C7E77777031D
:101BC000F0FFFFFFFFFFFFFF07F3190919131313BE
:101BD000180F20202020A2A2A2A2A2A2A2A18F3E82
:101BE000F1CFCFCFCF4FC7A7A7A6A7B3B3B3B3B398
:101BF000B9A9ACA4A4A4A4A4A4A4A6A2FF80808094
:101C000080BFB2DBCFF0BFFF80808080F7CE8CB783
:101C1000F8AFBFF0C0C080BFB2DBCFF0AFFF8080B5
:101C20008080FFFF80808080BFB4DBCFF0BFA2A2A6
:101C3000A2A2A3A3A2A4A4A4A4A4A4A4A4A2AEB058
:101C4000B3B3A7A7A7A727B89FA7A0A2A2A2A2A2A3
:101C5000A2A2A2A2A2A2AAAAAAAAAAAAAAAAAAAA14
:101C6000AAAAAAA8873CFF0000000000000000000C
:101C70000000000000000000000000000000000064
:101C80000000000000000000000000000000000054
:101C90000000000000000000000000000000000044
:101CA0000000000000000000000000000000000034
:101CB0000000000000000000000000000000000024
:101CC000000000000FA0AAAAAAAAAAAAAAAAAAAAC1
:101CD000AAAAAAAAAAAA1E1800C038C6E9ADE1D1CC
:101CE000DDDDE1FDFDFDFDFDFDFDFDFDFDFDF5BDC8
:101CF000F9C638C215020041060808C84848D00095
:101D0000F81FDF5F5F9F3FFF18C0504808080808B2
:101D100066610008205088502003813943988A88E2
:101D20008B88898A888A889B423A0340123810003F
:101D30000200601800000000000000000000000029
:101D40000000000000000000000000007F415D5521
:101D5000577F416D6D517F4155555D7F416D6D419F
:101D60007F057D417D057F4155555D7F415D5D630B
:101D70003E007F415D55497F117747711F0000008C
:101D80000000000000000000000000000000000053
:101D9000000000000000000000007F416D6D417FE9
:101DA000007F4175151D7F417F515555457F417716
:101DB00077417F007F415D55577F416D6D417F4188
:101DC0005F50507F415F50507F4155555D7F415D71
:101DD0005D633E007F415F685F417F416D6D417F84
:101DE000417B77417F415D5D637F416D6D417F0048
:101DF00000000000007F416D6D417F417B77417F96
:101E0000415D5D633E007F417D137D417F416D6D8E
:101E1000417F417B77417F117747711F007F417D73
:101E2000137D417F416D6D417F417B77417F11770C
:101E300047711F007F415D5D417F057D417D057FCD
:101E4000417777417F4155555D7F416D6D517F51A0
:101E50005555457F0308007F3E7F007F804010205E
:101E600020804010180000050010001B00210026F3
:101E7000006C0074007D008C00A700AC00B100C0B5
:101E800000CF00F000F600FC000B0111015A0162C6
:101E90000166016C010612001640009D249F41FA64
:101EA0000DA741F419A314A3FE41F40DA30DA3142F
:101EB000A319A3FEFD0201FC02FEFC01FC02FEFCD4
:101EC00002FD0103FC044CFEFC044CFCFC044DFC34
:101ED00004FD0103FC044CFEFC044CFCFC044C031C
:101EE000FC04FD01034C07FC044C05FC044C03FD01
:101EF0000104FD01034C07FC044C05FC044C03FCED
:101F0000044DFC04FE4030FD0203FD02019E071358
:101F10000017FD01059F31A72FA731A72CA728A7E0
:101F20002CA725AFFE31A733A734A733A734A73199
:101F3000A733A731A733A72FA731A72FA731A7FE14
:101F40002DA731AFFE33A734AFFE38A736A738A789
:101F500034A72FA734A72CAFFE31A72FA731A72C6A
:101F6000A728A32CA725B3FE31A733A734A733A3F3
:101F700034A734A731A333A731A333A733A72FA3A3
:101F800031A72FA331A731A3FEA32DA331AFFEA309
:101F900033A334AFFE38A736A738A734A72FA3340E
:101FA000A72CB3FE4000DFDFDFCF403041E8FD016A
:101FB00008FC09FC0AFD0108FC09FC0BFD010C4CA6
:101FC00007FC09FC0A4DFD010C4C07FC09FC0B4DFC
:101FD000FD010DFC0EFC0FFD010DFC0EFC10FD01C2
:101FE000114C07FC0EFC0F4DFD01114C07FC0EFCC3
:101FF000104D9F4904402041FAAFFEFD0314FEFD41
:102000000215FD0214FC14FD0F15FC14FD0F159FA5
:10201000000006011501260137014A015D01720128
:1020200088019F01B801D201EE010B022A024B0286
:102030006E029302BA02E40210033F037003A4038A
:10204000DC03170455049704DD0427057505C8054E
:1020500020067D06E0064907B8072D08A9082D09C6
:10206000B9094D0AEA0A900B400CFA0CC00D910E0A
:102070006F0F5A1053115B1272139A14D415201754
:102080008018F519801B231DDE1EB420A622B5245E
:10209000D5F08D14A1C881CFD9F1AF200004000084
:1020A00003000B001C000100000040009F9DA040A9
:1020B00030FD07029FFC034CFBFC034CFDFC034C72
:1020C000FFFC034C00FE41FC25AF29AF2CAFFE1CEA
:1020D00018DF17CF1F9F17A81F811F3322192281D6
:1020E0001AFB21D7215C211116080B000202020005
:1020F000000904000001020200000524001001058F
:1021000024010101042402060524060001070581BB
:102110000310004009040100020A00000007050244
:102120000240000007058302400000040309041276
:10213000010002EF02014041233680000101020349
:102140000141726475696E6F204C4C4300417264AA
:1021500075696E6F204C656F6E6172646F00D82C6C
:1021600011241FBECFEFDAE0DEBFCDBF11E0A0E04B
:10217000B1E0EAEBFDE502C005900D92A63BB10788
:10218000D9F728E0A6EBB1E001C01D92AA35B2074D
:10219000E1F710E1C0EBD0E104C02197FE010E94FD
:1021A000CE2ECF3AD107C9F70E94F72C0C94DB2E24
:1021B0000C9400008130A9F028F0823019F18330AE
:1021C00059F1089586E0689FF0011124E65DF74F0C
:1021D0008281938101979383828380819181029789
:1021E0000EC086E0689FF0011124E65DF74F828102
:1021F0009381019793838283808191810296918359
:102200008083089586E0689FF0011124E65DF74F12
:10221000828193810196EECF86E0689FF0011124C0
:10222000E65DF74F828193810196D5CFFC018091C5
:102230000206882311F13FB7F89482E08093E90009
:102240002091F200822F90E01816190614F481E014
:1022500090E0882339F0289844E6409301064091A5
:10226000F1004083222339F02091F200211103C0B4
:102270002BE62093E8003FBF08958FEF9FEF08956E
:102280002FB7F89483E08093E9009091E800892FBC
:10229000807295FF04C09091F20080E4891B2FBFEB
:1022A00008958091F90581110DC082E08093F505B4
:1022B00084E08093F6051092F8051092F70581E00E
:1022C0008093F90585EF95E00895CF93DF931F92F2
:1022D000CDB7DEB76983DC01ED91FC910280F3811B
:1022E000E02D41E050E0BE016F5F7F4F09950F90F8
:1022F000DF91CF91089583E08093E9008091F2000F
:10230000882319F08AE38093E80008950E94401121
:1023100090E00895CF93DF931F92CDB7DEB7FC0115
:102320008485958597FD08C02FEF3FEF358724877B
:102330000F90DF91CF910895CE0101960E94161162
:10234000019719F4898190E0F3CF8FEF9FEFF0CFE1
:102350000F931F93CF93DF931F92CDB7DEB78C01FE
:10236000FC018485958597FF0BC0CE0101960E94E4
:102370001611019771F4898190E0F801958784879F
:10238000F801848595850F90DF91CF911F910F9172
:1023900008958FEF9FEFF1CFFC018485958597FD20
:1023A0000BC09FB7F89482E08093E9008091F2001F
:1023B0009FBF90E0019608959FB7F89482E08093C4
:1023C000E9008091F2009FBF90E008954091EF05F1
:1023D0005091F0052091ED053091EE05421753071D
:1023E000B4F49091E8009570E1F39091E80092FDCB
:1023F00019C08093F1008091EF059091F00501964E
:102400008F739927892B19F48EEF8093E8008091C0
:10241000EF059091F00501969093F0058093EF05FC
:1024200081E0089580E00895EF92FF920F931F934B
:10243000CF93DF93F82E192FE62E042F81E0860F1D
:10244000880F0E94E61183E00E94E611CF2DD12F64
:10245000EC0EFD2EF11CCE15DF05B9F007FF13C001
:10246000FE0184910E94E611182F80E00E94E6117F
:10247000812321968111EFCFDF91CF911F910F9191
:10248000FF90EF9008958881EDCF81E0F5CFDF9246
:10249000EF92FF920F931F93CF93DF93D82E8A0171
:1024A000EB017B01E40EF51ECE15DF0559F0D7FEDA
:1024B00012C0FE0184910E94E61121968111F4CF91
:1024C0000FEF1FEFC801DF91CF911F910F91FF9088
:1024D000EF90DF9008958881EECF0F931F93CF93F5
:1024E000DF931F92CDB7DEB782E0898342E450E0EC
:1024F00069EE70E280E80E9447120E945111DC01EF
:1025000012960D911C910115110589F0D801ED91DC
:10251000FC910280F381E02DBE016F5F7F4FC80107
:10252000099597FD04C0F80100851185ECCF8981DC
:102530000F90DF91CF911F910F910895615030F06E
:102540002091F100FC0120830196F8CF289884E6C1
:102550008093010608953FB7F8948091E905909122
:10256000EA05A091EB05B091EC0526B5A89B05C046
:102570002F3F19F00196A11DB11D3FBFBA2FA92F02
:10258000982F8827BC01CD01620F711D811D911DFF
:1025900042E0660F771F881F991F4A95D1F708956B
:1025A0008F929F92AF92BF92CF92DF92EF92FF9263
:1025B0006B017C010E94AB124B015C01C114D10480
:1025C000E104F104B9F00E94AB12681979098A0993
:1025D0009B09683E73408105910580F321E0C21A92
:1025E000D108E108F10888EE880E83E0981EA11C4E
:1025F000B11CE4CFFF90EF90DF90CF90BF90AF90F1
:102600009F908F90089565E070E080E090E00C94DA
:10261000D0128F929F92AF92BF92CF92DF92EF92A1
:10262000FF920F931F93CF93DF936C017B018A017D
:1026300080919701882309F45CC080910206882369
:1026400009F457C08091F40580FF05C08091E00037
:1026500082608093E000E801B12C8AEFA82E93E01D
:10266000892E2AE3922E209711F4BB20D9F10E94E3
:10267000401181110AC0AA94AA20D9F161E070E04A
:1026800080E090E00E94D012EECF8C171D0611F072
:102690000CF08C2F9FB7F8948092E9002091E8000D
:1026A00025FD02C09FBFDFCF282F30E0C21BD30B18
:1026B000F701815020F041914093F100FACFE20EF2
:1026C000F31EBB2021F09092E800B12CEBCF80915B
:1026D000E80085FDE7CF9092E800BB24B3942097F3
:1026E00009F3F3CF5D9884E68093F3051016110685
:1026F0003CF081E090E0F6019383828310E000E0FB
:10270000C801DF91CF911F910F91FF90EF90DF9063
:10271000CF90BF90AF909F908F90089590E0880FDA
:10272000991FE091FF06F0910007E80FF91F8591CE
:1027300094912091FD063091FE06820F931F08951B
:102740004F925F926F927F928F929F92AF92BF92C1
:10275000CF92DF92EF92FF920F931F93CF93DF936D
:102760004C015901FC2DC02FD0E0CE01880D991DE0
:10277000181619060CF06CC020E8821691040CF0B3
:1027800067C09B012E0D311D121613060CF060C0A0
:10279000603471050CF05CC04115510509F458C056
:1027A000E62FE770FE2EDB0177FD179633E0B59537
:1027B000A7953A95E1F73A2F77FF04C0FF2011F073
:1027C0003FEF3A0F662777276819790997FC02C00F
:1027D00070E060E0803891050CF44BC090E89819E7
:1027E000961BA32F032E000CBB0B1A2F10953F3FF7
:1027F0000CF010E021E08E2D877009F420E0E694C3
:10280000E694E694E20EAE0DB11D19971CF028E097
:10281000E22EE31AE11A310F20E83203D00111242D
:10282000A80DB91DA60FB71F019F600D711D1124C2
:10283000460F571F0F2D0F2C000C110BF33009F40E
:102840001CC1C8F4F13009F4D0C0F23009F47CC0E6
:10285000DF91CF911F910F91FF90EF90DF90CF907C
:10286000BF90AF909F908F907F906F905F904F90B0
:102870000895902FB5CFFA3FB1F1232F2E0DFB3FD6
:1028800039F7321729F3BD016E517E4FD12CC12C7F
:10289000C91608F0A4C0FA01EC0DFD1DE491F0E0AA
:1028A0004F01002E02C0880C991C0A94E2F737FDF4
:1028B00006C0FB018081E82CE0948E218083FF20FC
:1028C00061F0373054F45B01F0E8AF0EB11CE92C35
:1028D000E094F50180818E218083FFEFCF1ADF0A1B
:1028E0006F5F7F4FD5CF232F2E0D321709F4B0CF56
:1028F000BD016E517E4FD12CC12CC91608F069C0A4
:10290000FA01EC0DFD1DE491F0E04F01002E02C034
:10291000880C991C0A94E2F737FD04C0FB01808102
:1029200088298083FF2051F0373044F45B01F0E8C0
:10293000AF0EB11CF501808189298083FFEFCF1A8A
:10294000DF0A6F5F7F4FD9CF6FEF70E00F2C02C0AF
:10295000660F771F0A94E2F760957095772E232F04
:102960002E0D321709F474CFFD01EE51FE4F6F01A9
:10297000B12CA12CA91638F5FA01EA0DFB1DE49142
:10298000F0E02F01002E02C0440C551C0A94E2F71F
:1029900037FD05C0F6018081862384298083FF20CE
:1029A00059F037304CF44601F0E88F0E911CF401D9
:1029B0008081872185298083FFEFAF1ABF0A8FEFBF
:1029C000C81AD80AD7CF3F5F4C0F5D1FA058BF4F22
:1029D000C8CF3F5F4C0F5D1FA058BF4F86CF3F5FF2
:1029E0004C0F5D1FA058BF4F4CCF6A0D7B1D232F8E
:1029F0002E0D321709F42CCFFD01EE51FE4F6F0161
:102A0000B12CA12CA91688F5FB01EA0DFB1D8490C1
:102A1000912C002E02C0880C991C0A94E2F7809435
:102A20009094FA01EA0DFB1D6490712C002E02C0F7
:102A3000660C771C0A94E2F737FD05C0F601808129
:102A4000882186298083FF2049F037303CF4F60145
:102A5000E058FF4F8081892187298083FFEFAF1ADB
:102A6000BF0A8FEFC81AD80ACDCF3F5F4C0F5D1F4A
:102A70006C0F7D1FA058BF4FBCCFC92ED12CFA01BF
:102A8000E60FF71FAE51BE4F00E810E00C191D090C
:102A9000CC19DD09BE01660F771F41E050E06A01E5
:102AA0000F2C01C0CC0C0A94EAF7592F2E2D792E49
:102AB000CF93DF93ED01EF96EF9622968590A59048
:102AC000FF2059F08C9C4001AC9C500137302CF415
:102AD000E880B094EB20E928E99233233AF0EC90B7
:102AE000A094EA20E828ED920C94771511965A9557
:102AF00029F72A9551F0572D33951124E60FF11D32
:102B0000A00FB11DC00FD11DD9CFDF91CF911124DE
:102B10009FCECF92EF920F93FA0104913196E490F9
:102B20004E5F5F4F2223F9F0A1E0B0E03E2D3770F9
:102B300011F4B0E0A0E0EE2DE695E695E695EA0FFB
:102B4000FB2FF11D0E9FD0010F9FB00D112430E01F
:102B5000220F331FA29FF001A39FF00DB29FF00D33
:102B600011244E0F5F1F23E0C22E30E020E00E94B0
:102B7000A0130F91EF90CF900895CF92EF920F9303
:102B8000CF93DF93DC01FA0104913196E4904E5F1C
:102B90005F4F2223D1F0C1E0D0E09E2D977011F459
:102BA000D0E0C0E0EE2DE695E695E695EC0FFD2F22
:102BB000F11D0E9FE0010F9FD00D11242C9FC0012D
:102BC0002D9F900D1124480F591F8AEFC82E30E019
:102BD00020E0CD010E94A013DF91CF910F91EF90E3
:102BE000CF9008958FB18095807F669B88601C9BF5
:102BF000846008951092DD013E983F9808953E9AB2
:102C00003F9A81E08093DD0108959091E205982339
:102C100029F49091E305982381E009F480E0089578
:102C20000895089596E0899FF0011124E65DF74F1D
:102C30008481282F30E093E0359527959A95E1F728
:102C40002370660F6150260F220F220F220F28716A
:102C5000877E282B24830895E091CE0686E0E89FA6
:102C6000F0011124E25FF94F81818F7D8183089506
:102C7000CF92DF92EF92FF928091D301823059F48C
:102C800080913A088770823009F453C048F4882351
:102C9000D9F08130B9F1FF90EF90DF90CF90089597
:102CA000833009F46DC08430B1F70E942C168091F6
:102CB000D6019091D701A091D801B091D901885344
:102CC0009F4FAF4FBF4F15C08091090685FDE3CFE1
:102CD0008062809309060E942C168091D601909103
:102CE000D701A091D801B091D9018C599F4FAF4F16
:102CF000BF4F8093D6019093D701A093D801B09392
:102D0000D901C9CF80910906982F9871983119F28D
:102D1000885F809309060E942C168091D6019091BD
:102D2000D701A091D801B091D9010A96A11DB11D7A
:102D3000E0CF80910706C090D601D090D701E090F7
:102D4000D801F090D901833098F48F5F8093070603
:102D50000E942C1684E1C80ED11CE11CF11CC0920B
:102D6000D601D092D701E092D801F092D90193CF49
:102D70000E942C1682E3C80ED11CE11CF11CEFCF7F
:102D800080910906982F9770973009F484CF8F5F50
:102D9000809309060E942C168091D6019091D7014C
:102DA000A091D801B091D9014E96A11DB11DA1CF1E
:102DB000A091DB01B091DC01AA0FBB1F2A9FF0019B
:102DC0002B9FF00D1124660F771F57FD2CC0443048
:102DD00051054CF442305105E9F04330510519F1E9
:102DE0004130510551F0680F791FE75AFF4F81E0DC
:102DF000E617F70774F480E00CC09C01261B370B24
:102E0000B9012FE030E02E1B3F0B81E06217730702
:102E100094F30895EA54FF4F680F791F81E0E61795
:102E2000F707BCF3E8CF9C01261B370BB9012FEA4B
:102E30003FEF2E1B3F0B81E02617370754F7DBCF00
:102E400050E021E00E94D816882379F1909108067D
:102E500020910A06392F33703230E9F1333009F40A
:102E600059C0313019F1223001F5E091CE0626E04B
:102E7000E29FF0011124E25FF94F208124FF15C089
:102E800020FD13C09062909308062BE130E0309350
:102E90000406209303062091DB013091DC01225EC1
:102EA0003F4F309306062093050608952A30E9F730
:102EB000E091CE0626E0E29FF0011124E25FF94F97
:102EC000208125FFF2CF21FDF0CF9062909308067C
:102ED0002BE430E0DCCF263141F7E091CE0626E04E
:102EE000E29FF0011124E25FF94F208126FFDDCF40
:102EF00022FDDBCF9062909308062BE430E0309304
:102F00000406209303062091DB013091DC012A5C4A
:102F10003F4FC7CF2E3049F6E091CE0626E0E29F24
:102F2000F0011124E25FF94F208127FFBECF23FD7E
:102F3000BCCF9062909308062BE130E0E0CF20E018
:102F400042E35DE164E170E080E190E00E94BD1544
:102F50008CE00E940516811110928B0108958091DA
:102F6000DE0180FD0AC08091D0019091D1019F5F68
:102F70009093D10181508093D0018091D101803212
:102F800018F084E18093D1018091D001853118F44B
:102F900080E28093D001089520E044ED58E170E094
:102FA00060E090E080E00E94BD1520918B014BEB2A
:102FB00057E168E370E081E190E00C94BD15CF9398
:102FC000DF93C091D4018CE0C89FC02D1124CF5B4A
:102FD0000E94CC170E94AF17D0E08091D10120E071
:102FE00044E55EE168E370E08C0F9D2F911D0E9427
:102FF00089158091D00120E044E55EE168E370E04E
:103000008C0F9D2F911D0E94891580E40E9405164A
:10301000882319F084E08093D40180E20E94051691
:1030200081111092D4018CE00E940516811110923A
:103030008B01DF91CF9108950F931F93CF930E943F
:10304000CC170E94AF17C091890188E1C89F800109
:1030500011248091D10120E044E55EE168E370E055
:10306000800F912F911D0E9489158091D00120E041
:1030700044E55EE168E370E0800F912F911D0E94AE
:10308000891580E40E940516882329F0C33018F4BE
:10309000CF5FC093890180E20E940516882339F032
:1030A00080918901882319F08150809389018CE0F7
:1030B0000E940516882329F0809189018F5F8093F3
:1030C0008B01CF911F910F9108956091DB01709159
:1030D000DC016A5C7F4F23E046E954E18DE190E03A
:1030E0000C9489156091DB017091DC016A5C7F4F63
:1030F00023E044EB52E18EE090E00C94891560915E
:10310000DB017091DC016A5D7F4F23E042E451E115
:103110008EE090E00C9489156091DB017091DC01E8
:103120006A5C7F4F22E046E954E181E590E00C942F
:1031300089156091DB017091DC016A5C7F4F22E0B0
:1031400044EB52E189E590E00C9489156091DB0134
:103150007091DC016A5D7F4F22E042E451E181E53C
:1031600090E00C9489156091DB017091DC016B5E3D
:103170007F4F21E046E954E18FE590E00C948915FA
:103180006091DB017091DC016B5E7F4F21E044EBCD
:1031900052E180E590E00C9489156091DB0170911B
:1031A000DC016B5F7F4F21E042E451E180E590E07C
:1031B0000C9489156091DB017091DC016B5E7F4F8F
:1031C00020E046E954E180E190E00C94891560919B
:1031D000DB017091DC016B5E7F4F20E044EB52E13C
:1031E00088E190E00C9489156091DB017091DC011D
:1031F0006B5F7F4F20E042E451E180E190E00C946E
:1032000089158F929F92AF92BF92CF92DF92EF92E9
:10321000FF920F931F93CF93DF930EEF1FEFD0E03A
:10322000C0E0E090DB01F090DC01B701675E7F4F0A
:103230006C0F7D1F20E04CED50E1C8010E94BD15D0
:10324000B7016C1B7D0B21E04CED50E1C801CE961F
:103250000E94BD152597065F1F4FC23E8FEFD8070E
:1032600001F781E0C82E81E0D82EE601AA24A394BC
:10327000B12C10E000E096E2E90EF11C28814FEC41
:1032800050E14701811A9108B401CE01815091406B
:103290000E94BD1529814FEC50E1B401C5010E9487
:1032A000BD150D3150F51F5F0F5F2296E2E0AE0EA7
:1032B000B11C0B3319F78091DE019091DF0187700B
:1032C0009927892B69F480910101F60191819193ED
:1032D0006F01F7E8CF16F1E0DF06B9F780938701B9
:1032E000DF91CF911F910F91FF90EF90DF90CF90E2
:1032F000BF90AF909F908F9008951150D5CF9F921F
:10330000AF92BF92CF92DF92EF92FF920F931F93F3
:10331000CF93DF9300E310E0D0E0C0E0A12C83E086
:10332000982E7801D12CC12CB12C4091DB01509109
:10333000DC0182E0B81242C0A81240C09091CE06D3
:103340008091D50198133AC08091CF012091DE0180
:103350003091DF0127703327232B31F48F5F692DE4
:103360000E949A2E9093CF012091CF012B5FBA013A
:103370006D5C7F4F4DE05EE080E390E00E94891538
:10338000B39486E0C80ED11C8CE0E81AF10885E001
:10339000B812CBCFA3942696045F1F4FCE31D10530
:1033A00009F0BFCFDF91CF911F910F91FF90EF9068
:1033B000DF90CF90BF90AF909F900895BA01655E67
:1033C0007F4F6C0D7D1D6C0F7D1F20E04DE05EE09A
:1033D000C701D4CF0F931F93CF93DF930E9401199E
:1033E0000E947F19CFECD6E00DEF16E0E991F0E0F6
:1033F000EE0FFF1FE652F94E85919491FC0109955D
:103400000C171D0799F7DF91CF911F910F91089528
:103410000895BF92CF92DF92EF92FF920F931F9386
:10342000CF93DF9326E0829FF0011124E25FF94FF2
:10343000E180F12C3DE0839FA0011124CAE2D8E095
:1034400007E010E0862F8150990BDC01AA0FBB1F0B
:10345000A756BE4F4F5E5F4F25E0C22E36E0D32EFB
:103460006CE0B62E1C82C701002E02C09595879590
:103470000A94E2F780FF36C08D919C911197FA0172
:10348000E01BF10BE80FF91F249130E083E0359544
:1034900027958A95E1F7822FE491293108F4EC838E
:1034A0006C2D0E949A2E8D9DB00111246C5F7F4F70
:1034B000621B730BB69EF001B79EF00D112433967C
:1034C000F983E883D29EB001D39E700D11246E5E05
:1034D0007F4F28EE382F2303C0011124860F971F3A
:1034E0009B838A8326960150110908F0BBCFDF9198
:1034F000CF911F910F91FF90EF90DF90CF90BF90F1
:1035000008953F924F925F926F927F928F929F9217
:10351000AF92BF92CF92DF92EF92FF920F931F93E1
:10352000CF93DF936091DA016F5F6093DA011092BD
:10353000CE068CE080930A0682EF9FEF9093DC0129
:103540008093DB0183E390E090930406809303066D
:103550008CE190E09093060680930506862F8150BB
:10356000990BFC01EE0FFF1FE756FE4F20813181C2
:10357000F9013496E491E093D501A901F901349061
:10358000FDE03F9E800111240B5F1F4FF901319632
:10359000C491C00FD12FD11DAEE0B6E070E0E12C98
:1035A000F12C812C912C54018394371609F46AC0B4
:1035B00011961C92119712961C92129713961C92B8
:1035C000139714961C92149715961C921597FA014E
:1035D0003596E491EC9387E090E06A01E1E1CE0E4C
:1035E000D11CF601E81BF90BE491EE2389F011964A
:1035F000EC91119724013501082E04C0440C551C90
:10360000661C771C0A94D2F74E2A11964C92119799
:10361000019738F7CA010C96FC01D490ED2DE770A4
:10362000E53051F4F801EF0DF11DE20FF31FE491C5
:103630001296EC931297F394FC0184918770863074
:10364000E0F0CE018E0D911DF901E80FF91FE49114
:103650001396EC931397FC013196E20FF31FE4915C
:103660001496EC931497FC013296E20FF31FE49149
:103670001596EC931597F3E0EF0E7F5F435F5F4F76
:10368000169693CF80E00E94091A89E080938B01FF
:10369000DF91CF911F910F91FF90EF90DF90CF902E
:1036A000BF90AF909F908F907F906F905F904F9062
:1036B0003F9008959AEA899FA001112485E591E041
:1036C000689F9001699F300D1124CA01820F931FDA
:1036D0008FEC890F90E064E0959587956A95E1F706
:1036E000982F990F990F890F241B350B92E1930F97
:1036F00092959F70890F08950F93CF93C22F57FD16
:1037000020C0443051054CF442305105B9F04330EB
:103710005105B9F04130510571F0645088500E9454
:103720005A1B8093D201E091D201E93168F080E028
:10373000CF910F9108956450885FF1CF6D5F8A5FDC
:10374000EECF6D5F8650EBCFF0E0E153F94F82850D
:103750008093D3018B3159F3CC2321F0893039F395
:1037600081E0E6CF011113C0882309F38930C1F746
:103770008091080683FDF4CF9091070691509093B5
:103780000706992339F0886080930806E9CF8130D5
:1037900069F7CDCF877F8061F7CFE091DA01E15003
:1037A000FF0BEE0FFF1FE756FE4F0190F081E02D5B
:1037B000339684919091CE06282F30E03595279549
:1037C000359527952F7133279217130611F48370BF
:1037D00008950895CF939091090695FF36C0C82F9C
:1037E0000E94CD1B282F8C1330C090910906905257
:1037F000909309064091D6015091D7016091D8016C
:103800007091D90148515C4F6F4F7F4F4093D60163
:103810005093D7016093D8017093D901E091CE06FF
:1038200086E0E89FF0011124E25FF94F81E090E02B
:10383000A0E0B0E004C0880F991FAA1FBB1F2A9503
:10384000D2F78095908189238083CF910895CF937B
:10385000909109069871A1F1C82F0E94CD1B8C1779
:1038600079F1809109068850809309068091D601EC
:103870009091D701A091D801B091D901C296A11D14
:10388000B11D8093D6019093D701A093D801B09336
:10389000D901E091CE0686E0E89FF0011124E25FB5
:1038A000F94F81E090E0A0E0B0E004C0880F991FDC
:1038B000AA1FBB1FCA95D2F7809590818923808368
:1038C000CF910895CF93DF93C091DB01D091DC01BC
:1038D000BE01605D7F4F23E048E955E183E190E060
:1038E0000E9489150E94CD1B833061F4BE016F5C7C
:1038F0007F4F23E048E955E183E190E0DF91CF91EC
:103900000C948915DF91CF910895CF93DF93C091E7
:10391000DB01D091DC01BE01605D7F4F22E048E910
:1039200055E189E590E00E9489150E94CD1B823007
:1039300061F4BE016F5C7F4F22E048E955E189E503
:1039400090E0DF91CF910C948915DF91CF9108958C
:10395000CF93DF93C091DB01D091DC01BE01615FA9
:103960007F4F21E048E955E185E590E00E94891507
:103970000E94CD1B813061F4BE01605F7F4F21E06A
:1039800048E955E185E590E0DF91CF910C948915E8
:10399000DF91CF910895CF93DF93C091DB01D09158
:1039A000DC01BE01615F7F4F20E048E955E188E11D
:1039B00090E00E9489150E94CD1B81110CC0BE01B0
:1039C000605F7F4F20E048E955E188E190E0DF91BA
:1039D000CF910C948915DF91CF910895089596E0C9
:1039E000899FF0011124E65DF74F2481222391F095
:1039F0002770628173818091DB019091DC01680FF7
:103A0000791F675F7F4F808191814DE05EE0039772
:103A10000C948915089587E00C94EF1C86E00C94B3
:103A2000EF1C85E00C94EF1C84E00C94EF1C83E009
:103A30000C94EF1C8091DE019091DF018770992733
:103A4000892B41F480913B088F5F66E00E949A2E9B
:103A500090933B0880913A088770282F220F280FF7
:103A6000220F80913B08280F609138087091390827
:103A70008091DB019091DC01680F791F6A5F7F4FB5
:103A800080913608909137084BE058E004960C94EA
:103A9000891596E0899FF0011124E65DF74F848136
:103AA000282F30E087708130C1F018F08230C1F0EB
:103AB000089593E0359527959A95E1F723706281F3
:103AC00073818091DB019091DC01680F791F49E8D7
:103AD00053E0808191810C94891525812C5FEFCF73
:103AE00083E0359527958A95E1F72370285FE7CF26
:103AF00081E00C94491D80E00C94491DEF92FF92E7
:103B00000F931F93CF93DF9380910806182F1370A4
:103B1000012F000F87FF1CC0D0E0C0E0E02EF12C89
:103B20006091050670910606665071096C0F7D1F45
:103B30006E197F09809103069091040620E047E208
:103B400053E004970E9489152896C831D10541F7A2
:103B500080910806609105067091060624E084FDB8
:103B600007C082FF0DC06091050670910606212FE7
:103B700045E451E080910306909104060E94891566
:103B80008091080687FF1BC0D0E0C0E010E0609184
:103B90000506709106066E5F7F4F6C0F7D1F601BE0
:103BA000710B809103069091040621E047E253E0F7
:103BB00004970E9489152896C831D10541F7DF91F5
:103BC000CF911F910F91FF90EF90089540910806BB
:103BD000842F807629F080910B068F5F80930B06EF
:103BE0008091DB019091DC014370209103063091BC
:103BF0000406423081F14330D1F14130A1F097FF0A
:103C000008C001969093DC018093DB0122503109BA
:103C100013C08091050690910606019790930606C1
:103C200080930506F3CF97FF0CC001969093DC01BB
:103C30008093DB012E5F3F4F3093040620930306F1
:103C400008958091050690910606019790930606C7
:103C500080930506EFCF833E4FEF940714F0019752
:103C6000E5CF80910506909106060196EFCF833E41
:103C70004FEF940714F00197C5CF809105069091FE
:103C800006060196CBCFEF92FF920F931F93CF932F
:103C9000DF931092720021E030E03093CE01209348
:103CA000CD01E2E0F7E048EDDF011D924A95E9F72A
:103CB00040EF4093980149E14093010741E752E00A
:103CC0005093CC014093CB013093C8012093C7019E
:103CD0003093CA072093C90722E42093C00021E053
:103CE0002093C1002FEF2093D10020E82093CF0034
:103CF000EC012196FC018491D0930007C093FF064C
:103D000090E0880F991FC80FD91FCE010496909399
:103D1000FE068093FD0632E0E32E37E0F32E10E03E
:103D200000E0FE01E00FF11F84910E948E13D70185
:103D30008D939C930F5F1F4FB6E3EB0EF11C043085
:103D4000110579F784E080937200DF91CF911F9184
:103D50000F91FF90EF900895CF92DF92EF92FF9234
:103D60000F931F93CF93DF934EE250E06BE170E02F
:103D70008FEC96E00E94D42EE091CE064E2F50E0BC
:103D800026E0E29FF0011124E25FF94F808184FF79
:103D900009C09BE09093CF069CE09093D0069DE0F5
:103DA0009093D20680FF03C09EE09093D30685FFD8
:103DB00009C09FE09093D40690E19093D50691E1DD
:103DC0009093D70681FF03C092E19093D80686FFB7
:103DD00009C093E19093F20694E19093F30695E184
:103DE0009093F50682FF03C096E19093F60687FF55
:103DF00009C097E19093F70698E19093F80699E14E
:103E00009093FA0683FF03C08AE18093FB068091BA
:103E10000806982F907609F03FC0E0910A06F0E07E
:103E2000E153F94F89E0828786E0849FF001859F06
:103E3000F00D1124E25FF94F018110E08AE2C82EF3
:103E400088E0D82ED0E0C0E097E0E92EF12CC70141
:103E50008C1B9D0BF80102C0F595E7958A95E2F75A
:103E6000E0FF0AC0F601628180810E945A1BE82FA0
:103E7000F0E0E153F94FC287219636E0C30ED11C22
:103E8000C830D10521F7DF91CF911F910F91FF909D
:103E9000EF90DF90CF900895282F2072982F907484
:103EA00083708230B1F0833001F1813061F02223E0
:103EB00019F089E08093D106992309F4B5CF89E000
:103EC0008093F406B1CF2223B9F389E08093D6061C
:103ED000F3CF222319F089E08093F406992309F4A3
:103EE000A3CF89E08093D1069FCF222319F089E0E8
:103EF0008093F906992309F497CF89E08093D60639
:103F000093CF8091DE019091DF0168E770E00E941D
:103F1000A62E892BA1F410927200E2E0F7E088ED62
:103F2000DF011D928A95E9F780EF8093980184E67E
:103F30009EE10E94431E1092D40110928B0120E05A
:103F400046ED5CE164E170E081E390E00C94BD1526
:103F500010927200E2E0F7E088EDDF011D928A9591
:103F6000E9F780EF809398011092D6011092D70163
:103F70001092D8011092D901E3E0F6E086E0858343
:103F800080E486838CE08783108683E084831186B7
:103F900012861092DA0188E080938B010895CF9306
:103FA000DF93C091DD0182E1C89FC02D1124C45D63
:103FB0000E94CC170E94AF17D0E08091D10120E081
:103FC00044E55EE168E370E08C0F9D2F911D0E9437
:103FD00089158091D00120E044E55EE168E370E05E
:103FE0008C0F9D2F911D0E94891580E40E9405165B
:103FF00081110E94FF1580E20E94051681110E9426
:10400000FA158CE00E940516882379F0C091DD0135
:1040100082E090E00E94842EC81729F06C2F82E085
:1040200090E00E948C2E10928B01DF91CF91089529
:104030003F924F925F926F927F928F929F92AF9238
:10404000BF92CF92DF92EF92FF920F931F93CF9385
:10405000DF93CDB7DEB72A970FB6F894DEBF0FBE59
:10406000CDBFE82E862ECA01B9012AE0AE014F5F0E
:104070005F4F5A010E94432EF50101900020E9F79D
:104080003197EA19FB096E2E8BEF089F802D1124C2
:10409000895F8E1B482E082E000C5508011113C095
:1040A00010E0E6E0FE2E14151504C4F41F9DC001B7
:1040B000112420E042E557E166E370E08B960E9410
:1040C000BD151F5FF0CF18164CF420E042E357E116
:1040D00070E060E089E790E00E94BD15F12C62017C
:1040E000CC0CDD1CCC0CDD1CCE0CDF1C440C551C98
:1040F0004C0C5D1C10E0062C000C7708912C76E02F
:10410000372E812F90E08615970584F5F501E80F8D
:10411000F91F20812133A4F020532A3088F4013084
:1041200089F00230C9F042E557E166E370E0C20170
:10413000139D800D911D11240E94BD151F5FE1CFBD
:1041400020E0EDCF880F991F880F991F42E357E1B8
:10415000B4018C0D9D1DF0CF880F991F880F991FFA
:1041600042E157E1B4018E0D9F1DE6CF2A960FB6AE
:10417000F894DEBF0FBECDBFDF91CF911F910F919D
:10418000FF90EF90DF90CF90BF90AF909F908F9077
:104190007F906F905F904F903F9008950F93CF93D3
:1041A000DF93D0E0C0E020E045EB57E1BE0186E7B9
:1041B00090E00E9489152896C034D105A1F720917E
:1041C000CE0630E050E040E001E060E089E70E9488
:1041D000182020910906277030E050E040E002E00E
:1041E00067E18BE70E94182020E04EEA57E16DE17D
:1041F00070E08AE790E00E94BD152091090630E04A
:1042000083E0359527958A95E1F723703327032EB0
:10421000000C440B550B66E28BE70E94182020E04F
:1042200045EA57E16CE270E089E790E00E94BD1535
:104230002091090625FB222720F930E050E040E0DC
:1042400065E38BE70E94182020E04CE957E16BE31F
:1042500070E089E790E00E94BD15809108062091EA
:10426000090684FF14C02064209309068091090682
:1042700086FF1EC02091070646E857E16BE070E01C
:104280008AE790E0DF91CF910F910C94BD1580915A
:10429000DE019091DF0164E170E00E94A62E892B7F
:1042A00029F780910706823008F780E42827DCCFC1
:1042B000DF91CF910F91089590910D069F5F90939C
:1042C0000D062091DE013091DF0123703327232B6F
:1042D00051F480910806282F2370233009F064C020
:1042E0008C7F809308069B3558F0809108068F7765
:1042F00084608093080610920D0686E080938B01FF
:104300000E9401190E947F190E94CE200E947E1DEA
:104310008091DE019091DF016AE570E00E94A62E97
:10432000892B09F043C0E091CE0636E03E9FF001B4
:104330001124E25FF94FE281E093CE0620910A0654
:10434000822F65E00E949A2E839FA00111244C5F6A
:104350005F4F421B51099CE0949FB001959F700DE7
:1043600011246D5F7F4F7093040660930306239FB3
:10437000900111242E5E3F4F482F58EE5403C00188
:104380001124820F931F2091DB013091DC01820FF9
:10439000931F909306068093050610920B0660917A
:1043A000DA018E2F0C94091A8F5F9BCF08950F931B
:1043B0000E9401190E947F190E94CE200E947E1D3A
:1043C0002091D6013091D7014091D8015091D90167
:1043D00000E066E38BE20E9418208CE00E94051644
:1043E000882339F010928B0184E69EE10F910C94A2
:1043F000431E0F9108950F930E9401190E947F1987
:104400000E94CE202091D6013091D7014091D80151
:104410005091D90100E066E38BE20E9418208CE005
:104420000E940516882319F086E080938B010F9176
:1044300008950E94AC1E0E94EA1980910B068530F7
:1044400038F48091DE0180FF0E94E61D0C94CE209E
:1044500010920B06809108068F7B8093080686E0F9
:1044600080938B01F3CF6F927F928F929F92AF9246
:10447000BF92CF92DF92EF92FF920F931F93CF9351
:10448000DF930E94AC1E0E94EA19E0910806E5FD48
:10449000D2C1E4FD09C18091DE0180FD41C00091DF
:1044A000DB011091DC0160910506601B8091030621
:1044B0000E945A1B893110F480930A06C091D401DE
:1044C000D0E0FE01E45AF14EF4900E94F2158F21E3
:1044D000F81246C0809108068C7F80930806609190
:1044E00005067091060640E080910306909104064F
:1044F0000E942017811114C0609105067091060674
:10450000601B710B00E021E050E040E08091030669
:10451000909104060E947C1B8823F9F00E943816B3
:1045200088E00E940516882319F089E080938B01AA
:1045300084E00E940516882309F4B6C0C091CE0617
:104540008091D501C81380C080910A068C3009F093
:104550007BC088E080938B01A7C00E94E61DE0CF5E
:10456000FE01E35AF14EF4900E94F2158F21F812E9
:104570001EC0809108068D7F81608093080660913F
:1045800005067091060641E08091030690910406AD
:104590000E9420178111C4CF609105067091060614
:1045A000601B710B00E021E041E050E0AFCFFE0165
:1045B000E25AF14EF4900E94F2158F21F8121EC0BB
:1045C000809108068E7F82608093080660910506C0
:1045D0007091060642E080910306909104060E94C5
:1045E000201781119DCF6091050670910606601B12
:1045F000710B00E021E042E050E088CFC15AD14E7B
:10460000FE01C4910E94F2158C23C81389CF8091BA
:10461000080683608093080660910506709106067F
:1046200043E080910306909104060E9420178111B7
:1046300077CF6091050670910606601B710B00E054
:1046400021E043E050E062CF809108068370823021
:1046500009F4ADC0833009F4CCC0813009F468C0DE
:1046600080E00E94271C80E00E94EA1B80913A08AB
:10467000982F9770953089F4869586958695209128
:104680000A062550330B8217130671F48091080631
:104690008068809308068BE05DCF20910A06255044
:1046A000330B963008F063C08091080683FF8CC1FD
:1046B00090910C069F5F90930C062091DE01309143
:1046C000DF0123703327232B21F424E082278093FA
:1046D00008068091080624E08227913F08F06DC10A
:1046E000809308068091080684FD12C08091DE0147
:1046F0009091DF0166E070E00E94A62ECAE2D8E049
:10470000FAE0AF2EB12CADE08A2E892B09F465C1F9
:10471000DF91CF911F910F91FF90EF90DF90CF909D
:10472000BF90AF909F908F907F906F900C94CE2011
:1047300080910A068A3031F481E00E94271C81E0D2
:104740000E94EA1B80913A08982F9770953041F4A7
:1047500086958695869520910A062150330B93CF36
:1047600020910A062150330B963008F49DCF982FE4
:104770009695969596959217130609F095CF91E028
:10478000892780933A08A6E0AC9FF0011124E25FEC
:10479000F94F8381A89FD0011124A25FB94F858171
:1047A00011969C911197892711968C937DCF8091BA
:1047B0000A06863131F482E00E94271C82E00E94C2
:1047C000EA1B80913A08982F9770953049F48695A6
:1047D0008695869520910A0630E02B5F3F4F53CF98
:1047E00020910A0630E02B5F3F4F963008F0BFCF94
:1047F0005BCF80910A068E3031F483E00E94271C43
:1048000083E00E94EA1B80913A08982F97709530B8
:1048100049F486958695869520910A0630E02F5FAB
:104820003F4F31CF963008F43FCF20910A0630E059
:104830002F5F3F4F9CCF80910B06853038F48091DD
:10484000DE0180FD31CF0E94E61D2ECF3091DA01CE
:10485000832F8150990BDC01AA0FBB1FA756BE4FB7
:10486000E370F0E036968091CE069DE0899FE00DE2
:10487000F11D11248D919C91E80FF91F8491837093
:10488000823069F0833009F479C0813009F07BC04F
:104890008AE080930A062AE047EF5FEF06C086E1D0
:1048A00080930A0626E14DED5FEF5093DC014093C3
:1048B000DB01E491F0E0F595E795F595E795E09358
:1048C000CE06822F65E00E949A2E682F70E0A6E047
:1048D0008A9FC00111240496821B9109FCE0FF2EDF
:1048E000F89ED001F99EB00D112413962A3009F4D8
:1048F00054C008F04DC0223009F452C00A0F1B1FEB
:104900001093040600930306A6E02A9FC001112419
:10491000429618EE1603D001179FB00D11248A0F8E
:104920009B1F2A3009F446C0F0F5223009F442C03A
:10493000C80FD91FC40FD51FD0930606C093050614
:1049400010920B06632F8E2F0E94091A8091080681
:104950008F7D80648093080687E080938B01DF91D0
:10496000CF911F910F91FF90EF90DF90CF90BF906C
:10497000AF909F908F907F906F9008958EE080937E
:104980000A062EE090CF82E080930A0622E084CFD0
:104990002E3031F0263109F0B1CF0AE010E0AECF71
:1049A00006EF1FEFABCF2E3011F0263109F6C5E030
:1049B000D0E0BECFCBEFDFEFBBCF877F84608093AB
:1049C000080610920C068ECE84FF90CE8AE080936B
:1049D0008B0188CEEBE0AE2EB12C8D818F5F837082
:1049E0008D83A091DA01A150BB0BAA0FBB1FA75664
:1049F000BE4F8091CE06F501889DE00DF11D11247A
:104A0000CF01ED91FC91E80FF91FE491EE2351F0F5
:104A10008C81E82EF12C87708130C1F148F0823012
:104A200009F48BC026969BE0A916B10499F670CEC6
:104A300063E0F594E7946A95E1F7F3E0EF22FF2451
:104A40006A807B80C880D98020E0A701B301C601BD
:104A50000E94D8161A2D1170811115C0012F20E067
:104A6000A701B301C6010E947C1B81110CC08C817F
:104A700090E023E0959587952A95E1F7612F837063
:104A80000E94DA10CFCF61E0812F19C053E0F59476
:104A9000E7945A95E1F723E0E222FF246A807B80C5
:104AA000C880D98020E0A701B301C6010E94D816B2
:104AB0003A2D3170932E882329F061E0892D0E94D0
:104AC0001216B0CF032F20E0A701B301C6010E9448
:104AD0007C1B8111F2CF8C8190E043E09595879506
:104AE0004A95E1F7692D83700E94DA10EA80FB8015
:104AF000C880D98043E350E08EE190E0F601FF27C3
:104B0000D701BB279C012E513109BA016E177F07CF
:104B100031F489010E5E1F4FA017B10781F16C506F
:104B200071092A5F3F4F8217930781F70696445F0A
:104B30005F4F8C33910531F775CF33E0F594E794EF
:104B40003A95E1F783E0E822FF246A807B80C88001
:104B5000D98020E0A701B301C6010E94D8161A2D02
:104B60001170882311F060E08FCF012F20E0A701A2
:104B7000B301C6010E947C1B8111F5CF78CF6C80F8
:104B8000712C83E0759467948A95E1F7A3E06A221B
:104B90007724E1E06E1A710820E0A301B701C60195
:104BA0000E94D81681113ECF092D20E0A301B70144
:104BB000C6010E947C1B811135CF60E07FCF1F9220
:104BC0000F920FB60F9211248F939F938091E10063
:104BD0009091E100937F9093E10083FF0FC01092CA
:104BE000E90091E09093EB001092EC0092E3909337
:104BF000ED001092020698E09093F00082FF22C030
:104C000093E09093E9009091F200992319F09AE3D0
:104C10009093E8009091F305992341F09091F3056A
:104C200091509093F305911101C05D9A9091010606
:104C3000992341F0909101069150909301069111B2
:104C400001C0289A84FF18C08091E2008E7E8160A6
:104C50008093E2008091E1008F7E8093E10080915B
:104C6000F4058E7E80618093F4059F918F910F9063
:104C70000FBE0F901F90189580FFF7CF8091E20034
:104C80008E7E80618093E2008091E1008E7E809331
:104C9000E1008091F4058E7E8160E5CF1F920F9236
:104CA0000FB60F921124CF92DF92EF92FF920F93E3
:104CB0001F932F933F934F935F936F937F938F93A4
:104CC0009F93AF93BF93EF93FF93CF93DF93CDB7B2
:104CD000DEB76C97DEBFCDBF1092E9008091E8008F
:104CE00083FF25C068E0CE0145960E949E1282EFA8
:104CF0008093E8008D8987FF39C09091E80090FF8C
:104D0000FCCF982F907609F034C19E894F89588D39
:104D10002F89F88C911131C0803861F58091F205AE
:104D20008093F1001092F1008EEF8093E8006C9672
:104D30000FB6F894DEBF0FBECDBFDF91CF91FF91CC
:104D4000EF91BF91AF919F918F917F916F915F9103
:104D50004F913F912F911F910F91FF90EF90DF9016
:104D6000CF900F900FBE0F901F9018959EEF9093CD
:104D7000E800C7CF1092F100D5CF913059F48111DE
:104D8000D3CF4130510581F68091F2058D7F80931C
:104D9000F205CACF933049F48111C6CF4130510595
:104DA00019F68091F2058260F2CF953041F480913E
:104DB000E80080FFFCCF20682093E300B5CF963059
:104DC00009F0A9C00B8D1C8D22E01092E900109211
:104DD000F0051092EF05F2122EC01092EE0510921F
:104DE000ED050E946D121F8299E09983FA8291E08D
:104DF0009E8390EA98879AEF99872091EF053091EA
:104E0000F005275F3F4F3C832B838D831092E90091
:104E10001092F0051092EF051093EE050093ED054A
:104E200049E050E0BE016F5F7F4F80E00E94471273
:104E30000E946D1279CF1093EE050093ED050E944C
:104E40005111DC0112960D911C910115110509F407
:104E500051C1D801ED91FC910480F581E02DBE0196
:104E60006B5E7F4FC8010995009709F03EC1F801BC
:104E700000851185EACFF3E0FF120EC08F898823E9
:104E800009F440C0823061F440E860E18DE491E2D1
:104E90000E941412811148CF81E28093EB0047CF2A
:104EA000813029F440E86BE081E491E2F1CF833076
:104EB00099F70E945111DC011296ED90FC908E0141
:104EC0000F5F1F4F6801E114F10479F0D701ED91F4
:104ED000FC910680F781E02DB801C7010995080F04
:104EE000111DF701E084F184EECFD8011C92F60188
:104EF00001900020E9F73197BF016C197D0940E06E
:104F0000C601C6CF6BE271E2FB01449150E080E83C
:104F10000E94471209CF973009F4BECF983021F490
:104F200081E08093F10000CF993009F0FDCE8370CD
:104F300009F0B2CFEEE9F1E081E031E096E32191B2
:104F4000222371F08093E9003093EB00DF01119789
:104F50002C912093EC009093ED008F5F873079F7D0
:104F60008EE78093EA001092EA008F898093020610
:104F7000DBCE8B8D9C8D1092E9001092F005109283
:104F8000EF059093EE058093ED05898D811192C018
:104F90008E899D89913A49F4813209F07DCF47E0AD
:104FA00050E060E971E080E0B3CF913209F074CF56
:104FB000833269F48F89988DB0E0A0E080938C01F2
:104FC00090938D01A0938E01B0938F01ADCE80326E
:104FD00069F48091E80082FFFCCF67E080E991E00E
:104FE0000E949E128BEF8093E8009ECE823209F0E1
:104FF0009BCE8F8980939701EEEFFFE78591949187
:105000008B3F9C4D51F1E0E0F8E080919001909150
:105010009101A0919201B0919301803B9440A10530
:10502000B105F1F48091970180FD1AC0EE3F8AE04E
:10503000F80789F587E797E791838083809160007F
:105040008093F10588E19BE00FB6F894A8958093D2
:1050500060000FBE9093600067CEEEEFFAE0D5CF10
:10506000808191818737974709F05ECEA89580911E
:1050700060008861809360008091F10580936000FA
:10508000EE3F2AE0F20789F08091FE0A9091FF0A34
:105090009183808349CE808191818737980751F22F
:1050A0009093FF0A8093FE0AC5CF1092FF0A1092D8
:1050B000FE0A3ACE0E945111DC0112960D911C910C
:1050C0000115110509F4E8CED801ED91FC9101908C
:1050D000F081E02DBE016B5E7F4FC8010995811103
:1050E00023CEF80100851185EBCF181619060CF4B4
:1050F0001BCED2CEF1E0FF12BECE6FE271E204CF42
:105100001F920F920FB60F9211242F933F938F93FC
:105110009F93AF93BF938091E5059091E605A09191
:10512000E705B091E8053091E40523E0230F2D3722
:1051300058F50196A11DB11D2093E4058093E50566
:105140009093E605A093E705B093E8058091E90503
:105150009091EA05A091EB05B091EC050196A11D97
:10516000B11D8093E9059093EA05A093EB05B093F8
:10517000EC05BF91AF919F918F913F912F910F902F
:105180000FBE0F901F90189526E8230F0296A11DC1
:10519000B11DD2CF2F923F924F925F926F927F922A
:1051A0008F929F92AF92BF92CF92DF92EF92FF9237
:1051B0000F931F93CF93DF9337EBC32E31E0D32EA2
:1051C000C2E0D7E010E000E0772473944BE1942E26
:1051D00056E3852E69E0462E6DE3562E22242A944E
:1051E000322CEEA5EE23A9F08FA59E2F9370891780
:1051F00008F49BC0F0E0F595E795F595E795EE0F7F
:10520000FF1FE05FFF4D85919491F60192838183AA
:105210001FA69CA99923F9F08DA9292F2F77022E7B
:10522000000C330B821713060CF489C08A8197FF98
:105230007FC081508A838A8181117CC081E08A830A
:10524000EA81F0E0EE0FFF1FE05FFF4D8591949142
:105250009EA38DA31DAA58A5552321F13AA529A5E2
:10526000311119C0422F407426FF6CC08DA19EA140
:10527000850F911D57FD9A9527FD69C097FD65C063
:10528000442309F466C0863BF4E29F0714F085EBE3
:1052900094E29EA38DA381E0830F8AA72F73321718
:1052A00008F01AA69BA5992371F0EA81EE2359F024
:1052B0008DA52CA5482F4F71322F3F71431708F051
:1052C0004AC08F5F8DA749A9442311F13AA9632FE2
:1052D000607436FF6CC08DA19EA12BA950E027FF02
:1052E00069C0840F951F97FD68C0662309F469C0E3
:1052F000863B44E2940714F085EB94E29EA38DA3D1
:105300003F71822F8F71831708F05DC02F5F2BAB29
:1053100089A19AA1009709F45DC08F3F980709F40D
:105320009AC001979AA389A396C08F5F8FA771CF68
:105330008F5F80CF803408F483CF8FE380CF8F5F7F
:105340008DAB89CF8FA190E093CF90E080E04111A9
:10535000A0CF8FA3A0CF807EF1F480E28DA78DA592
:10536000807E51F09F3F09F1292F22952F70E20F87
:10537000803411F49F70E90F88A9F0E0E80FF11D67
:1053800087FDFA95EE0FFF1FE05FFF4D8591949129
:105390009EA38DA398CF803231F426FD04C09F3F99
:1053A00011F080E4DBCF1DA6DACFE0E0E1CF8FA1E2
:1053B00090E093CF841B950B96CF90E080E0611135
:1053C0009DCF8FA39DCF27FF02C01BAAA1CF80E84E
:1053D0008BAB9ECFC8010496672C01C0660C8A95E2
:1053E000EAF7909E5001919EB00C1124809EC0015E
:1053F000819E900D11249C012E5F384F7901888188
:105400009981BC016F5F7F4F79836883FC01449170
:10541000403408F07CC04A83442319F088A9480F1F
:105420004A83EA81F0E0EE0FFF1FE05FFF4D8591B8
:1054300094919EA38DA389A5811102C08FA58FA3EE
:105440008CA585FD1DA689A19AA10097C1F28F3F69
:10545000980709F066CF20919801822F90E0002EE6
:1054600002C0959587950A94E2F780FD0AC0033043
:1054700009F0F4C18091CB0790E0959587958093D2
:10548000C601207F39F58091220790915807890F36
:1054900090918E07890F9091C407890F09F4E6C196
:1054A0008AEDA82E87E0B82E92E0E92E97E0F92E3B
:1054B000F70180A10E948E13F7019183808312A2CD
:1054C00011A2F6E3EF0EF11CAE14BF0489F780EFD2
:1054D000809398010F5F1F4FE696F5E0CF0ED11C29
:1054E0000430110509F07DCEDF91CF911F910F910E
:1054F000FF90EF90DF90CF90BF90AF909F908F90F4
:105500007F906F905F904F903F902F900895403A1A
:1055100008F009C1E42FE054FF0BEC30F10509F469
:10552000BFC00CF04CC0E530F10509F4A2C0F4F4A2
:10553000E230F10509F49DC094F4309709F491C06C
:10554000319709F080CF029699838883FB0164919B
:1055500068A780E0413409F080E489A774CFE33084
:10556000F10509F493C0349771F36DCFE830F1057C
:1055700009F462C0A4F4E630F10509F487C0379756
:1055800009F061CFFB0164916BA79C012D5F3F4F38
:1055900039832883FC013296E491ECA754CFEA309A
:1055A000F10509F47BC002963B970CF471C0998316
:1055B0008883FB01849168A9680F68AB44CFE3310D
:1055C000F10509F477C064F5EF30F10509F470C016
:1055D000DCF4ED30F10509F469C03E9709F033CFF2
:1055E000FB012591349129AB9C012D5F3F4F3983FD
:1055F0002883FC0132962591349180E04E3409F0E5
:1056000080E4820F8AAB1FCFE131F10509F450C06D
:105610003CF3029699838883FB0164916CAB13CFB2
:10562000EC35F10509F451C04CF4E431F10509F40D
:1056300043C0759709F007CF1BA605CFEE35F105DE
:1056400009F45CC00CF454C0EF35F10509F0FBCE51
:10565000809198018625809398011FA23AA229A2E1
:10566000F2CE029699838883FB0164916FA36FA7A2
:10567000EACEFB01649168A79C012D5F3F4F3983FF
:105680002883FC013296E491E9A7DDCE18A6DBCE93
:1056900099838883FB0164916EA7D5CE1EA6D3CED5
:1056A000029699838883FB01649187CF18AACBCE99
:1056B00019AAC9CE1CAAC7CEFFEFFBA702969983F1
:1056C0008883FB0164916CA7BECE02969983888380
:1056D000FB016491E09101076E0F6093010770E098
:1056E000C2010E94BA2E7093CC016093CB01ABCE65
:1056F000029699838883FB016491EFCFA2E0B7E023
:1057000021E030E0FC01E20FF31FE4919096EC936E
:1057100090972F5F3F4FD6962530310599F7059624
:105720009983888390CE403E28F44F59550B5AA355
:1057300049A389CE403EA9F4DE0190E080E0969531
:10574000982F882797958795ED91FD91E4912E2FBD
:105750002F77822BE7FDF3CF8F5B9F4F9AA389A30F
:1057600072CE4C3F08F46FCE24E0240F223008F0B4
:1057700039C04C3FA9F1029699838883FB0164915B
:10578000E881F9819F012F5F3F4F39832883E4919E
:105790005CA15E1701F14F8D842F90E07BA1D701B2
:1057A000A80FB91F51967C93519758965C93D501D9
:1057B000A80FB91FAA0FBB1FAE5FB84F8091FD069F
:1057C0009091FE06281B390B14963C932E93139749
:1057D0004F5F4F8FECA36BA38CA10E948E13A0CFC1
:1057E00060E0CECFDE0190E080E04E3F29F58BA156
:1057F00081111FC0EF8DEE2379F3E150EF8FF0E0C0
:10580000D501AE0FBF1FAA0FBB1FAE5FB84F80916F
:10581000FD069091FE0613962D913C91820F931FE9
:1058200099838883EE0DFF1D81898BA3808D8CA3C6
:105830000ACE81508BA3D0CF9695982F8827979525
:105840008795ED91FD91E4913E2F3F77832BE7FD06
:10585000F3CF680F791F79836883F5CD8DA19EA161
:10586000F601928381838FA180830BCE88EDE2E0E5
:10587000F7E011928A95E9F7109272002BCE2F92E1
:105880002FB62F932091B60120952093B60109F0F1
:105890008BC0BF93AF930F921F922091C2010090D3
:1058A000C401020E0092C4012091C3011090C501F1
:1058B000121E1092C501B12DB7FDB095BB0FA0917E
:1058C000C101B058BA02110CA12D2091B80100906D
:1058D000BA01020E0092BA012091B9011090BB01E9
:1058E000121E1092BB01212D220F2121B091B70170
:1058F00027FDB195AB0F2091BD010090BF01020EB5
:105900000092BF012091BE011090C001121E1092A2
:10591000C001B091BC0117FCB195AB0FB1E0009094
:10592000C7011090C801000C111C17FC0B2616FCB7
:105930000B260092C7011092C801B091C60117FC56
:10594000B195AB0FB0910001AB0FA093CF00B09118
:10595000CE01A091CD01119729F0B093CE01A09373
:10596000CD011EC0B091CC01A091CB01B093CE016E
:10597000A093CD0178943F934F935F936F937F9360
:105980008F939F93EF93FF9311240E94CA28FF9156
:10599000EF919F918F917F916F915F914F913F9187
:1059A0001F900F90AF91BF912F912FBE2F90189500
:1059B000EAEDF7E01382128288EE93E0A0E0B0E017
:1059C00084839583A683B78388EA91E0918380835B
:1059D0008FEF9FEF95878487EAE2F8E014821286C2
:1059E000108A168A148E12A210A616A6089578940C
:1059F00084B5826084BD84B5816084BD85B58260D4
:105A000085BD85B5816085BD80916E008160809384
:105A10006E001092810080918100826080938100ED
:105A200080918100816080938100809180008160FD
:105A3000809380008091910082608093910080919A
:105A400091008160809391008091900081608093AB
:105A500090008091C10084608093C1008091C1005A
:105A600082608093C1008091C10081608093C100F9
:105A70008091C30081608093C3008091C0008260E8
:105A80008093C0008091C20081608093C2008091A9
:105A90007A00846080937A0080917A00826080939B
:105AA0007A0080917A00816080937A0080917A00F8
:105AB000806880937A00109202061092F20510928C
:105AC000F4058091D70081608093D70080EA8093AD
:105AD000D80089B5806189BD89B5826089BD09B466
