:100000000C9476100C949E100C949E100C949E10E0
:100010000C949E100C949E100C949E100C949E10A8
:100020000C949E100C949E100C94B7270C942628C8
:100030000C949E100C949E100C949E100C949E1088
:100040000C949E100C949E100C949E100C949E1078
:100050000C949E100C949E100C949E100C94582A94
:100060000C949E100C949E100C949E100C949E1058
:100070000C949E100C949E100C949E100C949E1048
:100080000C949E100C949E100C949E100C949E1038
:100090000C949E100C949E100C949E100C949E1028
:1000A0000C949E100C94372E0C949E10060201089E
:1000B0000260000710000000000000000000C40003
:1000C0000008011058A89C948C847C100600000045
:1000D000C2A28A6700000000400000140000006512
:1000E0000000000000100200000000006500000099
:1000F0000000100E0000000000660000000000007C
:100100000301051F0C02012A0B60000B0400000014
:100110008121A100000030020F00000000AB31413E
:10012000596981C0000010015100663B8B0000003E
:10013000C0000018057B2B134262820000300A17B2
:10014000000072006524A40000008000000011A9D6
:1001500000603C5C6C8C00300E1F00005000A14120
:1001600081000000C0000020197900653292000073
:1001700000301E2B00007222144B9B000000400038
:100180000028000000634181000000D426002C21DB
:10019000A300215A6A000000102A0000000000009D
:1001A00000000000000704051E0A02012209600089
:1001B0000708000000811949000000C000000C0180
:1001C0006200A33A8A00000030020F000079006646
:1001D0003393000000F00617100953B01243830058
:1001E0000000100E0000000000A53C5C6C8C00C0FC
:1001F0000000180D29A96042825B00003016230020
:100200000072006521A400000040000020000000F2
:10021000633191000000D41E0024197B00214A9A0A
:10022000000000102200000000000000000000009C
:100230000604041E08020119074000000400000023
:10024000A14181210000B0020B00117A00663B8BB6
:10025000000000800000000551006532920000009F
:100260005012001800000023446484A400600007BA
:100270000C00A929105B6B00000000000000007357
:1002800000654A9A000000320E1F00004000A221C3
:10029000C100000080000000190000000000000004
:1002A000000502031E0800001A0760000B0400008E
:1002B00000812141A100005002000C007900AB3BFD
:1002C0008B000000C0000010015000A0335B8300D1
:1002D0000030061700007200214262920000900A6E
:1002E0000000190000643C5C6C8C00800000000D74
:1002F000A3001242820000006400131C002900AB1E
:100300004999000000101A000000000000000000E1
:100310000000000006011501260137014A015D01B8
:10032000720188019F01B801D201EE010B022A027D
:100330004B026E029302BA02E40210033F03700301
:10034000A403DC03170455049704DD042705750591
:10035000C80520067D06E0064907B8072D08A9084C
:100360002D09B9094D0AEA0A900B400CFA0CC00D90
:10037000910E6F0F5A1053115B1272139A14D41509
:1003800020178018F519801B231DDE1EB420A6221D
:10039000B52420202020434F4E4620534446582069
:1003A0002020494E464F20504C4159002042555480
:1003B000544F4E20534348454D45202020204E3C6D
:1003C0003E532020453C3E5700204D555349432085
:1003D000534F554E44202020202020204F4E2020D7
:1003E000204F46460020435245415445442042593F
:1003F00020535447204F4E45424954204A4F3352D0
:1004000049002020204C4556454C2020202020200B
:1004100020202053434F52453A0047414D45204F3D
:1004200056455220203A3C202053434F52453A0033
:1004300044524F49442045534341504544203A3E9D
:10044000202053434F52453A0041434345535320E4
:1004500044454E4945443A20555345205748495450
:1004600045204341524400414343455353204445B2
:100470004E4945443A2055534520424C41434B2078
:10048000434152440044524F49442055534544206F
:10049000412054454C45504F525420474554204824
:1004A000494D0057415443482049542044524F4934
:1004B0004420464F554E4420412053574954434809
:1004C00000414C45525420414C4552542044524F17
:1004D0004944204553434150494E47004745542025
:1004E000544841542044524F4944204E4F570044F1
:1004F0004F204E4F54204C455420544841542044E2
:10050000524F4944204553434150450049542053DC
:10051000544F4C4520544845204445414453544190
:100520005220504C414E53005448495320495320C7
:1005300041204E4F20534D4F4B494E47204641439B
:10054000494C4954590041524541203531204953C5
:1005500020494E204C4F434B444F574E0044524F7E
:100560004944205133453320504C45415345205296
:1005700045504F5254204E4F57005448452045583F
:100580004954204953205448415420574159203D53
:100590003D3D3D3E0000180800C0C0F0F0F830F8C6
:1005A000183C0C1E0C1E0C1E060F060F060F060F25
:1005B000060F060F060F060F0C1E0C1E0C1E183C15
:1005C00030F8F0F8C0F000C00003030F0F1F0C1F3D
:1005D000183C30783078307860F060F060F060F08F
:1005E00060F060F060F060F0307830783078183C7F
:1005F0000C1F0F1F030F00030A282040402090CC3F
:10060000E2FA797D1717080A050502020101505028
:10061000E8E8F4F4FAFA7DBDF0F8F3F307037B7C25
:10062000FE7F0F0301060203000000007D79FAE25D
:10063000CC90204040200101020205050A0817174E
:10064000BD7DFAFAF4F4E8E850507FFE7C7B0307A6
:10065000F3F3F8F00000000003020601030FD0D00E
:10066000E8E8740482BA5D5D11110A0A0505020208
:100670000101D0D0E8E8740482BADDDDC1C1EEEE3C
:10068000770783BBDDDD01010606030301010000DE
:100690005D5DBA820474E8E8D0D00101020205056C
:1006A0000A0A1111DDDDBA820474E8E8D0D0DDDD7C
:1006B000BB830777EEEEC1C100000101030306060C
:1006C0000101161000000000000000000000000002
:1006D00080808080C0C0C0C0E0E0E0E0C0C0C0C09A
:1006E000808080800000000000000000000000000A
:1006F000040404040E0E0E0E1F1F1F1F3F3F3F3F3A
:100700007F7F7F7FFFFFFFFF7F7F7F7F3F3F3F3FF9
:100710001F1F1F1F0E0E0E0E040404040000000015
:1007200000F0E0F010F8D0F838FCB8FC7CFE7CFE5D
:10073000FEFFFEFF7CFE7CFEB8FCB8FC50F850F8D3
:10074000A0F000F000000000000000000007030718
:10075000000F070F001F0F1F003F1F3F007F2A7F62
:10076000153F153F0A1F0A1F050F050F0207000757
:1007700000000000F0F008F8D0F0A0E040C0FEFE5D
:1007800001FFC6FE38F806FEF9FFC6FE38F870F025
:100790008CFC02FEFCFCC0C030F0CCFC02FEFCFC79
:1007A00004040707080F0F0F1E1F1D1F203F3F3FA8
:1007B0007C7F437FFFFF8FFF717F7E7F3F3F203F26
:1007C0001B1F1C1F0F0F080F070704040000000069
:1007D0000000808040C020E010F008F804FC02FE19
:1007E000ABFF55FF02FE04FC08F810F020E040C00B
:1007F000808000000000000004040606090F080FB6
:10080000101F101F203F203F407F407FAAFFD5FFD1
:10081000407F407F203F203F101F101F080F090F0F
:1008200006060404000000000000000000800080B4
:1008300000C080C000E0C0E000E0E0E000E0C0E018
:1008400000C080C0008000800000000000000000A8
:10085000000E040E001F0E1F003F1F3F207F2F7F42
:1008600070FF77FFF8FFFBFF70FF77FF207F2F7F80
:10087000003F1F3F001F0E1F000E040E000000006F
:1008800000000000000000008080808040C040C068
:10089000A0E0A0E040C040C0808080800000000058
:1008A0000000000000000000040404040A0E0A0E08
:1008B000151F151F2E3F2E3F5B7F5B7FB5FFB5FFDA
:1008C0005B7F5B7F2E3F2E3F151F151F0A0E0A0E02
:1008D0000404040400000000000000000000000008
:1008E00080808080C0C0C0C060E060E0C0C0C0C088
:1008F00080808080000000000000000000000000F8
:10090000040404040E0E0E0E1B1F1B1F353F353F43
:100910006E7F6E7FDBFFDBFF6E7F6E7F353F353F87
:100920001B1F1B1F0E0E0E0E04040404000000000B
:1009300000000000000000000080008080C080C037
:10094000C0E0C0E080C080C00080008000000000E7
:10095000000000000000000000040004040E040E6B
:100960000E1F0E1F1B3F1B3F357F357F6EFF6EFF37
:10097000357F357F1B3F1B3F0E1F0E1F040E040EDD
:10098000000400040A208080000050500000AAAA41
:1009900000000000000000000000AAAA0000555559
:1009A0000000AAAA00000000000000100000AAAA8F
:1009B000000055550000AAAA000000000000000039
:1009C00000000A0A00000505000002020000000005
:1009D0000000000000000000000000000000000017
:1009E000AAAA000050500000808000000010000003
:1009F00000000000AAAA000055550000AAAA0000A5
:100A00000000000000000000AAAA000055550000E8
:100A1000AAAA00000000000000000000020200007E
:100A2000050500000A0A000000A0000000540000B4
:100A300000AA00000055000000AA000000AA000063
:100A40000055000000AA00000055001000AA000098
:100A500000AA00000055000000AA00000055000098
:100A600000AA000000AA000000550000002A0000B3
:100A700000150000000A00AA00000055000000AAAE
:100A800000000054000000A0000000AA0010005563
:100A9000000000AA00000055000000AA000000AA03
:100AA00000000055000000AA00000055000000AA48
:100AB0000000000A000000150000002A0000005598
:100AC000000000AA000017100000000000000080D5
:100AD00080C0C0E0C0E0E0F0F0F870F878FCB8FC4E
:100AE000DCFEDCFEEEFFECFE74FE70FC78FCF0F841
:100AF000F0F8E0F000E000F8F8FEFEFFFFFF1FFF57
:100B0000E7FFFBFF7DFF1EFF0FFF07FF03FF03FF54
:100B100001FFFEFFFEFFFFFFFFFFFFFF00FFFFFFE4
:100B2000FFFF00FF00E0E0F0F0F8F0F878FC70FC68
:100B300074FEECFEEEFFDCFEDCFEB8FC78FC70F828
:100B4000F0F8E0F0C0E0C0E080C0008000000000ED
:100B5000000000FFFFFFFFFF00FFFFFFFFFFFFFFA1
:100B6000FEFFFEFF01FF03FF03FF07FF0FFF1EFF56
:100B70007DFFFBFFE7FF1FFFFFFFFEFFF8FE00F812
:100B8000000000000000008080C0C0E0C0E0E0F095
:100B9000F0F870F878FCB8FCDCFEDCFEEEFFECFE52
:100BA00074FE70FC78FCF0F8F0F8E0F000E000F87B
:100BB000F8FEFEFFFFFF1FFFE7FFFBFF7DFF1E7F2D
:100BC0000F1F070F0307030701FFFEFFFEFFFFFFD5
:100BD000FFFFFFFF00FFFFFFFFFF00FF00E0E0F06F
:100BE000F0F8F0F878FC70FC74FEECFEEEFFDCFE32
:100BF000DCFEB8FC78FC70F8F0F8E0F0C0E0C0E093
:100C000080C0008000000000000000FFFFFFFFFF29
:100C100000FFFFFFFFFFFFFFFEFFFEFF01FF0307D7
:100C20000307070F0F1F1E3F7DFFFBFFE7FF1FFF9F
:100C3000FFFFFEFFF8FE00F80820000000000000A3
:100C4000000000FFFFFFFFFF00FF000000000000AA
:100C5000000000FFFFFFFFFF00FF0000000000009A
:100C6000000000FFFFFFFFFF00FF0000000000008A
:100C70000000007F1F3F1F3F001F00FFFFFFFFFF1F
:100C800000FF000000000000000000FFFFFFFFFF6A
:100C900000FF000000000000000000FFFFFFFFFF5A
:100CA00000FF0000000000000000001F1F3F1F3F6A
:100CB000003F000000000000000000FFFFFFFFFFFA
:100CC000FFFF00FFFFFFFFFF00FF00FFFFFFFFFF31
:100CD000FFFF00FFFFFFFFFF00FF00FFFFFFFFFF21
:100CE000FFFF00FFFFFFFFFF00FF0007070F070FD9
:100CF0000F1F003F1F3F1F3F001F00FFFFFFFFFFB1
:100D000000FFFFFFFFFFFFFF00FF00FFFFFFFFFFF0
:100D100000FFFFFFFFFFFFFF00FF00FFFFFFFFFFE0
:100D200000FFFFFFFFFFFFFF00FF001F1F3F1F3FF0
:100D3000003F0F1F070F070F00070F2000FF00FFE6
:100D400000FF00FF00FF00FFFFFF8FFF4FFF1FFFAF
:100D5000FFFF00FFFFFFFFFF00FF00FF00FF00FF9E
:100D600000FF00FF00FFFFFFFFFFFFFFFFFFFFFF90
:100D700000FFFFFFFFFF00FF80FFC0FFC0FFE0FF9D
:100D8000E0FFF0FFF7FFEFFFEFFF5FFF5FFF007F88
:100D90003F7F1F3F003F0F1F070F070F030703078A
:100DA0000103010300010001000000000000000039
:100DB0000000000000FFFFFFFFFF00FFFFFF1FFF1D
:100DC0004FFF8FFFFFFF00FF00FF00FF00FF00FF4E
:100DD00000FF00FFFFFFFFFF00FFFFFFFFFFFFFF20
:100DE000FFFFFFFF00FF00FF00FF00FF00FF00FF0D
:100DF000003F1F3F3F7F007F5FFF5FFFEFFFEFFF81
:100E0000F7FFF0FFE0FFE0FFC0FFC0FF80FF000042
:100E100000000000000000000000000100010103CC
:100E2000010303070307070F070F0F1F0000000050
:100E300000000000000000FFFFFF8FFF4FFF1FFFBB
:100E4000FFFF00FFFFFFFFFF00FF000000000000AA
:100E50000000000000FFFFFFFFFFFFFFFFFFFFFF9D
:100E600000FFFFFFFFFF00FF80C0C0E0C0E0E0F038
:100E7000E0F0F0FFF7FFEFFFEFFF5FFF5FFF007FA6
:100E80003F7F1F3F003F0F1F070F070F0307030799
:100E90000103010300010001000000000000000048
:100EA0000000000000FFFFFFFFFF00FFFFFF1FFF2C
:100EB0004FFF8FFFFFFF00FF000000000000000059
:100EC000000000FFFFFFFFFF00FFFFFFFFFFFFFF2E
:100ED000FFFFFFFF00FF0000000000000000000017
:100EE000003F1F3F3F7F007F5FFF5FFFEFFFEFFF90
:100EF000F7FFF0FFE0F0E0F0C0E0C0E080C00000ED
:100F000000000000000000000000000100010103DB
:100F1000010303070307070F070F0F1F100518151D
:100F20001015180F500550155F15550F51265936DD
:100F3000513659300E260E361D361330081000FE7D
:100F400000FE38FE38FE38FE00FE00FE00000027DE
:100F500000270227002702270027002700000000A3
:100F600000FF1CFF38FE38FE00FC000000000000FF
:100F7000001301270027024F004F0000000000006F
:100F8000000000FF1CFF00FC00000000000000004B
:100F900000000013012F004F0000000000000000BF
:100FA0000000000000FF0000000000000000000042
:100FB00000000000004F00000000000000000000E2
:100FC000000000FC1CFF00FF00000000000000000B
:100FD0000000004F012F001300000000000000007F
:100FE00000FC38FE38FE1CFF00FF0000000000007F
:100FF000004F024F0027012700130000000000FEF1
:10100000FCFE3CFE3CFE3CFEFCFE00FE0000002719
:1010100003270227022702270327002700000000DA
:1010200000FFFEFF3CFEF8FE00FC00000000000098
:10103000001301270227074F004F000000000000A7
:10104000000000FFFCFF00FC0000000000000000AA
:1010500000000013012F004F0000000000000000FE
:101060000000000000FF0000000000000000000081
:1010700000000000004F0000000000000000000021
:10108000000000FCFEFF00FF000000000000000068
:101090000000004F012F00130000000000000000BE
:1010A00000FCF8FE3CFEFEFF00FF00000000000018
:1010B000004F074F0227012700130000000000FC2B
:1010C000A8FCA8FEA0FE80FE00FC00FC000000279B
:1010D000022702270227022702270027000000001C
:1010E00000FE54FEA0FE00FE00F80000000000001C
:1010F000001301270227044F004F000000000000EA
:10110000000000FE00FE00F80000000000000000EB
:1011100000000013002F004F00000000000000003E
:101120000000000000FE00000000000000000000C1
:1011300000000000004F0000000000000000000060
:10114000000000F800FE00FE0000000000000000AB
:101150000000004F002F00130000000000000000FE
:1011600000F800FEA0FE54FE00FE0000000000009B
:10117000004F044F02270127001300000000003831
:10118000007C00FE08FE08FE107C003800000020F5
:10119000002000200020002000200020000000008F
:1011A000001C00FE08FE20FE007000000000000091
:1011B000001000200020004000400000000000005F
:1011C0000000001C00FE0070000000000000000095
:1011D000000000100020004000000000000000009F
:1011E0000000000000FE0000000000000000000001
:1011F00000000000004000000000000000000000AF
:101200000000007000FE001C000000000000000054
:10121000000000400020001000000000000000005E
:10122000007000FE08FE08FE001C00000000000028
:10123000004000400020002000100000000000FCE2
:10124000F8FC00FCA8FCA8FCF8FC00FC000000274F
:10125000032700270227022703270027000000009A
:1012600000FEFCFEA8FCF0FC00F8000000000000FE
:10127000001301270227074F004F00000000000065
:10128000000000FEF0FE00F800000000000000007A
:1012900000000013032F004F0000000000000000BA
:1012A0000000000000FE0000000000000000000040
:1012B00000000000004F00000000000000000000DF
:1012C000000000F8F0FE00FE00000000000000003A
:1012D0000000004F032F001300000000000000007A
:1012E00000F8F0FCA8FCFCFE00FE0000000000007E
:1012F000004F074F0227012700130000000000F8ED
:1013000048FC48FC9CFE9CFE48FC48FC00F8003F62
:10131000017F017F02FF02FF017F017F003F00F894
:1013200088FC88FC1CFE1CFE88FC88FC00F8003F42
:10133000027F027F05FF05FF027F027F003F00F86A
:1013400008FC08FC1CFE1CFE08FC08FC00F8003F22
:10135000057F057F0AFF0AFF057F057F003F00F834
:1013600008FC08FC1CFE1CFE08FC08FC00F8003F02
:101370000A7F0A7F14FF14FF0A7F0A7F003F00F8EC
:1013800008FC08FC1CFE1CFE08FC08FC00F8003FE2
:10139000147F147F28FF28FF147F147F003F00F87C
:1013A00008FC08FC1CFE1CFE08FC08FC00F8003FC2
:1013B000287F287F50FF50FF287F287F003F00783C
:1013C00058FC5CFEBEFFBEFF5CFE58FC0078003C93
:1013D000307E307E60FF60FF307E307E003C0078E3
:1013E00058FC5CFEBEFFBEFF5CFE58FC0078003C73
:1013F000307E307E60FF60FF307E307E003C0078C3
:1014000058FC5CFEBEFFBEFF5CFE58FC0078003C52
:10141000307E307E60FF60FF307E307E003C0078A2
:1014200040FC40FE80FF80FF40FE40FC0078003C16
:10143000307E307E60FF60FF307E307E003C007882
:1014400040FC40FE80FF80FF40FE40FC0078003CF6
:10145000307E307E60FF60FF307E307E003C007862
:1014600040FC40FE80FF80FF40FE40FC0078003CD6
:10147000307E307E60FF60FF307E307E003C00803A
:1014800080C0C0E0E0F0E0F0C0E080C00080003F3D
:101490003D7F3D7F7BFF7BFF3D7F3D7F003F0080A9
:1014A00080C0C0E0E0F0E0F0C0E080C00080003F1D
:1014B0003D7F3D7F7BFF7BFF3D7F3D7F003F008089
:1014C00080C0C0E0E0F0E0F0C0E080C00080003FFD
:1014D0003D7F3D7F7BFF7BFF3D7F3D7F003F008069
:1014E00000C000E000F000F000E000C00080003F1D
:1014F000027F027F04FF04FF027F027F003F008023
:1015000000C000E000F000F000E000C00080003FFC
:10151000027F027F04FF04FF027F027F003F008002
:1015200000C000E000F000F000E000C00080003FDC
:10153000027F027F04FF04FF027F027F003F010859
:10154000000102030405060708090A0B0C0D0E0F23
:10155000101112131415161718191A1B1C1D1E1F13
:101560001F111F111F101D151711151F07041F171D
:10157000151D1F151D01011F1F151F17151F000A1F
:1015800000100A00040A110A0A0A110A04011502CD
:101590000E17161F051F1F150A1F11111F110E1FF1
:1015A00015111F05011F111D1F041F111F111911F6
:1015B0001F1F06191F10101F071F1F011F1F111FBC
:1015C0001F05070F091F1F051A17151D011F011FF2
:1015D000101F0F100F1F1C1F1B041B071C071915C2
:1015E000130508FEFFFFFFFEFEBFBFBFFEFEAFAF4D
:1015F000AFFEFEABABABFE07081F11151511111F97
:1016000007081F19191F1F1F1F05080E1F1D190E80
:10161000020800FFFFFF0208001F001F1E1800C085
:1016200038C6E9ADE1D1DDDDE1FDFDFDFDFDFDFDEE
:10163000FDFDFDFDF5BDF9C638C2150200410608E5
:1016400008C84848D000F81FDF5F5F9F3FFF18C001
:101650005048080808086661000820508850200398
:10166000813943988A888B88898A888A889B423AFC
:101670000340123810000200101800F0F0F8F0F8E3
:10168000F8FCF8FCFCFEFCFEFEFFFEFFFCFEFCFE90
:10169000F8FC80F800800000000000FFFFFFFFFF63
:1016A0007FFFBFFF3FFFFFFFFFFFFFFFFFFFFFFFCA
:1016B000FFFFFFFFFFFFFCFF00FC000F0F1F0F1FCE
:1016C0001C3F1D3F3E7F3F7F7FFF7FFF3F7F3F7F70
:1016D0001F3F1F3F0F1F0F1F000F00000000008063
:1016E00080F8F8FCFCFEFCFEFEFFFEFFFCFEFCFEAC
:1016F000F8FCF8FCF0F8F0F800F000FCFCFFFFFF4D
:10170000FFFFFFFFFFFFFFFFFFFFFFFFFFFF3FFFA9
:10171000BFFF7FFFFFFFFFFF00FF000F0F1F0F1F27
:101720001F3F1F3F3F7F3F7F7FFF7FFF3F7F3E7F0A
:101730001D3F1C3F0F1F0F1F000F00000000000087
:10174000008080C0C0E0C0E0E0F0E0F0F0F8F0F829
:10175000F8FC78FC70F8F0F800F000E0E0F8F8FC35
:10176000FCFF7FFF7FFFFFFFFFFFFFFF41FF6CFFDD
:1017700020FF36FF10FFFFFF00FF000F0F1F0F1F9E
:101780001F3F1C3F3B7F387F7FFF7FFF207F377FDE
:10179000163F1A3F081F0F1F000F00F0F0F870F8F7
:1017A00078FCF8FCF0F8F0F8E0F0E0F0C0E0C0E021
:1017B00080C0008000000000000000FFFFFF10FF5D
:1017C00036FF20FF6CFF41FFFFFFFFFFFFFF7FFFA2
:1017D0007FFFFCFFF8FCE0F800E0000F0F1F081F80
:1017E0001A3F163F377F207F7FFF7FFF387F3B7F89
:1017F0001C3F1F3F0F1F0F1F000F008080C0C0E065
:10180000E0F0F0F8F8FCFCFE54FFAAFFFCFEF8FC48
:10181000F0F8E0F0C0E080C000800008081D083D3E
:101820001D7F5DFFB3FFB3FF65FF66FFB3FFB3FF2F
:101830005DFF1D7F083D081D000800080008001C12
:10184000001C003E003F017F027F017F017F003FBF
:10185000003E001C001C00080008008080C0C0E0A2
:10186000E0F0F0F8F8FCFCFE54FFAAFFFCFE78FC68
:10187000B0F8E0F0C0E080C000800008081D083D1E
:101880001D7F5DFFB3FFB3FF65FF66FFB3FFB3FFCF
:101890005DFF1D7F083D081D000800080008001CB2
:1018A000001C003E003F017F027F017F017F003F5F
:1018B000003E001C001C00080008008080C0C0E042
:1018C000E0F0B0F878FCFCFE54FFAAFFFCFE78FCC8
:1018D00030F8E0F0C0E080C000800008081D083D3E
:1018E0001D7F5DFFB3FFB3FF65FF66FFB3FFB3FF6F
:1018F0005DFF1D7F083D081D000800080008001C52
:10190000001C003E003F017F027F017F017F003FFE
:10191000003E001C001C00080008008080C0C0E0E1
:10192000E0F030F878FCFCFE54FFAAFFFCFEF8FC67
:10193000F0F8E0F0C0E080C000800008081D083D1D
:101940001D7F5DFFB3FFB3FF65FF66FFB3FFB3FF0E
:101950005DFF1D7F083D081D000800080008001CF1
:10196000001C003E003F017F027F017F017F003F9E
:10197000003E001C001C00080008000000000000E1
:101980000000000000000000000000000000000057
:101990000000000000000000000000000080008047
:1019A00000C000C000E000E000F060F0C0E0C0E077
:1019B00080C080C0008000800000000F0D1F0D1F40
:1019C0001B3F1B3F377F367F6EFF6EFF377F377FB2
:1019D0001B3F1B3F0D1F0D1F000F000000000000EC
:1019E00000000000000000000000000000000000F7
:1019F00000000000000000000000000000800080E7
:101A000080C080C0C0E0C0E060F000F000E000E016
:101A100000C000C0008000800000000F0D1F0D1FDF
:101A20001B3F1B3F377F377F6EFF6EFF367F377F51
:101A30001B3F1B3F0D1F0D1F000F0000000000008B
:101A40000000000000000000000000000000000096
:101A50000000000000000000000000000080008086
:101A600080C080C0C0E0C0E0E0F0E0F0C0E0C0E0D6
:101A700080C080C0008000800000000F0D1F0D1F7F
:101A80001B3F1B3F377F377F6CFF60FF307F017F3D
:101A9000193F013F0D1F0D1F000F00000000000047
:101AA0000000000000000000000000000000000036
:101AB0000000000000000000000000000080008026
:101AC00080C080C0C0E0C0E0E0F0E0F0C0E0C0E076
:101AD00080C080C0008000800000000F0D1F0D1F1F
:101AE000013F193F017F307F60FF6CFF377F377FF9
:101AF0001B3F1B3F0D1F0D1F000F00F0D0F8D0F84B
:101B0000B0FCB0FC70FE60FEE0FFE6FF7CFE7CFEF9
:101B1000B8FCB8FCD0F8D0F800F000E0A0F1A0F1DB
:101B200071FB41FFBBFFBBFF76FF76FFBBFFBBFF37
:101B300041FF71FBA0F1A0F100E0000F0F1F0F1F8C
:101B4000173F173F327F327F7DFF7DFF3E7F3E7F15
:101B50001F3F1F3F0F1F0F1F000F00F0D0F8D0F8DE
:101B6000B8FCB8FC7CFE7CFEE6FFE0FF60FE70FE89
:101B7000B0FCB0FCD0F8D0F800F000E0A0F1A0F18B
:101B800071FB41FFBBFFBBFF76FF76FFBBFFBBFFD7
:101B900041FF71FBA0F1A0F100E0000F0F1F0F1F2C
:101BA0001F3F1F3F3E7F3E7F7DFF7DFF327F327FA5
:101BB000173F173F0F1F0F1F000F00F0D0F8D0F88E
:101BC000B8FCB8FC7CFE7CFECEFF0EFF0CFE1CFEBB
:101BD00098FC18FCD0F8D0F800F000E0A0F1A0F1DB
:101BE00071FB41FFBBFFBBFF76FF76FFBBFFB8FF7A
:101BF00041FF70FBA0F1A0F100E0000F0F1F0F1FCD
:101C0000193F193F367F367F7DFF7DFF3E7F3E7F48
:101C10001F3F1F3F0F1F0F1F000F00F0D0F8D0F81D
:101C200018FC98FC1CFE0CFE0EFFCEFF7CFE7CFE1A
:101C3000B8FCB8FCD0F8D0F800F000E0A0F1A0F1BA
:101C400070FB41FFB8FFBBFF76FF76FFBBFFBBFF1A
:101C500041FF71FBA0F1A0F100E0000F0F1F0F1F6B
:101C60001F3F1F3F3E7F3E7F7DFF7DFF367F367FDC
:101C7000193F193F0F1F0F1F000F101800F0F0F849
:101C8000F0F8F8FCF8FCFCFEFCFEFEFFFEFFFCFE9C
:101C9000FCFEF8FCF8FCF0F8F0F800F0006363FFDD
:101CA0007FFFFFFF9FFFE7FFF9FFFFFFFFFFFFFF42
:101CB000FFFFFFFFFFFF7FFF7FFF007F000E0C1E77
:101CC0000C1F183F1A3F357F357F6BFF6BFF357F49
:101CD000357F1A3F183F0C1F0C1E000E00F0F0F865
:101CE000F0F8F8FCF8FCFCFEFCFEFEFFFEFFFCFE3C
:101CF000FCFEF8FCF8FCF0F8F0F800F0007F7FFF45
:101D00007FFFFFFFFFFFFFFFFFFFFFFFFFFFF9FF69
:101D1000E7FF9FFFFFFF7FFF63FF0063000E0C1EC6
:101D20000C1F183F1A3F357F357F6BFF6BFF357FE8
:101D3000357F1A3F183F0C1F0C1E000E00F0F0F804
:101D4000F0F8F8FCF8FCFCFEFCFEFEFFFEFF7CFE5B
:101D50007CFE38FCB8FC10F8F0F800F0007F7FFF44
:101D60007FFFF9FFE7FF9FFFFFFFFFFFF0FFF9FF96
:101D7000F8FFFCFFFCFF7EFF63FF0063000E0C1EFC
:101D80000C1F183F1A3F357F357F6BFF6BFF357F88
:101D9000357F1A3F183F0C1F0C1E000E00F0F0F8A4
:101DA00010F8B8FC38FC7CFE7CFEFEFFFEFFFCFE5B
:101DB000FCFEF8FCF8FCF0F8F0F800F0006363FFBC
:101DC0007EFFFCFFFCFFF8FFF9FFF0FFFFFFFFFFC6
:101DD0009FFFE7FFF9FF7FFF7FFF007F000E0C1ED4
:101DE0000C1F183F1A3F357F357F6BFF6BFF357F28
:101DF000357F1A3F183F0C1F0C1E000E008000C0DC
:101E000080C080FCF8FCFCFEFCFEFEFFCEFFE0FE86
:101E1000F0F878FC78FC30F8F0F800F0007F7FFFF5
:101E20007FFFF9FF87FFFFFFFFFFFFFFF1FFF8FFD5
:101E3000F8FFFCFFFCFF7EFF63FF0063000E0C1E3B
:101E40000C1F081F0A3F357F357F6BFF6BFF357F07
:101E5000357F0A3F081F0C1F0C1E000E1024405433
:101E6000FBFF0501020A160E804010202080401062
:101E7000180000050010001B00210026006C0074F3
:101E8000007D008C00A700AC00B100C000CF00F0C6
:101E900000F600FC000B0111015A01620166016CA1
:101EA000010612001640009D249F41FA0DA741F43F
:101EB00019A314A3FE41F40DA30DA314A319A3FEAB
:101EC000FD0201FC02FEFC01FC02FEFC02FD01031E
:101ED000FC044CFEFC044CFCFC044DFC04FD010322
:101EE000FC044CFEFC044CFCFC044C03FC04FD0113
:101EF000034C07FC044C05FC044C03FD0104FD01EC
:101F0000034C07FC044C05FC044C03FC044DFC048E
:101F1000FE4030FD0203FD02019E07130017FD0184
:101F2000059F31A72FA731A72CA728A72CA725AF3E
:101F3000FE31A733A734A733A734A731A733A7317E
:101F4000A733A72FA731A72FA731A7FE2DA731AF02
:101F5000FE33A734AFFE38A736A738A734A72FA77C
:101F600034A72CAFFE31A72FA731A72CA728A32C6D
:101F7000A725B3FE31A733A734A733A334A734A7CB
:101F800031A333A731A333A733A72FA331A72FA39F
:101F900031A731A3FEA32DA331AFFEA333A334AFEA
:101FA000FE38A736A738A734A72FA334A72CB3FE33
:101FB0004000DFDFDFCF403041E8FD0108FC09FCD5
:101FC0000AFD0108FC09FC0BFD010C4C07FC09FC97
:101FD0000A4DFD010C4C07FC09FC0B4DFD010DFCED
:101FE0000EFC0FFD010DFC0EFC10FD01114C07FC59
:101FF0000EFC0F4DFD01114C07FC0EFC104D9F49CE
:1020000004402041FAAFFEFD0314FEFD0215FD025F
:1020100014FC14FD0F15FC14FD0F159FD5F08D1445
:10202000A1C881CFD9F1AF200004000003000B004C
:102030001C000100000040009F9DA04030FD0702F1
:102040009FFC034CFBFC034CFDFC034CFFFC034CCE
:1020500000FE41FC25AF29AF2CAFFEE61D9E1EF110
:102060001F921E7B1DBF1ECA21B121031FA4217216
:102070001E2D21841E080B0002020200000904002C
:1020800000010202000005240010010524010101E5
:102090000424020605240600010705810310004000
:1020A00009040100020A00000007050202400000C6
:1020B000070583024000000403090412010002EF37
:1020C0000201404123368000010102030141726494
:1020D00075696E6F204C4C430041726475696E6F78
:1020E000204C656F6E6172646F00D82E11241FBE84
:1020F000CFEFDAE0DEBFCDBF11E0A0E0B1E0E2E477
:10210000F2E602C005900D92A433B107D9F728E09A
:10211000A4E3B1E001C01D92A336B207E1F710E1DC
:10212000C6E7D0E104C02197FE010E94F730C53711
:10213000D107C9F70E94FE2E0C941F310C940000A9
:10214000FC0180910206882311F13FB7F89482E0E8
:102150008093E9002091F200822F90E01816190672
:1021600014F481E090E0882339F0289844E6409305
:1021700001064091F1004083222339F02091F200C2
:10218000211103C02BE62093E8003FBF08958FEF95
:102190009FEF08952FB7F89483E08093E900909122
:1021A000E800892F807295FF04C09091F20080E4CE
:1021B000891B2FBF08958091F90581110DC082E020
:1021C0008093F50584E08093F6051092F80510924F
:1021D000F70581E08093F90585EF95E00895CF93A9
:1021E000DF931F92CDB7DEB76983DC01ED91FC91DF
:1021F0000280F381E02D41E050E0BE016F5F7F4F30
:1022000009950F90DF91CF91089583E08093E900C5
:102210008091F200882319F08AE38093E800089502
:102220000E94CA1090E00895CF93DF931F92CDB71C
:10223000DEB7FC018485958597FD08C02FEF3FEF41
:10224000358724870F90DF91CF910895CE010196B5
:102250000E94A010019719F4898190E0F3CF8FEFCD
:102260009FEFF0CF0F931F93CF93DF931F92CDB7C4
:10227000DEB78C01FC018485958597FF0BC0CE01EC
:1022800001960E94A010019771F4898190E0F801F5
:1022900095878487F801848595850F90DF91CF918C
:1022A0001F910F9108958FEF9FEFF1CFFC0184856F
:1022B000958597FD0BC09FB7F89482E08093E90065
:1022C0008091F2009FBF90E0019608959FB7F89427
:1022D00082E08093E9008091F2009FBF90E0089532
:1022E0004091EF055091F0052091ED053091EE05FC
:1022F00042175307B4F49091E8009570E1F3909180
:10230000E80092FD19C08093F1008091EF05909153
:10231000F00501968F739927892B19F48EEF80931E
:10232000E8008091EF059091F00501969093F005FB
:102330008093EF0581E0089580E00895EF92FF9289
:102340000F931F93CF93DF93F82E192FE62E042FB0
:1023500081E0860F880F0E94701183E00E94701147
:10236000CF2DD12FEC0EFD2EF11CCE15DF05B9F0CF
:1023700007FF13C0FE0184910E947011182F80E0A6
:102380000E947011812321968111EFCFDF91CF91AF
:102390001F910F91FF90EF9008958881EDCF81E01C
:1023A000F5CFDF92EF92FF920F931F93CF93DF93BE
:1023B000D82E8A01EB017B01E40EF51ECE15DF0558
:1023C00059F0D7FE12C0FE0184910E94701121962F
:1023D0008111F4CF0FEF1FEFC801DF91CF911F9153
:1023E0000F91FF90EF90DF9008958881EECF0F93CB
:1023F0001F93CF93DF931F92CDB7DEB782E089831F
:1024000042E450E065E770E280E80E94D1110E944A
:10241000DB10DC0112960D911C910115110589F05C
:10242000D801ED91FC910280F381E02DBE016F5F38
:102430007F4FC801099597FD04C0F80100851185FB
:10244000ECCF89810F90DF91CF911F910F9108956B
:10245000615030F02091F100FC0120830196F8CF0B
:10246000289884E68093010608953FB7F8948091F8
:10247000E9059091EA05A091EB05B091EC0526B530
:10248000A89B05C02F3F19F00196A11DB11D3FBFAC
:10249000BA2FA92F982F8827BC01CD01620F711D7B
:1024A000811D911D42E0660F771F881F991F4A9575
:1024B000D1F708958F929F92AF92BF92CF92DF9201
:1024C000EF92FF926B017C010E9435124B015C017F
:1024D000C114D104E104F104B9F00E943512681965
:1024E00079098A099B09683E73408105910580F34B
:1024F00021E0C21AD108E108F10888EE880E83E0D5
:10250000981EA11CB11CE4CFFF90EF90DF90CF90FC
:10251000BF90AF909F908F90089565E070E080E04D
:1025200090E00C945A128F929F92AF92BF92CF92EA
:10253000DF92EF92FF920F931F93CF93DF936C0183
:102540007B018A0180910F01882309F45CC080918E
:102550000206882309F457C08091F40580FF05C066
:102560008091E00082608093E000E801B12C8AEF66
:10257000A82E93E0892E2AE3922E209711F4BB20F7
:10258000D9F10E94CA1081110AC0AA94AA20D9F1D7
:1025900061E070E080E090E00E945A12EECF8C176C
:1025A0001D0611F00CF08C2F9FB7F8948092E90073
:1025B0002091E80025FD02C09FBFDFCF282F30E02B
:1025C000C21BD30BF701815020F041914093F100E1
:1025D000FACFE20EF31EBB2021F09092E800B12C5E
:1025E000EBCF8091E80085FDE7CF9092E800BB2417
:1025F000B394209709F3F3CF5D9884E68093F305B5
:10260000101611063CF081E090E0F601938382837E
:1026100010E000E0C801DF91CF911F910F91FF9072
:10262000EF90DF90CF90BF90AF909F908F900895E4
:102630004F925F926F927F928F929F92AF92BF92D2
:10264000CF92DF92EF92FF920F931F93CF93DF937E
:102650004C015901FC2DC02FD0E0CE01880D991DF1
:10266000181619060CF06CC020E8821691040CF0C4
:1026700067C09B012E0D311D121613060CF060C0B1
:10268000603471050CF05CC04115510509F458C067
:10269000E62FE770FE2EDB0177FD179633E0B59548
:1026A000A7953A95E1F73A2F77FF04C0FF2011F084
:1026B0003FEF3A0F662777276819790997FC02C020
:1026C00070E060E0803891050CF44BC090E89819F8
:1026D000961BA32F032E000CBB0B1A2F10953F3F08
:1026E0000CF010E021E08E2D877009F420E0E694D4
:1026F000E694E694E20EAE0DB11D19971CF028E0A9
:10270000E22EE31AE11A310F20E83203D00111243E
:10271000A80DB91DA60FB71F019F600D711D1124D3
:10272000460F571F0F2D0F2C000C110BF33009F41F
:102730001CC1C8F4F13009F4D0C0F23009F47CC0F7
:10274000DF91CF911F910F91FF90EF90DF90CF908D
:10275000BF90AF909F908F907F906F905F904F90C1
:102760000895902FB5CFFA3FB1F1232F2E0DFB3FE7
:1027700039F7321729F3BD016E517E4FD12CC12C90
:10278000C91608F0A4C0FA01EC0DFD1DE491F0E0BB
:102790004F01002E02C0880C991C0A94E2F737FD05
:1027A00006C0FB018081E82CE0948E218083FF200D
:1027B00061F0373054F45B01F0E8AF0EB11CE92C46
:1027C000E094F50180818E218083FFEFCF1ADF0A2C
:1027D0006F5F7F4FD5CF232F2E0D321709F4B0CF67
:1027E000BD016E517E4FD12CC12CC91608F069C0B5
:1027F000FA01EC0DFD1DE491F0E04F01002E02C046
:10280000880C991C0A94E2F737FD04C0FB01808113
:1028100088298083FF2051F0373044F45B01F0E8D1
:10282000AF0EB11CF501808189298083FFEFCF1A9B
:10283000DF0A6F5F7F4FD9CF6FEF70E00F2C02C0C0
:10284000660F771F0A94E2F760957095772E232F15
:102850002E0D321709F474CFFD01EE51FE4F6F01BA
:10286000B12CA12CA91638F5FA01EA0DFB1DE49153
:10287000F0E02F01002E02C0440C551C0A94E2F730
:1028800037FD05C0F6018081862384298083FF20DF
:1028900059F037304CF44601F0E88F0E911CF401EA
:1028A0008081872185298083FFEFAF1ABF0A8FEFD0
:1028B000C81AD80AD7CF3F5F4C0F5D1FA058BF4F33
:1028C000C8CF3F5F4C0F5D1FA058BF4F86CF3F5F03
:1028D0004C0F5D1FA058BF4F4CCF6A0D7B1D232F9F
:1028E0002E0D321709F42CCFFD01EE51FE4F6F0172
:1028F000B12CA12CA91688F5FB01EA0DFB1D8490D3
:10290000912C002E02C0880C991C0A94E2F7809446
:102910009094FA01EA0DFB1D6490712C002E02C008
:10292000660C771C0A94E2F737FD05C0F60180813A
:10293000882186298083FF2049F037303CF4F60156
:10294000E058FF4F8081892187298083FFEFAF1AEC
:10295000BF0A8FEFC81AD80ACDCF3F5F4C0F5D1F5B
:102960006C0F7D1FA058BF4FBCCFC92ED12CFA01D0
:10297000E60FF71FAE51BE4F00E810E00C191D091D
:10298000CC19DD09BE01660F771F41E050E06A01F6
:102990000F2C01C0CC0C0A94EAF7592F2E2D792E5A
:1029A000CF93DF93ED01EF96EF9622968590A59059
:1029B000FF2059F08C9C4001AC9C500137302CF426
:1029C000E880B094EB20E928E99233233AF0EC90C8
:1029D000A094EA20E828ED920C94EF1411965A95F1
:1029E00029F72A9551F0572D33951124E60FF11D43
:1029F000A00FB11DC00FD11DD9CFDF91CF911124F0
:102A00009FCECF92EF920F93FA0104913196E4900A
:102A10004E5F5F4F2223F9F0A1E0B0E03E2D37700A
:102A200011F4B0E0A0E0EE2DE695E695E695EA0F0C
:102A3000FB2FF11D0E9FD0010F9FB00D112430E030
:102A4000220F331FA29FF001A39FF00DB29FF00D44
:102A500011244E0F5F1F23E0C22E30E020E00E94C1
:102A600018130F91EF90CF900895CF92EF920F939C
:102A7000CF93DF93DC01FA0104913196E4904E5F2D
:102A80005F4F2223D1F0C1E0D0E09E2D977011F46A
:102A9000D0E0C0E0EE2DE695E695E695EC0FFD2F33
:102AA000F11D0E9FE0010F9FD00D11242C9FC0013E
:102AB0002D9F900D1124480F591F8AEFC82E30E02A
:102AC00020E0CD010E941813DF91CF910F91EF907C
:102AD000CF9008958FB18095807F669B88601C9B06
:102AE000846008951092DD013E983F9808953E9AC3
:102AF0003F9A81E08093DD0108959091E20598234B
:102B000029F49091E305982381E009F480E0089589
:102B1000482F65E00E94C33096E0899F9001112400
:102B20002C5F3F4F241B31094CE0429FC001439F63
:102B3000900D112403960895E091CF0686E0E89F5A
:102B4000F0011124E15FF94F81818F7D8183089528
:102B5000A091D701B091D801AA0FBB1F2A9FF00105
:102B60002B9FF00D1124660F771F443051054CF454
:102B700042305105E9F04330510519F1413051051A
:102B800051F0680F791FE75AFF4F81E0E617F7070A
:102B900074F480E00CC09C01261B370BB9012FE0B8
:102BA00030E02E1B3F0B81E06217730794F308950A
:102BB000EA54FF4F680F791F81E0E617F707BCF36F
:102BC000E8CF9C01261B370BB9012FEA3FEF2E1BE4
:102BD0003F0B81E02617370754F7DBCF4370FC012A
:102BE000208131815FEF540FEEEFFFEF523010F490
:102BF000E2E0F0E02E0F3F1FFC0131832083FB0158
:102C0000808191812FEF3FEF423010F021E030E0E2
:102C1000820F931FFB019183808308951F93CF93AD
:102C2000DF93C82F8091DE019091DF018F7099278B
:102C3000892B31F48091C60191E089278093C601E8
:102C40008091C6018823E9F0D0E1DC0F1AE360919E
:102C5000D7017091D8016A5D7F4F8C2F90E0AC0155
:102C600055954795242FCA3310F0212F241B621B42
:102C7000710920E046E156E10E940115CE5FDC13A8
:102C8000E6CFDF91CF911F910895BF92CF92DF924F
:102C9000EF92FF920F931F93CF93DF93C091CC01DC
:102CA000CC23B1F18091CB01882391F18EE4E82E01
:102CB00081E0F82ECC24C394D12CD0E0B12C00912B
:102CC000D7011091D8010A5D1F4F0D1B1109F701A3
:102CD00020814EE355E1B801C7018E5491400E9416
:102CE0003515F70121814EE355E1B801C6010E9477
:102CF0003515FCE1FB1508F456C0DF5FB39482E0A4
:102D0000E80EF11CE2E0CE0ED11CFBE3BF12D7CFE0
:102D10002091DE013091DF01C9016EE170E00E9477
:102D2000CF30892B41F4C5FF06C08091CB0191E0E3
:102D300089278093CB0127703327232B31F4C530AB
:102D4000C1F198F5C33009F442C0CEEFDFEF10E0D7
:102D500000E0E090D701F090D801B701675E7F4FA7
:102D6000600F711F22E048EF55E0CE010E9435153B
:102D7000B701601B710B23E048EF55E0CE01CE9602
:102D80000E943515055011092A96023E8FEF18074B
:102D900001F7DF91CF911F910F91FF90EF90DF909E
:102DA000CF90BF900895D150A9CFC33281F0C532E2
:102DB00061F68091C501E5ECF1E02EE431E09291FD
:102DC00091832E173F07D9F780934E01BECF809194
:102DD0004E01EEE4F1E025EC31E0918191932E1764
:102DE0003F07D9F78093C501B0CF8091D70190916B
:102DF000D801892B31F487EF9FEF9093D80180930E
:102E0000D7010C9445169F92AF92BF92CF92DF925A
:102E1000EF92FF920F931F93CF93DF9300E310E0A5
:102E2000D0E0C0E0A12C83E0982E7801D12CC12CF9
:102E3000B12C4091D7015091D80182E0B81242C024
:102E4000A81240C09091CF068091D50198133AC046
:102E500080914D012091DE013091DF0127703327F1
:102E6000232B31F48F5F692D0E94C33090934D0165
:102E700020914D012B5FBA016D5C7F4F42EC56E013
:102E800080E390E00E940115B39486E0C80ED11C47
:102E90008CE0E81AF10885E0B812CBCFA39426960F
:102EA000045F1F4FCE31D10509F0BFCFDF91CF9125
:102EB0001F910F91FF90EF90DF90CF90BF90AF9058
:102EC0009F900895BA01655E7F4F6C0D7D1D6C0F5C
:102ED0007D1F20E042EC56E0C701D4CF3F924F92D5
:102EE0005F926F927F928F929F92AF92BF92CF929A
:102EF000DF92EF92FF920F931F93CF93DF93109285
:102F0000D3011092D40110920E06682E712C46E067
:102F1000849FF0011124E15FF94F8180912C5DE0E5
:102F2000859F800111249DE2C92E98E0D92E27E0CB
:102F3000A22EB12C862F8150990BEC01CC0FDD1FF6
:102F4000CF5EDE4F0F5E1F4F46E0442E55E0352E1C
:102F5000D60114961C92C4010A2C02C0959587953F
:102F60000A94E2F780FF30C0E881F981C8018A192C
:102F70009B09E80FF91FE490F12C83E0F594E794A6
:102F80008A95E1F75E2CE491B8E1BE1518F0D60100
:102F90001496EC938E2D0E948815F6019183808300
:102FA0004E9C90014F9C300D11242E5E3F4F852D7D
:102FB000632D0E94C33048EE582F4503C0011124F1
:102FC000280F391F3383228386E0C80ED11C91E07D
:102FD000A91AB10808F0BCCF80913D08982F9770CE
:102FE000963070F096E0969DF001979DF00D1124BB
:102FF000E15FF94F948197FF15C0816080933D0890
:10300000DF91CF911F910F91FF90EF90DF90CF90C4
:10301000BF90AF909F908F907F906F905F904F90F8
:103020003F9008958E7FEACF362F83506CE00E9448
:10303000C330282F911118C08EEE830F66E00E94D6
:10304000C330911111C09CEF980F290F20FD0CC0C7
:10305000022E000C330B35952795253028F4982F38
:10306000921B81E0953008F080E008959AEA899FEC
:10307000A001112485E591E0689F9001699F300DC2
:103080001124CA01820F931F8FEC890F90E064E036
:10309000959587956A95E1F7982F990F990F890F64
:1030A000241B350B92E1930F92959F70890F089521
:1030B000E091D601E150FF0BEE0FFF1FEF5EFE4FD8
:1030C0000190F081E02D339684919091CF06282FC6
:1030D00030E035952795359527952F713327921731
:1030E000130611F4837008950895EF92FF920F93E1
:1030F0001F93CF93DF9380910806182F1370012F31
:10310000000F87FF1CC0D0E0C0E0E02EF12C6091E2
:10311000050670910606665071096C0F7D1F6E19C9
:103120007F09809103069091040620E046E955E06E
:1031300004970E9401152896C831D10541F7809166
:103140000806609105067091060624E084FD07C01C
:1031500082FF0DC06091050670910606212F4AE797
:103160005CE180910306909104060E940115809114
:10317000080687FF1BC0D0E0C0E010E060910506A4
:10318000709106066E5F7F4F6C0F7D1F601B710B89
:10319000809103069091040621E046E955E00497EA
:1031A0000E9401152896C831D10541F7DF91CF91D2
:1031B0001F910F91FF90EF9008956F927F928F92E1
:1031C0009F92AF92BF92CF92DF92EF92FF920F93B6
:1031D0001F93CF93DF9300D01F92CDB7DEB70E942D
:1031E00045160E94031770EDE72E76E0F72EEEEFFE
:1031F000CE2EE6E0DE2EF6E07F2ED701ED917D01AA
:10320000EB3109F47AC0E23020F57E9EF001112402
:10321000E35DF74F848190E09C01220F331F220F62
:10322000331F2C7163E0959587956A95E1F783705C
:10323000822B628173812091D7013091D801620F76
:10324000731F282F48E756E1808191810E94011564
:1032500054C0E23091F580910E0681114EC08091EC
:10326000DE019091DF0187709927892B41F48091CD
:103270003E088F5F672D0E94C33090933E08809177
:103280003D088770282F220F280F220F80913E08BB
:10329000280F60913B0870913C088091D701909174
:1032A000D801680F791F6A5F7F4F8091390890912C
:1032B0003A084CE35FE00496C9CFE830C8F47E9E3C
:1032C000F0011124E35DF74F24812223B1F0277030
:1032D000628173818091D7019091D801680F791F25
:1032E000675F7F4F8081918142EC56E00397AECFBC
:1032F000E93009F04CC00E947518CE14DF0409F0C3
:103300007CCF8091D3018823B1F06091CF0170917F
:10331000D0018091D7019091D801680F791F6A5F21
:103320007F4F8091CD019091CE0122E14CE35FE08F
:1033300004960E9401158091D401882309F478C075
:1033400060915F08709160088091D7019091D801D9
:10335000680F791F6A5F7F4F80915D0890915E08CA
:1033600022E14CE35FE004960F900F900F90DF9105
:10337000CF911F910F91FF90EF90DF90CF90BF9072
:10338000AF909F908F907F906F900C940115EB50B1
:10339000E03108F0B2CF8E2E912C959487949594BD
:1033A0008794682CBE2FB370B983EE0F8E2F90E0F8
:1033B000FC01E45EF04F0491835E904FFC01F491B8
:1033C0006091D7017091D8018F2F860F972F911D93
:1033D0009B838A832AE3A22E2DE0B22EB13081F0A6
:1033E00098E3A92E9CE0B92EB23051F036ECA32E12
:1033F0003AE0B32EB33021F484E8A82E89E0B82E49
:1034000010E0282DA5016A817B81C8010E94011569
:103410009981933009F071CF0E94581868126DCFCE
:103420006A817B816F5F7F4F282DA501C8010ECF78
:103430000F900F900F90DF91CF911F910F91FF9000
:10344000EF90DF90CF90BF90AF909F908F907F9044
:103450006F9008958091080683FD0AC09091070639
:10346000915090930706992321F088608093080675
:103470000895877F8061FACFCF93DF93C42F0E9496
:103480003618893108F055C0E82FF0E0E053F94FC5
:103490008285CC2309F447C0823008F04BC090E00D
:1034A000E6E0E89F9001E99F300D1124235D374F3E
:1034B000D90114964C914770423009F46EC0409186
:1034C000CF06E49FF0011124E15FF94F47E050E09F
:1034D000481B590B81E090E0A0E0B0E004C0880FE9
:1034E000991FAA1FBB1F4A95D2F780959181892306
:1034F0008183F90114828091D9019091DA01A09120
:10350000DB01B091DC01855B9F4FAF4FBF4F8093D4
:10351000D9019093DA01A093DB01B093DC018C2FE9
:10352000DF91CF910895893029F40E942A1AC1E0D1
:10353000F6CF8BE19DEF980F953088F590E0E6E0AF
:10354000E89FE001E99FD00D1124C35DD74F2C8186
:103550002770243011F12330E1F42091CF06E29F4F
:10356000F0011124E15FF94F27E030E0281B390B0F
:1035700081E090E0A0E0B0E004C0880F991FAA1F8E
:10358000BB1F2A95D2F780959181892381831C8264
:10359000CECF2150C1E0223010F2C0E0C0CFC1E058
:1035A0008230D9F7BCCF0F93CF93C22F443051054F
:1035B0004CF44230510521F14330510521F14130A5
:1035C0005105D9F0645088500E9436188093C80184
:1035D000E091C801E93160F4F0E0E053F94F8285F1
:1035E0008093C9018B3121F0CC2381F0893009F41B
:1035F000C0E08C2FCF910F9108956450885FE4CF85
:103600006D5F8A5FE1CF6D5F8650DECF011106C02E
:10361000882371F3893029F0C1E0EBCF8130D1F7F5
:10362000E7CF0E942A1AF8CFCF92DF92EF92FF9253
:103630000F931F93CF93DF93182FC62FD0E086E010
:10364000189FF0011124E35DF74FC280D380E08022
:10365000F18020E0AE01B601C7010E94A8158111DA
:1036600015C001E0111101C000E020E0AE01B6017B
:10367000C7010E94D31A91E08927DF91CF911F9152
:103680000F91FF90EF90DF90CF90089580E0F5CFFD
:1036900040910806842F807629F080910B068F5F79
:1036A00080930B068091D7019091D80143702091AF
:1036B000030630910406423081F14330D1F14130AC
:1036C000A1F097FF08C001969093D8018093D7018D
:1036D0002250310913C0809105069091060601978A
:1036E0009093060680930506F3CF97FF0CC00196D2
:1036F0009093D8018093D7012E5F3F4F30930406FB
:10370000209303060895809105069091060601977F
:103710009093060680930506EFCF853E4FEF940702
:1037200014F00197E5CF8091050690910606019669
:10373000EFCF853E4FEF940714F00197C5CF8091EE
:103740000506909106060196CBCF4F925F926F923D
:103750007F928F929F92AF92BF92EF92FF920F93C0
:103760001F93CF93DF932B013C01C42FD22F11E085
:10377000411451046104710409F010E0A3019201A5
:103780006AE0862E912CA12CB12C21153105410522
:10379000510541F01F5FCA01B901A50194010E94C2
:1037A000A130F3CF1D1708F41D2FC10FDD27DD1F3A
:1037B000CC0FDD1FCC0FDD1FC65BDE4F00E02AE023
:1037C000822E912CA12CB12C82E090E09C012E54F1
:1037D00031407901C301B201A50194010E94A130D9
:1037E000F701EC0FFD1FE837F105A0F4FB01EE0F28
:1037F000FF1F6E0F7F1FFB01E05AFA4EE491E88332
:10380000FB01EF59FA4EE491E9836E597A4EFB01C0
:1038100064916A830F5F249729013A011013DACF6C
:10382000DF91CF911F910F91FF90EF90BF90AF90DC
:103830009F908F907F906F905F904F90089590E051
:10384000880F991FE0910007F0910107E80FF91F19
:10385000859194912091FE063091FF06820F931F6F
:103860000895EF92FF920F931F93CF93DF931092DF
:10387000720021E030E030934C0120934B01E5E0F1
:10388000F7E048EDDF011D924A95E9F740EF4093DC
:103890001001109204071092030749E140930207B8
:1038A00041E752E050934A01409349013093460169
:1038B000209345013093CD072093CC0722E4209339
:1038C000C00021E02093C1002FEF2093D10020E819
:1038D0002093CF00EC012196FC018491D093010745
:1038E000C093000790E0880F991FC80FD91FCE0121
:1038F00004969093FF068093FE0635E0E32E37E0B2
:10390000F32E10E000E0FE01E00FF11F84910E9411
:103910001F1CD7018D939C930F5F1F4FB6E3EB0ED7
:10392000F11C0430110579F784E080937200DF9177
:10393000CF911F910F91FF90EF900895AF92BF929A
:10394000CF92DF92EF92FF920F931F93CF93DF936B
:103950004EE250E06BE170E080ED96E00E940F31A6
:10396000E091CF062E2F30E086E0E89FF001112491
:10397000E15FF94F808184FF09C09BE09093D006FE
:103980009CE09093D1069DE09093D30680FF03C006
:103990009EE09093D40685FF09C09FE09093D506E2
:1039A00090E19093D60691E19093D80681FF03C0F1
:1039B00092E19093D90686FF09C093E19093F306B4
:1039C00094E19093F40695E19093F60682FF03C08C
:1039D00096E19093F70687FF09C097E19093F80668
:1039E00098E19093F90699E19093FB0683FF03C059
:1039F0008AE18093FC06A0900E068DE2C82E88E036
:103A0000D82ED0E0C0E086E0829F8001839F100D19
:103A10001124005F194F97E0E92EF12CBC2EE2E053
:103A2000CE1302C0A11017C0F801808190E0970169
:103A30002C1B3D0B02C0959587952A95E2F780FFD8
:103A40000AC0F601628180810E943618E82FF0E0FA
:103A5000E053F94FB2862196F6E0CF0ED11CC83064
:103A6000D105E1F680910806282F2072982F9074D6
:103A7000382F307691F4E0910A06F0E0E053F94FE8
:103A800089E08287DF91CF911F910F91FF90EF9096
:103A9000DF90CF90BF90AF90089583708230A9F0EF
:103AA0008330F1F0813059F0222319F089E08093BE
:103AB000D206992339F389E08093F506E3CF2223D8
:103AC000C1F389E08093D706F4CF222319F089E06F
:103AD0008093F5069923B1F289E08093D206D2CF84
:103AE000222319F089E08093FA06992359F289E09C
:103AF0008093D706C7CF10927200E5E0F7E088ED1B
:103B0000DF011D928A95E9F780EF809310011092F2
:103B10000407109203071092D9011092DA01109253
:103B2000DB011092DC01E3E0F6E086E0858380E4CF
:103B300086838CE08783108683E0848311861286D7
:103B40001092D60188E0809303010895EEE4F1E03D
:103B500098E7DF011D929A95E9F742E953E0811158
:103B60002DC0AEE4B1E030E020E063E0FA01E20F06
:103B7000F31FE491EE2309F1E053E03FC1F0EF3F82
:103B8000B1F0E69FC0011124FC01E05AFA4EE49125
:103B9000EC93FC01EF59FA4EE4911196EC931197D6
:103BA0008E599A4EFC01849112968C9312972F5F36
:103BB0003F4F14962E313105C9F60895FA019491BC
:103BC0004F5F5F4F9111FACF8150C9CF1F93CF93B1
:103BD000DF930E94F516D0910101ED2FF0E0E45A39
:103BE000F14E84910E940E168091DE019091DF01CA
:103BF0006AE170E00E94CF30892B31F48091C701D7
:103C000091E089278093C701C091C70112E01C0F82
:103C1000212F4AE75CE16FE070E083E390E00E94CF
:103C2000011526E02C0F48E756E16BE170E08BE1CF
:103C300090E00E9401152EE02C0F48E756E167E264
:103C400070E083E090E00E940115212F48E756E1E3
:103C50006BE170E08BE490E00E9401152AE02C0FEC
:103C600048E756E167E270E083E690E00E940115C4
:103C700080E40E947D15882329F0D33018F4DF5F9B
:103C8000D093010180E20E947D15882339F0809154
:103C90000101882319F08150809301018CE00E947A
:103CA0007D15882351F0809101018F5F809303017E
:103CB000DF91CF911F910C94A61DDF91CF911F91A1
:103CC000089587EF9FEF9093D8018093D70180E00C
:103CD0000E94A61D81E08093CC018093CB011092BD
:103CE000030108950E9445160E9403170E9475184B
:103CF0008CE00E947D15882331F080E79EE10E94D0
:103D0000311C0C94611E08950E9445168CE00E949F
:103D10007D15882331F080E79EE10E94311C0C94D0
:103D2000611E08950E94F51683E08093CC018CE01B
:103D30000E947D1581110C94611E08950E94F51654
:103D40008091CA01811118C088E40E940E1680E497
:103D50000E947D15882319F084E08093CA0180E2D7
:103D60000E947D1581111092CA018CE00E947D1580
:103D7000882321F00C94611E80E6E7CF089580919E
:103D8000DE019091DF0168E770E00E94CF30892B5F
:103D900031F480E79EE10E94311C0E94611E20E008
:103DA0004CE156E164E170E081E390E00C9435155C
:103DB0008091CF068770855F0E94A61D83E0809367
:103DC000CC0181E08093CB0186E0809303010895CC
:103DD00081E28093CC0184E00E94A61D6091D6010F
:103DE00070E090E080E022E049E00E94A51B609135
:103DF000D9017091DA018091DB019091DC0126E01C
:103E000047E10C94A51B2F923F924F925F926F92C5
:103E10007F928F929F92AF92BF92CF92DF92EF925A
:103E2000FF920F931F93CF93DF936091D60166307B
:103E300028F183E00E94A61D6091D9017091DA01FA
:103E40008091DB019091DC0126E048E10E94A51BF6
:103E50008CE080930301DF91CF911F910F91FF9030
:103E6000EF90DF90CF90BF90AF909F908F907F901A
:103E70006F905F904F903F902F9008951092CF06D3
:103E80008CE080930A0687EF9FEF9093D801809390
:103E9000D70183E390E0909304068093030681E2C8
:103EA00090E09093060680930506862F8150990B2B
:103EB000FC01EE0FFF1FEF5EFE4F20813181F90103
:103EC0003496E491E093D501E901F9013490FDE0E5
:103ED0003F9E7001112485E0E80EF11CF901319636
:103EE00004910E0D1F2D111DAFE0B6E070E0C12C46
:103EF000D12C812C912C5401839440E8242E371628
:103F000009F468C011961C92119712961C92129790
:103F100013961C92139714961C92149715961C9244
:103F20001597FE013596E491EC9387E090E0AE01A1
:103F30004F5E5F4FFA01E81BF90BE491EE2389F025
:103F40001196EC91119724013501082E04C0440C00
:103F5000551C661C771C0A94D2F74E2A11964C9277
:103F60001197019738F7AE01445F5F4FFA018491D2
:103F70008770853051F4F701ED0DF11DE20FF31F4D
:103F8000E4911296EC931297D394FA01849187707E
:103F90008630E0F0C8018C0D911DF901E80FF91F82
:103FA000E4911396EC931397FC013196E20FF31F03
:103FB000E4911596EC931597C394C394FA01449138
:103FC0004770473019F414962C9214977F5F2D9602
:103FD000169695CF80E00E946E170E94E81E89E039
:103FE00038CFCF930E94F5168091DD01811124C056
:103FF00080E60E940E1680E20E947D1581110E94CB
:10400000771580E40E947D1581110E9472158CE065
:104010000E947D15882391F0C091DD0182E090E03F
:104020000E948B30C81729F06C2F82E090E00E942C
:104030009330CF910C94611E8CE4DBCFCF91089527
:104040004F925F926F927F928F929F92AF92BF92A8
:10405000CF92DF92EF92FF920F931F93CF93DF9354
:10406000CDB7DEB728970FB6F894DEBF0FBECDBF31
:10407000C82E662ECA01B9012AE0AE014F5F5F4F1C
:104080007A010E944A30F70101900020E9F7319748
:104090005F01AE18BF08BB2410E35A2CA01658F4D9
:1040A0005FEFA51AB50AA501B701CE0102960E94DD
:1040B000FD301983F2CFD12C470183E0482E712CBB
:1040C000F40101914F0100530A3008F000E0049D13
:1040D00080011124B12CA12C005A1A4EF801EA0DCE
:1040E000FB1D24914EE355E1B301C6018A0D9B1DD2
:1040F0000E943515FFEFAF1ABF0A43E0A416B104C2
:1041000069F754E0C50ED11C882D8E198515C0F2B3
:1041100028960FB6F894DEBF0FBECDBFDF91CF91CA
:104120001F910F91FF90EF90DF90CF90BF90AF90D5
:104130009F908F907F906F905F904F9008950F9316
:10414000CF93DF93D0E0C0E020E040E156E1BE0134
:1041500086E790E00E9401152896C034D105A1F7AA
:104160002091CF0630E050E040E002E061E089E7D6
:104170000E94202020910906277030E050E040E0A6
:1041800001E067E18BE70E94202020E049E056E152
:104190006DE170E08AE790E00E94351520910906F4
:1041A00030E083E0359527958A95E1F72370332732
:1041B000032E000C440B550B66E28BE70E94202077
:1041C00020E040E056E16CE270E089E790E00E9478
:1041D00035152091090625FB222720F930E050E013
:1041E00040E065E38BE70E94202020E047EF55E1A7
:1041F0006BE370E089E790E00E9435158091080636
:104200002091090684FF14C0206420930906809140
:10421000090686FF1EC02091070641EE55E169E0C0
:1042200070E08AE790E0DF91CF910F910C94351503
:104230008091DE019091DF0164E170E00E94CF3057
:10424000892B29F780910706823008F780E4282718
:10425000DCCFDF91CF910F9108951F93CF93DF9320
:1042600090910D069F5F90930D062091DE01309195
:10427000DF0123703327232B51F480910806282F68
:104280002370233009F05AC08C7F809308069B3539
:1042900058F0809108068F7784608093080610920A
:1042A0000D0686E0809303010E9445160E940317C5
:1042B0000E949F200E9475188091DE019091DF017D
:1042C0006AE570E00E94CF30892BD1F5E091CF06EE
:1042D000C6E0CE9FF0011124E15FF94F12811093E7
:1042E000CF06D0910A068D2F0E9488159093040660
:1042F00080930306DC9F900111242E5E3F4F8D2F8B
:1043000065E00E94C330482F58EE5403C0011124C9
:10431000280F391F8091D7019091D801280F391F9C
:10432000309306062093050610920B066091D60185
:10433000812FDF91CF911F910C946E178F5FA5CFC6
:10434000DF91CF911F9108950E9445160E94031797
:104350000E949F208CE00E947D1581110C94D81E34
:1043600008950E949E1C0E94DD1880910B068530E6
:1043700038F48091DE0180FF0E94481B0C949F203E
:1043800010920B06809108068F7B809308060E948E
:10439000D81EF4CF2F923F924F925F926F927F92EE
:1043A0008F929F92AF92BF92CF92DF92EF92FF9245
:1043B0000F931F93CF93DF9300D01F92CDB7DEB73B
:1043C0002091D60129833091CF063A830E949E1C0A
:1043D0000E94DD18E0910806E5FD65C4E4FDBAC061
:1043E0008091DE0180FD9AC00091D7011091D80123
:1043F00060910506601B809103060E943618893182
:1044000010F480930A06E091CA01EE2EF12CF70118
:10441000E859F14E449149830E946A1559818523D8
:10442000581709F44AC0F701E759F14E849189837E
:104430000E946A1599818923981709F440C0F701F1
:10444000E659F14EA491A9830E946A15B9818B2384
:10445000B817B9F1F701E559F14E249129830E946B
:104460006A1539818323381359C083E040910806C7
:104470004C7F482B498340930806C0900506D09096
:104480000606A0900306B0900406E82EF12C21E069
:10449000A701B601C5010E94A815811114C0B6017B
:1044A000601B710B00E021E0A701C5010E94D31A37
:1044B0008111C3C10E94481B31C080E0D7CF81E089
:1044C000D5CF82E0D3CF80910A0699819370923044
:1044D00009F481C1933009F49AC1913009F465C19E
:1044E0008230E1F48A8156E0859FF0011124E15F7A
:1044F000F94F808184FF12C080FD10C099819062C5
:10450000909308068BE190E0909304068093030655
:10451000025E1F4F109306060093050688E00E9476
:104520007D15882329F00E94E81E89E0809303010D
:1045300084E00E947D15882369F080910A0690919D
:10454000D5013A81391326C28C3009F023C288E0A4
:10455000809303018091080683FF53C490910C0659
:104560009F5F90930C062091DE013091DF01237054
:104570003327232B21F424E0822780930806913FE0
:1045800040F080910806877F84608093080610922F
:104590000C068091080684FDF1C0A090DE012091F8
:1045A000DF018A2D922F66E070E00E94CF30892BC8
:1045B00009F0AEC08A2D922F60E370E00E94CF30E8
:1045C0001C018DE298E09B838A83D12CC12C56E09C
:1045D000852E67E0E62EF12C7724739475E0972EF4
:1045E0006C2CE091CF068E9EF0011124E15FF94F13
:1045F000818190E097012C193D0902C0959587951E
:104600002A95E2F780FF7AC0AA81BB8114962C918B
:10461000822F90E033E0959587953A95E1F7082F42
:10462000037027702983602F8C2D0E94141B882310
:1046300009F444C4402F6A817B816E5F7F4F8A8179
:104640009B810E94EE15EA81FB8142805080642D9F
:10465000852D0E941418882389F1F9811FEF100F0E
:10466000F130B1F02981223049F5642D852D0E9469
:104670003618482F893108F4F5C3AA81BB811496F6
:104680006C9170E093E0759567959A95E1F7162F18
:104690001370011799F1612F862D0E94141B882336
:1046A00069F0EA81FB818481877EF8E01F9FB00179
:1046B0001124682BAA81BB8114966C93B981B33005
:1046C000E9F421143104D1F48091D401811116C090
:1046D0007092D401EA81FB818081918190935E0880
:1046E00080935D08828193819093600880935F0836
:1046F0008481887180936108109262082A813B81CD
:104700002A5F3F4F3B832A83CA94CD2809F0A6C372
:104710008091D301882391F0A0FC10C04091D10179
:104720006FEC71E08DEC91E00E94EE158091D2016A
:104730008F5F863008F0D7C38093D2018091D40177
:104740008823E1F0A0FC1AC04091610850E083E0AA
:10475000559547958A95E1F7842F83708983482F73
:104760006FE578E08DE598E00E94EE158091620893
:104770008F5F863008F0DBC3809362080F900F9044
:104780000F90DF91CF911F910F91FF90EF90DF90ED
:10479000CF90BF90AF909F908F907F906F905F90E1
:1047A0004F903F902F900C949F208A3009F0B6CE06
:1047B000BA81A6E0BA9FF0011124E15FF94F808130
:1047C00085FFACCE81FDAACEE981E062E0930806C8
:1047D0008BE490E099CE863109F0A0CE3A8126E0B4
:1047E000329FF0011124E15FF94F808186FF96CE60
:1047F00082FD94CE49814062409308068BE490E0AC
:1048000090930406809303060A5C1F4F83CE8E307C
:1048100009F084CE8A8156E0859FF0011124E15F82
:10482000F94F808187FF7ACE83FD78CE998190629F
:10483000909308068BE190E0E3CFE091C901E2306C
:1048400091F070F0E83008F069CE26E0E29FF001C8
:104850001124E35DF74F84818770823009F05ECECA
:104860000E942A1A5BCE80913D088770823009F43D
:1048700051C0E8F4882381F1813009F04FCE809156
:104880000906982F9871983109F448CE885F809373
:1048900009060E949C158091D9019091DA01A0919E
:1048A000DB01B091DC010A96A11DB11D2AC0833045
:1048B00009F457C0843009F031CE0E949C158091D4
:1048C000D9019091DA01A091DB01B091DC0188530C
:1048D0009F4FAF4FBF4F15C08091090685FD1ECE7B
:1048E0008062809309060E949C158091D901909165
:1048F000DA01A091DB01B091DC018C599F4FAF4FE1
:10490000BF4F8093D9019093DA01A093DB01B0935C
:10491000DC0104CE80910706C090D901D090DA0165
:10492000E090DB01F090DC01833098F48F5F80939E
:1049300007060E949C15A4E1CA0ED11CE11CF11CC3
:10494000C092D901D092DA01E092DB01F092DC0151
:10495000E5CD0E949C15B2E3CB0ED11CE11CF11CED
:10496000EFCF80910906982F9770973009F4D6CD34
:104970008F5F8093090681E080930E068091D901B4
:104980009091DA01A091DB01B091DC014E96A11D5E
:10499000B11DB7CF909108069370F92E092F10E042
:1049A000A8014C59514E6A01FA019491981372C0B2
:1049B00080910906887109F48EC00E945818F81673
:1049C00009F489C080910906885080930906809176
:1049D000D9019091DA01A091DB01B091DC01C2967E
:1049E000A11DB11D8093D9019093DA01A093DB0141
:1049F000B093DC013A8126E0329FF0011124E15F9F
:104A0000F94F81E090E0A0E0B0E00F2C04C0880FE7
:104A1000991FAA1FBB1F0A94D2F780959081892302
:104A200080838091090685FF60C00E945818F812A3
:104A30005CC0809109068052809309068091D9015B
:104A40009091DA01A091DB01B091DC0188519C4F7B
:104A5000AF4FBF4F8093D9019093DA01A093DB0150
:104A6000B093DC01E091CF0646E0E49FF001112411
:104A7000E15FF94F81E090E0A0E0B0E00F2C04C0CE
:104A8000880F991FAA1FBB1F0A94D2F780959081A7
:104A90008923808320913D0830910A06F801E05A6D
:104AA000F14E8491830FF601C490482F082E000C1C
:104AB000550B90910806622F66956695669564176A
:104AC0001506E9F5622F67706530C9F49068909318
:104AD00008068BE03DCD87E00E94A61D81E2809311
:104AE000CC0181E08093CB019CCF88E00E94A61D81
:104AF00081E28093CC0181E08093CB01CBCF663003
:104B0000F0F081E0282720933D08E091CF0686E071
:104B10008E9FF0011124E15FF94F948190589483A6
:104B2000A381AF738A9FD0011124A15FB94F858102
:104B300011969C911197892711968C930BCD3C155A
:104B400009F408CDEFEF893128F44053594FDA01C9
:104B50001A96EC918DEF8E0F853060F40E2F10E0D9
:104B6000B6E0EB9FF0011124E35DF74F848187707D
:104B7000813061F18091D3018111ECCC80910906E3
:104B8000282F277009F4E6CC81508093090681E034
:104B90008093D3011092D201209103063091040634
:104BA0003093CE012093CD01209105063091060669
:104BB0004091D7015091D801241B350B3093D0017F
:104BC0002093CF0193709093D101C4CC22812A838A
:104BD00030813983622F832F0E941418882309F4AF
:104BE000B9CC6A8189810E9436188983893108F09D
:104BF000B1CCF11035C0853008F4ACCCB981B550DA
:104C0000B9833981393108F0A5CCE32F032E000C8C
:104C1000FF0BE053F94F82858B3109F09BCC832F3A
:104C20000E94881526E0209FF001219FF00D11249D
:104C3000E35DF74F918380834981429F9001112466
:104C40002E5E3F4F842F65E00E94C330582F48EE00
:104C50004503C0011124280F391F338322837ACCE6
:104C600042E0F41208C05981543108F073CCF98144
:104C7000FB5FF983C6CF898165E00E94C33081E084
:104C8000F81207C0992309F465CCE981E150E98362
:104C9000B8CFA3E0FA1203C0943009F45BCC2981A9
:104CA0002F5F2983AECF80910B06853038F4809139
:104CB000DE0180FD4FCC0E94481B4CCC8981815085
:104CC000990BDC01AA0FBB1FAF5EBE4FE370F0E093
:104CD00036962A819DE0299FE00DF11D11248D91CA
:104CE0009C91E80FF91F84918370823059F08330D2
:104CF00009F477C0813009F07AC08AE080930A060F
:104D00008A837AC086E180930A0636E13A83BDED54
:104D1000EB2EFF24FA94F092D801E092D701E491AF
:104D20000E2F10E015950795159507950093CF0662
:104D30008A810E948815AA81AA3021F026EF3FEFD0
:104D4000A63111F42AE030E0820F931F90930406FD
:104D500080930306EA81B6E0EB9F900111242E5E5A
:104D60003F4F8E2F65E00E94C330482F58EE54030A
:104D7000C0011124820F931FE63121F02BEF3FEF8A
:104D8000EE3011F425E030E0280F391FE20EF31E5B
:104D9000F0920606E092050610920B066981802FBC
:104DA0000E946E17809108068F7D806480930806AC
:104DB00087E0809303010F900F900F90DF91CF91C8
:104DC0001F910F91FF90EF90DF90CF90BF90AF9029
:104DD0009F908F907F906F905F904F903F902F901B
:104DE00008958EE080930A064EE04A8390CF82E0D9
:104DF00080930A0652E05A83A7EFEA2EFF24FA9422
:104E00008ACF84FFCACB87EF9FEF9093D80180931E
:104E1000D70185E00E94A61D6091D9017091DA0149
:104E20008091DB019091DC0126E046E10E94A51B08
:104E300083E08093CC0181E08093CB0183E390E019
:104E4000909304068093030685E190E09093060614
:104E5000809305068AE0809303019BCBCC24C39406
:104E6000D12CBECB80910A06692D0E94C330382F09
:104E7000292F842F0E94C330381B832F291B922F88
:104E8000432F330F550B57FF03C0519541955109DF
:104E9000292F092E000C330B37FF03C031952195C4
:104EA0003109421753072CF012E087FFF2CB10E0D4
:104EB000F0CB11E097FDEDCB13E0EBCBB98182E0B5
:104EC000B23009F081E0800F8370E8E08E9FC0016E
:104ED0001124AA81BB8114969C911497977E892BEB
:104EE00014968C93EBCB1092D2010091CF011091CC
:104EF000D0014091CD015091CE015B834A83409116
:104F0000D10150E020E0B8018A819B810E94A81560
:104F1000882319F01092D30111CC41E0B8018A81A5
:104F20009B810E943C1A882309F408CCF3CF10928D
:104F30006208E0905F08F090600800915D081091B1
:104F40005E089981492F50E020E0B701C8010E9416
:104F5000A815882319F01092D40110CC40E0B701B5
:104F6000C8010E943C1A882309F408CCF4CF1F9290
:104F70000F920FB60F9211248F939F938091E100AF
:104F80009091E100937F9093E10083FF0FC0109216
:104F9000E90091E09093EB001092EC0092E3909383
:104FA000ED001092020698E09093F00082FF22C07C
:104FB00093E09093E9009091F200992319F09AE31D
:104FC0009093E8009091F305992341F09091F305B7
:104FD00091509093F305911101C05D9A9091010653
:104FE000992341F0909101069150909301069111FF
:104FF00001C0289A84FF18C08091E2008E7E8160F3
:105000008093E2008091E1008F7E8093E1008091A7
:10501000F4058E7E80618093F4059F918F910F90AF
:105020000FBE0F901F90189580FFF7CF8091E20080
:105030008E7E80618093E2008091E1008E7E80937D
:10504000E1008091F4058E7E8160E5CF1F920F9282
:105050000FB60F921124CF92DF92EF92FF920F932F
:105060001F932F933F934F935F936F937F938F93F0
:105070009F93AF93BF93EF93FF93CF93DF93CDB7FE
:10508000DEB76C97DEBFCDBF1092E9008091E800DB
:1050900083FF25C068E0CE0145960E94281282EF6A
:1050A0008093E8008D8987FF39C09091E80090FFD8
:1050B000FCCF982F907609F034C19E894F89588D86
:1050C0002F89F88C911131C0803861F58091F205FB
:1050D0008093F1001092F1008EEF8093E8006C96BF
:1050E0000FB6F894DEBF0FBECDBFDF91CF91FF9119
:1050F000EF91BF91AF919F918F917F916F915F9150
:105100004F913F912F911F910F91FF90EF90DF9062
:10511000CF900F900FBE0F901F9018959EEF909319
:10512000E800C7CF1092F100D5CF913059F481112A
:10513000D3CF4130510581F68091F2058D7F809368
:10514000F205CACF933049F48111C6CF41305105E1
:1051500019F68091F2058260F2CF953041F480918A
:10516000E80080FFFCCF20682093E300B5CF9630A5
:1051700009F0A9C00B8D1C8D22E01092E90010925D
:10518000F0051092EF05F2122EC01092EE0510926B
:10519000ED050E94F7111F8299E09983FA8291E050
:1051A0009E8390EA98879AEF99872091EF05309136
:1051B000F005275F3F4F3C832B838D831092E900DE
:1051C0001092F0051092EF051093EE050093ED0597
:1051D00049E050E0BE016F5F7F4F80E00E94D11137
:1051E0000E94F71179CF1093EE050093ED050E9410
:1051F000DB10DC0112960D911C910115110509F4CB
:1052000051C1D801ED91FC910480F581E02DBE01E2
:105210006B5E7F4FC8010995009709F03EC1F80108
:1052200000851185EACFF3E0FF120EC08F89882335
:1052300009F440C0823061F440E860E189ED90E219
:105240000E949E11811148CF81E28093EB0047CFED
:10525000813029F440E86BE08DEC90E2F1CF8330AF
:1052600099F70E94DB10DC011296ED90FC908E0104
:105270000F5F1F4F6801E114F10479F0D701ED9140
:10528000FC910680F781E02DB801C7010995080F50
:10529000111DF701E084F184EECFD8011C92F601D4
:1052A00001900020E9F73197BF016C197D0940E0BA
:1052B000C601C6CF67EB70E2FB01449150E080E885
:1052C0000E94D11109CF973009F4BECF983021F454
:1052D00081E08093F10000CF993009F0FDCE83701A
:1052E00009F0B2CFECE1F1E081E031E096E3219109
:1052F000222371F08093E9003093EB00DF011197D6
:105300002C912093EC009093ED008F5F873079F71C
:105310008EE78093EA001092EA008F89809302065C
:10532000DBCE8B8D9C8D1092E9001092F0051092CF
:10533000EF059093EE058093ED05898D811192C064
:105340008E899D89913A49F4813209F07DCF47E0F9
:1053500050E068E071E080E0B3CF913209F074CFA3
:10536000833269F48F89988DB0E0A0E080930401C6
:1053700090930501A0930601B0930701ADCE803252
:1053800069F48091E80082FFFCCF67E088E091E05B
:105390000E9428128BEF8093E8009ECE823209F0A3
:1053A0009BCE8F8980930F01EEEFFFE7859194915B
:1053B0008B3F9C4D51F1E0E0F8E080910801909125
:1053C0000901A0910A01B0910B01803B9440A10515
:1053D000B105F1F480910F0180FD1AC0EE3F8AE023
:1053E000F80789F587E797E79183808380916000CC
:1053F0008093F10588E19BE00FB6F894A89580931F
:1054000060000FBE9093600067CEEEEFFAE0D5CF5C
:10541000808191818737974709F05ECEA89580916A
:1054200060008861809360008091F1058093600046
:10543000EE3F2AE0F20789F08091FE0A9091FF0A80
:105440009183808349CE808191818737980751F27B
:105450009093FF0A8093FE0AC5CF1092FF0A109224
:10546000FE0A3ACE0E94DB10DC0112960D911C91CF
:105470000115110509F4E8CED801ED91FC910190D8
:10548000F081E02DBE016B5E7F4FC801099581114F
:1054900023CEF80100851185EBCF181619060CF400
:1054A0001BCED2CEF1E0FF12BECE6BEB70E204CF8A
:1054B0001F920F920FB60F9211242F933F938F9349
:1054C0009F93AF93BF938091E5059091E605A091DE
:1054D000E705B091E8053091E40523E0230F2D376F
:1054E00058F50196A11DB11D2093E4058093E505B3
:1054F0009093E605A093E705B093E8058091E90550
:105500009091EA05A091EB05B091EC050196A11DE3
:10551000B11D8093E9059093EA05A093EB05B09344
:10552000EC05BF91AF919F918F913F912F910F907B
:105530000FBE0F901F90189526E8230F0296A11D0D
:10554000B11DD2CF2F923F924F925F926F927F9276
:105550008F929F92AF92BF92CF92DF92EF92FF9283
:105560000F931F93CF93DF9335E3E32E31E0F32EB8
:10557000C5E0D7E010E000E04DED442E47E0542EAA
:1055800022242394312C69E0A62E6DE3B62E80915F
:105590000407882349F18091030790E0002E02C0A0
:1055A000959587950A94E2F780FD1EC0F701108259
:1055B0000F5F1F4FF5E0EF0EF11CE696043011056A
:1055C00031F7DF91CF911F910F91FF90EF90DF9016
:1055D000CF90BF90AF909F908F907F906F905F9093
:1055E0004F903F902F900895EEA5EE23B1F08FA538
:1055F0009E2F9370891708F49CC0F0E0F595E7950D
:10560000F595E795EE0FFF1FEE5EFC4F85919491A7
:1056100090934601809345011FA69CA99923F9F018
:105620008DA9292F2F77022E000C330B821713061A
:105630000CF489C08A8197FF7FC081508A838A8158
:1056400081117CC081E08A83EA81F0E0EE0FFF1FC8
:10565000EE5EFC4F859194919EA38DA31DAA58A543
:10566000552321F13AA529A5311119C0422F4074C3
:1056700026FF6CC08DA19EA1850F911D57FD9A95A7
:1056800027FD69C097FD65C0442309F466C0863BC9
:10569000F4E29F0714F085EB94E29EA38DA381E0D2
:1056A000830F8AA72F73321708F01AA69BA5992398
:1056B00071F0EA81EE2359F08DA52CA5482F4F718A
:1056C000322F3F71431708F04AC08F5F8DA749A959
:1056D000442311F13AA9632F607436FF6CC08DA189
:1056E0009EA12BA950E027FF69C0840F951F97FD4D
:1056F00068C0662309F469C0863B44E2940714F04D
:1057000085EB94E29EA38DA33F71822F8F71831747
:1057100008F05DC02F5F2BAB89A19AA1009709F417
:105720005DC08F3F980709F4A4C001979AA389A38D
:10573000A0C08F5F8FA771CF8F5F80CF803408F4B8
:1057400083CF8FE380CF8F5F8DAB89CF8FA190E028
:1057500093CF90E080E04111A0CF8FA3A0CF807EB7
:10576000F1F480E28DA78DA5807E51F09F3F09F175
:10577000292F22952F70E20F803411F49F70E90FCA
:1057800088A9F0E0E80FF11D87FDFA95EE0FFF1FE5
:10579000EE5EFC4F859194919EA38DA398CF8032AD
:1057A00031F426FD04C09F3F11F080E4DBCF1DA63D
:1057B000DACFE0E0E1CF8FA190E093CF841B950B8F
:1057C00096CF90E080E061119DCF8FA39DCF27FF02
:1057D00002C01BAAA1CF80E88BAB9ECFC801049664
:1057E000722C01C0770C8A95EAF7C101002E01C026
:1057F000880F0A94EAF7682E6094FBE1F09F40015D
:10580000F19F900C112426E3209FC001219F900D51
:105810001124FC01EB5FF84F6F0188819981BC0175
:105820006F5F7F4F79836883FC014491403408F0B7
:105830005DC04A83442319F088A9480F4A83EA814E
:10584000F0E0EE0FFF1FEE5EFC4F859194919EA35A
:105850008DA389A5811102C08FA58FA38CA585FD7D
:105860001DA689A19AA10097C1F28F3F980709F060
:105870005CCF20911001822F90E0002E02C0959500
:1058800087950A94E2F780FD0AC0033009F0DEC173
:105890008091CE0790E09595879580934401207F75
:1058A00009F086CE8091250790915B07890F909132
:1058B0009107890F9091C707890F09F4CFC185E03F
:1058C000C82E87E0D82EF60180A10E941F1CF60189
:1058D0009183808312A211A2F6E3CF0ED11C4C1447
:1058E0005D0489F780EF8093100162CE403A08F0A2
:1058F00012C1E42FE054FF0BED30F10509F4B7C0FD
:105900000CF047C0E630F10509F490C044F5E230F0
:10591000F105C1F094F4309709F480C0319709F093
:10592000A0CF029699838883FB01649168A780E0E9
:10593000413409F080E489A794CFE430F10589F37C
:105940000CF474C0FB01649168A79C012D5F3F4F6C
:1059500039832883FC013296E491E9A782CFE930AC
:10596000F10509F472C04CF4E730F10509F460C0A8
:10597000389709F076CF1BA674CFEB30F10509F408
:105980006DC00CF469C0029699838883FB01649111
:105990006CC0E431F10509F487C0ACF4E031F105E5
:1059A00009F467C04CF4EE30F10509F462C03F978A
:1059B00009F057CF19AA55CFE231F10509F46DC0AE
:1059C000CCF31CAA4ECFEC35F10509F476C064F493
:1059D000E531F10581F2779709F043CF029699837B
:1059E0008883FB0164913DCFEE35F10509F47EC05B
:1059F0000CF476C0EF35F10509F033CF809110013A
:105A00008725809310011FA22FEF3FEF3AA329A310
:105A10008091030786218093030723CF0296998301
:105A20008883FB0164916FA36FA71BCF18A619CFC2
:105A3000FB0164916BA79C012D5F3F4F3983288345
:105A4000FC013296E491ECA70CCF029699838883EF
:105A5000FB0164916EA705CF1EA603CF0296998322
:105A60008883FB01849168A9680F68ABFACE18AAF5
:105A7000F8CEFB012591349129AB9C012D5F3F4F5E
:105A800039832883FC0132962591349180E04E348D
:105A900009F080E4820F8AABE4CE02969983888372
:105AA000FB0164916CABDDCEFFEFFBA702969983FF
:105AB0008883FB0164916CA7D4CE02969983888376
:105AC000FB016491E09102076E0F6093020770E0A2
:105AD000C5010E94E33070934A0160934901C1CE31
