:100000000C947F110C94A7110C94A7110C94A711B8
:100010000C94A7110C94A7110C94A7110C94A71180
:100020000C94A7110C94A7110C943A290C94A929AB
:100030000C94A7110C94A7110C94A7110C94A71160
:100040000C94A7110C94A7110C94A7110C94A71150
:100050000C94A7110C94A7110C94A7110C94DB2BF2
:100060000C94A7110C94A7110C94A7110C94A71130
:100070000C94A7110C94A7110C94A7110C94A71120
:100080000C94A7110C94A7110C94A7110C94A71110
:100090000C94A7110C94A7110C94A7110C94A71100
:1000A0000C94A7110C94BA2F0C94A711080201000C
:1000B0000430061F000000000021A101C100500A09
:1000C0000000002AC000630000000060000F040070
:1000D00000001534440919C3A0021300090000668A
:1000E0000C345C84ACC00000140D0000007C848CD7
:1000F000949C501200180079C100635C6C00009061
:100100001600001D3000004A6AC2820AA0001B00CF
:10011000010000003141819163050403031F0802BF
:1001200002000220000700000000000323C3A30018
:10013000D10A000C0108000000000000004000008F
:1001400004000000005B6B0000003006130000009C
:1001500000003343839300C00000140D01000034FD
:100160004484940050120018000000000B1B64AB84
:10017000BB901600001D300000AB9B1B2B00200025
:100180001B0000000070344484946B0000060115CD
:1001900001260137014A015D01720188019F01B802
:1001A00001D201EE010B022A024B026E029302BA47
:1001B00002E40210033F037003A403DC0317045599
:1001C000049704DD0427057505C80520067D06E0B3
:1001D000064907B8072D08A9082D09B9094D0AEAEB
:1001E0000A900B400CFA0CC00D910E6F0F5A105371
:1001F000115B1272139A14D41520178018F5198008
:100200001B231DDE1EB420A622B524414C455254AA
:1002100020414C4552542044524F494420455343B9
:100220004150494E47004C4556454C2020205343F1
:100230004F5245202020202020200047414D4520BE
:100240004F56455220203A3C202053434F524520E0
:100250002020202020200044524F49442045534371
:1002600041504544203A3E202053434F52452020E0
:10027000202020202000001F111F111F101D151706
:1002800011151F07041F17151D1F151D01011F1F25
:10029000151F17151F000A00100A00040A110A0A88
:1002A0000A110A040115020E17161F051F1F150A51
:1002B0001F11111F110E1F15111F05011F111D1FE9
:1002C000041F111F1119111F1F06191F10101F07DE
:1002D0001F1F011F1F111F1F05070F091F1F051AD1
:1002E00017151D011F011F101F0F100F1F1C1F1BB3
:1002F000041B071C07191513101800F0F0F8F0F88C
:10030000F8FCF8FCFCFEFCFEFEFFFEFFFCFEFCFE23
:10031000F8FCF8FCF0F8F0F800F0006363FF7FFFF2
:10032000FFFF9FFFE7FFF9FFFFFFFFFFFFFFFFFF5B
:10033000FFFFFFFF7FFF7FFF007F000E0C1E0C1FE3
:10034000183F1A3F357F357F6BFF6BFF357F357F59
:100350001A3F183F0C1F0C1E000E00F0F0F8F0F8CA
:10036000F8FCF8FCFCFEFCFEFEFFFEFFFCFEFCFEC3
:10037000F8FCF8FCF0F8F0F800F0007F7FFF7FFF5A
:10038000FFFFFFFFFFFFFFFFFFFFFFFFF9FFE7FF9B
:100390009FFFFFFF7FFF63FF0063000E0C1E0C1F1B
:1003A000183F1A3F357F357F6BFF6BFF357F357FF9
:1003B0001A3F183F0C1F0C1E000E00F0F0F8F0F86A
:1003C000F8FCF8FCFCFEFCFEFEFFFEFF7CFE7CFE63
:1003D00038FCB8FC10F8F0F800F0007F7FFF7FFFDA
:1003E000F9FFE7FF9FFFFFFFFFFFF0FFF9FFF8FFB7
:1003F000FCFFFCFF7EFF63FF0063000E0C1E0C1F62
:10040000183F1A3F357F357F6BFF6BFF357F357F98
:100410001A3F183F0C1F0C1E000E00F0F0F810F8E9
:10042000B8FC38FC7CFE7CFEFEFFFEFFFCFEFCFE02
:10043000F8FCF8FCF0F8F0F800F0006363FF7EFFD2
:10044000FCFFFCFFF8FFF9FFF0FFFFFFFFFF9FFF3E
:10045000E7FFF9FF7FFF7FFF007F000E0C1E0C1FE0
:10046000183F1A3F357F357F6BFF6BFF357F357F38
:100470001A3F183F0C1F0C1E000E008000C080C0E9
:1004800080FCF8FCFCFEFCFEFEFFCEFFE0FEF0F878
:1004900078FC78FC30F8F0F800F0007F7FFF7FFFF9
:1004A000F9FF87FFFFFFFFFFFFFFF1FFF8FFF8FFF6
:1004B000FCFFFCFF7EFF63FF0063000E0C1E0C1FA1
:1004C000081F0A3F357F357F6BFF6BFF357F357F18
:1004D0000A3F081F0C1F0C1E000E180800C0C0F0B9
:1004E000F0F830F8183C0C1E0C1E0C1E060F060F00
:1004F000060F060F060F060F060F060F0C1E0C1E2A
:100500000C1E183C30F8F0F8C0F000C00003030FD8
:100510000F1F0C1F183C30783078307860F060F096
:1005200060F060F060F060F060F060F0307830789B
:100530003078183C0C1F0F1F030F0003101800F039
:10054000F0F8F0F8F8FCF8FCFCFEFCFEFEFFFEFF05
:10055000FCFEFCFEF8FC80F800800000000000FFBC
:10056000FFFFFFFF7FFFBFFF3FFFFFFFFFFFFFFF1B
:10057000FFFFFFFFFFFFFFFFFFFFFCFF00FC000F7F
:100580000F1F0F1F1C3F1D3F3E7F3F7F7FFF7FFFE1
:100590003F7F3F7F1F3F1F3F0F1F0F1F000F0000B8
:1005A0000000008080F8F8FCFCFEFCFEFEFFFEFF71
:1005B000FCFEFCFEF8FCF8FCF0F8F0F800F000FCA3
:1005C000FCFFFFFFFFFFFFFFFFFFFFFFFFFFFFFF3E
:1005D000FFFF3FFFBFFF7FFFFFFFFFFF00FF000F99
:1005E0000F1F0F1F1F3F1F3F3F7F3F7F7FFF7FFF7B
:1005F0003F7F3E7F1D3F1C3F0F1F0F1F000F00005E
:1006000000000000008080C0C0E0C0E0E0F0E0F04A
:10061000F0F8F0F8F8FC78FC70F8F0F800F000E082
:10062000E0F8F8FCFCFF7FFF7FFFFFFFFFFFFFFF0D
:1006300041FF6CFF20FF36FF10FFFFFF00FF000FA0
:100640000F1F0F1F1F3F1C3F3B7F387F7FFF7FFF28
:10065000207F377F163F1A3F081F0F1F000F00F043
:10066000F0F870F878FCF8FCF0F8F0F8E0F0E0F062
:10067000C0E0C0E080C0008000000000000000FF7B
:10068000FFFF10FF36FF20FF6CFF41FFFFFFFFFF62
:10069000FFFF7FFF7FFFFCFFF8FCE0F800E0000FAA
:1006A0000F1F081F1A3F163F377F207F7FFF7FFFF6
:1006B000387F3B7F1C3F1F3F0F1F0F1F000F008025
:1006C00080C0C0E0E0F0F0F8F8FCFCFE54FFAAFFA8
:1006D000FCFEF8FCF0F8E0F0C0E080C0008000080C
:1006E000081D083D1D7F5DFFB3FFB3FF65FF66FF7B
:1006F000B3FFB3FF5DFF1D7F083D081D0008000824
:100700000008001C001C003E003F017F027F017FAB
:10071000017F003F003E001C001C00080008008014
:1007200080C0C0E0E0F0F0F8F8FCFCFE54FFAAFF47
:10073000FCFE78FCB0F8E0F0C0E080C0008000086B
:10074000081D083D1D7F5DFFB3FFB3FF65FF66FF1A
:10075000B3FFB3FF5DFF1D7F083D081D00080008C3
:100760000008001C001C003E003F017F027F017F4B
:10077000017F003F003E001C001C000800080080B4
:1007800080C0C0E0E0F0B0F878FCFCFE54FFAAFFA7
:10079000FCFE78FC30F8E0F0C0E080C0008000088B
:1007A000081D083D1D7F5DFFB3FFB3FF65FF66FFBA
:1007B000B3FFB3FF5DFF1D7F083D081D0008000863
:1007C0000008001C001C003E003F017F027F017FEB
:1007D000017F003F003E001C001C00080008008054
:1007E00080C0C0E0E0F030F878FCFCFE54FFAAFFC7
:1007F000FCFEF8FCF0F8E0F0C0E080C000800008EB
:10080000081D083D1D7F5DFFB3FFB3FF65FF66FF59
:10081000B3FFB3FF5DFF1D7F083D081D0008000802
:100820000008001C001C003E003F017F027F017F8A
:10083000017F003F003E001C001C00080008000073
:1008400000000000000000000000000000000000A8
:100850000000000000000000000000000000000098
:100860000080008000C000C000E000E000F060F008
:10087000C0E0C0E080C080C0008000800000000FA9
:100880000D1F0D1F1B3F1B3F377F367F6EFF6EFF17
:10089000377F377F1B3F1B3F0D1F0D1F000F0000D1
:1008A0000000000000000000000000000000000048
:1008B0000000000000000000000000000000000038
:1008C0000080008080C080C0C0E0C0E060F000F028
:1008D00000E000E000C000C0008000800000000FC9
:1008E0000D1F0D1F1B3F1B3F377F377F6EFF6EFFB6
:1008F000367F377F1B3F1B3F0D1F0D1F000F000072
:1009000000000000000000000000000000000000E7
:1009100000000000000000000000000000000000D7
:100920000080008080C080C0C0E0C0E0E0F0E0F067
:10093000C0E0C0E080C080C0008000800000000FE8
:100940000D1F0D1F1B3F1B3F377F377F6CFF60FF65
:10095000307F017F193F013F0D1F0D1F000F000069
:100960000000000000000000000000000000000087
:100970000000000000000000000000000000000077
:100980000080008080C080C0C0E0C0E0E0F0E0F007
:10099000C0E0C0E080C080C0008000800000000F88
:1009A0000D1F0D1F013F193F017F307F60FF6CFF5E
:1009B000377F377F1B3F1B3F0D1F0D1F000F00F0C0
:1009C000D0F8D0F8B0FCB0FC70FE60FEE0FFE6FFAF
:1009D0007CFE7CFEB8FCB8FCD0F8D0F800F000E05B
:1009E000A0F1A0F171FB41FFBBFFBBFF76FF76FFDB
:1009F000BBFFBBFF41FF71FBA0F1A0F100E0000FC6
:100A00000F1F0F1F173F173F327F327F7DFF7DFF84
:100A10003E7F3E7F1F3F1F3F0F1F0F1F000F00F045
:100A2000D0F8D0F8B8FCB8FC7CFE7CFEE6FFE0FF16
:100A300060FE70FEB0FCB0FCD0F8D0F800F000E032
:100A4000A0F1A0F171FB41FFBBFFBBFF76FF76FF7A
:100A5000BBFFBBFF41FF71FBA0F1A0F100E0000F65
:100A60000F1F0F1F1F3F1F3F3E7F3E7F7DFF7DFFFC
:100A7000327F327F173F173F0F1F0F1F000F00F00D
:100A8000D0F8D0F8B8FCB8FC7CFE7CFECEFF0EFFA0
:100A90000CFE1CFE98FC18FCD0F8D0F800F000E02A
:100AA000A0F1A0F171FB41FFBBFFBBFF76FF76FF1A
:100AB000BBFFB8FF41FF70FBA0F1A0F100E0000F09
:100AC0000F1F0F1F193F193F367F367F7DFF7DFFB8
:100AD0003E7F3E7F1F3F1F3F0F1F0F1F000F00F085
:100AE000D0F8D0F818FC98FC1CFE0CFE0EFFCEFFD0
:100AF0007CFE7CFEB8FCB8FCD0F8D0F800F000E03A
:100B0000A0F1A0F170FB41FFB8FFBBFF76FF76FFBD
:100B1000BBFFBBFF41FF71FBA0F1A0F100E0000FA4
:100B20000F1F0F1F1F3F1F3F3E7F3E7F7DFF7DFF3B
:100B3000367F367F193F193F0F1F0F1F000F081018
:100B4000007858FC5CFEBEFFBEFF5CFE58FC0078DF
:100B5000003C307E307E60FF60FF307E307E003CA7
:100B6000007840FC40FE80FF80FF40FE40FC0078A3
:100B7000003C307E307E60FF60FF307E307E003C87
:100B8000008080C0C0E0E0F0E0F0C0E080C0008005
:100B9000003F3D7F3D7F7BFF7BFF3D7F3D7F003FF3
:100BA000008000C000E000F000F000E000C0008025
:100BB000003F027F027F04FF04FF027F027F003FAD
:100BC000081000FE00FE38FE38FE38FE00FE00FE73
:100BD0000000002700270227002702270027002700
:100BE0000000000000FF1CFF38FE38FE00FC000083
:100BF00000000000001301270027024F004F0000F3
:100C000000000000000000FF1CFF00FC00000000CE
:100C10000000000000000013012F004F0000000042
:100C2000000000000000000000FF000000000000C5
:100C30000000000000000000004F00000000000065
:100C400000000000000000FC1CFF00FF000000008E
:100C5000000000000000004F012F00130000000002
:100C60000000000000FC38FE38FE1CFF00FF000002
:100C700000000000004F024F002701270013000072
:100C8000000000FEFCFE3CFE3CFE3CFEFCFE00FEC6
:100C90000000002703270227022702270327002737
:100CA0000000000000FFFEFF3CFEF8FE00FC00001C
:100CB00000000000001301270227074F004F00002B
:100CC00000000000000000FFFCFF00FC000000002E
:100CD0000000000000000013012F004F0000000082
:100CE000000000000000000000FF00000000000005
:100CF0000000000000000000004F000000000000A5
:100D000000000000000000FCFEFF00FF00000000EB
:100D1000000000000000004F012F00130000000041
:100D20000000000000FCF8FE3CFEFEFF00FF00009B
:100D300000000000004F074F0227012700130000AA
:100D4000000000FCA8FCA8FEA0FE80FE00FC00FC49
:100D50000000002702270227022702270227002778
:100D60000000000000FE54FEA0FE00FE00F800009F
:100D700000000000001301270227044F004F00006D
:100D800000000000000000FE00FE00F8000000006F
:100D90000000000000000013002F004F00000000C2
:100DA000000000000000000000FE00000000000045
:100DB0000000000000000000004F000000000000E4
:100DC00000000000000000F800FE00FE000000002F
:100DD000000000000000004F002F00130000000082
:100DE0000000000000F800FEA0FE54FE00FE00001F
:100DF00000000000004F044F0227012700130000ED
:100E000000000038007C00FE08FE08FE107C003860
:100E100000000020002000200020002000200020F2
:100E200000000000001C00FE08FE20FE0070000014
:100E300000000000001000200020004000400000E2
:100E4000000000000000001C00FE00700000000018
:100E50000000000000000010002000400000000022
:100E6000000000000000000000FE00000000000084
:100E70000000000000000000004000000000000032
:100E8000000000000000007000FE001C00000000D8
:100E900000000000000000400020001000000000E2
:100EA00000000000007000FE08FE08FE001C0000AC
:100EB0000000000000400040002000200010000062
:100EC000000000FCF8FC00FCA8FCA8FCF8FC00FCFE
:100ED00000000027032700270227022703270027F7
:100EE0000000000000FEFCFEA8FCF0FC00F8000082
:100EF00000000000001301270227074F004F0000E9
:100F000000000000000000FEF0FE00F800000000FD
:100F10000000000000000013032F004F000000003D
:100F2000000000000000000000FE000000000000C3
:100F30000000000000000000004F00000000000062
:100F400000000000000000F8F0FE00FE00000000BD
:100F5000000000000000004F032F001300000000FD
:100F60000000000000F8F0FCA8FCFCFE00FE000001
:100F700000000000004F074F022701270013000068
:100F8000000000F848FC48FC9CFE9CFE48FC48FC25
:100F900000F8003F017F017F02FF02FF017F017F18
:100FA000003F00F888FC88FC1CFE1CFE88FC88FCC6
:100FB00000F8003F027F027F05FF05FF027F027FEE
:100FC000003F00F808FC08FC1CFE1CFE08FC08FCA6
:100FD00000F8003F057F057F0AFF0AFF057F057FB8
:100FE000003F00F808FC08FC1CFE1CFE08FC08FC86
:100FF00000F8003F0A7F0A7F14FF14FF0A7F0A7F70
:10100000003F00F808FC08FC1CFE1CFE08FC08FC65
:1010100000F8003F147F147F28FF28FF147F147FFF
:10102000003F00F808FC08FC1CFE1CFE08FC08FC45
:1010300000F8003F287F287F50FF50FF287F287F3F
:10104000003F16100000000000000000000000003B
:1010500080808080C0C0C0C0E0E0E0E0C0C0C0C010
:101060008080808000000000000000000000000080
:10107000040404040E0E0E0E1F1F1F1F3F3F3F3FB0
:101080007F7F7F7FFFFFFFFF7F7F7F7F3F3F3F3F70
:101090001F1F1F1F0E0E0E0E04040404000000008C
:1010A00000F0E0F010F8D0F838FCB8FC7CFE7CFED4
:1010B000FEFFFEFF7CFE7CFEB8FCB8FC50F850F84A
:1010C000A0F000F00000000000000000000703078F
:1010D000000F070F001F0F1F003F1F3F007F2A7FD9
:1010E000153F153F0A1F0A1F050F050F02070007CE
:1010F00000000000F0F008F8D0F0A0E040C0FEFED4
:1011000001FFC6FE38F806FEF9FFC6FE38F870F09B
:101110008CFC02FEFCFCC0C030F0CCFC02FEFCFCEF
:1011200004040707080F0F0F1E1F1D1F203F3F3F1E
:101130007C7F437FFFFF8FFF717F7E7F3F3F203F9C
:101140001B1F1C1F0F0F080F0707040400000000DF
:101150000000808040C020E010F008F804FC02FE8F
:10116000ABFF55FF02FE04FC08F810F020E040C081
:10117000808000000000000004040606090F080F2C
:10118000101F101F203F203F407F407FAAFFD5FF48
:10119000407F407F203F203F101F101F080F090F86
:1011A000060604040000000000000000008000802B
:1011B00000C080C000E0C0E000E0E0E000E0C0E08F
:1011C00000C080C00080008000000000000000001F
:1011D000000E040E001F0E1F003F1F3F207F2F7FB9
:1011E00070FF77FFF8FFFBFF70FF77FF207F2F7FF7
:1011F000003F1F3F001F0E1F000E040E00000000E6
:1012000000000000000000008080808040C040C0DE
:10121000A0E0A0E040C040C08080808000000000CE
:101220000000000000000000040404040A0E0A0E7E
:10123000151F151F2E3F2E3F5B7F5B7FB5FFB5FF50
:101240005B7F5B7F2E3F2E3F151F151F0A0E0A0E78
:10125000040404040000000000000000000000007E
:1012600080808080C0C0C0C060E060E0C0C0C0C0FE
:10127000808080800000000000000000000000006E
:10128000040404040E0E0E0E1B1F1B1F353F353FBA
:101290006E7F6E7FDBFFDBFF6E7F6E7F353F353FFE
:1012A0001B1F1B1F0E0E0E0E040404040000000082
:1012B00000000000000000000080008080C080C0AE
:1012C000C0E0C0E080C080C000800080000000005E
:1012D000000000000000000000040004040E040EE2
:1012E0000E1F0E1F1B3F1B3F357F357F6EFF6EFFAE
:1012F000357F357F1B3F1B3F0E1F0E1F040E040E54
:10130000000400040108000102030405060708099F
:101310000A0B0C0D0E0F10111213141516171819B5
:101320001A1B1C1D1E1F0A282040402090CCE2FAE8
:10133000797D1717080A0505020201015050E8E8F7
:10134000F4F4FAFA7DBDF0F8F3F307037B7CFE7F3B
:101350000F0301060203000000007D79FAE2CC9041
:10136000204040200101020205050A081717BD7D33
:10137000FAFAF4F4E8E850507FFE7C7B0307F3F3BD
:10138000F8F00000000003020601030F1710000030
:1013900000000000008080C0C0E0C0E0E0F0F0F895
:1013A00070F878FCB8FCDCFEDCFEEEFFECFE74FEB0
:1013B00070FC78FCF0F8F0F8E0F000E000F8F8FEDF
:1013C000FEFFFFFF1FFFE7FFFBFF7DFF1EFF0FFF7D
:1013D00007FF03FF03FF01FFFEFFFEFFFFFFFFFF0D
:1013E000FFFF00FFFFFFFFFF00FF00E0E0F0F0F86D
:1013F000F0F878FC70FC74FEECFEEEFFDCFEDCFE28
:10140000B8FC78FC70F8F0F8E0F0C0E0C0E080C014
:10141000008000000000000000FFFFFFFFFF00FF52
:10142000FFFFFFFFFFFFFEFFFEFF01FF03FF03FFC4
:1014300007FF0FFF1EFF7DFFFBFFE7FF1FFFFFFF03
:10144000FEFFF8FE00F8000000000000008080C0F1
:10145000C0E0C0E0E0F0F0F870F878FCB8FCDCFE2A
:10146000DCFEEEFFECFE74FE70FC78FCF0F8F0F8A9
:10147000E0F000E000F8F8FEFEFFFFFF1FFFE7FFCF
:10148000FBFF7DFF1E7F0F1F070F0307030701FFF1
:10149000FEFFFEFFFFFFFFFFFFFF00FFFFFFFFFF5D
:1014A00000FF00E0E0F0F0F8F0F878FC70FC74FE6B
:1014B000ECFEEEFFDCFEDCFEB8FC78FC70F8F0F829
:1014C000E0F0C0E0C0E080C000800000000000004C
:1014D00000FFFFFFFFFF00FFFFFFFFFFFFFFFEFF1B
:1014E000FEFF01FF03070307070F0F1F1E3F7DFFCE
:1014F000FBFFE7FF1FFFFFFFFEFFF8FE00F80F20D6
:1015000000FF00FF00FF00FF00FF00FFFFFF8FFF55
:101510004FFF1FFFFFFF00FFFFFFFFFF00FF00FF68
:1015200000FF00FF00FF00FF00FFFFFFFFFFFFFFC6
:10153000FFFFFFFF00FFFFFFFFFF00FF80FFC0FF77
:10154000C0FFE0FFE0FFF0FFF7FFEFFFEFFF5FFFFF
:101550005FFF007F3F7F1F3F003F0F1F070F070FF9
:10156000030703070103010300010001000000005D
:10157000000000000000000000FFFFFFFFFF00FF71
:10158000FFFF1FFF4FFF8FFFFFFF00FF00FF00FF68
:1015900000FF00FF00FF00FFFFFFFFFF00FFFFFF56
:1015A000FFFFFFFFFFFFFFFF00FF00FF00FF00FF47
:1015B00000FF00FF003F1F3F3F7F007F5FFF5FFF97
:1015C000EFFFEFFFF7FFF0FFE0FFE0FFC0FFC0FF1E
:1015D00080FF00000000000000000000000000018B
:1015E00000010103010303070307070F070F0F1F84
:1015F0000000000000000000000000FFFFFF8FFF60
:101600004FFF1FFFFFFF00FFFFFFFFFF00FF000076
:10161000000000000000000000FFFFFFFFFFFFFFD1
:10162000FFFFFFFF00FFFFFFFFFF00FF80C0C0E0E4
:10163000C0E0E0F0E0F0F0FFF7FFEFFFEFFF5FFF4B
:101640005FFF007F3F7F1F3F003F0F1F070F070F08
:10165000030703070103010300010001000000006C
:10166000000000000000000000FFFFFFFFFF00FF80
:10167000FFFF1FFF4FFF8FFFFFFF00FF0000000075
:1016800000000000000000FFFFFFFFFF00FFFFFF62
:10169000FFFFFFFFFFFFFFFF00FF00000000000053
:1016A00000000000003F1F3F3F7F007F5FFF5FFFA4
:1016B000EFFFEFFFF7FFF0FFE0F0E0F0C0E0C0E089
:1016C00080C00000000000000000000000000001D9
:1016D00000010103010303070307070F070F0F1F93
:1016E0000820000000000000000000FFFFFFFFFFD7
:1016F00000FF000000000000000000FFFFFFFFFFF0
:1017000000FF000000000000000000FFFFFFFFFFDF
:1017100000FF0000000000000000007F1F3F1F3F8F
:10172000001F00FFFFFFFFFF00FF000000000000A0
:10173000000000FFFFFFFFFF00FF000000000000AF
:10174000000000FFFFFFFFFF00FF0000000000009F
:101750000000001F1F3F1F3F003F0000000000006F
:10176000000000FFFFFFFFFFFFFF00FFFFFFFFFF85
:1017700000FF00FFFFFFFFFFFFFF00FFFFFFFFFF76
:1017800000FF00FFFFFFFFFFFFFF00FFFFFFFFFF66
:1017900000FF0007070F070F0F1F003F1F3F1F3FEE
:1017A000001F00FFFFFFFFFF00FFFFFFFFFFFFFF26
:1017B00000FF00FFFFFFFFFF00FFFFFFFFFFFFFF36
:1017C00000FF00FFFFFFFFFF00FFFFFFFFFFFFFF26
:1017D00000FF001F1F3F1F3F003F0F1F070F070F96
:1017E00000070A208080000050500000AAAA0000D4
:1017F0000000000000000000AAAA000055550000EB
:10180000AAAA00000000000000100000AAAA000020
:1018100055550000AAAA00000000000000000000CA
:101820000A0A000005050000020200000000000096
:101830000000000000000000000000000000AAAA54
:1018400000005050000080800000001000000000E8
:101850000000AAAA000055550000AAAA0000000036
:10186000000000000000AAAA000055550000AAAA26
:10187000000000000000000000000202000005055A
:1018800000000A0A000000A000000054000000AAA6
:1018900000000055000000AA000000AA000000554A
:1018A000000000AA00000055001000AA000000AAD5
:1018B00000000055000000AA00000055000000AA2A
:1018C000000000AA000000550000002A00000015DA
:1018D0000000000A00AA00000055000000AA000055
:1018E0000054000000A0000000AA001000550000F5
:1018F00000AA00000055000000AA000000AA000095
:101900000055000000AA00000055000000AA0000D9
:10191000000A000000150000002A00000055000029
:1019200000AA0000A21B9F1B3E1B3B1B381B351B44
:10193000321B2F1BF81AC01BA51B6C185F185218FE
:10194000D51A451838182B18B21A1E181118041871
:101950008F1AF717EA17DD176C1A621903081F119F
:101960001F121F101D151711151F07041F17151D16
:101970001F151D01011F1F151F17151F03087F418C
:101980007F427F4079494F41497F0F087F4F497916
:101990007F497901017F7F497F4F497F0508FEFF1D
:1019A000FFFFFEFEBFBFBFFEFEAFAFAFFEFEABABA5
:1019B000ABFE07081F11151511111F07081F191974
:1019C0001F1F1F1F05080E1F1D190E020800FFFF15
:1019D000FF5D0880BEA2A280BEA2A2BE80BE84C956
:1019E00090BE80BE8AEAE2F8FFFFFF80AEAAAABAE4
:1019F00080BEA2A29C80BE8AEAE288A29494A288B9
:101A0000FFFFFF88A2BEA280BE84C990BE80BE8AAE
:101A1000EAE280BEA2A2BE80FFFFFF80BE8AEAEE9D
:101A200080BEA0AFAF80BE9292BE80EE88B88EE03E
:101A3000FFFF80BEA2AA94C09EA0A09EC082BE82CC
:101A4000F882BE82F880BEA2A2BE80BE84C990BECB
:101A500080FFFF80AEAAAABA80BEA2A2A280BE88E2
:101A600088BE80BEAAAAA280BE84E984BE80BEAA27
:101A7000AAA280FFFFFFFFFF80B8B0AA868E80FF7A
:101A8000FFFFFFFF808E86AAB0B880FFFFFFFFFF39
:101A9000FFFFFFFFFFFFFFFFFFFFFF80AEAAAABA15
:101AA00080BEA2A2BE80BEA0A0BE80BE84C990BEE1
:101AB00080BEA2A29CC1FFFFFFFFFF80BEA2A2BE0C
:101AC00080BE8AEAE280BE8AEAE2F8FFFFFFFFFFFB
:101AD00080BEA2A2BE80BE84C990BE80FFFFFFFF71
:101AE000FFFFFFFFFFFFFFFFFFFF80400000000040
:101AF00000000000000000000000000000000000E6
:101B000000000000C0603058CC647266ECD8B06051
:101B1000C0E038C8EC74747474747474747474E4CD
:101B2000ECECE8E8D8D090B0206040C080800000A5
:101B30000080202020202020202020202020202065
:101B400020202080000000000000000000000000B5
:101B50000000000000000000000000000000000085
:101B60000000000000000000000000000000000075
:101B700000000000000000000000000000000080E5
:101B8000C0406020A0B19B9E8C2E73F87F3F9FDEEB
:101B900004F00EE3FC3E1F0F2F2F2F5F3FFFFEFED2
:101BA000FE7E7C3DBDB97BFBF7F7E6EE0CFD3B828C
:101BB000F6ECE8DAB262CA82028282828282AA8269
:101BC000AA00002A800000000000000000000000C1
:101BD000A00808888888888888888888888888886D
:101BE00088080808A000000000000000000080E055
:101BF00030C8ECE4F4F6767676746448D8D8ECE72E
:101C0000F0FA7B3B93C79FBF3F4FE03E03017C83CD
:101C1000387F70E7EFEFEFCFDEDEDEDEDE9FBFBFA7
:101C2000BCBC7C7C78787370FF7F1FC3388FE0FF6B
:101C3000FFFFFFFFFFFF7C81FE3800000000000077
:101C4000802008A8AA28282828A828282828A80802
:101C50008A280A08A08A8080808080808080AA806C
:101C600080AA0000AA0000000000000080807FC061
:101C70001E7FFFFFE1CC9EB3A1A1B192DCC1FFFFAB
:101C800083FCB8E79F7FFFFFFFFEFDFAFA3A89E584
:101C9000E6E8CEDEDEDEDDBDBDBD797B7BFBF3F7A6
:101CA0007767EFEFEFCF5F5E5E5E4F617C7F4773DC
:101CB00079FDFDFDFD7D787B7A7A7A7274E4C890B7
:101CC000B2C0888A20202020222220202802A0289A
:101CD000020000000228A0800000000000000000B8
:101CE00000000000AA008080808080808080808149
:101CF00003F2FE05F5F7FBFBFBFBFDFDFDCDCEE69C
:101D000066666666680FECF5FBFBFDFDFDEDCDCD6F
:101D10008D8B37C7FBFDFDFEFEFEFF03E7E6CE9E83
:101D20009DC23EDAE5F6F7F7F3F37373FFFFFFFFAB
:101D3000FFFEFEF900FFFFFFFFFFFFFF0FE626C6D5
:101D4000FEFEFEFEFDFAF408D0E8F4FAFAFAFAFA1A
:101D50001AFAFAF4E8907088F6F4F4E8E8E8E8D0C3
:101D6000A0A0A0A0AAA040800080808020202020E9
:101D700020231FFEE11FFFFFFFFFFFFFFFFFE01C0F
:101D80006642424242A7AC3BD3C7CFCFDFFFFFFF43
:101D90007F7FFE19171F1FDFDFBF3FF0B7FB1D1E40
:101DA0001E11D05FDFBF7FFFBFFF3C3C1FDFDFBFE7
:101DB0003FFFBFFD101F1F1FFFFF1F1F1C1BD8DF92
:101DC000BF3FFF9FCFCF63F0CF3F7FFFFFFFFFC736
:101DD000C6C7E7777703F0FFFFFFFFFFFFFF07F3BB
:101DE000190919131313180F20202020A2A2A2A250
:101DF000A2A2A2A18F3EF1CFCFCFCF4FC7A7A7A658
:101E0000A7B3B3B3B3B3B9A9ACA4A4A4A4A4A4A422
:101E1000A6A2FF80808080BFB2DBCFF0BFFF8080B2
:101E20008080F7CE8CB7F8AFBFF0C0C080BFB2DB08
:101E3000CFF0AFFF80808080FFFF80808080BFB4C4
:101E4000DBCFF0BFA2A2A2A2A3A3A2A4A4A4A4A495
:101E5000A4A4A4A2AEB0B3B3A7A7A7A727B89FA76F
:101E6000A0A2A2A2A2A2A2A2A2A2A2A2AAAAAAAA34
:101E7000AAAAAAAAAAAAAAAAAAA8873CFF000000FE
:101E80000000000000000000000000000000000052
:101E90000000000000000000000000000000000042
:101EA0000000000000000000000000000000000032
:101EB0000000000000000000000000000000000022
:101EC0000000000000000000000000000000000012
:101ED000000000000000000000000FA0AAAAAAAAAB
:101EE000AAAAAAAAAAAAAAAAAAAAAAAA1E1800C004
:101EF00038C6E9ADE1D1DDDDE1FDFDFDFDFDFDFD16
:101F0000FDFDFDFDF5BDF9C638C21502004106080C
:101F100008C84848D000F81FDF5F5F9F3FFF18C028
:101F200050480808080866610008205088502003BF
:101F3000813943988A888B88898A888A889B423A23
:101F4000034012381000020060180000000000007A
:101F50000000000000000000000000000000000081
:101F600000007F415D55577F416D6D517F41555553
:101F70005D7F416D6D417F057D417D057F415555FB
:101F80005D7F415D5D633E007F415D55497F117717
:101F900047711F000000000000000000000000006A
:101FA0000000000000000000000000000000000031
:101FB0007F416D6D417F007F4175151D7F417F51D0
:101FC0005555457F417777417F007F415D55577F6C
:101FD000416D6D417F415F50507F415F50507F4167
:101FE00055555D7F415D5D633E007F415F685F41A8
:101FF0007F416D6D417F417B77417F415D5D637FB7
:10200000416D6D417F0000000000007F416D6D411A
:102010007F417B77417F415D5D633E007F417D1362
:102020007D417F416D6D417F417B77417F117747D6
:10203000711F007F417D137D417F416D6D417F4167
:102040007B77417F117747711F007F415D5D417F45
:10205000057D417D057F417777417F4155555D7F06
:10206000416D6D517F515555457F0308007F3E7F7F
:10207000007FFBFF0501020A160E80401020208021
:102080004010180000050010001B00210026006C05
:102090000074007D008C00A700AC00B100C000CF30
:1020A00000F000F600FC000B0111015A016201660C
:1020B000016C010612001640009D249F41FA0DA7F5
:1020C00041F419A314A3FE41F40DA30DA314A31905
:1020D000A3FEFD0201FC02FEFC01FC02FEFC02FD6F
:1020E0000103FC044CFEFC044CFCFC044DFC04FD10
:1020F0000103FC044CFEFC044CFCFC044C03FC04FB
:10210000FD01034C07FC044C05FC044C03FD0104D9
:10211000FD01034C07FC044C05FC044C03FC044D7E
:10212000FC04FE4030FD0203FD02019E0713001770
:10213000FD01059F31A72FA731A72CA728A72CA702
:1021400025AFFE31A733A734A733A734A731A73370
:10215000A731A733A72FA731A72FA731A7FE2DA7F8
:1021600031AFFE33A734AFFE38A736A738A734A760
:102170002FA734A72CAFFE31A72FA731A72CA72854
:10218000A32CA725B3FE31A733A734A733A334A7C5
:1021900034A731A333A731A333A733A72FA331A784
:1021A0002FA331A731A3FEA32DA331AFFEA333A3E9
:1021B00034AFFE38A736A738A734A72FA334A72CEF
:1021C000B3FE4000DFDFDFCF403041E8FD0108FC17
:1021D00009FC0AFD0108FC09FC0BFD010C4C07FC85
:1021E00009FC0A4DFD010C4C07FC09FC0B4DFD01DF
:1021F0000DFC0EFC0FFD010DFC0EFC10FD01114C41
:1022000007FC0EFC0F4DFD01114C07FC0EFC104DA0
:102210009F4904402041FAAFFEFD0314FEFD021564
:10222000FD0214FC14FD0F15FC14FD0F159FD5F0D5
:102230008D14A1C881CFD9F1AF20000400000300A4
:102240000B001C000100000040009F9DA04030FDDD
:1022500007029FFC034CFBFC034CFDFC034CFFFC02
:10226000034C00FE41FC25AF29AF2CAFFE9417575D
:102270001755211717F21E0F1F502336233D202418
:1022800023C11EAC22D31E080B000202020000096B
:1022900004000001020200000524001001052401D1
:1022A000010104240206052406000107058103102C
:1022B000004009040100020A000000070502024074
:1022C0000000070583024000000403090412010016
:1022D00002EF020140412336800001010203014167
:1022E000726475696E6F204C4C430041726475696D
:1022F0006E6F204C656F6E6172646F005B301124ED
:102300001FBECFEFDAE0DEBFCDBF11E0A0E0B1E04D
:10231000E2E1F5E602C005900D92A033B107D9F7CE
:1023200028E0A0E3B1E001C01D92AC35B207E1F7AF
:1023300011E1CFE7D1E104C02197FE010E947A327A
:10234000CE37D107C9F70E9481300C9487320C94A4
:102350000000FC018091FC05882311F13FB7F8943F
:1023600082E08093E9002091F200822F90E018161D
:10237000190614F481E090E0882339F0289844E6A7
:102380004093FB054091F1004083222339F02091D6
:10239000F200211103C02BE62093E8003FBF08950F
:1023A0008FEF9FEF08952FB7F89483E08093E900B3
:1023B0009091E800892F807295FF04C09091F200FF
:1023C00080E4891B2FBF08958091F30581110DC012
:1023D00082E08093EF0584E08093F0051092F2058F
:1023E0001092F10581E08093F3058FEE95E008955A
:1023F000CF93DF931F92CDB7DEB76983DC01ED91F8
:10240000FC910280F381E02D41E050E0BE016F5F5E
:102410007F4F09950F90DF91CF91089583E08093CE
:10242000E9008091F200882319F08AE38093E800A4
:1024300008950E94D31190E00895CF93DF931F92E7
:10244000CDB7DEB7FC018485958597FD08C02FEFD9
:102450003FEF358724870F90DF91CF910895CE010C
:1024600001960E94A911019719F4898190E0F3CF98
:102470008FEF9FEFF0CF0F931F93CF93DF931F92B8
:10248000CDB7DEB78C01FC018485958597FF0BC025
:10249000CE0101960E94A911019771F4898190E003
:1024A000F80195878487F801848595850F90DF91E1
:1024B000CF911F910F9108958FEF9FEFF1CFFC0106
:1024C0008485958597FD0BC09FB7F89482E0809333
:1024D000E9008091F2009FBF90E0019608959FB7B8
:1024E000F89482E08093E9008091F2009FBF90E031
:1024F00008954091E9055091EA052091E705309152
:10250000E80542175307B4F49091E8009570E1F3A1
:102510009091E80092FD19C08093F1008091E90547
:102520009091EA0501968F739927892B19F48EEF04
:102530008093E8008091E9059091EA0501969093D7
:10254000EA058093E90581E0089580E00895EF921F
:10255000FF920F931F93CF93DF93F82E192FE62E40
:10256000042F81E0860F880F0E94791283E00E9479
:102570007912CF2DD12FEC0EFD2EF11CCE15DF05DB
:10258000B9F007FF13C0FE0184910E947912182F41
:1025900080E00E947912812321968111EFCFDF9193
:1025A000CF911F910F91FF90EF9008958881EDCF0B
:1025B00081E0F5CFDF92EF92FF920F931F93CF93BD
:1025C000DF93D82E8A01EB017B01E40EF51ECE15B8
:1025D000DF0559F0D7FE12C0FE0184910E947912E6
:1025E00021968111F4CF0FEF1FEFC801DF91CF913A
:1025F0001F910F91FF90EF90DF9008958881EECFAB
:102600000F931F93CF93DF931F92CDB7DEB782E076
:10261000898342E450E067E872E280E80E94DA12BF
:102620000E94E411DC0112960D911C910115110517
:1026300089F0D801ED91FC910280F381E02DBE017B
:102640006F5F7F4FC801099597FD04C0F8010085B1
:102650001185ECCF89810F90DF91CF911F910F9160
:102660000895615030F02091F100FC012083019623
:10267000F8CF289884E68093FB0508953FB7F89437
:102680008091E3059091E405A091E505B091E60500
:1026900026B5A89B05C02F3F19F00196A11DB11DBD
:1026A0003FBFBA2FA92F982F8827BC01CD01620FF9
:1026B000711D811D911D42E0660F771F881F991FB4
:1026C0004A95D1F708958F929F92AF92BF92CF9281
:1026D000DF92EF92FF926B017C010E943E134B014F
:1026E0005C01C114D104E104F104B9F00E943E136D
:1026F000681979098A099B09683E7340810591052B
:1027000080F321E0C21AD108E108F10888EE880EB2
:1027100083E0981EA11CB11CE4CFFF90EF90DF90E6
:10272000CF90BF90AF909F908F90089565E070E03C
:1027300080E090E00C9463138F929F92AF92BF92CF
:10274000CF92DF92EF92FF920F931F93CF93DF937D
:102750006C017B018A0180910F01882309F45CC020
:102760008091FC05882309F457C08091EE0580FF15
:1027700005C08091E00082608093E000E801B12C08
:102780008AEFA82E93E0892E2AE3922E209711F447
:10279000BB20D9F10E94D31181110AC0AA94AA20AA
:1027A000D9F161E070E080E090E00E946313EECF29
:1027B0008C171D0611F00CF08C2F9FB7F8948092A7
:1027C000E9002091E80025FD02C09FBFDFCF282F40
:1027D00030E0C21BD30BF701815020F041914093B0
:1027E000F100FACFE20EF31EBB2021F09092E80038
:1027F000B12CEBCF8091E80085FDE7CF9092E80007
:10280000BB24B394209709F3F3CF5D9884E68093BB
:10281000ED05101611063CF081E090E0F60193837F
:10282000828310E000E0C801DF91CF911F910F91EA
:10283000FF90EF90DF90CF90BF90AF909F908F90E0
:1028400008954F925F926F927F928F929F92AF9274
:10285000BF92CF92DF92EF92FF920F931F93CF938D
:10286000DF934C015901FC2DC02FD0E0CE01880D23
:10287000991D181619060CF06CC020E882169104F8
:102880000CF067C09B012E0D311D121613060CF0C3
:1028900060C0603471050CF05CC04115510509F44D
:1028A00058C0E62FE770FE2EDB0177FD179633E068
:1028B000B595A7953A95E1F73A2F77FF04C0FF2029
:1028C00011F03FEF3A0F662777276819790997FCCF
:1028D00002C070E060E0803891050CF44BC090E8D5
:1028E0009819961BA32F032E000CBB0B1A2F1095C3
:1028F0003F3F0CF010E021E08E2D877009F420E0BE
:10290000E694E694E694E20EAE0DB11D19971CF024
:1029100028E0E22EE31AE11A310F20E83203D00159
:102920001124A80DB91DA60FB71F019F600D711DC1
:102930001124460F571F0F2D0F2C000C110BF330D5
:1029400009F41CC1C8F4F13009F4D0C0F23009F424
:102950007CC0DF91CF911F910F91FF90EF90DF909E
:10296000CF90BF90AF909F908F907F906F905F902F
:102970004F900895902FB5CFFA3FB1F1232F2E0D30
:10298000FB3F39F7321729F3BD0164527E4FD12C3A
:10299000C12CC91608F0A4C0FA01EC0DFD1DE4918C
:1029A000F0E04F01002E02C0880C991C0A94E2F757
:1029B00037FD06C0FB018081E82CE0948E218083E6
:1029C000FF2061F0373054F45B01F0E8AF0EB11C2A
:1029D000E92CE094F50180818E218083FFEFCF1AEE
:1029E000DF0A6F5F7F4FD5CF232F2E0D321709F4EB
:1029F000B0CFBD0164527E4FD12CC12CC91608F056
:102A000069C0FA01EC0DFD1DE491F0E04F01002ECC
:102A100002C0880C991C0A94E2F737FD04C0FB0140
:102A2000808188298083FF2051F0373044F45B0196
:102A3000F0E8AF0EB11CF501808189298083FFEF9A
:102A4000CF1ADF0A6F5F7F4FD9CF6FEF70E00F2C87
:102A500002C0660F771F0A94E2F760957095772E93
:102A6000232F2E0D321709F474CFFD01E452FE4FCF
:102A70006F01B12CA12CA91638F5FA01EA0DFB1D46
:102A8000E491F0E02F01002E02C0440C551C0A9482
:102A9000E2F737FD05C0F601808186238429808313
:102AA000FF2059F037304CF44601F0E88F0E911CAE
:102AB000F4018081872185298083FFEFAF1ABF0A47
:102AC0008FEFC81AD80AD7CF3F5F4C0F5D1FA058B1
:102AD000BF4FC8CF3F5F4C0F5D1FA058BF4F86CF81
:102AE0003F5F4C0F5D1FA058BF4F4CCF6A0D7B1D41
:102AF000232F2E0D321709F42CCFFD01E452FE4F87
:102B00006F01B12CA12CA91688F5FB01EA0DFB1D64
:102B10008490912C002E02C0880C991C0A94E2F734
:102B200080949094FA01EA0DFB1D6490712C002EA4
:102B300002C0660C771C0A94E2F737FD05C0F60167
:102B40008081882186298083FF2049F037303CF43A
:102B5000F601E058FF4F8081892187298083FFEFAC
:102B6000AF1ABF0A8FEFC81AD80ACDCF3F5F4C0FFC
:102B70005D1F6C0F7D1FA058BF4FBCCFC92ED12C3D
:102B8000FA01E60FF71FA452BE4F00E810E00C193F
:102B90001D09CC19DD09BE01660F771F41E050E029
:102BA0006A010F2C01C0CC0C0A94EAF7592F2E2D84
:102BB000792ECF93DF93ED01EF96EF9622968590D5
:102BC000A590FF2059F08C9C4001AC9C50013730FF
:102BD0002CF4E880B094EB20E928E99233233AF012
:102BE000EC90A094EA20E828ED920C94F815119648
:102BF0005A9529F72A9551F0572D33951124E60F50
:102C0000F11DA00FB11DC00FD11DD9CFDF91CF9104
:102C100011249FCECF92EF920F93FA010491319637
:102C2000E4904E5F5F4F2223F9F0A1E0B0E03E2D2B
:102C3000377011F4B0E0A0E0EE2DE695E695E6954C
:102C4000EA0FFB2FF11D0E9FD0010F9FB00D112435
:102C500030E0220F331FA29FF001A39FF00DB29F1F
:102C6000F00D11244E0F5F1F23E0C22E30E020E054
:102C70000E9421140F91EF90CF900895CF92EF9280
:102C80000F93CF93DF93DC01FA0104913196E49026
:102C90004E5F5F4F2223D1F0C1E0D0E09E2D9770B0
:102CA00011F4D0E0C0E0EE2DE695E695E695EC0F48
:102CB000FD2FF11D0E9FE0010F9FD00D11242C9FC1
:102CC000C0012D9F900D1124480F591F8AEFC82E67
:102CD00030E020E0CD010E942114DF91CF910F91CF
:102CE000EF90CF9008958FB18095807F669B88602C
:102CF0001C9B846008951092D7013E983F980895D8
:102D00003E9A3F9A81E08093D70108959091DC0527
:102D1000982329F49091DD05982381E009F480E05F
:102D20000895482F65E00E94463296E0899F900101
:102D300011242C5F3F4F241B31094CE0429FC001FE
:102D4000439F900D112403960895E091C80686E0F4
:102D5000E89FF0011124E85FF94F81818F7D818325
:102D60000895A091D101B091D201AA0FBB1F2A9F53
:102D7000F0012B9FF00D1124660F771F4430510591
:102D80004CF442305105E9F04330510519F141301E
:102D9000510551F0680F791FE75AFF4F81E0E617A0
:102DA000F70774F480E00CC09C01261B370BB901B7
:102DB0002FE030E02E1B3F0B81E06217730794F386
:102DC0000895EA54FF4F680F791F81E0E617F7076F
:102DD000BCF3E8CF9C01261B370BB9012FEA3FEF6C
:102DE0002E1B3F0B81E02617370754F7DBCF4370CC
:102DF000FC01208131815FEF540FEEEFFFEF523085
:102E000010F4E2E0F0E02E0F3F1FFC01318320833D
:102E1000FB01808191812FEF3FEF423010F021E0E4
:102E200030E0820F931FFB0191838083089520E09F
:102E300048E45FE164E170E080E190E00E943E16CA
:102E40008CE00E94861681111092030108958091F2
:102E5000D80180FD0AC08091C2019091C3019F5F9B
:102E60009093C30181508093C2018091C30180324D
:102E700018F084E18093C3018091C201853118F478
:102E800080E28093C201089520E04AEE5AE170E0AA
:102E900060E090E080E00E943E162091030141ED49
:102EA00059E168E370E081E190E00C943E16CF9325
:102EB000DF93C091C6018CE0C89FC02D1124CF5B69
:102EC0000E9444170E942717D0E08091C30120E0A0
:102ED0004AE650E268E370E08C0F9D2F911D0E943E
:102EE0000A168091C20120E04AE650E268E370E0F1
:102EF0008C0F9D2F911D0E940A1680E40E94861659
:102F0000882319F084E08093C60180E20E9486162F
:102F100081111092C6018CE00E94861681111092D8
:102F20000301DF91CF9108950F931F93CF930E94D8
:102F300044170E942717C091010188E1C89F8001B2
:102F400011248091C30120E04AE650E268E370E07A
:102F5000800F912F911D0E940A168091C20120E0DE
:102F60004AE650E268E370E0800F912F911D0E94C5
:102F70000A1680E40E948616882329F0C33018F4CC
:102F8000CF5FC093010180E20E948616882339F04A
:102F900080910101882319F08150809301018CE018
:102FA0000E948616882329F0809101018F5F80930B
:102FB0000301CF911F910F9108956091D1017091FC
:102FC000D2016A5C7F4F23E040EE56E18DE190E054
:102FD0000C940A166091D1017091D2016A5C7F4F06
:102FE00023E04EEF54E18EE090E00C940A166091DD
:102FF000D1017091D2016A5D7F4F23E04CE853E12B
:103000008EE090E00C940A166091D1017091D2018B
:103010006A5C7F4F22E040EE56E181E590E00C943F
:103020000A166091D1017091D2016A5C7F4F22E053
:103030004EEF54E189E590E00C940A166091D101BD
:103040007091D2016A5D7F4F22E04CE853E181E547
:1030500090E00C940A166091D1017091D2016B5EE0
:103060007F4F21E040EE56E18FE590E00C940A1688
:103070006091D1017091D2016B5E7F4F21E04EEFE4
:1030800054E180E590E00C940A166091D1017091B2
:10309000D2016B5F7F4F21E04CE853E180E590E087
:1030A0000C940A166091D1017091D2016B5E7F4F32
:1030B00020E040EE56E180E190E00C940A16609129
:1030C000D1017091D2016B5E7F4F20E04EEF54E151
:1030D00088E190E00C940A166091D1017091D201C0
:1030E0006B5F7F4F20E04CE853E180E190E00C946F
:1030F0000A168F929F92AF92BF92CF92DF92EF9279
:10310000FF920F931F93CF93DF930EEF1FEFD0E04B
:10311000C0E0E090D101F090D201B701675E7F4F2F
:103120006C0F7D1F20E046E253E1C8010E943E166D
:10313000B7016C1B7D0B21E046E253E1C801CE963E
:103140000E943E162597065F1F4FC23E8FEFD8079D
:1031500001F78AE4C82E81E0D82EE601AA24A394C0
:10316000B12C10E000E096E2E90EF11C288144E069
:1031700053E14701811A9108B401CE018A5491406C
:103180000E943E16298144E053E1B401C5010E942A
:103190003E160D3150F51F5F0F5F2296E2E0AE0E36
:1031A000B11C0B3319F78091D8019091D901877028
:1031B0009927892B69F480914A01F60191819193B5
:1031C0006F01F1ECCF16F1E0DF06B9F78093C10192
:1031D000DF91CF911F910F91FF90EF90DF90CF90F3
:1031E000BF90AF909F908F9008951150D5CF9F9230
:1031F000AF92BF92CF92DF92EF92FF920F931F9305
:10320000CF93DF9300E310E0D0E0C0E0A12C83E097
:10321000982E7801D12CC12CB12C4091D101509124
:10322000D20182E0B81242C0A81240C09091C806F4
:103230008091CF0198133AC0809149012091D80123
:103240003091D90127703327232B31F48F5F692DFB
:103250000E94463290934901209149012B5FBA01A7
:103260006D5C7F4F42E450E180E390E00E940A16DB
:10327000B39486E0C80ED11C8CE0E81AF10885E012
:10328000B812CBCFA3942696045F1F4FCE31D10541
:1032900009F0BFCFDF91CF911F910F91FF90EF9079
:1032A000DF90CF90BF90AF909F900895BA01655E78
:1032B0007F4F6C0D7D1D6C0F7D1F20E042E450E1BF
:1032C000C701D4CF08953F924F925F926F927F9241
:1032D0008F929F92AF92BF92CF92DF92EF92FF9226
:1032E0000F931F93CF93DF931092CD011092CE01D5
:1032F000682E712C46E0849FF0011124E85FF94F9D
:103300008180912C5DE0859F8001112496E2C92E79
:1033100098E0D92E27E0A22EB12C862F8150990B50
:10332000EC01CC0FDD1FCF5EDE4F0F5E1F4F46E07E
:10333000442E55E0352ED60114961C92C4010A2C59
:1033400002C0959587950A94E2F780FF30C0E88126
:10335000F981C8018A199B09E80FF91FE490F12C43
:1033600083E0F594E7948A95E1F75E2CE491B8E167
:10337000BE1518F0D6011496EC938E2D0E9491166E
:10338000F601918380834E9C90014F9C300D112457
:103390002E5E3F4F852D632D0E94463248EE582FFA
:1033A0004503C0011124280F391F3383228386E08F
:1033B000C80ED11C91E0A91AB10808F0BCCF8091C9
:1033C0003608982F9770963070F096E0969DF00131
:1033D000979DF00D1124E85FF94F928197FF15C07A
:1033E000816080933608DF91CF911F910F91FF90FC
:1033F000EF90DF90CF90BF90AF909F908F907F9095
:103400006F905F904F903F9008958E7FEACF8350EA
:10341000813608F53EEE360F3133E8F46CE00E9459
:103420004632282F911117C0832F66E00E94463242
:10343000911111C09CEF980F290F20FD0CC0022E96
:10344000000C330B35952795253028F4982F921BC7
:1034500081E0953008F080E008959AEA899FA00104
:10346000112485E591E0689F9001699F300D11243A
:10347000CA01820F931F8FEC890F90E064E095954D
:1034800087956A95E1F7982F990F990F890F241B5B
:10349000350B92E1930F92959F70890F0895E091FB
:1034A000D001E150FF0BEE0FFF1FEF5EFE4F0190CA
:1034B000F081E02D339684919091C806282F30E05A
:1034C00035952795359527952F7133279217130634
:1034D00011F4837008950895CF93DF93C091D101C3
:1034E000D091D201BE01605D7F4F23E042EE57E1F3
:1034F00083E190E00E940A160E944F1A833061F423
:10350000BE016F5C7F4F23E042EE57E183E190E024
:10351000DF91CF910C940A16DF91CF910895CF934C
:10352000DF93C091D101D091D201BE01605D7F4F88
:1035300022E042EE57E189E590E00E940A160E94DF
:103540004F1A823061F4BE016F5C7F4F22E042EE81
:1035500057E189E590E0DF91CF910C940A16DF9155
:10356000CF910895CF93DF93C091D101D091D20133
:10357000BE01615F7F4F21E042EE57E185E590E0BB
:103580000E940A160E944F1A813061F4BE01605FEA
:103590007F4F21E042EE57E185E590E0DF91CF914A
:1035A0000C940A16DF91CF910895CF93DF93C091C9
:1035B000D101D091D201BE01615F7F4F20E042EE88
:1035C00057E188E190E00E940A160E944F1A81118B
:1035D0000CC0BE01605F7F4F20E042EE57E188E102
:1035E00090E0DF91CF910C940A16DF91CF9108956E
:1035F0008091CE018823B1F06091580870915908EC
:103600008091D1019091D201680F791F6A5F7F4F3D
:10361000809156089091570822E140EC5BE00496B7
:103620000C940A16089596E0899FF0011124EA5D32
:10363000F74F2481222391F027706281738180915A
:10364000D1019091D201680F791F675F7F4F808110
:10365000918142E450E103970C940A16089587E0A3
:103660000C94131B86E00C94131B85E00C94131B25
:1036700084E00C94131B83E00C94131B8091D801FD
:103680009091D90187709927892B41F4809137084F
:103690008F5F66E00E94463290933708409136086B
:1036A00047703091370860913408709135088091E7
:1036B000D1019091D201680F791F6A5F7F4F80918D
:1036C0003208909133080496463068F04650550B06
:1036D000440F551F21E0333008F420E0242B4EE343
:1036E0005BE00C940A16242F220F420F242F220F86
:1036F000230F40EC5BE0F5CF96E0899FF0011124A9
:10370000EA5DF74F448150E09A01220F331F220FE8
:10371000331F2C7193E0559547959A95E1F74370C7
:10372000242B628173818091D1019091D201680F25
:10373000791F4CE355E0808191810C940A1681E059
:103740000C947C1B80E00C947C1B8091CD01882321
:10375000B1F06091C9017091CA018091D10190913D
:10376000D201680F791F6A5F7F4F8091C7019091E6
:10377000C80122E140EC5BE004960C940A1608951F
:10378000EF92FF920F931F93CF93DF9380910206E6
:10379000182F1370012F000F87FF1CC0D0E0C0E06E
:1037A000E02EF12C6091FF057091000666507109C2
:1037B0006C0F7D1F6E197F098091FD059091FE05AC
:1037C00020E04AED54E004970E940A162896C8317A
:1037D000D10541F7809102066091FF0570910006C6
:1037E00024E084FD07C082FF0DC06091FF05709149
:1037F0000006212F48EF52E08091FD059091FE05D3
:103800000E940A168091020687FF1BC0D0E0C0E02C
:1038100010E06091FF05709100066E5F7F4F6C0FA6
:103820007D1F601B710B8091FD059091FE0521E0CD
:103830004AED54E004970E940A162896C831D10533
:1038400041F7DF91CF911F910F91FF90EF90089575
:103850000F931F93CF93DF930E9479180E94F7185C
:10386000C9ECD6E007EF16E0E991F0E0EE0FFF1F9C
:10387000EC5DF64E85919491FC0109950C171D079E
:1038800099F780910206807611F40E94C01B0E9475
:10389000A51BDF91CF911F910F910C94F81A809185
:1038A000020683FD0AC09091010691509093010693
:1038B000992321F08860809302060895877F8061B4
:1038C000FACFCF93DF93C42F0E942D1A893108F0CD
:1038D00055C0E82FF0E0E753F94F8285CC2309F477
:1038E00047C0823008F04BC090E0E6E0E89F9001CE
:1038F000E99F300D11242A5D374FD90114964C9160
:103900004770423009F46EC04091C806E49FF00150
:103910001124E85FF94F47E050E0481B590B81E064
:1039200090E0A0E0B0E004C0880F991FAA1FBB1F61
:103930004A95D2F78095918189238183F901148278
:103940008091D3019091D401A091D501B091D6017D
:10395000855B9F4FAF4FBF4F8093D3019093D401AE
:10396000A093D501B093D6018C2FDF91CF9108950C
:10397000893029F40E944F1CC1E0F6CF8BE19DEF06
:10398000980F953088F590E0E6E0E89FE001E99F28
:10399000D00D1124CA5DD74F2C812770243011F12E
:1039A0002330E1F42091C806E29FF0011124E85F82
:1039B000F94F27E030E0281B390B81E090E0A0E0D0
:1039C000B0E004C0880F991FAA1FBB1F2A95D2F729
:1039D00080959181892381831C82CECF2150C1E0C3
:1039E000223010F2C0E0C0CFC1E08230D9F7BCCFA6
:1039F0000F93CF93C22F443051054CF44230510500
:103A000021F14330510519F14130510519F066504B
:103A10008C5002C06650845F0E942D1A8093C401AE
:103A2000E091C401E93160F4F0E0E753F94F828599
:103A30008093C5018B3121F0CC2359F0893009F4F2
:103A4000C0E08C2FCF910F9108956A5FE4CF6A5F39
:103A5000DFCF011106C0882399F3893029F0C1E036
:103A6000F0CF8130D1F7ECCF0E944F1CF8CFCF922E
:103A7000DF92EF92FF920F931F93CF93DF93182F54
:103A8000C62FD0E086E0189FF0011124EA5DF74FC1
:103A9000C280D380E080F18020E0AE01B601C70192
:103AA0000E94B116811115C001E0111101C000E0A2
:103AB00020E0AE01B601C7010E94F81C91E0892701
:103AC000DF91CF911F910F91FF90EF90DF90CF90FA
:103AD000089580E0F5CF40910206842F807629F08A
:103AE000809105068F5F809305068091D1019091AA
:103AF000D20143702091FD053091FE05423081F1E5
:103B00004330D1F14130A1F097FF08C00196909366
:103B1000D2018093D1012250310913C08091FF0559
:103B2000909100060197909300068093FF05F3CFD4
:103B300097FF0CC001969093D2018093D1012E5F24
:103B40003F4F3093FE052093FD0508958091FF05BA
:103B5000909100060197909300068093FF05EFCFA8
:103B6000853E4FEF940714F00197E5CF8091FF0554
:103B7000909100060196EFCF853E4FEF940714F029
:103B80000197C5CF8091FF05909100060196CBCF9C
:103B90004F925F926F927F928F929F92AF92BF925D
:103BA000EF92FF920F931F93CF93DF932B013C0172
:103BB000C42FD22F11E0411451046104710409F0A3
:103BC00010E0A30192016AE0862E912CA12CB12C69
:103BD000211531054105510541F01F5FCA01B901A9
:103BE000A50194010E942432F3CF1D1708F41D2F64
:103BF000C10FDD27DD1FCC0FDD1FCC0FDD1FCA5B22
:103C0000DE4F00E02AE0822E912CA12CB12C82E024
:103C100090E09C012A5431407901C301B201A50111
:103C200094010E942432F701EC0FFD1FE837F105E3
:103C3000A0F4FB01EE0FFF1F6E0F7F1FFB01E95881
:103C4000FD4FE491E883FB01E858FD4FE491E983DF
:103C500067587D4FFB0164916A830F5F24972901A8
:103C60003A011013DACFDF91CF911F910F91FF909E
:103C7000EF90BF90AF909F908F907F906F905F90EC
:103C80004F90089590E0880F991FE091F906F09108
:103C9000FA06E80FF91F859194912091F70630916B
:103CA000F806820F931F0895EF92FF920F931F93D0
:103CB000CF93DF931092720021E030E030934801FF
:103CC00020934701EEEFF6E048EDDF011D924A95A3
:103CD000E9F740EF409310011092FD061092FC06A8
:103CE00049E14093FB0641E752E05093460140937F
:103CF000450130934201209341013093C607209340
:103D0000C50722E42093C00021E02093C1002FEFDB
:103D10002093D10020E82093CF00EC012196FC01F4
:103D20008491D093FA06C093F90690E0880F991F0A
:103D3000C80FD91FCE0104969093F8068093F7061A
:103D40003EEFE32E36E0F32E10E000E0FE01E00F40
:103D5000F11F84910E94421ED7018D939C930F5FA7
:103D60001F4FB6E3EB0EF11C0430110579F784E028
:103D700080937200DF91CF911F910F91FF90EF9090
:103D800008950E9479180E94F7180E94C01B8CE0C9
:103D90000E948616882331F01092030182E890E297
:103DA0000C94541E08950E9479188CE00E94861687
:103DB000882331F01092030182E890E20C94541EA3
:103DC000089510927200EEEFF6E088EDDF011D928B
:103DD0008A95E9F780EF809310011092FD0610920A
:103DE000FC0608950E94E11E1092D3011092D401A6
:103DF0001092D5011092D601EDEFF5E086E08583B3
:103E000080E486838CE08783108683E08483118638
:103E100012861092D00188E080930301089580916A
:103E2000D8019091D90168E770E00E945232892B45
:103E300051F40E94E11E82E890E20E94541E10920A
:103E4000C6011092030120E04CEE5EE164E170E0F7
:103E500081E390E00C943E16CF92DF92EF92FF92B6
:103E60000F931F93CF93DF934EE250E06BE170E02E
:103E700089EC96E00E948032E091C8062E2F30E057
:103E800086E0E89FF0011124E85FF94F808184FF0C
:103E900009C09BE09093C9069CE09093CA069DE000
:103EA0009093CC0680FF03C09EE09093CD0685FFE3
:103EB00009C09FE09093CE0690E19093CF0691E1E8
:103EC0009093D10681FF03C092E19093D20686FFC2
:103ED00009C093E19093EC0694E19093ED0695E18F
:103EE0009093EF0682FF03C096E19093F00687FF60
:103EF00009C097E19093F10698E19093F20699E159
:103F00009093F40683FF03C08AE18093F50686E070
:103F1000829FF001839FF00D1124E85FF94F01812A
:103F200010E086E2C82E88E0D82ED0E0C0E097E00E
:103F3000E92EF12CC7018C1B9D0BF80102C0F595F1
:103F4000E7958A95E2F7E0FF0AC0F6016281808179
:103F50000E942D1AE82FF0E0E753F94FC28721960F
:103F600036E0C30ED11CC830D10521F7809102067E
:103F7000282F2072982F9074382F307681F4E0919A
:103F80000406F0E0E753F94F89E08287DF91CF9193
:103F90001F910F91FF90EF90DF90CF900895837065
:103FA0008230A9F08330F1F0813059F0222319F0EA
:103FB00089E08093CB06992349F389E08093EE064C
:103FC000E5CF2223C1F389E08093D006F4CF2223EA
:103FD00019F089E08093EE069923C1F289E080937D
:103FE000CB06D4CF222319F089E08093F3069923DE
:103FF00069F289E08093D006C9CFEAE4F1E098E75E
:10400000DF011D929A95E9F74BE052E081112DC036
:10401000AAE4B1E030E020E063E0FA01E20FF31F30
:10402000E491EE2309F1E053E03FC1F0EF3FB1F03E
:10403000E69FC0011124FC01E958FD4FE491EC9387
:10404000FC01E858FD4FE4911196EC9311978758C5
:104050009D4FFC01849112968C9312972F5F3F4FD6
:1040600014962E313105C9F60895FA0194914F5FE7
:104070005F4F9111FACF8150C9CF2F923F924F924B
:104080005F926F927F928F929F92AF92BF92CF92E8
:10409000DF92EF92FF920F931F93CF93DF9300D0A5
:1040A00000D000D0CDB7DEB74090D001A42CA394AF
:1040B000A092D001C090D301D090D401E090D5015E
:1040C000F090D601B3E05B2E5A1428F583E00E94ED
:1040D000FD1F26E048E1C701B6010E94C81D8CE023
:1040E0008093030126960FB6F894DEBF0FBECDBFB6
:1040F000DF91CF911F910F91FF90EF90DF90CF90C4
:10410000BF90AF909F908F907F906F905F904F90F7
:104110003F902F9008951092C8068CE0809304067B
:1041200087EF9FEF9093D2018093D10183E390E0DA
:104130009093FE058093FD0581E290E09093000648
:104140008093FF058A2D8150990BFC01EE0FFF1F14
:10415000EF5EFE4F20813181F9013496E491E093C6
:10416000CF01B901F901B490FDE0BF9E40011124D7
:1041700085E0880E911CF90131962490280C392C89
:10418000311CA8E0B6E01E8200E010E09E81B91666
:1041900009F474C011961C92119712961C921297F2
:1041A00013961C92139714961C92149715961C92B2
:1041B0001597FB013596E491EC9387E090E0AB0115
:1041C0004F5E5F4FFA01E81BF90BE491EE23B9F063
:1041D0001196EC911197412C512C32014394082EE9
:1041E00004C0440C551C661C771C0A94D2F7498203
:1041F0005A826B827C82E4291196EC931197019785
:1042000008F7AB01445F5F4FFA01849187708530F6
:1042100051F4F401E10FF11DE20FF31FE491129646
:10422000EC9312971F5FFA01849187708630F8F043
:10423000C101800F911DF901E80FF91FE491139658
:10424000EC931397FC013296E20FF31FE49115965D
:10425000EC9315970D5FFA0144914770473039F49C
:1042600012968C911297806812968C9312978E8179
:104270008F5F8E83635F7F4F169688CF6A2D80E0B5
:104280000E94631981E00E94FD1F6A2D70E090E09A
:1042900080E022E046E00E94C81D26E04EE0C70113
:1042A000B6010E94C81D89E01BCFCF93DF93C09158
:1042B000D70182E1C89FC02D1124C45D0E9444171C
:1042C0000E942717D0E08091C30120E04AE650E227
:1042D00068E370E08C0F9D2F911D0E940A1680915B
:1042E000C20120E04AE650E268E370E08C0F9D2FA7
:1042F000911D0E940A1680E40E94861681110E9478
:10430000801680E20E94861681110E947B168CE046
:104310000E948616882379F0C091D70182E090E050
:104320000E940E32C81729F06C2F82E090E00E94A4
:10433000163210920301DF91CF9108956F927F9210
:104340008F929F92AF92BF92CF92DF92EF92FF92A5
:104350000F931F93CF93DF93CDB7DEB72A970FB696
:10436000F894DEBF0FBECDBFC82E862ECA01B9019C
:104370002AE0AE014F5F5F4F5A010E94CD31F50137
:1043800001900020E9F73197EA19FB096E2E1BEF27
:10439000019F102D1124195F1E1B11164CF420E0F3
:1043A0004CE759E170E060E089E790E00E943E163A
:1043B000D12C54E0150270011124EC0CFD1C10E00E
:1043C000062C000C7708912C812F90E0861597051C
:1043D00004F5F501E80FF91F2081213394F02053F3
:1043E0002A3078F4880F991F880F991F023059F0EE
:1043F0004CE759E1B4018E0D9F1D0E943E161F5FD0
:10440000E3CF20E0EFCF4CE559E1B4018C0D9D1DC9
:10441000F4CF2A960FB6F894DEBF0FBECDBFDF9162
:10442000CF911F910F91FF90EF90DF90CF90BF90B1
:10443000AF909F908F907F906F9008950F93CF9340
:10444000DF93D0E0C0E020E04BEC59E1BE0186E70D
:1044500090E00E940A162896C034D105A1F7209159
:10446000C80630E050E040E001E060E089E70E94EB
:104470009E2120910306277030E050E040E002E0EA
:1044800067E18BE70E949E2120E044EC59E16DE159
:1044900070E08AE790E00E943E162091030630E02B
:1044A00083E0359527958A95E1F723703327032E0E
:1044B000000C440B550B66E28BE70E949E2120E026
:1044C0004BEB59E16CE270E089E790E00E943E1608
:1044D0002091030625FB222720F930E050E040E040
:1044E00065E38BE70E949E2120E042EB59E16BE3FC
:1044F00070E089E790E00E943E16809102062091CC
:10450000030684FF14C020642093030680910306F1
:1045100086FF1EC0209101064CE959E16BE070E076
:104520008AE790E0DF91CF910F910C943E16809135
:10453000D8019091D90164E170E00E945232892B38
:1045400029F780910106823008F780E42827DCCF24
:10455000DF91CF910F9108951F93CF93DF939091A7
:1045600007069F5F909307062091D8013091D901EB
:1045700023703327232B51F480910206282F2370B8
:10458000233009F05BC08C7F809302069B3558F086
:10459000809102068F77846080930206109207064E
:1045A00086E0809303010E9479180E94F7180E9408
:1045B0001E220E94C01B8091D8019091D9016AE50A
:1045C00070E00E945232892BD9F5E091C806C6E00E
:1045D000CE9FF0011124E85FF94FD281DF73D093B1
:1045E000C80610910406812F0E9491169093FE0533
:1045F0008093FD051C9F900111242E5E3F4F812F5B
:1046000065E00E944632482F58EE5403C001112441
:10461000280F391F8091D1019091D201280F391FA5
:10462000309300062093FF05109205066091D0019B
:104630008D2FDF91CF911F910C9463198F5FA4CFC1
:10464000DF91CF911F9108950E9479180E94F71869
:104650000E941E228CE00E948616882331F080E0A2
:104660000E94FD1F86E08093030108950E942C1F85
:104670000E94281C80910506853038F48091D8016D
:1046800080FF0E946B1D0C941E22109205068091E3
:1046900002068F7B8093020686E080930301F3CFAE
:1046A0002F923F924F925F926F927F928F929F9242
:1046B000AF92BF92CF92DF92EF92FF920F931F9330
:1046C000CF93DF9300D01F92CDB7DEB70E942C1F8F
:1046D0000E94281CE0910206E5FD7FC4E4FDBDC0F8
:1046E0008091D80180FD9CC0E090D101F090D20172
:1046F0006091FF056E198091FD050E942D1A893188
:1047000010F4809304062091C601422F50E05B8391
:104710004A83FA01E658FF4D14910E9473168123D3
:10472000181709F44AC0EA81FB81E558FF4D14913E
:104730000E9473168123181709F441C0EA81FB8196
:10474000E458FF4D14910E94731681231817C9F184
:104750008A819B8183589F4DFC01F491F9830E94CB
:1047600073162981822328135BC083E030910206EF
:104770003C7F382B3983309302060091FF0510915E
:104780000006A090FD05B090FE05C82ED12C21E0BA
:10479000A601B801C5010E94B116811114C0B8016B
:1047A0006E197F0900E021E0A601C5010E94F81CF6
:1047B0008111D5C10E946B1D33C080E0D7CF81E04D
:1047C000D5CF82E0D3CF8091040699819370923047
:1047D00009F489C1933009F4A4C1913009F465C189
:1047E0008230F1F4E091C80646E0E49FF001112424
:1047F000E85FF94F808184FF13C080FD11C05981AB
:104800005062509302068BE190E09093FE058093F6
:10481000FD058EE1E80EF11CF0920006E092FF0526
:1048200088E00E948616882319F089E080930301AE
:1048300084E00E948616882381F09091C8069983AF
:10484000809104069091CF01E981E913DAC28C309E
:1048500009F0D7C288E0809303018091020683FFAC
:104860006EC4909106069F5F909306062091D80132
:104870003091D90123703327232B21F424E08227A0
:1048800080930206913F40F080910206877F84600A
:1048900080930206109206068091020684FDEEC007
:1048A000A090D8012091D9018A2D922F66E070E066
:1048B0000E945232892B09F0ABC08A2D922F60E3FF
:1048C00070E00E9452326C0126E238E03B832A837A
:1048D000312C212C56E0852E67E0E62EF12C772432
:1048E000739475E0972E622CE091C8068E9EF001BD
:1048F0001124E85FF94F818190E097012219330973
:1049000002C0959587952A95E2F780FF77C0EA81E6
:10491000FB812481822F90E033E0959587953A952D
:10492000E1F7082F037027702983602F822D0E94E2
:10493000371D882309F448C4402F6A817B816E5F4C
:104940007F4F8A819B810E94F716EA81FB8142801A
:104950005080642D852D0E94071A882379F1F981F2
:104960001FEF100FF130A9F02981223039F5642DA5
:10497000852D0E942D1A482F893108F4F9C3EA8148
:10498000FB81648170E093E0759567959A95E1F7F6
:10499000162F1370011791F1612F862D0E94371D7C
:1049A000882361F0EA81FB818481877EF8E01F9F84
:1049B000B0011124682BEA81FB816483F981F33013
:1049C000E9F4C114D104D1F48091CE01811116C053
:1049D0007092CE01EA81FB8180819181909357088A
:1049E0008093560882819381909359088093580848
:1049F0008481887180935A0810925B082A813B81D8
:104A00002A5F3F4F3B832A832A94232809F0ACC3B3
:104A10008091CD01882391F0A0FC10C04091CB0182
:104A200069EC71E087EC91E00E94F7168091CC016F
:104A30008F5F863008F0DAC38093CC018091CE017D
:104A40008823E1F0A0FC1AC040915A0850E083E0AE
:104A5000559547958A95E1F7842F83708983482F70
:104A600068E578E086E598E00E94F71680915B089B
:104A70008F5F863008F0DEC380935B080F900F9045
:104A80000F90DF91CF911F910F91FF90EF90DF90EA
:104A9000CF90BF90AF909F908F907F906F905F90DE
:104AA0004F903F902F900C941E228A3009F0B8CE80
:104AB000E091C80696E0E99FF0011124E85FF94F04
:104AC000808185FFADCE81FDABCEE981E062E093D0
:104AD00002068BE490E09093FE058093FD05FEE1D5
:104AE000EF0EF11C99CE863109F09ACEE091C806FE
:104AF00026E0E29FF0011124E85FF94F808186FFF4
:104B00008FCE82FD8DCE39813062309302068BE4E8
:104B100090E09093FE058093FD0546E3E40EF11CC2
:104B20007BCE8E3009F07CCEE091C80656E0E59F42
:104B3000F0011124E85FF94F808187FF71CE83FD7A
:104B40006FCE89818062809302068BE190E0909322
:104B5000FE058093FD0596E3E90EF11C5DCE1091F4
:104B6000C501123009F46AC008F448C1183008F0D1
:104B700057CE26E0129FF0011124EA5DF74F8481A1
:104B80008770813009F035C13091020633703A8365
:104B9000028140814983602F842F0E94071A882355
:104BA00009F4F7C0602F89810E942D1A8983893109
:104BB00060F465E00E9446325A815111D5C0898166
:104BC000E981E550853008F0D8C06091FF056E1985
:104BD0008091FD050E942D1A893118F459818513A1
:104BE0001FCE8A818111F3C099819B5F998359817E
:104BF000593108F015CE852F0E9491169093FE052D
:104C00008093FD05998186E0989F900111242E5E86
:104C10003F4F892F65E00E944632482F58EE5403DB
:104C2000C0011124280F391FE20EF31EF092000676
:104C3000E092FF05898180930406F2CD80913608C9
:104C40008770823009F451C0E8F4882381F1813003
:104C500009F0E6CD80910306982F9871983109F4F8
:104C6000DFCD885F809303060E94A5168091D30153
:104C70009091D401A091D501B091D6010A96A11DC1
:104C8000B11D2AC0833009F457C0843009F0C8CD63
:104C90000E94A5168091D3019091D401A091D501D5
:104CA000B091D60188539F4FAF4FBF4F15C0809131
:104CB000030685FDB5CD8062809303060E94A5168C
:104CC0008091D3019091D401A091D501B091D601EA
:104CD0008C599F4FAF4FBF4F8093D3019093D40116
:104CE000A093D501B093D6019BCD80910106C090D1
:104CF000D301D090D401E090D501F090D60183305B
:104D000098F48F5F809301060E94A516E4E1CE0E11
:104D1000D11CE11CF11CC092D301D092D401E092CD
:104D2000D501F092D6017CCD0E94A516F2E3CF0EFC
:104D3000D11CE11CF11CEFCF80910306982F9770D6
:104D4000973009F46DCD8F5F809303060E94A516FE
:104D50008091D3019091D401A091D501B091D60159
:104D60004E96A11DB11DB8CFEA81E230F9F4F98168
:104D7000E981EB5FF43108F028CFE93108F025CF65
:104D80000E2E000CFF0BE753F94F82858B3109F093
:104D90001CCF46E0149FC0011124BC01685D774F11
:104DA0004A818A5D974F0E94F7163ACD2A812130B9
:104DB00029F4E981E1509111E0CF07CF3A813330F6
:104DC00019F4943009F401CFE981EF5FD6CFEA817D
:104DD000E13021F4F981FF5FF98309CF2A81223084
:104DE00021F439813550398302CF498141504983BB
:104DF000FECE823019F0843009F012CD0E944F1C93
:104E00000FCDF0910206F370FA830F2F10E0980196
:104E10002A583F4D7901F9019491981370C08091FF
:104E200003068871A1F10E944F1AFA81F81779F1EF
:104E3000809103068850809303068091D30190915E
:104E4000D401A091D501B091D601C296A11DB11D8A
:104E50008093D3019093D401A093D501B093D60150
:104E6000398126E0329FF0011124E85FF94F81E09B
:104E700090E0A0E0B0E00A8004C0880F991FAA1F4C
:104E8000BB1F0A94D2F780959081892380838091FB
:104E9000030685FF34C00E944F1A4A8148132FC071
:104EA000809103068052809303068091D3019091F4
:104EB000D401A091D501B091D60188519C4FAF4F3C
:104EC000BF4F8093D3019093D401A093D501B093A9
:104ED000D601898156E0859FF0011124E85FF94FE2
:104EE00081E090E0A0E0B0E004C0880F991FAA1F05
:104EF000BB1F4A95D2F7809590818923808330919A
:104F0000360840910406F801EE58FF4D8491F701F0
:104F1000E49020910206532F569556955695840F8E
:104F2000082E000C990B5817190641F5832F87702E
:104F3000853029F42068209302068BE08CCC8630E3
:104F4000E8F081E038273093360886E02981829F97
:104F5000F0011124E85FF94F928190589283A38168
:104F6000AF738A9FD0011124A85FB94F8581119634
:104F70009C911197892711968C936FCC4E1509F44B
:104F80006CCC8091CD01811168CC80910306982F63
:104F9000977009F462CC81508093030681E080937E
:104FA000CD011092CC018091FD059091FE0590936A
:104FB000C8018093C7018091FF0590910006409140
:104FC000D1015091D201841B950B9093CA0180931B
:104FD000C90123702093CB0140CC80910506853018
:104FE00038F48091D80180FD38CC0E946B1D35CCFF
:104FF0003091D0013A83432F4150550BDA01AA0F6B
:10500000BB1FAF5EBE4FE370F0E036968091C806DE
:105010005DE0859FE00DF11D11248D919C91E80FBD
:10502000F91F84918370823061F0833009F477C076
:10503000813009F07AC08AE0809304063AE039832F
:1050400079C086E1809304068983BDEDEB2EFF24B1
:10505000FA94F092D201E092D101E4910E2F10E087
:1050600015950795159507950093C80689810E94A7
:10507000911649814A3021F026EF3FEF463111F475
:105080002AE030E0820F931F9093FE058093FD0588
:10509000898156E0859F900111242E5E3F4F65E087
:1050A0000E944632482F58EE5403C0011124820F4B
:1050B000931FE981E63121F02BEF3FEFEE3011F441
:1050C00025E030E0280F391FE20EF31EF0920006B3
:1050D000E092FF05109205066A81802F0E946319F5
:1050E000809102068F7D80648093020687E0809322
:1050F00003010F900F900F90DF91CF911F910F91AF
:10510000FF90EF90DF90CF90BF90AF909F908F90E7
:105110007F906F905F904F903F902F9008958EE01A
:10512000809304069EE0998390CF82E080930406EA
:1051300022E02983A7EFEA2EFF24FA948ACF84FF86
:10514000AFCB82E00E94FD1F6091D3017091D4012A
:105150008091D5019091D60126E046E10E94C81DBC
:105160008AE08093030198CB22242394312CBBCB7B
:1051700080910406692D0E944632382F292F842FF2
:105180000E944632381B832F291B922F432F330F47
:10519000550B57FF03C0519541955109292F092EF1
:1051A000000C330B37FF03C03195219531094217AD
:1051B00053072CF012E087FFEDCB10E0EBCB11E0B2
:1051C00097FDE8CB13E0E6CBF98182E0F23009F0FD
:1051D00081E0800F837028E0829FC0011124EA8162
:1051E000FB819481977E892B8483E8CB1092CC013C
:1051F0000091C9011091CA014091C7015091C801A5
:105200005B834A834091CB0150E020E0B8018A8162
:105210009B810E94B116882319F01092CD010ECC0B
:1052200041E0B8018A819B810E94611C882309F4B6
:1052300005CCF3CF10925B08E0905808F090590825
:1052400000915608109157089981492F50E020E0AD
:10525000B701C8010E94B116882319F01092CE013F
:105260000DCC40E0B701C8010E94611C882309F4FD
:1052700005CCF4CF1F920F920FB60F9211248F938B
:105280009F938091E1009091E100937F9093E100E2
:1052900083FF0FC01092E90091E09093EB00109211
:1052A000EC0092E39093ED001092FC0598E090934F
:1052B000F00082FF22C093E09093E9009091F20009
:1052C000992319F09AE39093E8009091ED059923C2
:1052D00041F09091ED0591509093ED05911101C031
:1052E0005D9A9091FB05992341F09091FB059150B7
:1052F0009093FB05911101C0289A84FF18C08091FA
:10530000E2008E7E81608093E2008091E1008F7EDA
:105310008093E1008091EE058E7E80618093EE05A2
:105320009F918F910F900FBE0F901F90189580FF47
:10533000F7CF8091E2008E7E80618093E2008091C1
:10534000E1008E7E8093E1008091EE058E7E81608B
:10535000E5CF1F920F920FB60F921124CF92DF92DA
:10536000EF92FF920F931F932F933F934F935F936F
:105370006F937F938F939F93AF93BF93EF93FF931D
:10538000CF93DF93CDB7DEB76C97DEBFCDBF109262
:10539000E9008091E80083FF25C068E0CE014596D2
:1053A0000E94311382EF8093E8008D8987FF39C016
:1053B0009091E80090FFFCCF982F907609F034C1CF
:1053C0009E894F89588D2F89F88C911131C0803872
:1053D00061F58091EC058093F1001092F1008EEF61
:1053E0008093E8006C960FB6F894DEBF0FBECDBF79
:1053F000DF91CF91FF91EF91BF91AF919F918F91ED
:105400007F916F915F914F913F912F911F910F91DC
:10541000FF90EF90DF90CF900F900FBE0F901F90F6
:1054200018959EEF9093E800C7CF1092F100D5CF6A
:10543000913059F48111D3CF4130510581F68091DB
:10544000EC058D7F8093EC05CACF933049F4811130
:10545000C6CF4130510519F68091EC058260F2CF3C
:10546000953041F48091E80080FFFCCF20682093C4
:10547000E300B5CF963009F0A9C00B8D1C8D22E05A
:105480001092E9001092EA051092E905F2122EC07E
:105490001092E8051092E7050E9400131F8299E020
:1054A0009983FA8291E09E8390EA98879AEF998790
:1054B0002091E9053091EA05275F3F4F3C832B831C
:1054C0008D831092E9001092EA051092E90510937D
:1054D000E8050093E70549E050E0BE016F5F7F4FAC
:1054E00080E00E94DA120E94001379CF1093E80541
:1054F0000093E7050E94E411DC0112960D911C91C6
:105500000115110509F451C1D801ED91FC910480F8
:10551000F581E02DBE016B5E7F4FC80109950097B4
:1055200009F03EC1F80100851185EACFF3E0FF12D2
:105530000EC08F89882309F440C0823061F440E8AE
:1055400060E18BEE92E20E94A712811148CF81E2C6
:105550008093EB0047CF813029F440E86BE08FED7A
:1055600092E2F1CF833099F70E94E411DC011296A8
:10557000ED90FC908E010F5F1F4F6801E114F10464
:1055800079F0D701ED91FC910680F781E02DB8010B
:10559000C7010995080F111DF701E084F184EECFD2
:1055A000D8011C92F60101900020E9F73197BF0164
:1055B0006C197D0940E0C601C6CF69EC72E2FB01BF
:1055C000449150E080E80E94DA1209CF973009F444
:1055D000BECF983021F481E08093F10000CF993064
:1055E00009F0FDCE837009F0B2CFE8E1F1E081E08F
:1055F00031E096E32191222371F08093E90030930A
:10560000EB00DF0111972C912093EC009093ED00BB
:105610008F5F873079F78EE78093EA001092EA0077
:105620008F898093FC05DBCE8B8D9C8D1092E900D9
:105630001092EA051092E9059093E8058093E7053A
:10564000898D811192C08E899D89913A49F4813268
:1056500009F07DCF47E050E068E071E080E0B3CF33
:10566000913209F074CF833269F48F89988DB0E05C
:10567000A0E08093040190930501A0930601B093EC
:105680000701ADCE803269F48091E80082FFFCCF43
:1056900067E088E091E00E9431138BEF8093E8008F
:1056A0009ECE823209F09BCE8F8980930F01EEEF60
:1056B000FFE7859194918B3F9C4D51F1E0E0F8E03C
:1056C0008091080190910901A0910A01B0910B010C
:1056D000803B9440A105B105F1F480910F0180FD5C
:1056E0001AC0EE3F8AE0F80789F587E797E79183CC
:1056F0008083809160008093EB0588E19BE00FB68A
:10570000F894A895809360000FBE9093600067CED8
:10571000EEEFFAE0D5CF808191818737974709F086
:105720005ECEA89580916000886180936000809132
:10573000EB0580936000EE3F2AE0F20789F080914C
:10574000FE0A9091FF0A9183808349CE80819181E6
:105750008737980751F29093FF0A8093FE0AC5CFCE
:105760001092FF0A1092FE0A3ACE0E94E411DC0168
:1057700012960D911C910115110509F4E8CED8017E
:10578000ED91FC910190F081E02DBE016B5E7F4FA9
:10579000C8010995811123CEF80100851185EBCF51
:1057A000181619060CF41BCED2CEF1E0FF12BECEB5
:1057B0006DEC72E204CF1F920F920FB60F9211247C
:1057C0002F933F938F939F93AF93BF938091DF0568
:1057D0009091E005A091E105B091E2053091DE05E0
:1057E00023E0230F2D3758F50196A11DB11D2093FD
:1057F000DE058093DF059093E005A093E105B0936B
:10580000E2058091E3059091E405A091E505B09152
:10581000E6050196A11DB11D8093E3059093E40573
:10582000A093E505B093E605BF91AF919F918F914D
:105830003F912F910F900FBE0F901F90189526E863
:10584000230F0296A11DB11DD2CF2F923F924F92EE
:105850005F926F927F928F929F92AF92BF92CF9200
:10586000DF92EF92FF920F931F93CF93DF9331E379
:10587000E32E31E0F32ECEEFD6E010E000E046ED6F
:10588000442E47E0542E22242394312C69E0A62E86
:105890006DE3B62E8091FD06882349F18091FC06C8
:1058A00090E0002E02C0959587950A94E2F780FD5E
:1058B0001EC0F70110820F5F1F4FF5E0EF0EF11CC5
:1058C000E6960430110531F7DF91CF911F910F91CA
:1058D000FF90EF90DF90CF90BF90AF909F908F9010
:1058E0007F906F905F904F903F902F900895EEA51E
:1058F000EE23B1F08FA59E2F9370891708F49CC0FA
:10590000F0E0F595E795F595E795EE0FFF1FE55764
:10591000FE4F8591949190934201809341011FA67F
:105920009CA99923F9F08DA9292F2F77022E000C1D
:10593000330B821713060CF489C08A8197FF7FC04E
:1059400081508A838A8181117CC081E08A83EA81C7
:10595000F0E0EE0FFF1FE557FE4F859194919EA357
:105960008DA31DAA58A5552321F13AA529A53111CA
:1059700019C0422F407426FF6CC08DA19EA1850FD7
:10598000911D57FD9A9527FD69C097FD65C0442379
:1059900009F466C0863BF4E29F0714F085EB94E2BD
:1059A0009EA38DA381E0830F8AA72F73321708F07F
:1059B0001AA69BA5992371F0EA81EE2359F08DA5D3
:1059C0002CA5482F4F71322F3F71431708F04AC062
:1059D0008F5F8DA749A9442311F13AA9632F607401
:1059E00036FF6CC08DA19EA12BA950E027FF69C096
:1059F000840F951F97FD68C0662309F469C0863B34
:105A000044E2940714F085EB94E29EA38DA33F71CA
:105A1000822F8F71831708F05DC02F5F2BAB89A198
:105A20009AA1009709F45DC08F3F980709F4A4C0BC
:105A300001979AA389A3A0C08F5F8FA771CF8F5FB3
:105A400080CF803408F483CF8FE380CF8F5F8DAB1E
:105A500089CF8FA190E093CF90E080E04111A0CF5B
:105A60008FA3A0CF807EF1F480E28DA78DA5807EEC
:105A700051F09F3F09F1292F22952F70E20F8034BA
:105A800011F49F70E90F88A9F0E0E80FF11D87FD80
:105A9000FA95EE0FFF1FE557FE4F859194919EA357
:105AA0008DA398CF803231F426FD04C09F3F11F0C2
:105AB00080E4DBCF1DA6DACFE0E0E1CF8FA190E05C
:105AC00093CF841B950B96CF90E080E061119DCF22
:105AD0008FA39DCF27FF02C01BAAA1CF80E88BAB6D
