:100000000C9475110C949D110C949D110C949D11E0
:100010000C949D110C949D110C949D110C949D11A8
:100020000C949D110C949D110C9425260C949426EF
:100030000C949D110C949D110C949D110C949D1188
:100040000C949D110C949D110C949D110C949D1178
:100050000C949D110C949D110C949D110C94C62828
:100060000C949D110C949D110C949D110C949D1158
:100070000C949D110C949D110C949D110C949D1148
:100080000C949D110C949D110C949D110C949D1138
:100090000C949D110C949D110C949D110C949D1128
:1000A0000C949D110C94742C0C949D110802020068
:1000B0000220000700000000000323C3A300D10AB0
:1000C000000C0108000000000000004000000400D7
:1000D0000000005B6B000000300613000000000011
:1000E0003343839300C00000140D010000344484A6
:1000F000940050120018000000000B1B64ABBB9072
:100100001600001D300000AB9B1B2B0020001B00C5
:1001100000000070344484946B080201000430062F
:100120001F000000000021A101C100500A000000D2
:100130002AC000630000000060000F0400000015EA
:1001400034440919C3A0021300090000660C345C92
:1001500084ACC00000140D0000007C848C949C5082
:100160001200180079C100635C6C0000901600005A
:100170001D3000004A6AC2820AA0001B0001000074
:10018000003141819163050403031F08020200024C
:1001900020000700000000000323C3A300D10A00D1
:1001A0000C010800000000000000400000040000F6
:1001B00000005B6B000000300613000000000033FD
:1001C00043839300C00000140D0100003444849464
:1001D0000050120018000000000B1B64ABBB90160F
:1001E00000001D300000AB9B1B2B0020001B0000FB
:1001F000000070344484946B000006011501260150
:1002000037014A015D01720188019F01B801D201E5
:10021000EE010B022A024B026E029302BA02E402C2
:1002200010033F037003A403DC0317045504970471
:10023000DD0427057505C80520067D06E00649078B
:10024000B8072D08A9082D09B9094D0AEA0A900B2B
:10025000400CFA0CC00D910E6F0F5A1053115B1227
:1002600072139A14D41520178018F519801B231DBA
:10027000DE1EB420A622B524414C45525420414CE8
:100280004552542044524F4944204553434150491C
:100290004E47004C4556454C20202053434F524575
:1002A000202020202020200047414D45204F56454A
:1002B0005220203A3C202053434F524520202020FA
:1002C0002020200044524F4944204553434150458B
:1002D00044203A3E202053434F52452020202020E6
:1002E000202000001F111F111F101D151711151FB1
:1002F00007041F17151D1F151D01011F1F151F17AF
:10030000151F000A00100A00040A110A0A0A110A3D
:10031000040115020E17161F051F1F150A1F1111C4
:100320001F110E1F15111F05011F111D1F041F1185
:100330001F1119111F1F06191F10101F071F1F0162
:100340001F1F111F1F05070F091F1F051A17151D56
:10035000011F011F101F0F100F1F1C1F1B041B0765
:100360001C07191513101800F0F0F8F0F8F8FCF855
:10037000FCFCFEFCFEFEFFFEFFFCFEFCFEF8FCF8B3
:10038000FCF0F8F0F800F0006363FF7FFFFFFF9FD1
:10039000FFE7FFF9FFFFFFFFFFFFFFFFFFFFFFFF8B
:1003A000FF7FFF7FFF007F000E0C1E0C1F183F1AFF
:1003B0003F357F357F6BFF6BFF357F357F1A3F18E9
:1003C0003F0C1F0C1E000E00F0F0F8F0F8F8FCF8DF
:1003D000FCFCFEFCFEFEFFFEFFFCFEFCFEF8FCF853
:1003E000FCF0F8F0F800F0007F7FFF7FFFFFFFFFD9
:1003F000FFFFFFFFFFFFFFFFFFF9FFE7FF9FFFFF8B
:10040000FF7FFF63FF0063000E0C1E0C1F183F1AD6
:100410003F357F357F6BFF6BFF357F357F1A3F1888
:100420003F0C1F0C1E000E00F0F0F8F0F8F8FCF87E
:10043000FCFCFEFCFEFEFFFEFF7CFE7CFE38FCB8F2
:10044000FC10F8F0F800F0007F7FFF7FFFF9FFE776
:10045000FF9FFFFFFFFFFFF0FFF9FFF8FFFCFFFC2E
:10046000FF7EFF63FF0063000E0C1E0C1F183F1A77
:100470003F357F357F6BFF6BFF357F357F1A3F1828
:100480003F0C1F0C1E000E00F0F0F810F8B8FC38FE
:10049000FC7CFE7CFEFEFFFEFFFCFEFCFEF8FCF892
:1004A000FCF0F8F0F800F0006363FF7EFFFCFFFC57
:1004B000FFF8FFF9FFF0FFFFFFFFFF9FFFE7FFF9E6
:1004C000FF7FFF7FFF007F000E0C1E0C1F183F1ADE
:1004D0003F357F357F6BFF6BFF357F357F1A3F18C8
:1004E0003F0C1F0C1E000E008000C080C080FCF876
:1004F000FCFCFEFCFEFEFFCEFFE0FEF0F878FC7890
:10050000FC30F8F0F800F0007F7FFF7FFFF9FF87F5
:10051000FFFFFFFFFFFFFFF1FFF8FFF8FFFCFFFC0D
:10052000FF7EFF63FF0063000E0C1E0C1F081F0AF6
:100530003F357F357F6BFF6BFF357F357F0A3F0887
:100540001F0C1F0C1E000E180800C0C0F0F0F83081
:10055000F8183C0C1E0C1E0C1E060F060F060F068C
:100560000F060F060F060F060F0C1E0C1E0C1E1892
:100570003C30F8F0F8C0F000C00003030F0F1F0C70
:100580001F183C30783078307860F060F060F060B0
:10059000F060F060F060F060F0307830783078181B
:1005A0003C0C1F0F1F030F0003101800F0F0F8F0B1
:1005B000F8F8FCF8FCFCFEFCFEFEFFFEFFFCFEFC77
:1005C000FEF8FC80F800800000000000FFFFFFFF45
:1005D000FF7FFFBFFF3FFFFFFFFFFFFFFFFFFFFFAB
:1005E000FFFFFFFFFFFFFFFCFF00FC000F0F1F0FCF
:1005F0001F1C3F1D3F3E7F3F7F7FFF7FFF3F7F3FB1
:100600007F1F3F1F3F0F1F0F1F000F000000000044
:100610008080F8F8FCFCFEFCFEFEFFFEFFFCFEFC0A
:10062000FEF8FCF8FCF0F8F0F800F000FCFCFFFF2E
:10063000FFFFFFFFFFFFFFFFFFFFFFFFFFFFFF3F8A
:10064000FFBFFF7FFFFFFFFFFF00FF000F0F1F0F28
:100650001F1F3F1F3F3F7F3F7F7FFF7FFF3F7F3E4B
:100660007F1D3F1C3F0F1F0F1F000F0000000000E9
:1006700000008080C0C0E0C0E0E0F0E0F0F0F8F002
:10068000F8F8FC78FC70F8F0F800F000E0E0F8F81A
:10069000FCFCFF7FFF7FFFFFFFFFFFFFFF41FF6CC1
:1006A000FF20FF36FF10FFFFFF00FF000F0F1F0F9F
:1006B0001F1F3F1C3F3B7F387F7FFF7FFF207F371F
:1006C0007F163F1A3F081F0F1F000F00F0F0F87051
:1006D000F878FCF8FCF0F8F0F8E0F0E0F0C0E0C0EA
:1006E000E080C0008000000000000000FFFFFF105D
:1006F000FF36FF20FF6CFF41FFFFFFFFFFFFFF7F83
:10070000FF7FFFFCFFF8FCE0F800E0000F0F1F0880
:100710001F1A3F163F377F207F7FFF7FFF387F3BC9
:100720007F1C3F1F3F0F1F0F1F000F000000000026
:1007300000000000000000000000000000000000B9
:10074000000000000000000000000000E0E0F0F009
:10075000F8F8FCF8FCFCFEFCFEECFED4FEB4FEB4A3
:10076000FEA8FCD8FCF0F8E0F000E00009010B0363
:100770001F071F073F0F3F0F3F0F3F0F3F0F3F0F59
:100780003F073F071F031F010B0009000000000087
:100790008080C0C0E0E0F0E0F060F0A0F0A0F06089
:1007A000F0C0E080C00080000000000000003F3F7B
:1007B0007F7FFFFFFFFFFFFFFFFEFFF9FFF7FFF760
:1007C000FFF8FF7FFF3F7F003F00000000000800B0
:1007D00008001C001D013F013F013F013F013F0197
:1007E0003F001D001C000800080000000000000081
:1007F000E0E0F8F8FCFCFEFEFFE6FF1AFFF6FF0C57
:10080000FEF8FCE0F800E00000000000000000003E
:1008100007071F1F3F3F7F7FFF7FFF7FFF7EFF3F59
:100820007F1F3F071F0007000000000000000000BE
:10083000080008001C001C003E003E003E003E0078
:100840001C001C0008000800000000000000000060
:10085000000000008080C080C080C080C080C08058
:10086000C000800000000000000000000000FCFC50
:10087000FEFEFFFFFFFFFFFFFFF9FFE6FFDEFFDDEC
:10088000FFE3FFFEFFFCFE00FC000000000008008C
:1008900009011F031F073F073F073F073F073F07A8
:1008A0003F031F011F00090008000000F0D0F8D02E
:1008B000F8B0FCB0FC70FE60FEE0FFE6FF7CFE7C62
:1008C000FEB8FCB8FCD0F8D0F800F000E0A0F1A031
:1008D000F171FB41FFBBFFBBFF76FF76FFBBFFBBA8
:1008E000FF41FF71FBA0F1A0F100E0000F0F1F0F0F
:1008F0001F173F173F327F327F7DFF7DFF3E7F3ED8
:100900007F1F3F1F3F0F1F0F1F000F00F0D0F8D0B9
:10091000F8B8FCB8FC7CFE7CFEE6FFE0FF60FE70F1
:10092000FEB0FCB0FCD0F8D0F800F000E0A0F1A0E0
:10093000F171FB41FFBBFFBBFF76FF76FFBBFFBB47
:10094000FF41FF71FBA0F1A0F100E0000F0F1F0FAE
:100950001F1F3F1F3F3E7F3E7F7DFF7DFF327F3267
:100960007F173F173F0F1F0F1F000F00F0D0F8D069
:10097000F8B8FCB8FC7CFE7CFECEFF0EFF0CFE1C23
:10098000FE98FC18FCD0F8D0F800F000E0A0F1A030
:10099000F171FB41FFBBFFBBFF76FF76FFBBFFB8EA
:1009A000FF41FF70FBA0F1A0F100E0000F0F1F0F4F
:1009B0001F193F193F367F367F7DFF7DFF3E7F3E0B
:1009C0007F1F3F1F3F0F1F0F1F000F00F0D0F8D0F9
:1009D000F818FC98FC1CFE0CFE0EFFCEFF7CFE7C83
:1009E000FEB8FCB8FCD0F8D0F800F000E0A0F1A010
:1009F000F170FB41FFB8FFBBFF76FF76FFBBFFBB8B
:100A0000FF41FF71FBA0F1A0F100E0000F0F1F0FED
:100A10001F1F3F1F3F3E7F3E7F7DFF7DFF367F369E
:100A20007F193F193F0F1F0F1F000F081000FE0016
:100A3000FE38FE38FE38FE00FE00FE0000002700F3
:100A400027022700270227002700270000000000B8
:100A5000FF1CFF38FE38FE00FC0000000000000014
:100A60001301270027024F004F0000000000000084
:100A70000000FF1CFF00FC00000000000000000060
:100A8000000013012F004F000000000000000000D4
:100A900000000000FF000000000000000000000057
:100AA000000000004F0000000000000000000000F7
:100AB0000000FC1CFF00FF00000000000000000020
:100AC00000004F012F001300000000000000000094
:100AD000FC38FE38FE1CFF00FF0000000000000094
:100AE0004F024F0027012700130000000000FEFC0A
:100AF000FE3CFE3CFE3CFEFCFE00FE000000270328
:100B000027022702270227032700270000000000F2
:100B1000FFFEFF3CFEF8FE00FC00000000000000AD
:100B20001301270227074F004F00000000000000BC
:100B30000000FFFCFF00FC000000000000000000BF
:100B4000000013012F004F00000000000000000013
:100B500000000000FF000000000000000000000096
:100B6000000000004F000000000000000000000036
:100B70000000FCFEFF00FF0000000000000000007D
:100B800000004F012F0013000000000000000000D3
:100B9000FCF8FE3CFEFEFF00FF000000000000002D
:100BA0004F074F0227012700130000000000FCA898
:100BB000FCA8FEA0FE80FE00FC00FC000000270256
:100BC0002702270227022702270027000000000033
:100BD000FE54FEA0FE00FE00F80000000000000031
:100BE0001301270227044F004F00000000000000FF
:100BF0000000FE00FE00F800000000000000000001
:100C0000000013002F004F00000000000000000053
:100C100000000000FE0000000000000000000000D6
:100C2000000000004F000000000000000000000075
:100C30000000F800FE00FE000000000000000000C0
:100C400000004F002F001300000000000000000013
:100C5000F800FEA0FE54FE00FE00000000000000B0
:100C60004F044F0227012700130000000000380046
:100C70007C00FE08FE08FE107C003800000020000A
:100C800020002000200020002000200000000000A4
:100C90001C00FE08FE20FE007000000000000000A6
:100CA0001000200020004000400000000000000074
:100CB00000001C00FE0070000000000000000000AA
:100CC00000001000200040000000000000000000B4
:100CD00000000000FE000000000000000000000016
:100CE00000000000400000000000000000000000C4
:100CF00000007000FE001C0000000000000000006A
:100D00000000400020001000000000000000000073
:100D10007000FE08FE08FE001C000000000000003D
:100D20004000400020002000100000000000FCF8FF
:100D3000FC00FCA8FCA8FCF8FC00FC000000270359
:100D400027002702270227032700270000000000B2
:100D5000FEFCFEA8FCF0FC00F80000000000000013
:100D60001301270227074F004F000000000000007A
:100D70000000FEF0FE00F80000000000000000008F
:100D8000000013032F004F000000000000000000CF
:100D900000000000FE000000000000000000000055
:100DA000000000004F0000000000000000000000F4
:100DB0000000F8F0FE00FE0000000000000000004F
:100DC00000004F032F00130000000000000000008F
:100DD000F8F0FCA8FCFCFE00FE0000000000000093
:100DE0004F074F0227012700130000000000F848BA
:100DF000FC48FC9CFE9CFE48FC48FC00F8003F01BF
:100E00007F017F02FF02FF017F017F003F00F88822
:100E1000FC88FC1CFE1CFE88FC88FC00F8003F02DD
:100E20007F027F05FF05FF027F027F003F00F80879
:100E3000FC08FC1CFE1CFE08FC08FC00F8003F053A
:100E40007F057F0AFF0AFF057F057F003F00F80846
:100E5000FC08FC1CFE1CFE08FC08FC00F8003F0A15
:100E60007F0A7F14FF14FF0A7F0A7F003F00F80803
:100E7000FC08FC1CFE1CFE08FC08FC00F8003F14EB
:100E80007F147F28FF28FF147F147F003F00F8089D
:100E9000FC08FC1CFE1CFE08FC08FC00F8003F28B7
:100EA0007F287F50FF50FF287F287F003F00785821
:100EB000FC5CFEBEFFBEFF5CFE58FC0078003C30D0
:100EC0007E307E60FF60FF307E307E003C007858D0
:100ED000FC5CFEBEFFBEFF5CFE58FC0078003C30B0
:100EE0007E307E60FF60FF307E307E003C007858B0
:100EF000FC5CFEBEFFBEFF5CFE58FC0078003C3090
:100F00007E307E60FF60FF307E307E003C007840A7
:100F1000FC40FE80FF80FF40FE40FC0078003C303B
:100F20007E307E60FF60FF307E307E003C00784087
:100F3000FC40FE80FF80FF40FE40FC0078003C301B
:100F40007E307E60FF60FF307E307E003C00784067
:100F5000FC40FE80FF80FF40FE40FC0078003C30FB
:100F60007E307E60FF60FF307E307E003C008080FF
:100F7000C0C0E0E0F0E0F0C0E080C00080003F3D95
:100F80007F3D7F7BFF7BFF3D7F3D7F003F0080807B
:100F9000C0C0E0E0F0E0F0C0E080C00080003F3D75
:100FA0007F3D7F7BFF7BFF3D7F3D7F003F0080805B
:100FB000C0C0E0E0F0E0F0C0E080C00080003F3D55
:100FC0007F3D7F7BFF7BFF3D7F3D7F003F008000BB
:100FD000C000E000F000F000E000C00080003F0230
:100FE0007F027F04FF04FF027F027F003F0080003A
:100FF000C000E000F000F000E000C00080003F0210
:101000007F027F04FF04FF027F027F003F00800019
:10101000C000E000F000F000E000C00080003F02EF
:101020007F027F04FF04FF027F027F003F16100053
:10103000000000000000000000000080808080C0F0
:10104000C0C0C0E0E0E0E0C0C0C0C08080808000E0
:101050000000000000000000000000040404040E72
:101060000E0E0E1F1F1F1F3F3F3F3F7F7F7F7FFFE3
:10107000FFFFFF7F7F7F7F3F3F3F3F1F1F1F1F0EF1
:101080000E0E0E040404040000000000F0E0F01056
:10109000F8D0F838FCB8FC7CFE7CFEFEFFFEFF7C3E
:1010A000FE7CFEB8FCB8FC50F850F8A0F000F00050
:1010B0000000000000000000070307000F070F00FA
:1010C0001F0F1F003F1F3F007F2A7F153F153F0A5C
:1010D0001F0A1F050F050F0207000700000000F0A0
:1010E000F008F8D0F0A0E040C0FEFE01FFC6FE38D8
:1010F000F806FEF9FFC6FE38F870F08CFC02FEFC24
:10110000FCC0C030F0CCFC02FEFCFC040407070865
:101110000F0F0F1E1F1D1F203F3F3F7C7F437FFF90
:10112000FF8FFF717F7E7F3F3F203F1B1F1C1F0FE4
:101130000F080F0707040400000000000080804033
:10114000C020E010F008F804FC02FEABFF55FF02DF
:10115000FE04FC08F810F020E040C0808000000091
:1011600000000004040606090F080F101F101F20BE
:101170003F203F407F407FAAFFD5FF407F407F2038
:101180003F203F101F101F080F090F060604040020
:10119000000000000000000080008000C080C0004F
:1011A000E0C0E000E0E0E000E0C0E000C080C0009F
:1011B0008000800000000000000000000E040E000F
:1011C0001F0E1F003F1F3F207F2F7F70FF77FFF80C
:1011D000FFFBFF70FF77FF207F2F7F003F1F3F0047
:1011E0001F0E1F000E040E00000000000000000093
:1011F0000000008080808040C040C0A0E0A0E040AF
:10120000C040C0808080800000000000000000001E
:10121000000000040404040A0E0A0E151F151F2EF8
:101220003F2E3F5B7F5B7FB5FFB5FF5B7F5B7F2E14
:101230003F2E3F151F151F0A0E0A0E04040404005A
:10124000000000000000000000000080808080C0DE
:10125000C0C0C060E060E0C0C0C0C08080808000CE
:101260000000000000000000000000040404040E60
:101270000E0E0E1B1F1B1F353F353F6E7F6E7FDB33
:10128000FFDBFF6E7F6E7F353F353F1B1F1B1F0E41
:101290000E0E0E0404040400000000000000000014
:1012A0000000000080008080C080C0C0E0C0E080FE
:1012B000C080C0008000800000000000000000002E
:1012C00000000000040004040E040E0E1F0E1F1B7D
:1012D0003F1B3F357F357F6EFF6EFF357F357F1BB0
:1012E0003F1B3F0E1F0E1F040E040E0004000401DE
:1012F00008000102030405060708090A0B0C0D0E7D
:101300000F101112131415161718191A1B1C1D1E75
:101310001F0A282040402090CCE2FA797D17170858
:101320000A0505020201015050E8E8F4F4FAFA7DDA
:10133000BDF0F8F3F307037B7CFE7F0F0301060289
:1013400003000000007D79FAE2CC902040402001AB
:1013500001020205050A081717BD7DFAFAF4F4E840
:10136000E850507FFE7C7B0307F3F3F8F0000000A9
:101370000003020601030F17100000000000000028
:101380008080C0C0E0C0E0E0F0F0F870F878FCB811
:10139000FCDCFEDCFEEEFFECFE74FE70FC78FCF084
:1013A000F8F0F8E0F000E000F8F8FEFEFFFFFF1FA5
:1013B000FFE7FFFBFF7DFF1EFF0FFF07FF03FF039C
:1013C000FF01FFFEFFFEFFFFFFFFFFFFFF00FFFF2C
:1013D000FFFFFF00FF00E0E0F0F0F8F0F878FC70AD
:1013E000FC74FEECFEEEFFDCFEDCFEB8FC78FC706C
:1013F000F8F0F8E0F0C0E0C0E080C000800000003D
:1014000000000000FFFFFFFFFF00FFFFFFFFFFFFE7
:10141000FFFEFFFEFF01FF03FF03FF07FF0FFF1E9D
:10142000FF7DFFFBFFE7FF1FFFFFFFFEFFF8FE0052
:10143000F8000000000000008080C0C0E0C0E0E0D4
:10144000F0F0F870F878FCB8FCDCFEDCFEEEFFECA7
:10145000FE74FE70FC78FCF0F8F0F8E0F000E000BC
:10146000F8F8FEFEFFFFFF1FFFE7FFFBFF7DFF1EFB
:101470007F0F1F070F0307030701FFFEFFFEFFFF9C
:10148000FFFFFFFFFF00FFFFFFFFFF00FF00E0E0A7
:10149000F0F0F8F0F878FC70FC74FEECFEEEFFDC87
:1014A000FEDCFEB8FC78FC70F8F0F8E0F0C0E0C0BC
:1014B000E080C0008000000000000000FFFFFFFF90
:1014C000FF00FFFFFFFFFFFFFFFEFFFEFF01FF0327
:1014D000070307070F0F1F1E3F7DFFFBFFE7FF1FDF
:1014E000FFFFFFFEFFF8FE00F80F2000FF00FF00E7
:1014F000FF00FF00FF00FFFFFF8FFF4FFF1FFFFFF9
:10150000FF00FFFFFFFFFF00FF00FF00FF00FF00E5
:10151000FF00FF00FFFFFFFFFFFFFFFFFFFFFF00D8
:10152000FFFFFFFFFF00FF80FFC0FFC0FFE0FFE005
:10153000FFF0FFF7FFEFFFEFFF5FFF5FFF007F3F71
:101540007F1F3F003F0F1F070F070F030703070110
:101550000301030001000100000000000000000082
:1015600000000000FFFFFFFFFF00FFFFFF1FFF4F16
:10157000FF8FFFFFFF00FF00FF00FF00FF00FF00E5
:10158000FF00FFFFFFFFFF00FFFFFFFFFFFFFFFF69
:10159000FFFFFF00FF00FF00FF00FF00FF00FF0054
:1015A0003F1F3F3F7F007F5FFF5FFFEFFFEFFFF7D2
:1015B000FFF0FFE0FFE0FFC0FFC0FF80FF00000082
:1015C0000000000000000000000001000101030114
:1015D0000303070307070F070F0F1F00000000009A
:1015E000000000000000FFFFFF8FFF4FFF1FFFFF05
:1015F000FF00FFFFFFFFFF00FF00000000000000F2
:1016000000000000FFFFFFFFFFFFFFFFFFFFFF00E5
:10161000FFFFFFFFFF00FF80C0C0E0C0E0E0F0E0A0
:10162000F0F0FFF7FFEFFFEFFF5FFF5FFF007F3F8F
:101630007F1F3F003F0F1F070F070F03070307011F
:101640000301030001000100000000000000000091
:1016500000000000FFFFFFFFFF00FFFFFF1FFF4F25
:10166000FF8FFFFFFF00FF000000000000000000F0
:101670000000FFFFFFFFFF00FFFFFFFFFFFFFFFF77
:10168000FFFFFF00FF00000000000000000000005E
:101690003F1F3F3F7F007F5FFF5FFFEFFFEFFFF7E1
:1016A000FFF0FFE0F0E0F0C0E0C0E080C00000002C
:1016B0000000000000000000000001000101030123
:1016C0000303070307070F070F0F1F082000000081
:1016D000000000000000FFFFFFFFFF00FF00000010
:1016E000000000000000FFFFFFFFFF00FF00000000
:1016F000000000000000FFFFFFFFFF00FF000000F0
:101700000000000000007F1F3F1F3F001F00FFFF81
:10171000FFFFFF00FF000000000000000000FFFFCF
:10172000FFFFFF00FF000000000000000000FFFFBF
:10173000FFFFFF00FF0000000000000000001F1F6F
:101740003F1F3F003F000000000000000000FFFFBF
:10175000FFFFFFFFFF00FFFFFFFFFF00FF00FFFF96
:10176000FFFFFFFFFF00FFFFFFFFFF00FF00FFFF86
:10177000FFFFFFFFFF00FFFFFFFFFF00FF00070766
:101780000F070F0F1F003F1F3F1F3F001F00FFFFEE
:10179000FFFFFF00FFFFFFFFFFFFFF00FF00FFFF56
:1017A000FFFFFF00FFFFFFFFFFFFFF00FF00FFFF46
:1017B000FFFFFF00FFFFFFFFFFFFFF00FF001F1FF6
:1017C0003F1F3F003F0F1F070F070F00070A208032
:1017D00080000050500000AAAA0000000000000095
:1017E000000000AAAA000055550000AAAA000000A7
:1017F00000000000100000AAAA000055550000AA31
:10180000AA000000000000000000000A0A00000515
:1018100005000002020000000000000000000000BF
:10182000000000000000000000AAAA0000505000C4
:1018300000808000000010000000000000AAAA0044
:101840000055550000AAAA0000000000000000009A
:1018500000AAAA000055550000AAAA000000000036
:10186000000000000002020000050500000A0A0056
:101870000000A000000054000000AA000000550075
:101880000000AA000000AA00000055000000AA0005
:10189000000055001000AA000000AA00000055003A
:1018A0000000AA00000055000000AA000000AA00E5
:1018B0000000550000002A000000150000000A008A
:1018C000AA00000055000000AA000000540000001B
:1018D000A0000000AA00100055000000AA000000AF
:1018E00055000000AA000000AA00000055000000FA
:1018F000AA00000055000000AA0000000A00000035
:10190000150000002A00000055000000AA0000BADF
:101910001BB71B591B561B531B501B4D1B4A1B2D22
:101920001BBD1B97198318761869180A1B5C184F82
:10193000184218E71A351828181B18C41A0E18016F
:1019400018F417A11A981903081F111F121F101D50
:10195000151711151F07041F17151D1F151D010150
:101960001F1F151F17151F03087F417F427F4079F6
:10197000494F41497F0F087F4F49797F49790101DC
:101980007F7F497F4F497F0508FEFFFFFFFEFEBFB7
:10199000BFBFFEFEAFAFAFFEFEABABABFE07081F97
:1019A00011151511111F07081F19191F1F1F1F05DA
:1019B000080E1F1D190E020800FFFFFF5D0880BE04
:1019C000A2A280BEA2A2BE80BE84C990BE80BE8AF2
:1019D000EAE2F8FFFFFF80AEAAAABA80BEA2A29CEC
:1019E00080BE8AEAE288A29494A288FFFFFF88A2C0
:1019F000BEA280BE84C990BE80BE8AEAE280BEA23A
:101A0000A2BE80FFFFFF80BE8AEAEE80BEA0AFAF1D
:101A100080BE9292BE80EE88B88EE0FFFF80BEA2AC
:101A2000AA94C09EA0A09EC082BE82F882BE82F808
:101A300080BEA2A2BE80BE84C990BE80FFFF80AEE1
:101A4000AAAABA80BEA2A2A280BE8888BE80BEAA70
:101A5000AAA280BE84E984BE80BEAAAAA280FFFF9B
:101A6000FFFFFF80B8B0AA868E80FFFFFFFFFF80D8
:101A70008E86AAB0B880FFFFFFFFFFFFFFFFFFFFCA
:101A8000FFFFFFFFFFFF80AEAAAABA80BEA2A2BEE0
:101A900080BEA0A0BE80BE84C990BE80BEA2A29C13
:101AA000C1FFFFFFFFFF80BEA2A2BE80BE8AEAE2A6
:101AB00080BE8AEAE2F8FFFFFFFFFF80BEA2A2BE5F
:101AC00080BE84C990BE80FFFFFFFFFFFFFFFFFFC6
:101AD000FFFFFFFFFF80400000000000000000004B
:101AE000000000000000000000000000000000C036
:101AF000603058CC647266ECD8B060C0E038C8EC96
:101B000074747474747474747474E4ECECE8E8D8E9
:101B1000D090B0206040C080800000008020202055
:101B20002020202020202020202020202020800075
:101B300000000000000000000000000000000000A5
:101B40000000000000000000000000000000000095
:101B50000000000000000000000000000000000085
:101B60000000000000000000000080C0406020A0D5
:101B7000B19B9E8C2E73F87F3F9FDE04F00EE3FC3A
:101B80003E1F0F2F2F2F5F3FFFFEFEFE7E7C3DBDD1
:101B9000B97BFBF7F7E6EE0CFD3B82F6ECE8DAB238
:101BA00062CA82028282828282AA82AA00002A807B
:101BB0000000000000000000000000A00808888865
:101BC000888888888888888888888888080808A0FD
:101BD00000000000000000000080E030C8ECE4F4E9
:101BE000F6767676746448D8D8ECE7F0FA7B3B93C7
:101BF000C79FBF3F4FE03E03017C83387F70E7EF14
:101C0000EFEFCFDEDEDEDEDE9FBFBFBCBC7C7C78CC
:101C1000787370FF7F1FC3388FE0FFFFFFFFFFFF68
:101C2000FF7C81FE38000000000000802008A8AA88
:101C300028282828A828282828A8088A280A08A0A8
:101C40008A8080808080808080AA8080AA0000AA0C
:101C50000000000000000080807FC01E7FFFFFE1C9
:101C6000CC9EB3A1A1B192DCC1FFFF83FCB8E79F7A
:101C70007FFFFFFFFEFDFAFA3A89E5E6E8CEDEDEF9
:101C8000DEDDBDBDBD797B7BFBF3F77767EFEFEF63
:101C9000CF5F5E5E5E4F617C7F477379FDFDFDFD2A
:101CA0007D787B7A7A7A7274E4C890B2C0888A2090
:101CB000202020222220202802A02802000000024A
:101CC00028A080000000000000000000000000AA22
:101CD000008080808080808080808103F2FE05F516
:101CE000F7FBFBFBFBFDFDFDCDCEE6666666666899
:101CF0000FECF5FBFBFDFDFDEDCDCD8D8B37C7FB6F
:101D0000FDFDFEFEFEFF03E7E6CE9E9DC23EDAE548
:101D1000F6F7F7F3F37373FFFFFFFFFFFEFEF90023
:101D2000FFFFFFFFFFFFFF0FE626C6FEFEFEFEFDE4
:101D3000FAF408D0E8F4FAFAFAFAFA1AFAFAF4E835
:101D4000907088F6F4F4E8E8E8E8D0A0A0A0A0AA93
:101D5000A04080008080802020202020231FFEE1E2
:101D60001FFFFFFFFFFFFFFFFFE01C6642424242F2
:101D7000A7AC3BD3C7CFCFDFFFFFFF7F7FFE191795
:101D80001F1FDFDFBF3FF0B7FB1D1E1E11D05FDF3F
:101D9000BF7FFFBFFF3C3C1FDFDFBF3FFFBFFD102A
:101DA0001F1F1FFFFF1F1F1C1BD8DFBF3FFF9FCF41
:101DB000CF63F0CF3F7FFFFFFFFFC7C6C7E777774F
:101DC00003F0FFFFFFFFFFFFFF07F31909191313CC
:101DD00013180F20202020A2A2A2A2A2A2A2A18FAB
:101DE0003EF1CFCFCFCF4FC7A7A7A6A7B3B3B3B30B
:101DF000B3B9A9ACA4A4A4A4A4A4A4A6A2FF80805F
:101E00008080BFB2DBCFF0BFFF80808080F7CE8CB8
:101E1000B7F8AFBFF0C0C080BFB2DBCFF0AFFF807C
:101E2000808080FFFF80808080BFB4DBCFF0BFA2C6
:101E3000A2A2A2A3A3A2A4A4A4A4A4A4A4A4A2AE64
:101E4000B0B3B3A7A7A7A727B89FA7A0A2A2A2A293
:101E5000A2A2A2A2A2A2A2AAAAAAAAAAAAAAAAAA1A
:101E6000AAAAAAAAA8873CFF000000000000000060
:101E70000000000000000000000000000000000062
:101E80000000000000000000000000000000000052
:101E90000000000000000000000000000000000042
:101EA0000000000000000000000000000000000032
:101EB0000000000000000000000000000000000022
:101EC00000000000000FA0AAAAAAAAAAAAAAAAAA69
:101ED000AAAAAAAAAAAAAA1E1800C038C6E9ADE1F1
:101EE000D1DDDDE1FDFDFDFDFDFDFDFDFDFDFDF5B2
:101EF000BDF9C638C215020041060808C84848D0D6
:101F000000F81FDF5F5F9F3FFF18C05048080808B8
:101F10000866610008205088502003813943988A60
:101F2000888B88898A888A889B423A0340123810B5
:101F30000002006018000000000000000000000027
:101F4000000000000000000000000000007F415D74
:101F500055577F416D6D517F4155555D7F416D6D89
:101F6000417F057D417D057F4155555D7F415D5D2B
:101F7000633E007F415D55497F117747711F000027
:101F80000000000000000000000000000000000051
:101F900000000000000000000000007F416D6D4166
:101FA0007F007F4175151D7F417F515555457F410C
:101FB0007777417F007F415D55577F416D6D417F50
:101FC000415F50507F415F50507F4155555D7F418B
:101FD0005D5D633E007F415F685F417F416D6D41A4
:101FE0007F417B77417F415D5D637F416D6D417FC7
:101FF0000000000000007F416D6D417F417B774113
:102000007F415D5D633E007F417D137D417F416D7A
:102010006D417F417B77417F117747711F007F4181
:102020007D137D417F416D6D417F417B77417F1104
:102030007747711F007F415D5D417F057D417D05D3
:102040007F417777417F4155555D7F416D6D517F70
:10205000515555457F0308007F3E7F007FFBFF05FC
:1020600001020A160E804010202080401018000047
:10207000050010001B00210026006C0074007D008C
:102080008C00A700AC00B100C000CF00F000F6004B
:10209000FC000B0111015A01620166016C0106127C
:1020A000001640009D249F41FA0DA741F419A31486
:1020B000A3FE41F40DA30DA314A319A3FEFD020179
:1020C000FC02FEFC01FC02FEFC02FD0103FC044CD0
:1020D000FEFC044CFCFC044DFC04FD0103FC044C20
:1020E000FEFC044CFCFC044C03FC04FD01034C0707
:1020F000FC044C05FC044C03FD0104FD01034C07EA
:10210000FC044C05FC044C03FC044DFC04FE403074
:10211000FD0203FD02019E07130017FD01059F311B
:10212000A72FA731A72CA728A72CA725AFFE31A73B
:1021300033A734A733A734A731A733A731A733A7D1
:102140002FA731A72FA731A7FE2DA731AFFE33A7A9
:1021500034AFFE38A736A738A734A72FA734A72C4B
:10216000AFFE31A72FA731A72CA728A32CA725B3F3
:10217000FE31A733A734A733A334A734A731A33341
:10218000A731A333A733A72FA331A72FA331A7319B
:10219000A3FEA32DA331AFFEA333A334AFFE38A714
:1021A00036A738A734A72FA334A72CB3FE4000DFEF
:1021B000DFDFCF403041E8FD0108FC09FC0AFD01EA
:1021C00008FC09FC0BFD010C4C07FC09FC0A4DFD49
:1021D000010C4C07FC09FC0B4DFD010DFC0EFC0F26
:1021E000FD010DFC0EFC10FD01114C07FC0EFC0F57
:1021F0004DFD01114C07FC0EFC104D9F4904402081
:1022000041FAAFFEFD0314FEFD0215FD0214FC149D
:10221000FD0F15FC14FD0F159FD5F08D14A1C8817D
:10222000CFD9F1AF200004000003000B001C000117
:1022300000000040009F9DA04030FD07029FFC036E
:102240004CFBFC034CFDFC034CFFFC034C00FE412B
:10225000FC25AF29AF2CAFFEAB176E170E202E1743
:10226000931E6C1E0C22F221FA1EE021771D6521BF
:10227000891D080B0002020200000904000001028F
:1022800002000005240010010524010101042402BC
:10229000060524060001070581031000400904011A
:1022A00000020A0000000705020240000007058343
:1022B000024000000403090412010002EF02014081
:1022C0004123368000010102030141726475696E89
:1022D0006F204C4C430041726475696E6F204C65F1
:1022E0006F6E6172646F0000132D11241FBECFEF5B
:1022F000DAE0DEBFCDBF11E0A0E0B1E0E2E8FEE54C
:1023000002C005900D92A033B107D9F728E0A0E3F1
:10231000B1E001C01D92AC34B207E1F711E1C5E7AD
:10232000D1E104C02197FE010E94322FC437D107AA
:10233000C9F70E94392D0C943F2F0C940000813076
:10234000A9F028F0823019F1833059F1089586E020
:10235000689FF0011124E45EF74F82819381019719
:10236000938382838081918102970EC086E0689F6B
:10237000F0011124E45EF74F8281938101979383EA
:10238000828380819181029691838083089586E083
:10239000689FF0011124E45EF74F828193810196DA
:1023A000EECF86E0689FF0011124E45EF74F828152
:1023B00093810196D5CFFC018091F405882311F11A
:1023C0003FB7F89482E08093E9002091F200822FD9
:1023D00090E01816190614F481E090E0882339F093
:1023E000289844E64093F3054091F100408322236E
:1023F00039F02091F200211103C02BE62093E80070
:102400003FBF08958FEF9FEF08952FB7F89483E0B3
:102410008093E9009091E800892F807295FF04C0B5
:102420009091F20080E4891B2FBF08958091EB0505
:1024300081110DC082E08093E70584E08093E80578
:102440001092EA051092E90581E08093EB0587EE92
:1024500095E00895CF93DF931F92CDB7DEB76983E0
:10246000DC01ED91FC910280F381E02D41E050E030
:10247000BE016F5F7F4F09950F90DF91CF91089557
:1024800083E08093E9008091F200882319F08AE3C9
:102490008093E80008950E94051290E00895CF937C
:1024A000DF931F92CDB7DEB7FC018485958597FD3C
:1024B00008C02FEF3FEF358724870F90DF91CF9132
:1024C0000895CE0101960E94DB11019719F48981CC
:1024D00090E0F3CF8FEF9FEFF0CF0F931F93CF9349
:1024E000DF931F92CDB7DEB78C01FC018485958503
:1024F00097FF0BC0CE0101960E94DB11019771F48A
:10250000898190E0F80195878487F8018485958515
:102510000F90DF91CF911F910F9108958FEF9FEF53
:10252000F1CFFC018485958597FD0BC09FB7F8948A
:1025300082E08093E9008091F2009FBF90E00196D5
:1025400008959FB7F89482E08093E9008091F200AB
:102550009FBF90E008954091E1055091E2052091E0
:10256000DF053091E00542175307B4F49091E8007D
:102570009570E1F39091E80092FD19C08093F1000D
:102580008091E1059091E20501968F739927892B3F
:1025900019F48EEF8093E8008091E1059091E205B7
:1025A00001969093E2058093E10581E0089580E033
:1025B0000895EF92FF920F931F93CF93DF93F82E1E
:1025C000192FE62E042F81E0860F880F0E94AB1290
:1025D00083E00E94AB12CF2DD12FEC0EFD2EF11C0B
:1025E000CE15DF05B9F007FF13C0FE0184910E94EC
:1025F000AB12182F80E00E94AB128123219681112B
:10260000EFCFDF91CF911F910F91FF90EF90089541
:102610008881EDCF81E0F5CFDF92EF92FF920F93AB
:102620001F93CF93DF93D82E8A01EB017B01E40E39
:10263000F51ECE15DF0559F0D7FE12C0FE018491BC
:102640000E94AB1221968111F4CF0FEF1FEFC8014A
:10265000DF91CF911F910F91FF90EF90DF90089540
:102660008881EECF0F931F93CF93DF931F92CDB747
:10267000DEB782E0898342E450E062E772E280E8FC
:102680000E940C130E941612DC0112960D911C91EF
:102690000115110589F0D801ED91FC910280F381BB
:1026A000E02DBE016F5F7F4FC801099597FD04C003
:1026B000F80100851185ECCF89810F90DF91CF91D2
:1026C0001F910F910895615030F02091F100FC01AD
:1026D00020830196F8CF289884E68093F305089527
:1026E0003FB7F8948091DB059091DC05A091DD0562
:1026F000B091DE0526B5A89B05C02F3F19F00196C5
:10270000A11DB11D3FBFBA2FA92F982F8827BC014B
:10271000CD01620F711D811D911D42E0660F771F73
:10272000881F991F4A95D1F708958F929F92AF9273
:10273000BF92CF92DF92EF92FF926B017C010E94D9
:1027400070134B015C01C114D104E104F104B9F030
:102750000E947013681979098A099B09683E7340C1
:102760008105910580F321E0C21AD108E108F10842
:1027700088EE880E83E0981EA11CB11CE4CFFF9068
:10278000EF90DF90CF90BF90AF909F908F90089583
:1027900065E070E080E090E00C9495138F929F923A
:1027A000AF92BF92CF92DF92EF92FF920F931F935F
:1027B000CF93DF936C017B018A0180910F01882305
:1027C00009F45CC08091F405882309F457C0809116
:1027D000E60580FF05C08091E00082608093E00004
:1027E000E801B12C8AEFA82E93E0892E2AE3922EDD
:1027F000209711F4BB20D9F10E94051281110AC063
:10280000AA94AA20D9F161E070E080E090E00E94F3
:102810009513EECF8C171D0611F00CF08C2F9FB77F
:10282000F8948092E9002091E80025FD02C09FBF46
:10283000DFCF282F30E0C21BD30BF701815020F0EF
:1028400041914093F100FACFE20EF31EBB2021F03C
:102850009092E800B12CEBCF8091E80085FDE7CFA6
:102860009092E800BB24B394209709F3F3CF5D98CE
:1028700084E68093E505101611063CF081E090E0B7
:10288000F6019383828310E000E0C801DF91CF91CD
:102890001F910F91FF90EF90DF90CF90BF90AF907E
:1028A0009F908F9008954F925F926F927F928F9238
:1028B0009F92AF92BF92CF92DF92EF92FF920F93CF
:1028C0001F93CF93DF934C015901FC2DC02FD0E013
:1028D000CE01880D991D181619060CF06CC020E861
:1028E000821691040CF067C09B012E0D311D12164B
:1028F00013060CF060C0603471050CF05CC041152B
:10290000510509F458C0E62FE770FE2EDB0177FD74
:10291000179633E0B595A7953A95E1F73A2F77FFEB
:1029200004C0FF2011F03FEF3A0F662777276819A0
:10293000790997FC02C070E060E0803891050CF4E2
:102940004BC090E89819961BA32F032E000CBB0BCD
:102950001A2F10953F3F0CF010E021E08E2D87706C
:1029600009F420E0E694E694E694E20EAE0DB11D83
:1029700019971CF028E0E22EE31AE11A310F20E843
:102980003203D0011124A80DB91DA60FB71F019F56
:10299000600D711D1124460F571F0F2D0F2C000CB9
:1029A000110BF33009F41CC1C8F4F13009F4D0C0A4
:1029B000F23009F47CC0DF91CF911F910F91FF900D
:1029C000EF90DF90CF90BF90AF909F908F907F90CF
:1029D0006F905F904F900895902FB5CFFA3FB1F16F
:1029E000232F2E0DFB3F39F7321729F3BD016C520F
:1029F0007E4FD12CC12CC91608F0A4C0FA01EC0DF1
:102A0000FD1DE491F0E04F01002E02C0880C991CDE
:102A10000A94E2F737FD06C0FB018081E82CE094C0
:102A20008E218083FF2061F0373054F45B01F0E8A1
:102A3000AF0EB11CE92CE094F50180818E218083DA
:102A4000FFEFCF1ADF0A6F5F7F4FD5CF232F2E0DF9
:102A5000321709F4B0CFBD016C527E4FD12CC12C7E
:102A6000C91608F069C0FA01EC0DFD1DE491F0E013
:102A70004F01002E02C0880C991C0A94E2F737FD22
:102A800004C0FB01808188298083FF2051F037300A
:102A900044F45B01F0E8AF0EB11CF5018081892997
:102AA0008083FFEFCF1ADF0A6F5F7F4FD9CF6FEFC1
:102AB00070E00F2C02C0660F771F0A94E2F7609552
:102AC0007095772E232F2E0D321709F474CFFD0148
:102AD000EC52FE4F6F01B12CA12CA91638F5FA016A
:102AE000EA0DFB1DE491F0E02F01002E02C0440C22
:102AF000551C0A94E2F737FD05C0F6018081862354
:102B000084298083FF2059F037304CF44601F0E8E7
:102B10008F0E911CF4018081872185298083FFEF2E
:102B2000AF1ABF0A8FEFC81AD80AD7CF3F5F4C0F32
:102B30005D1FA058BF4FC8CF3F5F4C0F5D1FA0580F
:102B4000BF4F86CF3F5F4C0F5D1FA058BF4F4CCF8C
:102B50006A0D7B1D232F2E0D321709F42CCFFD019A
:102B6000EC52FE4F6F01B12CA12CA91688F5FB0188
:102B7000EA0DFB1D8490912C002E02C0880C991C3C
:102B80000A94E2F780949094FA01EA0DFB1D649098
:102B9000712C002E02C0660C771C0A94E2F737FDF8
:102BA00005C0F6018081882186298083FF2049F0B5
:102BB00037303CF4F601E058FF4F808189218729A6
:102BC0008083FFEFAF1ABF0A8FEFC81AD80ACDCFA4
:102BD0003F5F4C0F5D1F6C0F7D1FA058BF4FBCCFD8
:102BE000C92ED12CFA01E60FF71FAC52BE4F00E8F8
:102BF00010E00C191D09CC19DD09BE01660F771F05
:102C000041E050E06A010F2C01C0CC0C0A94EAF7B5
:102C1000592F2E2D792ECF93DF93ED01EF96EF965E
:102C200022968590A590FF2059F08C9C4001AC9C89
:102C3000500137302CF4E880B094EB20E928E99279
:102C400033233AF0EC90A094EA20E828ED920C941B
:102C50002A1611965A9529F72A9551F0572D339532
:102C60001124E60FF11DA00FB11DC00FD11DD9CF4A
:102C7000DF91CF9111249FCECF92EF920F93FA0163
:102C800004913196E4904E5F5F4F2223F9F0A1E06A
:102C9000B0E03E2D377011F4B0E0A0E0EE2DE695E7
:102CA000E695E695EA0FFB2FF11D0E9FD0010F9FD1
:102CB000B00D112430E0220F331FA29FF001A39F1B
:102CC000F00DB29FF00D11244E0F5F1F23E0C22EB6
:102CD00030E020E00E9453140F91EF90CF900895C0
:102CE000CF92EF920F93CF93DF93DC01FA0104911F
:102CF0003196E4904E5F5F4F2223D1F0C1E0D0E0E7
:102D00009E2D977011F4D0E0C0E0EE2DE695E6958B
:102D1000E695EC0FFD2FF11D0E9FE0010F9FD00DEA
:102D200011242C9FC0012D9F900D1124480F591F75
:102D30008AEFC82E30E020E0CD010E945314DF91CD
:102D4000CF910F91EF90CF9008958FB18095807FB4
:102D5000669B88601C9B846008951092CF013E980A
:102D60003F9808953E9A3F9A81E08093CF0108955D
:102D70009091D405982329F49091D505982381E06A
:102D800009F480E0089596E0899FF0011124E45E43
:102D9000F74F9481292F269526952695660F615029
:102DA000260F237088E0289F90011124977E292BFD
:102DB00024830895E091C00686E0E89FF001112485
:102DC000E050FA4F81818F7D81830895A091CD01DC
:102DD000B091CE01AA0FBB1F2A9FF0012B9FF00DCF
:102DE0001124660F771F57FD2CC0443051054CF459
:102DF00042305105E9F04330510519F14130510598
:102E000051F0680F791FE75AFF4F81E0E617F70787
:102E100074F480E00CC09C01261B370BB9012FE035
:102E200030E02E1B3F0B81E06217730794F3089587
:102E3000EA54FF4F680F791F81E0E617F707BCF3EC
:102E4000E8CF9C01261B370BB9012FEA3FEF2E1B61
:102E50003F0B81E02617370754F7DBCF20E043E331
:102E60005FE164E170E080E190E00E9470168CE028
:102E70000E94B81681111092030108958091D0012B
:102E800080FD0AC08091C2019091C3019F5F909321
:102E9000C30181508093C2018091C301803218F038
:102EA00084E18093C3018091C201853118F480E2EE
:102EB0008093C201089520E045ED5AE170E060E0A2
:102EC00090E080E00E947016209103014CEB59E1E4
:102ED00068E370E081E190E00C947016CF93DF938B
:102EE000C091C6018CE0C89FC02D1124CF5B0E9409
:102EF0005B170E943E17D0E08091C30120E045E5BA
:102F000050E268E370E08C0F9D2F911D0E943C16EB
:102F10008091C20120E045E550E268E370E08C0F4B
:102F20009D2F911D0E943C1680E40E94B8168823B4
:102F300019F084E08093C60180E20E94B8168111E6
:102F40001092C6018CE00E94B81681111092030104
:102F5000DF91CF9108950F931F93CF930E945B173A
:102F60000E943E17C091010188E1C89F8001112491
:102F70008091C30120E045E550E268E370E0800FF6
:102F8000912F911D0E943C168091C20120E045E5E1
:102F900050E268E370E0800F912F911D0E943C1673
:102FA00080E40E94B816882329F0C33018F4CF5F5C
:102FB000C093010180E20E94B816882339F0809105
:102FC0000101882319F08150809301018CE00E9457
:102FD000B816882329F0809101018F5F8093030147
:102FE000CF911F910F9108956091CD017091CE0105
:102FF0006A5C7F4F23E04BEC56E18DE190E00C944E
:103000003C166091CD017091CE016A5C7F4F23E048
:1030100049EE54E18EE090E00C943C166091CD01B5
:103020007091CE016A5D7F4F23E047E753E18EE068
:1030300090E00C943C166091CD017091CE016A5CD9
:103040007F4F22E04BEC56E181E590E00C943C167A
:103050006091CD017091CE016A5C7F4F22E049EE14
:1030600054E189E590E00C943C166091CD0170919B
:10307000CE016A5D7F4F22E047E753E181E590E0B2
:103080000C943C166091CD017091CE016B5E7F4F28
:1030900021E04BEC56E18FE590E00C943C166091FA
:1030A000CD017091CE016B5E7F4F21E049EE54E17E
:1030B00080E590E00C943C166091CD017091CE01BA
:1030C0006B5F7F4F21E047E753E180E590E00C9490
:1030D0003C166091CD017091CE016B5E7F4F20E078
:1030E0004BEC56E180E190E00C943C166091CD01F0
:1030F0007091CE016B5E7F4F20E049EE54E188E194
:1031000090E00C943C166091CD017091CE016B5F04
:103110007F4F20E047E753E180E190E00C943C16BC
:103120008F929F92AF92BF92CF92DF92EF92FF92D7
:103130000F931F93CF93DF930EEF1FEFD0E0C0E00C
:10314000E090CD01F090CE01B701675E7F4F6C0F2C
:103150007D1F20E041E153E1C8010E947016B701D4
:103160006C1B7D0B21E041E153E1C801CE960E942A
:1031700070162597065F1F4FC23E8FEFD80701F7E5
:103180008AE4C82E81E0D82EE601AA24A394B12CAB
:1031900010E000E096E2E90EF11C28814FEE52E1CA
:1031A0004701811A9108B401CE018A5491400E94CE
:1031B000701629814FEE52E1B401C5010E947016CC
:1031C0000D3150F51F5F0F5F2296E2E0AE0EB11C8D
:1031D0000B3319F78091D0019091D1018770992715
:1031E000892B69F480914A01F601918191936F01D5
:1031F000F1ECCF16F1E0DF06B9F78093C101DF9162
:10320000CF911F910F91FF90EF90DF90CF90BF90E3
:10321000AF909F908F9008951150D5CF9F92AF920D
:10322000BF92CF92DF92EF92FF920F931F93CF93B3
:10323000DF9300E310E0D0E0C0E0A12C83E0982E03
:103240007801D12CC12CB12C4091CD015091CE01EF
:1032500082E0B81242C0A81240C09091C00680918E
:10326000C70198133AC0809149012091D001309153
:10327000D10127703327232B31F48F5F692D0E94F2
:10328000FE2E90934901209149012B5FBA016D5C9C
:103290007F4F4DE250E180E390E00E943C16B394F2
:1032A00086E0C80ED11C8CE0E81AF10885E0B8125F
:1032B000CBCFA3942696045F1F4FCE31D10509F0E2
:1032C000BFCFDF91CF911F910F91FF90EF90DF90D3
:1032D000CF90BF90AF909F900895BA01655E7F4FE9
:1032E0006C0D7D1D6C0F7D1F20E04DE250E1C7018C
:1032F000D4CF0F931F93CF93DF930E9490180E9417
:103300000E19C1ECD6E00FEE16E0E991F0E0EE0FF9
:10331000FF1FE15FF64E85919491FC0109950C1712
:103320001D0799F7DF91CF911F910F91089508958F
:103330000895BF92CF92DF92EF92FF920F931F9367
:10334000CF93DF9326E0829FF0011124E050FA4FE3
:10335000E180F12C3DE0839FA0011124CCE1D8E075
:1033600007E010E0862F8150990BDC01AA0FBB1FEC
:10337000AF5EBE4F4F5E5F4F25E0C22E36E0D32ECC
:103380006CE0B62E1C82C701002E02C09595879571
:103390000A94E2F780FF36C08D919C911197FA0153
:1033A000E01BF10BE80FF91F249130E083E0359525
:1033B00027958A95E1F7822FE491293108F4EC836F
:1033C0006C2D0E94FE2E8D9DB00111246C5F7F4FED
:1033D000621B730BB69EF001B79EF00D112433965D
:1033E000F983E883D29EB001D39E700D11246E5EE6
:1033F0007F4F28EE382F2303C0011124860F971F1B
:103400009B838A8326960150110908F0BBCFDF9178
:10341000CF911F910F91FF90EF90DF90CF90BF90D1
:1034200008959AEA899FA001112485E591E0689F9B
:103430009001699F300D1124CA01820F931F8FECF8
:10344000890F90E064E0959587956A95E1F7982F4C
:10345000990F990F890F241B350B92E1930F9295C9
:103460009F70890F08950F93CF93C22F57FD20C0EF
:10347000443051054CF442305105B9F04330510508
:10348000B9F04130510571F0645088500E94111A12
:103490008093C401E091C401E93168F080E0CF91EC
:1034A0000F9108956450885FF1CF6D5F8A5FEECF12
:1034B0006D5F8650EBCFF0E0EF53F94F828580933C
:1034C000C5018B3159F3CC2321F0893039F381E0E8
:1034D000E6CF011113C0882309F38930C1F7809129
:1034E000FA0583FDF4CF9091F90591509093F90579
:1034F000992339F088608093FA05E9CF813069F724
:10350000CDCF877F8061F7CFE091CC01E150FF0BF9
:10351000EE0FFF1FEF5EFE4F0190F081E02D33961E
:1035200084919091C006282F30E0359527953595E8
:1035300027952F7133279217130611F4837008957E
:103540000895CF93DF93C091CD01D091CE01BE01FC
:10355000605D7F4F23E04DEC57E183E190E00E94F6
:103560003C160E94841A833061F4BE016F5C7F4F69
:1035700023E04DEC57E183E190E0DF91CF910C9493
:103580003C16DF91CF910895CF93DF93C091CD0189
:10359000D091CE01BE01605D7F4F22E04DEC57E13E
:1035A00089E590E00E943C160E94841A823061F402
:1035B000BE016F5C7F4F22E04DEC57E189E590E062
:1035C000DF91CF910C943C16DF91CF910895CF936A
:1035D000DF93C091CD01D091CE01BE01615F7F4FDD
:1035E00021E04DEC57E185E590E00E943C160E94F9
:1035F000841A813061F4BE01605F7F4F21E04DECA1
:1036000057E185E590E0DF91CF910C943C16DF9176
:10361000CF910895CF93DF93C091CD01D091CE018A
:10362000BE01615F7F4F20E04DEC57E188E190E003
:103630000E943C160E94841A81110CC0BE01605F7A
:103640007F4F20E04DEC57E188E190E0DF91CF9192
:103650000C943C16DF91CF910895089596E0899FD0
:10366000F0011124E45EF74F2481222391F02770AA
:10367000628173818091CD019091CE01680F791F95
:10368000675F7F4F808191814DE250E103970C94F9
:103690003C16089587E00C942E1B86E00C942E1B9C
:1036A00085E00C942E1B84E00C942E1B83E00C947C
:1036B0002E1B8091D0019091D10187709927892B81
:1036C00041F480912D088F5F66E00E94FE2E90935A
:1036D0002D0880912C088770282F220F280F220F89
:1036E00080912D08280F60912A0870912B088091F5
:1036F000CD019091CE01680F791F6A5F7F4F809155
:103700002808909129084BE25AE004960C943C1644
:1037100096E0899FF0011124E45EF74F8481282F01
:1037200030E087708130C1F018F08230C1F0089528
:1037300093E0359527959A95E1F72370628173811F
:103740008091CD019091CE01680F791F49EA55E033
:10375000808191810C943C1625812C5FEFCF83E012
:10376000359527958A95E1F72370285FE7CF81E0AB
:103770000C94881B80E00C94881BEF92FF920F93AF
:103780001F93CF93DF938091FA05182F1370012FA9
:10379000000F87FF1CC0D0E0C0E0E02EF12C60914C
:1037A000F7057091F805665071096C0F7D1F6E1951
:1037B0007F098091F5059091F60520E047E455E0FA
:1037C00004970E943C162896C831D10541F7809194
:1037D000FA056091F7057091F80524E084FD07C0B3
:1037E00082FF0DC06091F7057091F805212F45E625
:1037F00053E08091F5059091F6050E943C1680916A
:10380000FA0587FF1BC0D0E0C0E010E06091F7052B
:103810007091F8056E5F7F4F6C0F7D1F601B710B01
:103820008091F5059091F60521E047E455E0049775
:103830000E943C162896C831D10541F7DF91CF91FF
:103840001F910F91FF90EF9008954091FA05842FFA
:10385000807629F08091FD058F5F8093FD05809132
:10386000CD019091CE0143702091F5053091F60580
:10387000423081F14330D1F14130A1F097FF08C0CF
:1038800001969093CE018093CD012250310913C04F
:103890008091F7059091F80501979093F805809332
:1038A000F705F3CF97FF0CC001969093CE0180935C
:1038B000CD012E5F3F4F3093F6052093F505089517
:1038C0008091F7059091F80501979093F805809302
:1038D000F705EFCF853E4FEF940714F00197E5CF42
:1038E0008091F7059091F8050196EFCF853E4FEF57
:1038F000940714F00197C5CF8091F7059091F805D2
:103900000196CBCF4F925F926F927F928F929F9250
:10391000AF92BF92EF92FF920F931F93CF93DF93DB
:103920002B013C01C42FD22F11E04114510461043A
:10393000710409F010E0A30192016AE0862E912C37
:10394000A12CB12C211531054105510541F01F5F16
:10395000CA01B901A50194010E94DC2EF3CF1D1705
:1039600008F41D2FC10FDD27DD1FCC0FDD1FCC0F8D
:10397000DD1FCA5BDE4F00E02AE0822E912CA12CD5
:10398000B12C82E090E09C012A5431407901C301BE
:10399000B201A50194010E94DC2EF701EC0FFD1F7E
:1039A000E837F105A0F4FB01EE0FFF1F6E0F7F1F3C
:1039B000FB01EC51FD4FE491E883FB01EB51FD4F1E
:1039C000E491E9836A517D4FFB0164916A830F5F43
:1039D000249729013A011013DACFDF91CF911F917B
:1039E0000F91FF90EF90BF90AF909F908F907F903E
:1039F0006F905F904F90089590E0880F991FE0912D
:103A0000F106F091F206E80FF91F8591949120914B
:103A1000EF063091F006820F931F0895EF92FF9208
:103A20000F931F93CF93DF931092720021E030E049
:103A30003093480120934701E4EFF6E048EDDF01C1
:103A40001D924A95E9F740EF4093100149E14093F8
:103A5000F30641E752E0509346014093450130930D
:103A60004201209341013093BC072093BB0722E41D
:103A70002093C00021E02093C1002FEF2093D100BC
:103A800020E82093CF00EC012196FC018491D09393
:103A9000F206C093F10690E0880F991FC80FD91F56
:103AA000CE0104969093F0068093EF0634EFE32E58
:103AB00036E0F32E10E000E0FE01E00FF11F8491EC
:103AC0000E94FC1CD7018D939C930F5F1F4FB6E3A0
:103AD000EB0EF11C0430110579F784E0809372003D
:103AE000DF91CF911F910F91FF90EF9008950E9469
:103AF00090180E940E190E94BD1B8CE00E94B816FF
:103B0000882331F0109203018DE690E20C940E1D93
:103B100008950E9490188CE00E94B816882331F016
:103B2000109203018DE690E20C940E1D0895CF9241
:103B3000DF92EF92FF920F931F93CF93DF934EE2AA
:103B400050E06BE170E081EC96E00E94382FE0914C
:103B5000C0064E2F50E026E0E29FF0011124E05015
:103B6000FA4F808184FF09C09BE09093C1069CE0DE
:103B70009093C2069DE09093C40680FF03C09EE030
:103B80009093C50685FF09C09FE09093C60690E11B
:103B90009093C70691E19093C90681FF03C092E11B
:103BA0009093CA0686FF09C093E19093E40694E1DE
:103BB0009093E50695E19093E70682FF03C096E1B6
:103BC0009093E80687FF09C097E19093E90698E192
:103BD0009093EA0699E19093EC0683FF03C08AE193
:103BE0008093ED068091FA05982F907609F03FC0FA
:103BF000E091FC05F0E0EF53F94F89E0828786E021
:103C0000849FF001859FF00D1124E050FA4F01814F
:103C100010E08CE1C82E88E0D82ED0E0C0E097E01C
:103C2000E92EF12CC7018C1B9D0BF80102C0F59504
:103C3000E7958A95E2F7E0FF0AC0F601628180818C
:103C40000E94111AE82FF0E0EF53F94FC287219636
:103C500036E0C30ED11CC830D10521F7DF91CF91DA
:103C60001F910F91FF90EF90DF90CF900895282F34
:103C70002072982F907483708230B1F0833001F1FC
:103C8000813061F0222319F089E08093C3069923E3
:103C900009F4B5CF89E08093E606B1CF2223B9F3CA
:103CA00089E08093C806F3CF222319F089E080933E
:103CB000E606992309F4A3CF89E08093C3069FCF3A
:103CC000222319F089E08093EB06992309F497CF1A
:103CD00089E08093C80693CF8091D0019091D10163
:103CE00068E770E00E940A2F892BA1F410927200FD
:103CF000E4EFF6E088EDDF011D928A95E9F780EFA9
:103D0000809310018DE690E20E940E1D1092C60174
:103D10001092030120E047ED5EE164E170E081E391
:103D200090E00C94701610927200E4EFF6E088EDCB
:103D3000DF011D928A95E9F780EF809310011092C0
:103D4000C8011092C9011092CA011092CB01E5EF8F
:103D5000F5E086E0858380E486838CE087831086A7
:103D600083E08483118612861092CC0188E08093D0
:103D700003010895EAE4F1E098E7DF011D929A95C6
:103D8000E9F748E752E081112DC0AAE4B1E030E044
:103D900020E063E0FA01E20FF31FE491EE2309F162
:103DA000E053E03FC1F0EF3FB1F0E69FC0011124C6
:103DB000FC01EC51FD4FE491EC93FC01EB51FD4F04
:103DC000E4911196EC9311978A519D4FFC018491D7
:103DD00012968C9312972F5F3F4F14962E31310518
:103DE000C9F60895FA0194914F5F5F4F9111FACF90
:103DF0008150C9CF2F923F924F925F926F927F92E4
:103E00008F929F92AF92BF92CF92DF92EF92FF92EA
:103E10000F931F93CF93DF9300D000D01F92CDB7A5
:103E2000DEB72091CC012F5F2C832093CC01C09072
:103E3000C801D090C901E090CA01F090CB012430B4
:103E400020F183E00E94BA1E26E048E1C701B601D6
:103E50000E94821C8CE0809303010F900F900F90C2
:103E60000F900F90DF91CF911F910F91FF90EF90E6
:103E7000DF90CF90BF90AF909F908F907F906F908A
:103E80005F904F903F902F9008951092C0068CE065
:103E90008093FC0587EF9FEF9093CE018093CD0137
:103EA00083E390E09093F6058093F50581E290E03E
:103EB0009093F8058093F7058C818150990BFC0154
:103EC000EE0FFF1FEF5EFE4F20813181F901349626
:103ED000E491E093C701A901F901F491F9838DE020
:103EE000F89F1001112495E0290E311CF90131963B
:103EF000E49181010E0F111DA0E0B6E060E01D828B
:103F000070E0812C912C540183948981861709F4E7
:103F10006DC011961C92119712961C9212971396CF
:103F20001C92139714961C92149715961C92159731
:103F3000FA013596E491EC9387E090E0FA017196EE
:103F4000FB83EA83EA81FB81E81BF90BE491EE2312
:103F500089F01196EC91119724013501082E04C0C7
:103F6000440C551C661C771C0A94D2F74E2A1196F5
:103F70004C921197019730F7CA010C96FC0174908E
:103F8000E72DE770E53051F4F101E70FF11DE20F85
:103F9000F31FE4911296EC9312977F5FFC018491DA
:103FA00087708630F0F0C801FD818F0F911DF901F7
:103FB000E80FF91FE4911396EC931397FC013196E7
:103FC000E20FF31FE4911496EC931497FC013296E0
:103FD000E20FF31FE4911596EC9315978D818D5F99
:103FE0008D836F5F435F5F4F16968FCF6C8180E04C
:103FF0000E94991981E00E94BA1EEC816E2F70E038
:1040000090E080E022E046E00E94821C26E04EE044
:10401000C701B6010E94821C89E01DCFCF93DF93B8
:10402000C091CF0182E1C89FC02D1124C45D0E94C0
:104030005B170E943E17D0E08091C30120E045E568
:1040400050E268E370E08C0F9D2F911D0E943C169A
:104050008091C20120E045E550E268E370E08C0FFA
:104060009D2F911D0E943C1680E40E94B81681117C
:104070000E94B21680E20E94B81681110E94AD160D
:104080008CE00E94B816882379F0C091CF0182E0BD
:1040900090E00E94C62EC81729F06C2F82E090E0B5
:1040A0000E94CE2E10920301DF91CF9108956F925E
:1040B0007F928F929F92AF92BF92CF92DF92EF92B8
:1040C000FF920F931F93CF93DF93CDB7DEB72A975D
:1040D0000FB6F894DEBF0FBECDBFC82E862ECA0124
:1040E000B9012AE0AE014F5F5F4F5A010E94852E51
:1040F000F50101900020E9F73197EA19FB096E2ECE
:104100001BEF019F102D1124195F1E1B11164CF47B
:1041100020E047E659E170E060E089E790E00E9426
:104120007016D12C54E0150270011124EC0CFD1C0A
:1041300010E0062C000C7708912C812F90E086155A
:10414000970504F5F501E80FF91F2081213394F05C
:1041500020532A3078F4880F991F880F991F023056
:1041600059F047E659E1B4018E0D9F1D0E9470166B
:104170001F5FE3CF20E0EFCF47E459E1B4018C0D9E
:104180009D1DF4CF2A960FB6F894DEBF0FBECDBFAB
:10419000DF91CF911F910F91FF90EF90DF90CF9023
:1041A000BF90AF909F908F907F906F9008950F93E6
:1041B000CF93DF93D0E0C0E020E046EB59E1BE01B1
:1041C00086E790E00E943C162896C034D105A1F7FE
:1041D0002091C00630E050E040E001E060E089E777
:1041E0000E9457202091FB05277030E050E040E00E
:1041F00002E067E18BE70E94572020E04FEA59E197
:104200006DE170E08AE790E00E9470162091FB0556
:1042100030E083E0359527958A95E1F723703327C1
:10422000032E000C440B550B66E28BE70E945720CF
:1042300020E046EA59E16CE270E089E790E00E94F4
:1042400070162091FB0525FB222720F930E050E075
:1042500040E065E38BE70E94572020E04DE959E1FB
:104260006BE370E089E790E00E9470168091FA0598
:104270002091FB0584FF14C020642093FB058091EE
:10428000FB0586FF1EC02091F90547E859E16BE068
:1042900070E08AE790E0DF91CF910F910C94701657
:1042A0008091D0019091D10164E170E00E940A2FC9
:1042B000892B29F78091F905823008F780E42827B7
:1042C000DCCFDF91CF910F9108959091FF059F5F13
:1042D0009093FF052091D0013091D10123703327B5
:1042E000232B51F48091FA05282F2370233009F0F5
:1042F00064C08C7F8093FA059B3558F08091FA0555
:104300008F7784608093FA051092FF0586E0809392
:1043100003010E9490180E940E190E94D7200E944B
:10432000BD1B8091D0019091D1016AE570E00E949F
:104330000A2F892B09F043C0E091C00636E03E9F6A
:10434000F0011124E050FA4FE281E093C006209181
:10435000FC05822F65E00E94FE2E839FA0011124A0
:104360004C5F5F4F421B51099CE0949FB001959FA9
:10437000700D11246D5F7F4F7093F6056093F50506
:10438000239F900111242E5E3F4F482F58EE540377
:10439000C0011124820F931F2091CD013091CE01D5
:1043A000820F931F9093F8058093F7051092FD05F7
:1043B0006091CC018E2F0C9499198F5F9BCF08953B
:1043C0000E9490180E940E190E94D7208CE00E9433
:1043D000B816882331F080E00E94BA1E86E08093F0
:1043E000030108950E94971D0E9479198091FD058F
:1043F000853038F48091D00180FF0E94251C0C94F8
:10440000D7201092FD058091FA058F7B8093FA05E5
:1044100086E080930301F3CF4F925F926F927F9279
:104420008F929F92AF92BF92CF92DF92EF92FF92C4
:104430000F931F93CF93DF930E94971D0E947919CA
:10444000E091FA05E5FDC9C2E4FDAFC08091D0015D
:1044500080FD90C00091CD011091CE016091F705D3
:10446000601B8091F5050E94111A893110F4809328
:10447000FC05C091C601D0E0FE01EB59FF4DF49060
:104480000E94A5168F21F81609F443C0FE01EA59CF
:10449000FF4DF4900E94A5168F21F81609F43BC039
:1044A000FE01E959FF4DF4900E94A5168F21F816E0
:1044B000A1F1C859DF4DFE01C4910E94A5168C23BD
:1044C000C81358C083E0C091FA05CC7FC82BC093B5
:1044D000FA05C090F705D090F805A090F505B090CA
:1044E000F605E82EF12C21E0A701B601C5010E94D6
:1044F000E616811114C0B601601B710B00E021E0CB
:10450000A701C5010E94331A81111BC10E94251CFD
:1045100031C080E0D8CF81E0D6CF82E0D4CF809187
:10452000FC059C2F9370923009F4D9C0933009F4A4
:10453000F2C0913009F4BDC08230E1F4E091C006D0
:1045400026E0E29FF0011124E050FA4F808184FFC1
:1045500011C080FD0FC0C062C093FA058BE190E0EE
:104560009093F6058093F505025E1F4F1093F805B2
:104570000093F70588E00E94B816882319F089E0B7
:104580008093030184E00E94B816882371F0109193
:10459000C0068091FC059091C70119136DC18C3044
:1045A00009F06AC188E0809303018091FA0583FFD6
:1045B000C6C29091FE059F5F9093FE052091D001A9
:1045C0003091D10123703327232B21F424E082275B
:1045D0008093FA05913F40F08091FA05877F8460CF
:1045E0008093FA051092FE058091FA0584FDF6C2CB
:1045F0008091D0019091D10166E070E00E940A2F75
:10460000892B09F0EBC23CE1E32E38E0F32E912C2C
:104610004AE0442E512C5DE0852EF70185818F5FA5
:1046200083708583A091CC01A150BB0BAA0FBB1F47
:10463000AF5EBE4F8091C0069201889D200D311D56
:104640001124ED91FC91E20FF31FE491EE2309F4A4
:10465000BAC2F7011481C12FD0E083E0D595C79588
:104660008A95E1F7C37017706C2E712CA280B3800D
:10467000C080D18020E0A301B501C6010E94E616EA
:104680008111C2C2D92DD1700D2F20E0A301B50137
:10469000C6010E94331A8111B7C2113009F468C2F1
:1046A00018F0123009F08FC26D2F8C2F0E949F11CD
:1046B0008AC28A3009F05ECFE091C00636E0E39FFF
:1046C000F0011124E050FA4F808185FF53CF81FD26
:1046D00051CFC062C093FA058BE490E041CF8631A0
:1046E00009F048CFE091C00666E0E69FF001112492
:1046F000E050FA4F808186FF3DCF82FD3BCFC06204
:10470000C093FA058BE490E09093F6058093F5054D
:104710000A5C1F4F2BCF8E3009F02CCFE091C006E2
:1047200086E0E89FF0011124E050FA4F808187FF76
:1047300021CF83FD1FCFC062C093FA058BE190E0CB
:10474000E3CF8091C501823009F014CF80912C080D
:104750008770823009F451C0E8F4882381F18130F8
:1047600009F008CF8091FB05982F9871983109F4D2
:1047700001CF885F8093FB050E94DA168091C80103
:104780009091C901A091CA01B091CB010A96A11DD7
:10479000B11D2AC0833009F457C0843009F0EACE35
:1047A0000E94DA168091C8019091C901A091CA01B6
:1047B000B091CB0188539F4FAF4FBF4F15C0809131
:1047C000FB0585FDD7CE80628093FB050E94DA163B
:1047D0008091C8019091C901A091CA01B091CB010B
:1047E0008C599F4FAF4FBF4F8093C8019093C90121
:1047F000A093CA01B093CB01BDCE8091F905C090C2
:10480000C801D090C901E090CA01F090CB0183307B
:1048100098F48F5F8093F9050E94DA1694E1C90E2F
:10482000D11CE11CF11CC092C801D092C901E092D8
:10483000CA01F092CB019ECE0E94DA16E2E3CE0EC0
:10484000D11CE11CF11CEFCF8091FB05982F9770D4
:10485000973009F48FCE8F5F8093FB050E94DA16A4
:104860008091C8019091C901A091CA01B091CB017A
:104870004E96A11DB11DB8CF0091FA050370C02F4F
:10488000D0E0FE01EF59FF4DE491E8136CC0809138
:10489000FB05887191F10E94841A081771F18091CB
:1048A000FB0588508093FB058091C8019091C90158
:1048B000A091CA01B091CB01C296A11DB11D8093F8
:1048C000C8019093C901A093CA01B093CB0126E01F
:1048D000129FF0011124E050FA4F81E090E0A0E037
:1048E000B0E0002E04C0880F991FAA1FBB1F0A94B6
:1048F000D2F780959081892380838091FB0585FF85
:1049000032C00E94841A08132EC08091FB05805289
:104910008093FB058091C8019091C901A091CA01C3
:10492000B091CB0188519C4FAF4FBF4F8093C801CE
:104930009093C901A093CA01B093CB0136E0139FB5
:10494000F0011124E050FA4F81E090E0A0E0B0E0E7
:1049500004C0880F991FAA1FBB1F0A95D2F7809524
:1049600090818923808380912C08FE01E35AFF4DBA
:10497000E491982F9695969596952091FC05E20FD7
:104980000E2E000CFF0B9E171F0609F00ECE982F5F
:104990009770953039F48091FA0580688093FA0514
:1049A0008BE001CE963008F400CE91E08927809309
:1049B0002C08A6E0A19FF0011124E050FA4F83815A
:1049C000A89FD0011124A050BA4F858111969C91C7
:1049D0001197892711968C93E8CD8091FD0585303C
:1049E00038F48091D00180FDE0CD0E94251CDDCD02
:1049F0002091CC01822F8150990BDC01AA0FBB1FA3
:104A0000AF5EBE4FE370F0E036968091C0069DE049
:104A1000899FE00DF11D11248D919C91E80FF91FE4
:104A200084918370823059F0833009F47CC08130E6
:104A300009F07EC08AE08093FC053AE07DC086E103
:104A40008093FC0536E14DED5FEF5093CE0140932E
:104A5000CD01E491F0E0F595E795F595E795E093C4
:104A6000C006832F65E00E94FE2E082F10E066E04E
:104A7000869FC00111240496831B9109ACE0A89F76
:104A8000B001A99F700D11246D5F7F4F3A3021F066
:104A900086EF9FEF363111F48AE090E0860F971F82
:104AA0009093F6058093F50566E0369FC0011124CA
:104AB0004296A8EE6A2F6003E001619FD00D112499
:104AC000BE01680F791F363121F08BEF9FEF3E302A
:104AD00011F485E090E0860F971F480F591F5093FF
:104AE000F8054093F7051092FD05622F8E2F0E9466
:104AF00099198091FA058F7D80648093FA0587E08B
:104B000080930301DF91CF911F910F91FF90EF9060
:104B1000DF90CF90BF90AF909F908F907F906F90DD
:104B20005F904F9008958EE08093FC053EE08BCF20
:104B300082E08093FC0532E047EF5FEF86CF84FF91
:104B400057CD82E00E94BA1E6091C8017091C901E0
:104B50008091CA019091CB0126E046E10E94821C1F
:104B60008AE08093030140CD2BE0422E512C55CD9D
:104B70006D2F8C2F0E949F11F701A280B380C080FF
:104B8000D18043E350E08EE190E0F601FF27D501AC
:104B9000BB279C012E513109BA01E617F70731F402
:104BA00089010E5E1F4FA017B107A9F16C50710962
:104BB0002A5F3F4F8217930781F70696445F5F4F46
:104BC0008C33910531F7F6E0EF0EF11C9394292D0B
:104BD0002170922E3BE04316510431F6DF91CF91C4
:104BE0001F910F91FF90EF90DF90CF90BF90AF900B
:104BF0009F908F907F906F905F904F900C94D720F4
:104C000061E0892D81701EC01130D1F3C8F31230DC
:104C1000D1F660E0F6CFC150C3706C2E712C20E04D
:104C2000A301B501C6010E94E6168111CCCF0D2F5C
:104C300020E0A301B501C6010E94331A8111C3CF40
:104C400060E08D2F0E94C316BECF1F920F920FB649
:104C50000F9211248F939F938091E1009091E10036
:104C6000937F9093E10083FF0FC01092E90091E0E1
:104C70009093EB001092EC0092E39093ED00109271
:104C8000F40598E09093F00082FF22C093E09093A7
:104C9000E9009091F200992319F09AE39093E800CB
:104CA0009091E505992341F09091E50591509093FD
:104CB000E505911101C05D9A9091F305992341F0AA
:104CC0009091F30591509093F305911101C0289AAA
:104CD00084FF18C08091E2008E7E81608093E200A4
:104CE0008091E1008F7E8093E1008091E6058E7EC9
:104CF00080618093E6059F918F910F900FBE0F907A
:104D00001F90189580FFF7CF8091E2008E7E806122
:104D10008093E2008091E1008E7E8093E10080919B
:104D2000E6058E7E8160E5CF1F920F920FB60F923F
:104D30001124CF92DF92EF92FF920F931F932F9344
:104D40003F934F935F936F937F938F939F93AF9313
:104D5000BF93EF93FF93CF93DF93CDB7DEB76C97FD
:104D6000DEBFCDBF1092E9008091E80083FF25C02F
:104D700068E0CE0145960E94631382EF8093E800BD
:104D80008D8987FF39C09091E80090FFFCCF982F64
:104D9000907609F034C19E894F89588D2F89F88CFF
:104DA000911131C0803861F58091E4058093F10064
:104DB0001092F1008EEF8093E8006C960FB6F89495
:104DC000DEBF0FBECDBFDF91CF91FF91EF91BF91BD
:104DD000AF919F918F917F916F915F914F913F9193
:104DE0002F911F910F91FF90EF90DF90CF900F9038
:104DF0000FBE0F901F9018959EEF9093E800C7CFBD
:104E00001092F100D5CF913059F48111D3CF4130B8
:104E1000510581F68091E4058D7F8093E405CACF2A
:104E2000933049F48111C6CF4130510519F6809174
:104E3000E4058260F2CF953041F48091E80080FF74
:104E4000FCCF20682093E300B5CF963009F0A9C0CD
:104E50000B8D1C8D22E01092E9001092E205109259
:104E6000E105F2122EC01092E0051092DF050E94BB
:104E700032131F8299E09983FA8291E09E8390EA2F
:104E800098879AEF99872091E1053091E205275F95
:104E90003F4F3C832B838D831092E9001092E205F3
:104EA0001092E1051093E0050093DF0549E050E022
:104EB000BE016F5F7F4F80E00E940C130E9432138F
:104EC00079CF1093E0050093DF050E941612DC01F4
:104ED00012960D911C910115110509F451C1D801CB
:104EE000ED91FC910480F581E02DBE016B5E7F4F5A
:104EF000C8010995009709F03EC1F80100851185A8
:104F0000EACFF3E0FF120EC08F89882309F440C076
:104F1000823061F440E860E186ED92E20E94D912AD
:104F2000811148CF81E28093EB0047CF813029F493
:104F300040E86BE08AEC92E2F1CF833099F70E946F
:104F40001612DC011296ED90FC908E010F5F1F4F40
:104F50006801E114F10479F0D701ED91FC9106802C
:104F6000F781E02DB801C7010995080F111DF70160
:104F7000E084F184EECFD8011C92F601019000206C
:104F8000E9F73197BF016C197D0940E0C601C6CF32
:104F900064EB72E2FB01449150E080E80E940C1344
:104FA00009CF973009F4BECF983021F481E0809387
:104FB000F10000CF993009F0FDCE837009F0B2CF37
:104FC000E8E1F1E081E031E096E32191222371F004
:104FD0008093E9003093EB00DF0111972C9120932F
:104FE000EC009093ED008F5F873079F78EE7809328
:104FF000EA001092EA008F898093F405DBCE8B8D56
:105000009C8D1092E9001092E2051092E1059093B8
:10501000E0058093DF05898D811192C08E899D897D
:10502000913A49F4813209F07DCF47E050E068E0E1
:1050300071E080E0B3CF913209F074CF833269F42C
:105040008F89988DB0E0A0E08093040190930501D2
:10505000A0930601B0930701ADCE803269F4809130
:10506000E80082FFFCCF67E088E091E00E946313D4
:105070008BEF8093E8009ECE823209F09BCE8F8921
:1050800080930F01EEEFFFE7859194918B3F9C4D4C
:1050900051F1E0E0F8E08091080190910901A091C0
:1050A0000A01B0910B01803B9440A105B105F1F4D8
:1050B00080910F0180FD1AC0EE3F8AE0F80789F564
:1050C00087E797E791838083809160008093E30571
:1050D00088E19BE00FB6F894A895809360000FBE1E
:1050E0009093600067CEEEEFFAE0D5CF808191819A
:1050F0008737974709F05ECEA89580916000886158
:10510000809360008091E30580936000EE3F2AE089
:10511000F20789F08091FE0A9091FF0A91838083C3
:1051200049CE808191818737980751F29093FF0A89
:105130008093FE0AC5CF1092FF0A1092FE0A3ACE63
:105140000E941612DC0112960D911C910115110599
:1051500009F4E8CED801ED91FC910190F081E02DA9
:10516000BE016B5E7F4FC8010995811123CEF80106
:1051700000851185EBCF181619060CF41BCED2CE84
:10518000F1E0FF12BECE68EB72E204CF1F920F92E5
:105190000FB60F9211242F933F938F939F93AF934A
:1051A000BF938091D7059091D805A091D905B09172
:1051B000DA053091D60523E0230F2D3758F50196F7
:1051C000A11DB11D2093D6058093D7059093D805D6
:1051D000A093D905B093DA058091DB059091DC05A9
:1051E000A091DD05B091DE050196A11DB11D809352
:1051F000DB059093DC05A093DD05B093DE05BF9140
:10520000AF919F918F913F912F910F900FBE0F9073
:105210001F90189526E8230F0296A11DB11DD2CF2D
:105220002F923F924F925F926F927F928F929F92B6
:10523000AF92BF92CF92DF92EF92FF920F931F93A4
:10524000CF93DF9321E3C22E21E0D22EC4EFD6E02C
:1052500010E000E0772473943BE1932E46E3842E24
:1052600059E0452E5DE3552E22242A94322CEEA5DA
:10527000EE23B1F08FA59E2F9370891708F4F3C029
:10528000F0E0F595E795F595E795EE0FFF1FE850EF
:10529000FE4F8591949190934201809341011FA606
:1052A0009CA99923F9F08DA9292F2F77022E000CA4
:1052B000330B821713060CF4E0C08A8197FFD6C027
:1052C00081508A838A818111D3C081E08A83EA81F7
:1052D000F0E0EE0FFF1FE850FE4F859194919EA3E2
:1052E0008DA31DAA58A5552321F13AA529A5311151
:1052F00019C0422F407426FFC3C08DA19EA1850F07
:10530000911D57FD9A9527FDC0C097FDBCC0442351
:1053100009F4BDC0863B44E2940714F085EB94E2A7
:105320009EA38DA381E0830F8AA72F73321708F005
:105330001AA69BA5992371F0EA81EE2359F08DA559
:105340002CA5482F4F71322F3F71431708F0A1C091
:105350008F5F8DA749A9442311F13AA9632F607487
:1053600036FFC3C08DA19EA12BA950E027FFC0C06E
:10537000840F951F97FDBFC0662309F4C0C0863B0C
:10538000E4E29E0714F085EB94E29EA38DA33F71A7
:10539000822F8F71831708F0B4C02F5F2BAB89A1C8
:1053A0009AA1009709F4B4C08F3F980719F00197AC
:1053B0009AA389A380911001282F30E0002E02C00B
:1053C000359527950A94E2F720FD07C02DA13EA14F
:1053D000F601328321839FA19083807F39F58091EC
:1053E000140790914A07890F90918007890F909137
:1053F000B607890F09F46FC28CECA82E87E0B82E8F
:1054000094EFE92E96E0F92EF70180A10E94FC1C92
:10541000F7019183808312A211A2F6E3EF0EF11C33
:10542000AE14BF0489F780EF809310010F5F1F4F08
:10543000E696F5E0CF0ED11C0430110509F017CF28
:10544000DF91CF911F910F91FF90EF90DF90CF9060
:10545000BF90AF909F908F907F906F905F904F9094
:105460003F902F9008958F5F8FA71ACF8F5F29CF1E
:10547000803408F42CCF8FE329CF8F5F8DAB32CFF0
:105480008FA190E03CCF90E080E0411149CF8FA305
:1054900049CF807EF1F480E28DA78DA5807E51F00A
:1054A0009F3F09F1292F22952F70E20F803411F4CC
:1054B0009F70E90F88A9F0E0E80FF11D87FDFA95CC
:1054C000EE0FFF1FE850FE4F859194919EA38DA390
:1054D00041CF803231F426FD04C09F3F11F080E4BB
:1054E000DBCF1DA6DACFE0E0E1CF8FA190E03CCF8B
:1054F000841B950B3FCF90E080E0611146CF8FA3D6
:1055000046CF27FF02C01BAA4ACF80E88BAB47CF0C
:10551000C8010496672C01C0660C8A95EAF7909E34
:105520005001919EB00C1124809EC001819E900D6F
:1055300011249C012C50394F790188819981BC013B
:105540006F5F7F4F79836883FC0144914034E8F4B6
:105550004A83442319F088A9480F4A83EA81F0E07E
:10556000EE0FFF1FE850FE4F859194919EA38DA3EF
:1055700089A5811102C08FA58FA38CA585FD1DA6CD
:1055800089A19AA10097C9F20FCF403A08F008C14B
:10559000E42FE054FF0BEC30F10509F4BEC00CF031
:1055A0004BC0E530F10509F4A1C0ECF4E230F1059F
:1055B00009F49CC08CF4309709F490C0319701F73E
:1055C000029699838883FB01649168A780E0413447
:1055D00009F080E489A7D4CFE330F10509F493C042
:1055E000349771F3CDCFE830F10509F462C0A4F42B
:1055F000E630F10509F487C0379709F0C1CFFB0108
:1056000064916BA79C012D5F3F4F39832883FC0178
:105610003296E491ECA7B4CFEA30F10509F47BC0EF
:1056200002963B970CF471C099838883FB018491A7
:1056300068A9680F68ABA4CFE331F10509F477C01E
:1056400064F5EF30F10509F470C0DCF4ED30F105DC
:1056500009F469C03E9709F093CFFB01259134917D
:1056600029AB9C012D5F3F4F39832883FC01329683
:105670002591349180E04E3409F080E4820F8AABAA
:105680007FCFE131F10509F450C03CF302969983D4
:105690008883FB0164916CAB73CFEC35F10509F4A1
:1056A00051C04CF4E431F10509F443C0759709F099
:1056B00067CF1BA665CFEE35F10509F45CC00CF48D
:1056C00054C0EF35F10509F05BCF809110018625BC
:1056D000809310011FA23AA229A252CF0296998369
:1056E0008883FB0164916FA36FA74ACFFB0164918C
:1056F00068A79C012D5F3F4F39832883FC013296B8
:10570000E491E9A73DCF18A63BCF99838883FB019D
:1057100064916EA735CF1EA633CF029699838883F6
:10572000FB01649187CF18AA2BCF19AA29CF1CAAF5
:1057300027CFFFEFFBA7029699838883FB01649133
:105740006CA71ECF029699838883FB016491E09138
:10575000F3066E0F6093F30670E0C2010E941E2FE5
:1057600070934601609345010BCF0296998388831D
:10577000FB016491EFCFA4EFB6E021E030E0FC0143
:10578000E20FF31FE4919096EC9390972F5F3F4FB9
:10579000D6962530310599F7059699838883F0CE02
:1057A000403E28F44F59550B5AA349A3E9CE403E39
:1057B000A9F4DE0190E080E09695982F88279795D0
:1057C0008795ED91FD91E4912E2F2F77822BE7FDA8
:1057D000F3CF8F5B9F4F9AA389A3D2CE4C3F08F49F
:1057E000CFCE24E0240F223008F039C04C3FA9F17D
:1057F000029699838883FB016491E881F9819F0176
:105800002F5F3F4F39832883E4915CA15E1701F13C
:105810004F8D842F90E07BA1D701A80FB91F51961F
:105820007C93519758965C93D501A80FB91FAA0F86
:10583000BB1FAC50B94F8091EF069091F006281B2A
:10584000390B14963C932E9313974F5F4F8FECA315
:105850006BA38CA10E94FC1CA0CF60E0CECFDE0128
:1058600090E080E04E3F29F58BA181111FC0EF8DA4
:10587000EE2379F3E150EF8FF0E0D501AE0FBF1FBB
:10588000AA0FBB1FAC50B94F8091EF069091F00664
:1058900013962D913C91820F931F99838883EE0D6F
:1058A000FF1D81898BA3808D8CA36ACE81508BA331
:1058B000D0CF9695982F882797958795ED91FD9154
:1058C000E4913E2F3F77832BE7FDF3CF680F791FDD
:1058D0007983688355CE88EDE4EFF6E011928A95DE
:1058E000E9F710927200A2CD2F922FB62F9320913C
:1058F000300120952093300109F091C0BF93AF9300
:105900000F921F92AA272091320100903401020EBB
:10591000009234012091330110903501121E109233
:10592000350110903501B091310117FCB195AB0FE5
:105930002091370100903901020E00923901209127
:10594000380110903A01121E10923A0110903A015B
:10595000B091360117FCB195AB0F20913C0100903E
:105960003E01020E00923E0120913D0110903F0148
:10597000121E10923F0110903F01212D220F212174
:10598000B0913B0127FDB195AB0F209141010090F3
:105990004301020E00924301209142011090440104
:1059A000121E1092440110904401212D220F21213A
:1059B000B091400127FDB195AB0FB0910001AB0F45
:1059C000A093CF00B0914801A0914701119729F011
:1059D000B0934801A09347011EC0B0914601A09129
:1059E0004501B0934801A093470178943F934F93AA
:1059F0005F936F937F938F939F93EF93FF93112404
:105A00000E941029FF91EF919F918F917F916F914B
:105A10005F914F913F911F900F90AF91BF912F9148
:105A20002FBE2F9018951092CF071092CE0788EEB8
:105A300093E0A0E0B0E08093D0079093D107A093CB
:105A4000D207B093D30782E291E09093CD07809381
:105A5000CC078FEF9FEF9093D9078093D807ECE1A5
:105A6000F8E014821582369688E0EC34F807C9F71E
:105A70000895789484B5826084BD84B5816084BDC6
:105A800085B5826085BD85B5816085BD80916E00DC
:105A9000816080936E00109281008091810082600D
:105AA000809381008091810081608093810080914A
:105AB000800081608093800080919100826080935B
:105AC000910080919100816080939100809190007D
:105AD0008160809390008091C10084608093C100B8
