:100000000C94EA100C9412110C9412110C9412110D
:100010000C9412110C9412110C9412110C941211D4
:100020000C9412110C9412110C9436260C94A526E3
:100030000C9412110C9412110C9412110C941211B4
:100040000C9412110C9412110C9412110C941211A4
:100050000C9412110C9412110C9412110C94D728B8
:100060000C9412110C9412110C9412110C94121184
:100070000C9412110C9412110C9412110C94121174
:100080000C9412110C9412110C9412110C94121164
:100090000C9412110C9412110C9412110C94121154
:1000A0000C9412110C94962C0C9412110502010060
:1000B00002F9060B0C1100003500000000004000A2
:1000C0000000000000640000000000FF00000001CC
:1000D000000061010A131B231002000000000066EB
:1000E000042C547CA42000030000000060000000E9
:1000F0000000010403031F0502020001F9060B0CB6
:100100001100003500000000004000000000000069
:100110000000000000008000000001000061010AF2
:10012000131B231002000000000066042C547CA462
:10013000200003000000006600000000000104032E
:10014000031F020407101800F0F0F8F0F8F8FCF8AC
:10015000FCFCFEFCFEFEFFFEFFFCFEFCFEF8FCF8D5
:10016000FCF0F8F0F800F0006363FF7FFFFFFF9FF3
:10017000FFE7FFF9FFFFFFFFFFFFFFFFFFFFFFFFAD
:10018000FF7FFF7FFF007F000E0C1E0C1F183F1A21
:100190003F357F357F6BFF6BFF357F357F1A3F180B
:1001A0003F0C1F0C1E000E00F0F0F8F0F8F8FCF801
:1001B000FCFCFEFCFEFEFFFEFFFCFEFCFEF8FCF875
:1001C000FCF0F8F0F800F0007F7FFF7FFFFFFFFFFB
:1001D000FFFFFFFFFFFFFFFFFFF9FFE7FF9FFFFFAD
:1001E000FF7FFF63FF0063000E0C1E0C1F183F1AF9
:1001F0003F357F357F6BFF6BFF357F357F1A3F18AB
:100200003F0C1F0C1E000E00F0F0F8F0F8F8FCF8A0
:10021000FCFCFEFCFEFEFFFEFF7CFE7CFE38FCB814
:10022000FC10F8F0F800F0007F7FFF7FFFF9FFE798
:10023000FF9FFFFFFFFFFFF0FFF9FFF8FFFCFFFC50
:10024000FF7EFF63FF0063000E0C1E0C1F183F1A99
:100250003F357F357F6BFF6BFF357F357F1A3F184A
:100260003F0C1F0C1E000E00F0F0F810F8B8FC3820
:10027000FC7CFE7CFEFEFFFEFFFCFEFCFEF8FCF8B4
:10028000FCF0F8F0F800F0006363FF7EFFFCFFFC79
:10029000FFF8FFF9FFF0FFFFFFFFFF9FFFE7FFF908
:1002A000FF7FFF7FFF007F000E0C1E0C1F183F1A00
:1002B0003F357F357F6BFF6BFF357F357F1A3F18EA
:1002C0003F0C1F0C1E000E008000C080C080FCF898
:1002D000FCFCFEFCFEFEFFCEFFE0FEF0F878FC78B2
:1002E000FC30F8F0F800F0007F7FFF7FFFF9FF8718
:1002F000FFFFFFFFFFFFFFF1FFF8FFF8FFFCFFFC30
:10030000FF7EFF63FF0063000E0C1E0C1F081F0A18
:100310003F357F357F6BFF6BFF357F357F0A3F08A9
:100320001F0C1F0C1E000E180800C0C0F0F0F830A3
:10033000F8183C0C1E0C1E0C1E060F060F060F06AE
:100340000F060F060F060F060F0C1E0C1E0C1E18B4
:100350003C30F8F0F8C0F000C00003030F0F1F0C92
:100360001F183C30783078307860F060F060F060D2
:10037000F060F060F060F060F0307830783078183D
:100380003C0C1F0F1F030F0003101800F0F0F8F0D3
:10039000F8F8FCF8FCFCFEFCFEFEFFFEFFFCFEFC99
:1003A000FEF8FC80F800800000000000FFFFFFFF67
:1003B000FF7FFFBFFF3FFFFFFFFFFFFFFFFFFFFFCD
:1003C000FFFFFFFFFFFFFFFCFF00FC000F0F1F0FF1
:1003D0001F1C3F1D3F3E7F3F7F7FFF7FFF3F7F3FD3
:1003E0007F1F3F1F3F0F1F0F1F000F000000000067
:1003F0008080F8F8FCFCFEFCFEFEFFFEFFFCFEFC2D
:10040000FEF8FCF8FCF0F8F0F800F000FCFCFFFF50
:10041000FFFFFFFFFFFFFFFFFFFFFFFFFFFFFF3FAC
:10042000FFBFFF7FFFFFFFFFFF00FF000F0F1F0F4A
:100430001F1F3F1F3F3F7F3F7F7FFF7FFF3F7F3E6D
:100440007F1D3F1C3F0F1F0F1F000F00000000000B
:1004500000008080C0C0E0C0E0E0F0E0F0F0F8F024
:10046000F8F8FC78FC70F8F0F800F000E0E0F8F83C
:10047000FCFCFF7FFF7FFFFFFFFFFFFFFF41FF6CE3
:10048000FF20FF36FF10FFFFFF00FF000F0F1F0FC1
:100490001F1F3F1C3F3B7F387F7FFF7FFF207F3741
:1004A0007F163F1A3F081F0F1F000F00F0F0F87073
:1004B000F878FCF8FCF0F8F0F8E0F0E0F0C0E0C00C
:1004C000E080C0008000000000000000FFFFFF107F
:1004D000FF36FF20FF6CFF41FFFFFFFFFFFFFF7FA5
:1004E000FF7FFFFCFFF8FCE0F800E0000F0F1F08A3
:1004F0001F1A3F163F377F207F7FFF7FFF387F3BEC
:100500007F1C3F1F3F0F1F0F1F000F000000000048
:1005100000000000000000000000000000000000DB
:10052000000000000000000000000000E0E0F0F02B
:10053000F8F8FCF8FCFCFEFCFEECFED4FEB4FEB4C5
:10054000FEA8FCD8FCF0F8E0F000E00009010B0385
:100550001F071F073F0F3F0F3F0F3F0F3F0F3F0F7B
:100560003F073F071F031F010B00090000000000A9
:100570008080C0C0E0E0F0E0F060F0A0F0A0F060AB
:10058000F0C0E080C00080000000000000003F3F9D
:100590007F7FFFFFFFFFFFFFFFFEFFF9FFF7FFF782
:1005A000FFF8FF7FFF3F7F003F00000000000800D2
:1005B00008001C001D013F013F013F013F013F01B9
:1005C0003F001D001C0008000800000000000000A3
:1005D000E0E0F8F8FCFCFEFEFFE6FF1AFFF6FF0C79
:1005E000FEF8FCE0F800E000000000000000000061
:1005F00007071F1F3F3F7F7FFF7FFF7FFF7EFF3F7C
:100600007F1F3F071F0007000000000000000000E0
:10061000080008001C001C003E003E003E003E009A
:100620001C001C0008000800000000000000000082
:10063000000000008080C080C080C080C080C0807A
:10064000C000800000000000000000000000FCFC72
:10065000FEFEFFFFFFFFFFFFFFF9FFE6FFDEFFDD0E
:10066000FFE3FFFEFFFCFE00FC00000000000800AE
:1006700009011F031F073F073F073F073F073F07CA
:100680003F031F011F00090008000000F0D0F8D050
:10069000F8B0FCB0FC70FE60FEE0FFE6FF7CFE7C84
:1006A000FEB8FCB8FCD0F8D0F800F000E0A0F1A053
:1006B000F171FB41FFBBFFBBFF76FF76FFBBFFBBCA
:1006C000FF41FF71FBA0F1A0F100E0000F0F1F0F31
:1006D0001F173F173F327F327F7DFF7DFF3E7F3EFA
:1006E0007F1F3F1F3F0F1F0F1F000F00F0D0F8D0DC
:1006F000F8B8FCB8FC7CFE7CFEE6FFE0FF60FE7014
:10070000FEB0FCB0FCD0F8D0F800F000E0A0F1A002
:10071000F171FB41FFBBFFBBFF76FF76FFBBFFBB69
:10072000FF41FF71FBA0F1A0F100E0000F0F1F0FD0
:100730001F1F3F1F3F3E7F3E7F7DFF7DFF327F3289
:100740007F173F173F0F1F0F1F000F00F0D0F8D08B
:10075000F8B8FCB8FC7CFE7CFECEFF0EFF0CFE1C45
:10076000FE98FC18FCD0F8D0F800F000E0A0F1A052
:10077000F171FB41FFBBFFBBFF76FF76FFBBFFB80C
:10078000FF41FF70FBA0F1A0F100E0000F0F1F0F71
:100790001F193F193F367F367F7DFF7DFF3E7F3E2D
:1007A0007F1F3F1F3F0F1F0F1F000F00F0D0F8D01B
:1007B000F818FC98FC1CFE0CFE0EFFCEFF7CFE7CA5
:1007C000FEB8FCB8FCD0F8D0F800F000E0A0F1A032
:1007D000F170FB41FFB8FFBBFF76FF76FFBBFFBBAD
:1007E000FF41FF71FBA0F1A0F100E0000F0F1F0F10
:1007F0001F1F3F1F3F3E7F3E7F7DFF7DFF367F36C1
:100800007F193F193F0F1F0F1F000F081000FE0038
:10081000FE38FE38FE38FE00FE00FE000000270015
:1008200027022700270227002700270000000000DA
:10083000FF1CFF38FE38FE00FC0000000000000036
:100840001301270027024F004F00000000000000A6
:100850000000FF1CFF00FC00000000000000000082
:10086000000013012F004F000000000000000000F6
:1008700000000000FF000000000000000000000079
:10088000000000004F000000000000000000000019
:100890000000FC1CFF00FF00000000000000000042
:1008A00000004F012F0013000000000000000000B6
:1008B000FC38FE38FE1CFF00FF00000000000000B6
:1008C0004F024F0027012700130000000000FEFC2C
:1008D000FE3CFE3CFE3CFEFCFE00FE00000027034A
:1008E0002702270227022703270027000000000015
:1008F000FFFEFF3CFEF8FE00FC00000000000000D0
:100900001301270227074F004F00000000000000DE
:100910000000FFFCFF00FC000000000000000000E1
:10092000000013012F004F00000000000000000035
:1009300000000000FF0000000000000000000000B8
:10094000000000004F000000000000000000000058
:100950000000FCFEFF00FF0000000000000000009F
:1009600000004F012F0013000000000000000000F5
:10097000FCF8FE3CFEFEFF00FF000000000000004F
:100980004F074F0227012700130000000000FCA8BA
:10099000FCA8FEA0FE80FE00FC00FC000000270278
:1009A0002702270227022702270027000000000055
:1009B000FE54FEA0FE00FE00F80000000000000053
:1009C0001301270227044F004F0000000000000021
:1009D0000000FE00FE00F800000000000000000023
:1009E000000013002F004F00000000000000000076
:1009F00000000000FE0000000000000000000000F9
:100A0000000000004F000000000000000000000097
:100A10000000F800FE00FE000000000000000000E2
:100A200000004F002F001300000000000000000035
:100A3000F800FEA0FE54FE00FE00000000000000D2
:100A40004F044F0227012700130000000000380068
:100A50007C00FE08FE08FE107C003800000020002C
:100A600020002000200020002000200000000000C6
:100A70001C00FE08FE20FE007000000000000000C8
:100A80001000200020004000400000000000000096
:100A900000001C00FE0070000000000000000000CC
:100AA00000001000200040000000000000000000D6
:100AB00000000000FE000000000000000000000038
:100AC00000000000400000000000000000000000E6
:100AD00000007000FE001C0000000000000000008C
:100AE0000000400020001000000000000000000096
:100AF0007000FE08FE08FE001C0000000000000060
:100B00004000400020002000100000000000FCF821
:100B1000FC00FCA8FCA8FCF8FC00FC00000027037B
:100B200027002702270227032700270000000000D4
:100B3000FEFCFEA8FCF0FC00F80000000000000035
:100B40001301270227074F004F000000000000009C
:100B50000000FEF0FE00F8000000000000000000B1
:100B6000000013032F004F000000000000000000F1
:100B700000000000FE000000000000000000000077
:100B8000000000004F000000000000000000000016
:100B90000000F8F0FE00FE00000000000000000071
:100BA00000004F032F0013000000000000000000B1
:100BB000F8F0FCA8FCFCFE00FE00000000000000B5
:100BC0004F074F0227012700130000000000F848DC
:100BD000FC48FC9CFE9CFE48FC48FC00F8003F01E1
:100BE0007F017F02FF02FF017F017F003F00F88845
:100BF000FC88FC1CFE1CFE88FC88FC00F8003F0200
:100C00007F027F05FF05FF027F027F003F00F8089B
:100C1000FC08FC1CFE1CFE08FC08FC00F8003F055C
:100C20007F057F0AFF0AFF057F057F003F00F80868
:100C3000FC08FC1CFE1CFE08FC08FC00F8003F0A37
:100C40007F0A7F14FF14FF0A7F0A7F003F00F80825
:100C5000FC08FC1CFE1CFE08FC08FC00F8003F140D
:100C60007F147F28FF28FF147F147F003F00F808BF
:100C7000FC08FC1CFE1CFE08FC08FC00F8003F28D9
:100C80007F287F50FF50FF287F287F003F00785843
:100C9000FC5CFEBEFFBEFF5CFE58FC0078003C30F2
:100CA0007E307E60FF60FF307E307E003C007858F2
:100CB000FC5CFEBEFFBEFF5CFE58FC0078003C30D2
:100CC0007E307E60FF60FF307E307E003C007858D2
:100CD000FC5CFEBEFFBEFF5CFE58FC0078003C30B2
:100CE0007E307E60FF60FF307E307E003C007840CA
:100CF000FC40FE80FF80FF40FE40FC0078003C305E
:100D00007E307E60FF60FF307E307E003C007840A9
:100D1000FC40FE80FF80FF40FE40FC0078003C303D
:100D20007E307E60FF60FF307E307E003C00784089
:100D3000FC40FE80FF80FF40FE40FC0078003C301D
:100D40007E307E60FF60FF307E307E003C00808021
:100D5000C0C0E0E0F0E0F0C0E080C00080003F3DB7
:100D60007F3D7F7BFF7BFF3D7F3D7F003F0080809D
:100D7000C0C0E0E0F0E0F0C0E080C00080003F3D97
:100D80007F3D7F7BFF7BFF3D7F3D7F003F0080807D
:100D9000C0C0E0E0F0E0F0C0E080C00080003F3D77
:100DA0007F3D7F7BFF7BFF3D7F3D7F003F008000DD
:100DB000C000E000F000F000E000C00080003F0252
:100DC0007F027F04FF04FF027F027F003F0080005C
:100DD000C000E000F000F000E000C00080003F0232
:100DE0007F027F04FF04FF027F027F003F0080003C
:100DF000C000E000F000F000E000C00080003F0212
:100E00007F027F04FF04FF027F027F003F16100075
:100E1000000000000000000000000080808080C012
:100E2000C0C0C0E0E0E0E0C0C0C0C0808080800002
:100E30000000000000000000000000040404040E94
:100E40000E0E0E1F1F1F1F3F3F3F3F7F7F7F7FFF05
:100E5000FFFFFF7F7F7F7F3F3F3F3F1F1F1F1F0E13
:100E60000E0E0E040404040000000000F0E0F01078
:100E7000F8D0F838FCB8FC7CFE7CFEFEFFFEFF7C60
:100E8000FE7CFEB8FCB8FC50F850F8A0F000F00072
:100E90000000000000000000070307000F070F001C
:100EA0001F0F1F003F1F3F007F2A7F153F153F0A7E
:100EB0001F0A1F050F050F0207000700000000F0C2
:100EC000F008F8D0F0A0E040C0FEFE01FFC6FE38FA
:100ED000F806FEF9FFC6FE38F870F08CFC02FEFC46
:100EE000FCC0C030F0CCFC02FEFCFC040407070888
:100EF0000F0F0F1E1F1D1F203F3F3F7C7F437FFFB3
:100F0000FF8FFF717F7E7F3F3F203F1B1F1C1F0F06
:100F10000F080F0707040400000000000080804055
:100F2000C020E010F008F804FC02FEABFF55FF0201
:100F3000FE04FC08F810F020E040C08080000000B3
:100F400000000004040606090F080F101F101F20E0
:100F50003F203F407F407FAAFFD5FF407F407F205A
:100F60003F203F101F101F080F090F060604040042
:100F7000000000000000000080008000C080C00071
:100F8000E0C0E000E0E0E000E0C0E000C080C000C1
:100F90008000800000000000000000000E040E0031
:100FA0001F0E1F003F1F3F207F2F7F70FF77FFF82E
:100FB000FFFBFF70FF77FF207F2F7F003F1F3F0069
:100FC0001F0E1F000E040E000000000000000000B5
:100FD0000000008080808040C040C0A0E0A0E040D1
:100FE000C040C08080808000000000000000000041
:100FF000000000040404040A0E0A0E151F151F2E1B
:101000003F2E3F5B7F5B7FB5FFB5FF5B7F5B7F2E36
:101010003F2E3F151F151F0A0E0A0E04040404007C
:10102000000000000000000000000080808080C000
:10103000C0C0C060E060E0C0C0C0C08080808000F0
:101040000000000000000000000000040404040E82
:101050000E0E0E1B1F1B1F353F353F6E7F6E7FDB55
:10106000FFDBFF6E7F6E7F353F353F1B1F1B1F0E63
:101070000E0E0E0404040400000000000000000036
:101080000000000080008080C080C0C0E0C0E08020
:10109000C080C00080008000000000000000000050
:1010A00000000000040004040E040E0E1F0E1F1B9F
:1010B0003F1B3F357F357F6EFF6EFF357F357F1BD2
:1010C0003F1B3F0E1F0E1F040E040E000400040100
:1010D00008001F110E0501111D150D170A282040CB
:1010E000402090CCE2FA797D1717080A0505020224
:1010F00001015050E8E8F4F4FAFA7DBDF0F8F3F39A
:1011000007037B7CFE7F0F03010602030000000043
:101110007D79FAE2CC9020404020010102020505D1
:101120000A081717BD7DFAFAF4F4E8E850507FFE7C
:101130007C7B0307F3F3F8F00000000003020601D4
:10114000030F1710000000000000008080C0C0E006
:10115000C0E0E0F0F0F870F878FCB8FCDCFEDCFEF3
:10116000EEFFECFE74FE70FC78FCF0F8F0F8E0F0B6
:1011700000E000F8F8FEFEFFFFFF1FFFE7FFFBFFA8
:101180007DFF1EFF0FFF07FF03FF03FF01FFFEFFB1
:10119000FEFFFFFFFFFFFFFF00FFFFFFFFFF00FF5E
:1011A00000E0E0F0F0F8F0F878FC70FC74FEECFE83
:1011B000EEFFDCFEDCFEB8FC78FC70F8F0F8E0F046
:1011C000C0E0C0E080C0008000000000000000FF20
:1011D000FFFFFFFF00FFFFFFFFFFFFFFFEFFFEFF20
:1011E00001FF03FF03FF07FF0FFF1EFF7DFFFBFF54
:1011F000E7FF1FFFFFFFFEFFF8FE00F80000000002
:101200000000008080C0C0E0C0E0E0F0F0F870F8BE
:1012100078FCB8FCDCFEDCFEEEFFECFE74FE70FC3D
:1012200078FCF0F8F0F8E0F000E000F8F8FEFEFFDF
:10123000FFFF1FFFE7FFFBFF7DFF1E7F0F1F070F55
:101240000307030701FFFEFFFEFFFFFFFFFFFFFF96
:1012500000FFFFFFFFFF00FF00E0E0F0F0F8F0F814
:1012600078FC70FC74FEECFEEEFFDCFEDCFEB8FCED
:1012700078FC70F8F0F8E0F0C0E0C0E080C00080DA
:1012800000000000000000FFFFFFFFFF00FFFFFF66
:10129000FFFFFFFFFEFFFEFF01FF03070307070F2E
:1012A0000F1F1E3F7DFFFBFFE7FF1FFFFFFFFEFF3E
:1012B000F8FE00F80F2000FF00FF00FF00FF00FF16
:1012C00000FFFFFF8FFF4FFF1FFFFFFF00FFFFFF2C
:1012D000FFFF00FF00FF00FF00FF00FF00FF00FF17
:1012E000FFFFFFFFFFFFFFFFFFFF00FFFFFFFFFF0D
:1012F00000FF80FFC0FFC0FFE0FFE0FFF0FFF7FF4F
:10130000EFFFEFFF5FFF5FFF007F3F7F1F3F003F6B
:101310000F1F070F070F0307030701030103000156
:10132000000100000000000000000000000000FFBD
:10133000FFFFFFFF00FFFFFF1FFF4FFF8FFFFFFFBC
:1013400000FF00FF00FF00FF00FF00FF00FFFFFFA6
:10135000FFFF00FFFFFFFFFFFFFFFFFFFFFF00FF9B
:1013600000FF00FF00FF00FF00FF003F1F3F3F7F27
:10137000007F5FFF5FFFEFFFEFFFF7FFF0FFE0FF92
:10138000E0FFC0FFC0FF80FF000000000000000081
:10139000000000000001000101030103030703072F
:1013A000070F070F0F1F00000000000000000000E3
:1013B00000FFFFFF8FFF4FFF1FFFFFFF00FFFFFF3B
:1013C000FFFF00FF0000000000000000000000FF21
:1013D000FFFFFFFFFFFFFFFFFFFF00FFFFFFFFFF1C
:1013E00000FF80C0C0E0C0E0E0F0E0F0F0FFF7FFF9
:1013F000EFFFEFFF5FFF5FFF007F3F7F1F3F003F7B
:101400000F1F070F070F0307030701030103000165
:10141000000100000000000000000000000000FFCC
:10142000FFFFFFFF00FFFFFF1FFF4FFF8FFFFFFFCB
:1014300000FF0000000000000000000000FFFFFFB0
:10144000FFFF00FFFFFFFFFFFFFFFFFFFFFF00FFAA
:1014500000000000000000000000003F1F3F3F7F31
:10146000007F5FFF5FFFEFFFEFFFF7FFF0FFE0F0B0
:10147000E0F0C0E0C0E080C000000000000000001C
:10148000000000000001000101030103030703073E
:10149000070F070F0F1F08200000000000000000CA
:1014A00000FFFFFFFFFF00FF000000000000000042
:1014B00000FFFFFFFFFF00FF000000000000000032
:1014C00000FFFFFFFFFF00FF000000000000000022
:1014D000007F1F3F1F3F001F00FFFFFFFFFF00FFB8
:1014E000000000000000000000FFFFFFFFFF00FF02
:1014F000000000000000000000FFFFFFFFFF00FFF2
:101500000000000000000000001F1F3F1F3F003FC1
:10151000000000000000000000FFFFFFFFFFFFFFD2
:1015200000FFFFFFFFFF00FF00FFFFFFFFFFFFFFC8
:1015300000FFFFFFFFFF00FF00FFFFFFFFFFFFFFB8
:1015400000FFFFFFFFFF00FF0007070F070F0F1F40
:10155000003F1F3F1F3F001F00FFFFFFFFFF00FF77
:10156000FFFFFFFFFFFF00FF00FFFFFFFFFF00FF88
:10157000FFFFFFFFFFFF00FF00FFFFFFFFFF00FF78
:10158000FFFFFFFFFFFF00FF001F1F3F1F3F003F48
:101590000F1F070F070F00070A2080800000505020
:1015A0000000AAAA00000000000000000000AAAA93
:1015B000000055550000AAAA00000000000000101D
:1015C0000000AAAA000055550000AAAA00000000C9
:1015D0000000000000000A0A0000050500000202E9
:1015E00000000000000000000000000000000000FB
:1015F00000000000AAAA00005050000080800000F7
:101600000010000000000000AAAA000055550000CC
:10161000AAAA00000000000000000000AAAA000022
:1016200055550000AAAA00000000000000000000BC
:1016300002020000050500000A0A000000A00000E8
:101640000054000000AA00000055000000AA00009D
:1016500000AA00000055000000AA0000005500107C
:1016600000AA000000AA00000055000000AA000027
:101670000055000000AA000000AA0000005500006C
:10168000002A000000150000000A00AA0000005512
:10169000000000AA00000054000000A0000000AA02
:1016A00000100055000000AA00000055000000AA2C
:1016B000000000AA00000055000000AA000000552C
:1016C000000000AA0000000A000000150000002A27
:1016D00000000055000000AA0000DC1CD91C7B1C87
:1016E000781C751C721C6F1C6C1C4F1CDF1C4A166E
:1016F0002E19211914192C1C0719FA18ED18091C98
:10170000E018D318C618E61BB918AC189F18C31BED
:10171000421A03081F111F121F101D151711151F44
:1017200007041F17151D1F151D01011F1F151F176A
:10173000151F03087F417F427F4079494F41497F10
:101740000F087F4F49797F497901017F7F497F4F9A
:10175000497F050800007E00007D7D00007F0606B1
:101760007670707676760000F0F0F7000070707694
:1017700006060000760606FEFEFE0000000076006B
:101780000070707600000508FEFFFFFFFEFEBFBF81
:10179000BFFEFEAFAFAFFEFEABABABFE07081F1147
:1017A000151511111F07081F19191F1F1F1F0508E5
:1017B0000E1F1D190E020800FFFFFF5D0880BEA26C
:1017C000A280BEA2A2BE80BE84C990BE80BE8AEAAC
:1017D000E2F8FFFFFF80AEAAAABA80BEA2A29C8058
:1017E000BE8AEAE288A29494A288FFFFFF88A2BE84
:1017F000A280BE84C990BE80BE8AEAE280BEA2A258
:10180000BE80FFFFFF80BE8AEAEE80BEA0AFAF8041
:10181000BE9292BE80EE88B88EE0FFFF80BEA2AA84
:1018200094C09EA0A09EC082BE82F882BE82F88034
:10183000BEA2A2BE80BE84C990BE80FFFF80AEAAB9
:10184000AABA80BEA2A2A280BE8888BE80BEAAAA72
:10185000A280BE84E984BE80BEAAAAA280FFFFFF48
:10186000FFFF80B8B0AA868E80FFFFFFFFFF808E4B
:1018700086AAB0B880FFFFFFFFFFFFFFFFFFFFFF5B
:10188000FFFFFFFFFF80AEAAAABA80BEA2A2BE8061
:10189000BEA0A0BE80BE84C990BE80BEA2A29CC1D4
:1018A000FFFFFFFFFF80BEA2A2BE80BE8AEAE280E9
:1018B000BE8AEAE2F8FFFFFFFFFF80BEA2A2BE8061
:1018C000BE84C990BE80FFFFFFFFFFFFFFFFFFFF49
:1018D000FFFFFFFF8040000000000000000000004C
:1018E0000000000000000000000000000000C060D8
:1018F0003058CC647266ECD8B060C0E038C8EC7484
:10190000747474747474747474E4ECECE8E8D8D08F
:1019100090B0206040C08080000000802020202007
:101920002020202020202020202020202080000097
:1019300000000000000000000000000000000000A7
:101940000000000000000000000000000000000097
:101950000000000000000000000000000000000087
:1019600000000000000000000080C0406020A0B126
:101970009B9E8C2E73F87F3F9FDE04F00EE3FC3EAF
:101980001F0F2F2F2F5F3FFFFEFEFE7E7C3DBDB958
:101990007BFBF7F7E6EE0CFD3B82F6ECE8DAB26291
:1019A000CA82028282828282AA82AA00002A8000DF
:1019B00000000000000000000000A00808888888DF
:1019C0008888888888888888888888080808A00087
:1019D000000000000000000080E030C8ECE4F4F6F5
:1019E000767676746448D8D8ECE7F0FA7B3B93C7F8
:1019F0009FBF3F4FE03E03017C83387F70E7EFEFEE
:101A0000EFCFDEDEDEDEDE9FBFBFBCBC7C7C787845
:101A10007370FF7F1FC3388FE0FFFFFFFFFFFFFFE3
:101A20007C81FE38000000000000802008A8AA2861
:101A3000282828A828282828A8088A280A08A08A48
:101A40008080808080808080AA8080AA0000AA0098
:101A500000000000000080807FC01E7FFFFFE1CCFF
:101A60009EB3A1A1B192DCC1FFFF83FCB8E79F7FC9
:101A7000FFFFFFFEFDFAFA3A89E5E6E8CEDEDEDE9C
:101A8000DDBDBDBD797B7BFBF3F77767EFEFEFCF74
:101A90005F5E5E5E4F617C7F477379FDFDFDFD7D7E
:101AA000787B7A7A7A7274E4C890B2C0888A2020EF
:101AB0002020222220202802A02802000000022844
:101AC000A080000000000000000000000000AA004C
:101AD0008080808080808080808103F2FE05F5F721
:101AE000FBFBFBFBFDFDFDCDCEE666666666680F83
:101AF000ECF5FBFBFDFDFDEDCDCD8D8B37C7FBFD83
:101B0000FDFEFEFEFF03E7E6CE9E9DC23EDAE5F651
:101B1000F7F7F3F37373FFFFFFFFFFFEFEF900FF1C
:101B2000FFFFFFFFFFFF0FE626C6FEFEFEFEFDFAEB
:101B3000F408D0E8F4FAFAFAFAFA1AFAFAF4E890A1
:101B40007088F6F4F4E8E8E8E8D0A0A0A0A0AAA085
:101B50004080008080802020202020231FFEE11F65
:101B6000FFFFFFFFFFFFFFFFE01C6642424242A76C
:101B7000AC3BD3C7CFCFDFFFFFFF7F7FFE19171F1F
:101B80001FDFDFBF3FF0B7FB1D1E1E11D05FDFBFA1
:101B90007FFFBFFF3C3C1FDFDFBF3FFFBFFD101FCC
:101BA0001F1FFFFF1F1F1C1BD8DFBF3FFF9FCFCF93
:101BB00063F0CF3F7FFFFFFFFFC7C6C7E77777031D
:101BC000F0FFFFFFFFFFFFFF07F3190919131313BE
:101BD000180F20202020A2A2A2A2A2A2A2A18F3E82
:101BE000F1CFCFCFCF4FC7A7A7A6A7B3B3B3B3B398
:101BF000B9A9ACA4A4A4A4A4A4A4A6A2FF80808094
:101C000080BFB2DBCFF0BFFF80808080F7CE8CB783
:101C1000F8AFBFF0C0C080BFB2DBCFF0AFFF8080B5
:101C20008080FFFF80808080BFB4DBCFF0BFA2A2A6
:101C3000A2A2A3A3A2A4A4A4A4A4A4A4A4A2AEB058
:101C4000B3B3A7A7A7A727B89FA7A0A2A2A2A2A2A3
:101C5000A2A2A2A2A2A2AAAAAAAAAAAAAAAAAAAA14
:101C6000AAAAAAA8873CFF0000000000000000000C
:101C70000000000000000000000000000000000064
:101C80000000000000000000000000000000000054
:101C90000000000000000000000000000000000044
:101CA0000000000000000000000000000000000034
:101CB0000000000000000000000000000000000024
:101CC000000000000FA0AAAAAAAAAAAAAAAAAAAAC1
:101CD000AAAAAAAAAAAA1E1800C038C6E9ADE1D1CC
:101CE000DDDDE1FDFDFDFDFDFDFDFDFDFDFDF5BDC8
:101CF000F9C638C215020041060808C84848D00095
:101D0000F81FDF5F5F9F3FFF18C0504808080808B2
:101D100066610008205088502003813943988A88E2
:101D20008B88898A888A889B423A0340123810003F
:101D30000200601800000000000000000000000029
:101D40000000000000000000000000007F415D5521
:101D5000577F416D6D517F4155555D7F416D6D419F
:101D60007F057D417D057F4155555D7F415D5D630B
:101D70003E007F415D55497F117747711F0000008C
:101D80000000000000000000000000000000000053
:101D9000000000000000000000007F416D6D417FE9
:101DA000007F4175151D7F417F515555457F417716
:101DB00077417F007F415D55577F416D6D417F4188
:101DC0005F50507F415F50507F4155555D7F415D71
:101DD0005D633E007F415F685F417F416D6D417F84
:101DE000417B77417F415D5D637F416D6D417F0048
:101DF00000000000007F416D6D417F417B77417F96
:101E0000415D5D633E007F417D137D417F416D6D8E
:101E1000417F417B77417F117747711F007F417D73
:101E2000137D417F416D6D417F417B77417F11770C
:101E300047711F007F415D5D417F057D417D057FCD
:101E4000417777417F4155555D7F416D6D517F51A0
:101E50005555457F0308007F3E7F007F804010205E
:101E60002080401000000000010203000104010076
:101E700001050100010607000108080001090A0028
:101E8000000000000102030001040100010501003F
:101E9000010607000108080001090A00000000000F
:101EA0000102030001040100010501000106070011
:101EB0000108080001090A000000000001020300F7
:101EC00001040100010501000106070001080800E6
:101ED00001090A0000000000180000050010001BA6
:101EE00000210026006C0074007D008C00A700AC6F
:101EF00000B100C000CF00F000F600FC000B0111A3
:101F0000015A01620166016C010612001640009D33
:101F1000249F41FA0DA741F419A314A3FE41F40D27
:101F2000A30DA314A319A3FEFD0201FC02FEFC01F4
:101F3000FC02FEFC02FD0103FC044CFEFC044CFC14
:101F4000FC044DFC04FD0103FC044CFEFC044CFCB1
:101F5000FC044C03FC04FD01034C07FC044C05FC91
:101F6000044C03FD0104FD01034C07FC044C05FC7B
:101F7000044C03FC044DFC04FE4030FD0203FD0252
:101F8000019E07130017FD01059F31A72FA731A759
:101F90002CA728A72CA725AFFE31A733A734A7333A
:101FA000A734A731A733A731A733A72FA731A72F6E
:101FB000A731A7FE2DA731AFFE33A734AFFE38A758
:101FC00036A738A734A72FA734A72CAFFE31A72FE9
:101FD000A731A72CA728A32CA725B3FE31A733A789
:101FE00034A733A334A734A731A333A731A333A72E
:101FF00033A72FA331A72FA331A731A3FEA32DA36E
:1020000031AFFEA333A334AFFE38A736A738A734C9
:10201000A72FA334A72CB3FE4000DFDFDFCF403073
:1020200041E8FD0108FC09FC0AFD0108FC09FC0B64
:10203000FD010C4C07FC09FC0A4DFD010C4C07FC92
:1020400009FC0B4DFD010DFC0EFC0FFD010DFC0EFE
:10205000FC10FD01114C07FC0EFC0F4DFD01114C55
:1020600007FC0EFC104D9F4904402041FAAFFEFDD5
:102070000314FEFD0215FD0214FC14FD0F15FC14E3
:10208000FD0F159F000006011501260137014A01C9
:102090005D01720188019F01B801D201EE010B02BE
:1020A0002A024B026E029302BA02E40210033F03BB
:1020B0007003A403DC03170455049704DD0427050B
:1020C0007505C80520067D06E0064907B8072D08F6
:1020D000A9082D09B9094D0AEA0A900B400CFA0C1F
:1020E000C00D910E6F0F5A1053115B1272139A1498
:1020F000D41520178018F519801B231DDE1EB4206F
:10210000A622B524D5F08D14A1C881CFD9F1AF2076
:102110000004000003000B001C0001000000400050
:102120009F9DA04030FD07029FFC034CFBFC034C2D
:10213000FDFC034CFFFC034C00FE41FC25AF29AF26
:102140002CAFFE561819182620D917FF1FD81F8A42
:10215000227022E21E52222E22B3214B16080B00BF
:10216000020202000009040000010202000005242E
:1021700000100105240101010424020605240600C3
:10218000010705810310004009040100020A000054
:10219000000705020240000007058302400000041A
:1021A00003090412010002EF0201404123368000BE
:1021B000010102030141726475696E6F204C4C434A
:1021C0000041726475696E6F204C656F6E61726458
:1021D0006F002F2D11241FBECFEFDAE0DEBFCDBF81
:1021E00011E0A0E0B1E0E8E6FEE502C005900D9246
:1021F000AE32B107D9F728E0AEE2B1E001C01D92DE
:10220000AA34B207E1F710E1CAEED0E104C0219789
:10221000FE010E94252FC93ED107C9F70E944E2D0D
:102220000C94322F0C9400008130A9F028F08230F9
:1022300019F1833059F1089586E0689FF001112467
:10224000E65EF74F82819381019793838283808139
:10225000918102970EC086E0689FF0011124E65E2E
:10226000F74F82819381019793838283808191814B
:10227000029691838083089586E0689FF00111247F
:10228000E65EF74F828193810196EECF86E0689FEC
:10229000F0011124E65EF74F828193810196D5CF3C
:1022A000FC018091F205882311F13FB7F89482E098
:1022B0008093E9002091F200822F90E01816190611
:1022C00014F481E090E0882339F0289844E64093A4
:1022D000F1054091F1004083222339F02091F20072
:1022E000211103C02BE62093E8003FBF08958FEF34
:1022F0009FEF08952FB7F89483E08093E9009091C1
:10230000E800892F807295FF04C09091F20080E46C
:10231000891B2FBF08958091E90581110DC082E0CE
:102320008093E50584E08093E6051092E80510921D
:10233000E70581E08093E90585EE95E00895CF9368
:10234000DF931F92CDB7DEB76983DC01ED91FC917D
:102350000280F381E02D41E050E0BE016F5F7F4FCE
:1023600009950F90DF91CF91089583E08093E90064
:102370008091F200882319F08AE38093E8000895A1
:102380000E947A1190E00895CF93DF931F92CDB70A
:10239000DEB7FC018485958597FD08C02FEF3FEFE0
:1023A000358724870F90DF91CF910895CE01019654
:1023B0000E945011019719F4898190E0F3CF8FEFBB
:1023C0009FEFF0CF0F931F93CF93DF931F92CDB763
:1023D000DEB78C01FC018485958597FF0BC0CE018B
:1023E00001960E945011019771F4898190E0F801E3
:1023F00095878487F801848595850F90DF91CF912B
:102400001F910F9108958FEF9FEFF1CFFC0184850D
:10241000958597FD0BC09FB7F89482E08093E90003
:102420008091F2009FBF90E0019608959FB7F894C5
:1024300082E08093E9008091F2009FBF90E00895D0
:102440004091DF055091E0052091DD053091DE05DA
:1024500042175307B4F49091E8009570E1F390911E
:10246000E80092FD19C08093F1008091DF05909102
:10247000E00501968F739927892B19F48EEF8093CD
:10248000E8008091DF059091E00501969093E005CA
:102490008093DF0581E0089580E00895EF92FF9238
:1024A0000F931F93CF93DF93F82E192FE62E042F4F
:1024B00081E0860F880F0E94201283E00E94201284
:1024C000CF2DD12FEC0EFD2EF11CCE15DF05B9F06E
:1024D00007FF13C0FE0184910E942012182F80E094
:1024E0000E942012812321968111EFCFDF91CF919D
:1024F0001F910F91FF90EF9008958881EDCF81E0BB
:10250000F5CFDF92EF92FF920F931F93CF93DF935C
:10251000D82E8A01EB017B01E40EF51ECE15DF05F6
:1025200059F0D7FE12C0FE0184910E94201221961C
:102530008111F4CF0FEF1FEFC801DF91CF911F91F1
:102540000F91FF90EF90DF9008958881EECF0F9369
:102550001F93CF93DF931F92CDB7DEB782E08983BD
:1025600042E450E06DE571E280E80E9481120E9431
:102570008B11DC0112960D911C910115110589F04A
:10258000D801ED91FC910280F381E02DBE016F5FD7
:102590007F4FC801099597FD04C0F801008511859A
:1025A000ECCF89810F90DF91CF911F910F9108950A
:1025B000615030F02091F100FC0120830196F8CFAA
:1025C000289884E68093F10508953FB7F8948091A8
:1025D000D9059091DA05A091DB05B091DC0526B50F
:1025E000A89B05C02F3F19F00196A11DB11D3FBF4B
:1025F000BA2FA92F982F8827BC01CD01620F711D1A
:10260000811D911D42E0660F771F881F991F4A9513
:10261000D1F708958F929F92AF92BF92CF92DF929F
:10262000EF92FF926B017C010E94E5124B015C016D
:10263000C114D104E104F104B9F00E94E512681953
:1026400079098A099B09683E73408105910580F3E9
:1026500021E0C21AD108E108F10888EE880E83E073
:10266000981EA11CB11CE4CFFF90EF90DF90CF909B
:10267000BF90AF909F908F90089565E070E080E0EC
:1026800090E00C940A138F929F92AF92BF92CF92D8
:10269000DF92EF92FF920F931F93CF93DF936C0122
:1026A0007B018A0180910F01882309F45CC080912D
:1026B000F205882309F457C08091E40580FF05C026
:1026C0008091E00082608093E000E801B12C8AEF05
:1026D000A82E93E0892E2AE3922E209711F4BB2096
:1026E000D9F10E947A1181110AC0AA94AA20D9F1C5
:1026F00061E070E080E090E00E940A13EECF8C175A
:102700001D0611F00CF08C2F9FB7F8948092E90011
:102710002091E80025FD02C09FBFDFCF282F30E0C9
:10272000C21BD30BF701815020F041914093F1007F
:10273000FACFE20EF31EBB2021F09092E800B12CFC
:10274000EBCF8091E80085FDE7CF9092E800BB24B5
:10275000B394209709F3F3CF5D9884E68093E30563
:10276000101611063CF081E090E0F601938382831D
:1027700010E000E0C801DF91CF911F910F91FF9011
:10278000EF90DF90CF90BF90AF909F908F90089583
:1027900090E0880F991FE091EF06F091F006E80FA6
:1027A000F91F859194912091ED063091EE06820FEC
:1027B000931F08954F925F926F927F928F929F9294
:1027C000AF92BF92CF92DF92EF92FF920F931F933F
:1027D000CF93DF934C015901FC2DC02FD0E0CE01E7
:1027E000880D991D181619060CF06CC020E8821689
:1027F00091040CF067C09B012E0D311D12161306BB
:102800000CF060C0603471050CF05CC041155105DE
:1028100009F458C0E62FE770FE2EDB0177FD17960E
:1028200033E0B595A7953A95E1F73A2F77FF04C0C5
:10283000FF2011F03FEF3A0F6627772768197909D3
:1028400097FC02C070E060E0803891050CF44BC04A
:1028500090E89819961BA32F032E000CBB0B1A2F80
:1028600010953F3F0CF010E021E08E2D877009F4A9
:1028700020E0E694E694E694E20EAE0DB11D1997C1
:102880001CF028E0E22EE31AE11A310F20E83203AF
:10289000D0011124A80DB91DA60FB71F019F600D0F
:1028A000711D1124460F571F0F2D0F2C000C110BFB
:1028B000F33009F41CC1C8F4F13009F4D0C0F2308F
:1028C00009F47CC0DF91CF911F910F91FF90EF90A1
:1028D000DF90CF90BF90AF909F908F907F906F9040
:1028E0005F904F900895902FB5CFFA3FB1F1232F0D
:1028F0002E0DFB3F39F7321729F3BD016E527E4F83
:10290000D12CC12CC91608F0A4C0FA01EC0DFD1D94
:10291000E491F0E04F01002E02C0880C991C0A944B
:10292000E2F737FD06C0FB018081E82CE0948E21A0
:102930008083FF2061F0373054F45B01F0E8AF0E84
:10294000B11CE92CE094F50180818E218083FFEF9A
:10295000CF1ADF0A6F5F7F4FD5CF232F2E0D32178F
:1029600009F4B0CFBD016E527E4FD12CC12CC916D7
:1029700008F069C0FA01EC0DFD1DE491F0E04F0193
:10298000002E02C0880C991C0A94E2F737FD04C09F
:10299000FB01808188298083FF2051F0373044F487
:1029A0005B01F0E8AF0EB11CF501808189298083BD
:1029B000FFEFCF1ADF0A6F5F7F4FD9CF6FEF70E065
:1029C0000F2C02C0660F771F0A94E2F7609570958E
:1029D000772E232F2E0D321709F474CFFD01EE52FE
:1029E000FE4F6F01B12CA12CA91638F5FA01EA0DA2
:1029F000FB1DE491F0E02F01002E02C0440C551C99
:102A00000A94E2F737FD05C0F60180818623842908
:102A10008083FF2059F037304CF44601F0E88F0EE8
:102A2000911CF4018081872185298083FFEFAF1AF3
:102A3000BF0A8FEFC81AD80AD7CF3F5F4C0F5D1F70
:102A4000A058BF4FC8CF3F5F4C0F5D1FA058BF4F6E
:102A500086CF3F5F4C0F5D1FA058BF4F4CCF6A0D14
:102A60007B1D232F2E0D321709F42CCFFD01EE52C2
:102A7000FE4F6F01B12CA12CA91688F5FB01EA0DC0
:102A8000FB1D8490912C002E02C0880C991C0A9486
:102A9000E2F780949094FA01EA0DFB1D6490712C8A
:102AA000002E02C0660C771C0A94E2F737FD05C0C1
:102AB000F6018081882186298083FF2049F0373004
:102AC0003CF4F601E058FF4F8081892187298083FB
:102AD000FFEFAF1ABF0A8FEFC81AD80ACDCF3F5FFA
:102AE0004C0F5D1F6C0F7D1FA058BF4FBCCFC92E70
:102AF000D12CFA01E60FF71FAE52BE4F00E810E0EE
:102B00000C191D09CC19DD09BE01660F771F41E0C4
:102B100050E06A010F2C01C0CC0C0A94EAF7592F3F
:102B20002E2D792ECF93DF93ED01EF96EF9622961F
:102B30008590A590FF2059F08C9C4001AC9C5001E1
:102B400037302CF4E880B094EB20E928E992332365
:102B50003AF0EC90A094EA20E828ED920C94B1159C
:102B600011965A9529F72A9551F0572D339511242E
:102B7000E60FF11DA00FB11DC00FD11DD9CFDF9100
:102B8000CF9111249FCECF92EF920F93FA0104912F
:102B90003196E4904E5F5F4F2223F9F0A1E0B0E060
:102BA0003E2D377011F4B0E0A0E0EE2DE695E695ED
:102BB000E695EA0FFB2FF11D0E9FD0010F9FB00D80
:102BC000112430E0220F331FA29FF001A39FF00DCC
:102BD000B29FF00D11244E0F5F1F23E0C22E30E094
:102BE00020E00E94DA130F91EF90CF900895CF92DA
:102BF000EF920F93CF93DF93DC01FA0104913196AA
:102C0000E4904E5F5F4F2223D1F0C1E0D0E09E2DD3
:102C1000977011F4D0E0C0E0EE2DE695E695E695CC
:102C2000EC0FFD2FF11D0E9FE0010F9FD00D112421
:102C30002C9FC0012D9F900D1124480F591F8AEF22
:102C4000C82E30E020E0CD010E94DA13DF91CF9151
:102C50000F91EF90CF9008958FB18095807F669B04
:102C600088601C9B846008951092CD013E983F9827
:102C700008953E9A3F9A81E08093CD010895909106
:102C8000D205982329F49091D305982381E009F483
:102C900080E008950895089596E0899FF001112439
:102CA000E65EF74F8481282F30E093E03595279535
:102CB0009A95E1F72370660F6150260F220F220FBD
:102CC000220F2871877E282B24830895E091BE0669
:102CD00086E0E89FF0011124E250FA4F81818F7D58
:102CE00081830895CF92DF92EF92FF9280914B0102
:102CF000823059F480912A088770823009F453C0D9
:102D000048F48823D9F08130B9F1FF90EF90DF903B
:102D1000CF900895833009F46DC08430B1F70E94DC
:102D200066168091C6019091C701A091C801B0912B
:102D3000C90188539F4FAF4FBF4F15C08091F90510
:102D400085FDE3CF80628093F9050E94661680912D
:102D5000C6019091C701A091C801B091C9018C59D9
:102D60009F4FAF4FBF4F8093C6019093C701A09371
:102D7000C801B093C901C9CF8091F905982F987106
:102D8000983119F2885F8093F9050E946616809148
:102D9000C6019091C701A091C801B091C9010A96DE
:102DA000A11DB11DE0CF8091F705C090C601D09064
:102DB000C701E090C801F090C901833098F48F5F9B
:102DC0008093F7050E94661684E1C80ED11CE11CB1
:102DD000F11CC092C601D092C701E092C801F092E6
:102DE000C90193CF0E94661682E3C80ED11CE11C74
:102DF000F11CEFCF8091F905982F9770973009F467
:102E000084CF8F5F8093F9050E9466168091C6017A
:102E10009091C701A091C801B091C9014E96A11D22
:102E2000B11DA1CFA091CB01B091CC01AA0FBB1FC6
:102E30002A9FF0012B9FF00D1124660F771F57FD7D
:102E40002CC0443051054CF442305105E9F0433078
:102E5000510519F14130510551F0680F791FE75ABA
:102E6000FF4F81E0E617F70774F480E00CC09C0187
:102E7000261B370BB9012FE030E02E1B3F0B81E002
:102E80006217730794F30895EA54FF4F680F791F90
:102E900081E0E617F707BCF3E8CF9C01261B370B50
:102EA000B9012FEA3FEF2E1B3F0B81E026173707B2
:102EB00054F7DBCF50E021E00E941217882379F10C
:102EC0009091F8052091FA05392F33703230E9F1ED
:102ED000333009F459C0313019F1223001F5E09155
:102EE000BE0626E0E29FF0011124E250FA4F208155
:102EF00024FF15C020FD13C090629093F8052BE1CC
:102F000030E03093F4052093F3052091CB0130910C
:102F1000CC01225E3F4F3093F6052093F5050895CE
:102F20002A30E9F7E091BE0626E0E29FF001112485
:102F3000E250FA4F208125FFF2CF21FDF0CF9062C1
:102F40009093F8052BE430E0DCCF263141F7E09197
:102F5000BE0626E0E29FF0011124E250FA4F2081E4
:102F600026FFDDCF22FDDBCF90629093F8052BE4A6
:102F700030E03093F4052093F3052091CB0130919C
:102F8000CC012A5C3F4FC7CF2E3049F6E091BE06F8
:102F900026E0E29FF0011124E250FA4F208127FF42
:102FA000BECF23FDBCCF90629093F8052BE130E0BB
:102FB000E0CF20E042E35DE164E170E080E190E099
:102FC0000E94F7158CE00E943F16811110920301B8
:102FD00008958091CE0180FD0AC0809148019091B2
:102FE00049019F5F909349018150809348018091EE
:102FF0004901803218F084E18093490180914801B1
:10300000853118F480E280934801089520E044ED72
:1030100058E170E060E090E080E00E94F7152091B8
:1030200003014BEB57E168E370E081E190E00C9421
:10303000F715CF93DF93C0914C018CE0C89FC02D52
:103040001124CF5B0E9406180E94E917D0E08091FE
:10305000490120E044E55EE168E370E08C0F9D2FBC
:10306000911D0E94C3158091480120E044E55EE176
:1030700068E370E08C0F9D2F911D0E94C31580E4C2
:103080000E943F16882319F084E080934C0180E26F
:103090000E943F16811110924C018CE00E943F1655
:1030A000811110920301DF91CF9108950F931F9327
:1030B000CF930E9406180E94E917C091010188E190
:1030C000C89F800111248091490120E044E55EE120
:1030D00068E370E0800F912F911D0E94C3158091CD
:1030E000480120E044E55EE168E370E0800F912F45
:1030F000911D0E94C31580E40E943F16882329F089
:10310000C33018F4CF5FC093010180E20E943F16E4
:10311000882339F080910101882319F08150809330
:1031200001018CE00E943F16882329F08091010163
:103130008F5F80930301CF911F910F91089560914C
:10314000CB017091CC016A5C7F4F23E046E954E1EA
:103150008DE190E00C94C3156091CB017091CC018E
:103160006A5C7F4F23E044EB52E18EE090E00C94E8
:10317000C3156091CB017091CC016A5D7F4F23E054
:1031800042E451E18EE090E00C94C3156091CB01D4
:103190007091CC016A5C7F4F22E046E954E181E501
:1031A00090E00C94C3156091CB017091CC016A5CE6
:1031B0007F4F22E044EB52E189E590E00C94C31587
:1031C0006091CB017091CC016A5D7F4F22E042E4B7
:1031D00051E181E590E00C94C3156091CB017091B1
:1031E000CC016B5E7F4F21E046E954E18FE590E032
:1031F0000C94C3156091CB017091CC016B5E7F4F35
:1032000021E044EB52E180E590E00C94C31560911D
:10321000CB017091CC016B5F7F4F21E042E451E123
:1032200080E590E00C94C3156091CB017091CC01C6
:103230006B5E7F4F20E046E954E180E190E00C9422
:10324000C3156091CB017091CC016B5E7F4F20E084
:1032500044EB52E188E190E00C94C3156091CB01FE
:103260007091CC016B5F7F4F20E042E451E180E13F
:1032700090E00C94C3158F929F92AF92BF92CF9221
:10328000DF92EF92FF920F931F93CF93DF930EEF96
:103290001FEFD0E0C0E0E090CB01F090CC01B7018F
:1032A000675E7F4F6C0F7D1F20E04CED50E1C80141
:1032B0000E94F715B7016C1B7D0B21E04CED50E12E
:1032C000C801CE960E94F7152597065F1F4FC23E94
:1032D0008FEFD80701F78EE4C82E81E0D82EE601E3
:1032E000AA24A394B12C10E000E096E2E90EF11CB0
:1032F00028814FEC50E14701811A9108B401CE01B9
:103300008E5491400E94F71529814FEC50E1B40191
:10331000C5010E94F7150D3150F51F5F0F5F229612
:10332000E2E0AE0EB11C0B3319F78091CE01909103
:10333000CF0187709927892B69F480914E01F6019E
:10334000918191936F01F6ECCF16F1E0DF06B9F7AA
:103350008093C601DF91CF911F910F91FF90EF9065
:10336000DF90CF90BF90AF909F908F9008951150B5
:10337000D5CF9F92AF92BF92CF92DF92EF92FF9202
:103380000F931F93CF93DF9300E310E0D0E0C0E0F2
:10339000A12C83E0982E7801D12CC12CB12C409126
:1033A000CB015091CC0182E0B81242C0A81240C0BB
:1033B0009091BE0680914D0198133AC080914701CB
:1033C0002091CE013091CF0127703327232B31F488
:1033D0008F5F692D0E94F12E909347012091470144
:1033E0002B5FBA016D5C7F4F4DE05EE080E390E0C3
:1033F0000E94C315B39486E0C80ED11C8CE0E81A75
:10340000F10885E0B812CBCFA3942696045F1F4F36
:10341000CE31D10509F0BFCFDF91CF911F910F9130
:10342000FF90EF90DF90CF90BF90AF909F90089566
:10343000BA01655E7F4F6C0D7D1D6C0F7D1F20E016
:103440004DE05EE0C701D4CF0F931F93CF93DF937E
:103450000E943B190E94B919CFEBD6E00DEE16E0A1
:10346000E991F0E0EE0FFF1FE652F94E859194913D
:10347000FC0109950C171D0799F7DF91CF911F915A
:103480000F9108950895BF92CF92DF92EF92FF922D
:103490000F931F93CF93DF9326E0829FF0011124B7
:1034A000E250FA4FE180F12C3DE0839FA00111240E
:1034B000CAE1D8E007E010E0862F8150990BDC01CB
:1034C000AA0FBB1FAF5EBE4F4F5E5F4F25E0C22EFF
:1034D00036E0D32E6CE0B62E1C82C701002E02C04F
:1034E000959587950A94E2F780FF36C08D919C915F
:1034F0001197FA01E01BF10BE80FF91F249130E05E
:1035000083E0359527958A95E1F7822FE49129315B
:1035100008F4EC836C2D0E94F12E8D9DB0011124D6
:103520006C5F7F4F621B730BB69EF001B79EF00D70
:1035300011243396F983E883D29EB001D39E700D97
:1035400011246E5E7F4F28EE382F2303C001112413
:10355000860F971F9B838A8326960150110908F0D6
:10356000BBCFDF91CF911F910F91FF90EF90DF9034
:10357000CF90BF9008959AEA899FA001112485E514
:1035800091E0689F9001699F300D1124CA01820F5C
:10359000931F8FEC890F90E064E0959587956A956D
:1035A000E1F7982F990F990F890F241B350B92E1A2
:1035B000930F92959F70890F08950F93CF93C22F09
:1035C00057FD20C0443051054CF442305105B9F04C
:1035D00043305105B9F04130510571F064508850C5
:1035E0000E94BB1A80934A01E0914A01E93168F0D8
:1035F00080E0CF910F9108956450885FF1CF6D5FA7
:103600008A5FEECF6D5F8650EBCFF0E0E154F94F6B
:10361000828580934B018B3159F3CC2321F0893083
:1036200039F381E0E6CF011113C0882309F3893013
:10363000C1F78091F80583FDF4CF9091F705915083
:103640009093F705992339F088608093F805E9CFC6
:10365000813069F7CDCF877F8061F7CFE091CA01D4
:10366000E150FF0BEE0FFF1FEF5EFE4F0190F08168
:10367000E02D339684919091BE06282F30E0359549
:103680002795359527952F7133279217130611F437
:10369000837008950895CF939091F90595FF36C0F2
:1036A000C82F0E942E1B282F8C1330C09091F90533
:1036B00090529093F9054091C6015091C7016091D5
:1036C000C8017091C90148515C4F6F4F7F4F4093C3
:1036D000C6015093C7016093C8017093C901E0917E
:1036E000BE0686E0E89FF0011124E250FA4F81E027
:1036F00090E0A0E0B0E004C0880F991FAA1FBB1F94
:103700002A95D2F78095908189238083CF9108955F
:10371000CF939091F9059871A1F1C82F0E942E1BAB
:103720008C1779F18091F90588508093F905809183
:10373000C6019091C701A091C801B091C901C2967C
:10374000A11DB11D8093C6019093C701A093C8012C
:10375000B093C901E091BE0686E0E89FF001112414
:10376000E250FA4F81E090E0A0E0B0E004C0880FA2
:10377000991FAA1FBB1FCA95D2F7809590818923F4
:103780008083CF910895CF93DF93C091CB01D091E7
:10379000CC01BE01605D7F4F23E048E955E183E144
:1037A00090E00E94C3150E942E1B833061F4BE017D
:1037B0006F5C7F4F23E048E955E183E190E0DF91C2
:1037C000CF910C94C315DF91CF910895CF93DF93E0
:1037D000C091CB01D091CC01BE01605D7F4F22E052
:1037E00048E955E189E590E00E94C3150E942E1B2F
:1037F000823061F4BE016F5C7F4F22E048E955E101
:1038000089E590E0DF91CF910C94C315DF91CF91C2
:103810000895CF93DF93C091CB01D091CC01BE012D
:10382000615F7F4F21E048E955E185E590E00E9426
:10383000C3150E942E1B813061F4BE01605F7F4F73
:1038400021E048E955E185E590E0DF91CF910C94C6
:10385000C315DF91CF910895CF93DF93C091CB0132
:10386000D091CC01BE01615F7F4F20E048E955E176
:1038700088E190E00E94C3150E942E1B81110CC0AC
:10388000BE01605F7F4F20E048E955E188E190E0AC
:10389000DF91CF910C94C315DF91CF9108950895D6
:1038A00096E0899FF0011124E65EF74F24812223E0
:1038B00091F02770628173818091CB019091CC014E
:1038C000680F791F675F7F4F808191814DE05EE0D7
:1038D00003970C94C315089587E00C94501C86E060
:1038E0000C94501C85E00C94501C84E00C94501CEB
:1038F00083E00C94501C8091CE019091CF01877091
:103900009927892B41F480912B088F5F66E00E94F4
:10391000F12E90932B0880912A088770282F220F70
:10392000280F220F80912B08280F60912808709192
:1039300029088091CB019091CC01680F791F6A5FB3
:103940007F4F80912608909127084BE058E004961D
:103950000C94C31596E0899FF0011124E65EF74FA1
:103960008481282F30E087708130C1F018F08230D8
:10397000C1F0089593E0359527959A95E1F7237066
:10398000628173818091CB019091CC01680F791F86
:1039900049E853E0808191810C94C31525812C5F07
:1039A000EFCF83E0359527958A95E1F72370285F5F
:1039B000E7CF81E00C94AA1C80E00C94AA1CEF9243
:1039C000FF920F931F93CF93DF938091F805182FE9
:1039D0001370012F000F87FF1CC0D0E0C0E0E02E65
:1039E000F12C6091F5057091F605665071096C0F28
:1039F0007D1F6E197F098091F3059091F40520E0F9
:103A000047E253E004970E94C3152896C831D105B8
:103A100041F78091F8056091F5057091F60524E075
:103A200084FD07C082FF0DC06091F5057091F60519
:103A3000212F45E451E08091F3059091F4050E9417
:103A4000C3158091F80587FF1BC0D0E0C0E010E0EF
:103A50006091F5057091F6056E5F7F4F6C0F7D1FCD
:103A6000601B710B8091F3059091F40521E047E212
:103A700053E004970E94C3152896C831D10541F739
:103A8000DF91CF911F910F91FF90EF90089540919A
:103A9000F805842F807629F08091FB058F5F809355
:103AA000FB058091CB019091CC0143702091F305EF
:103AB0003091F405423081F14330D1F14130A1F031
:103AC00097FF08C001969093CC018093CB012250C0
:103AD000310913C08091F5059091F60501979093F7
:103AE000F6058093F505F3CF97FF0CC001969093F0
:103AF000CC018093CB012E5F3F4F3093F405209390
:103B0000F30508958091F5059091F605019790933E
:103B1000F6058093F505EFCF833E4FEF940714F041
:103B20000197E5CF8091F5059091F6050196EFCFCD
:103B3000833E4FEF940714F00197C5CF8091F505B0
:103B40009091F6050196CBCFEF92FF920F931F93C2
:103B5000CF93DF931092720021E030E03093460162
:103B600020934501E2EFF6E048EDDF011D924A9512
:103B7000E9F740EF4093100149E14093F10641E736
:103B800052E050934401409343013093400120930D
:103B90003F013093BA072093B90722E42093C00075
:103BA00021E02093C1002FEF2093D10020E8209343
:103BB000CF00EC012196FC018491D093F006C093D4
:103BC000EF0690E0880F991FC80FD91FCE01049609
:103BD0009093EE068093ED0632EFE32E36E0F32E5F
:103BE00010E000E0FE01E00FF11F84910E94C81375
:103BF000D7018D939C930F5F1F4FB6E3EB0EF11C23
:103C00000430110579F784E080937200DF91CF9141
:103C10001F910F91FF90EF900895CF92DF92EF9256
:103C2000FF920F931F93CF93DF934EE250E06BE12F
:103C300070E08FEB96E00E942B2FE091BE064E2F96
:103C400050E026E0E29FF0011124E250FA4F80811B
:103C500084FF09C09BE09093BF069CE09093C00650
:103C60009DE09093C20680FF03C09EE09093C30640
:103C700085FF09C09FE09093C40690E19093C5062C
:103C800091E19093C70681FF03C092E19093C8062B
:103C900086FF09C093E19093E20694E19093E306D6
:103CA00095E19093E50682FF03C096E19093E606C6
:103CB00087FF09C097E19093E70698E19093E806A3
:103CC00099E19093EA0683FF03C08AE18093EB06B3
:103CD0008091F805982F907609F03FC0E091FA05A1
:103CE000F0E0E154F94F89E0828786E0849FF0019B
:103CF000859FF00D1124E250FA4F018110E08AE116
:103D0000C82E88E0D82ED0E0C0E097E0E92EF12C54
:103D1000C7018C1B9D0BF80102C0F595E7958A95AC
:103D2000E2F7E0FF0AC0F601628180810E94BB1ABF
:103D3000E82FF0E0E154F94FC287219636E0C30E38
:103D4000D11CC830D10521F7DF91CF911F910F9180
:103D5000FF90EF90DF90CF900895282F2072982F3A
:103D6000907483708230B1F0833001F1813061F062
:103D7000222319F089E08093C106992309F4B5CF75
:103D800089E08093E406B1CF2223B9F389E08093E0
:103D9000C606F3CF222319F089E08093E406992325
:103DA00009F4A3CF89E08093C1069FCF222319F0A5
:103DB00089E08093E906992309F497CF89E08093FD
:103DC000C60693CF3F924F925F926F927F928F92EF
:103DD0009F92AF92BF92CF92DF92EF92FF920F939A
:103DE0001F93CF93DF936091CA016F5F6093CA0105
:103DF0001092BE068CE08093FA0582EF9FEF9093BD
:103E0000CC018093CB0183E390E09093F405809301
:103E1000F3058CE190E09093F6058093F505862FED
:103E20008150990BFC01EE0FFF1FEF5EFE4F2081CA
:103E30003181F9013496E491E0934D01A901F90132
:103E40003490FDE03F9E800111240B5F1F4FF9016C
:103E50003196C491C00FD12FD11DAEEFB5E070E007
:103E6000E12CF12C812C912C54018394371609F408
:103E70006AC011961C92119712961C921297139673
:103E80001C92139714961C92149715961C921597D2
:103E9000FA013596E491EC9387E090E06A01E1E164
:103EA000CE0ED11CF601E81BF90BE491EE2389F04C
:103EB0001196EC91119724013501082E04C0440C91
:103EC000551C661C771C0A94D2F74E2A11964C9208
:103ED0001197019738F7CA010C96FC01D490ED2D8B
:103EE000E770E53051F4F801EF0DF11DE20FF31F1B
:103EF000E4911296EC931297F394FC0184918770ED
:103F00008630E0F0CE018E0D911DF901E80FF91F0A
:103F1000E4911396EC931397FC013196E20FF31F93
:103F2000E4911496EC931497FC013296E20FF31F80
:103F3000E4911596EC931597F3E0EF0E7F5F435FE6
:103F40005F4F169693CF80E00E94431AEEE4F1E0B3
:103F500088E7DF011D928A95E9F790E080E020E094
:103F600031E1883780F4DC01A25BBE4F233021F4BD
:103F70003C9320E00196F5CFFC01EC59F14EE49121
:103F8000EC932F5FF7CF89E080930301DF91CF910E
:103F90001F910F91FF90EF90DF90CF90BF90AF9067
:103FA0009F908F907F906F905F904F903F9008957B
:103FB0008091CE019091CF0168E770E00E94FD2EC4
:103FC000892BA1F410927200E2EFF6E088EDDF0198
:103FD0001D928A95E9F780EF8093100188ED9EE1AC
:103FE0000E94A41D10924C011092030120E046EDA6
:103FF0005CE164E170E081E390E00C94F7151092CD
:104000007200E2EFF6E088EDDF011D928A95E9F794
:1040100080EF809310011092C6011092C701109298
:10402000C8011092C901E3EFF5E086E0858380E4E2
:1040300086838CE08783108683E0848311861286D2
:104040001092CA0188E0809303010895CF93DF9313
:10405000C091CD0182E1C89FC02D1124C45D0E9492
:1040600006180E94E917D0E08091490120E044E55C
:104070005EE168E370E08C0F9D2F911D0E94C315D7
:104080008091480120E044E55EE168E370E08C0F38
:104090009D2F911D0E94C31580E40E943F1681113F
:1040A0000E94391680E20E943F1681110E94341648
:1040B0008CE00E943F16882379F0C091CD0182E008
:1040C00090E00E94DB2EC81729F06C2F82E090E070
:1040D0000E94E32E10920301DF91CF9108953F9249
:1040E0004F925F926F927F928F929F92AF92BF9208
:1040F000CF92DF92EF92FF920F931F93CF93DF93B4
:10410000CDB7DEB72A970FB6F894DEBF0FBECDBF8E
:10411000E82E862ECA01B9012AE0AE014F5F5F4F3B
:104120005A010E949A2EF50101900020E9F731977B
:10413000EA19FB096E2E8BEF089F802D1124895FF1
:104140008E1B482E082E000C5508011113C010E0DC
:10415000E6E0FE2E14151504C4F41F9DC0011124C1
:1041600020E042E557E166E370E08B960E94F71588
:104170001F5FF0CF18164CF420E042E357E170E0E7
:1041800060E089E790E00E94F715F12C6201CC0C09
:10419000DD1CCC0CDD1CCE0CDF1C440C551C4C0C67
:1041A0005D1C10E0062C000C7708912C76E0372E71
:1041B000812F90E08615970584F5F501E80FF91F2A
:1041C00020812133A4F020532A3088F4013089F073
:1041D0000230C9F042E557E166E370E0C201139D89
:1041E000800D911D11240E94F7151F5FE1CF20E083
:1041F000EDCF880F991F880F991F42E357E1B40153
:104200008C0D9D1DF0CF880F991F880F991F42E1DB
:1042100057E1B4018E0D9F1DE6CF2A960FB6F89494
:10422000DEBF0FBECDBFDF91CF911F910F91FF90E9
:10423000EF90DF90CF90BF90AF909F908F907F9046
:104240006F905F904F903F9008950F93CF93DF93BF
:10425000D0E0C0E020E045EB57E1BE0186E790E00A
:104260000E94C3152896C034D105A1F72091BE063F
:1042700030E050E040E001E060E089E70E946F201C
:104280002091F905277030E050E040E002E067E15E
:104290008BE70E946F2020E04EEA57E16DE170E06D
:1042A0008AE790E00E94F7152091F90530E083E05D
:1042B000359527958A95E1F723703327032E000C57
:1042C000440B550B66E28BE70E946F2020E045EA25
:1042D00057E16CE270E089E790E00E94F7152091C9
:1042E000F90525FB222720F930E050E040E065E3A6
:1042F0008BE70E946F2020E04CE957E16BE370E010
:1043000089E790E00E94F7158091F8052091F90562
:1043100084FF14C020642093F9058091F90586FF7D
:104320001EC02091F70546E857E16BE070E08AE790
:1043300090E0DF91CF910F910C94F7158091CE0111
:104340009091CF0164E170E00E94FD2E892B29F746
:104350008091F705823008F780E42827DCCFDF91D1
:10436000CF910F9108959091FD059F5F9093FD056A
:104370002091CE013091CF0123703327232B51F4AC
:104380008091F805282F2370233009F064C08C7FBA
:104390008093F8059B3558F08091F8058F778460FD
:1043A0008093F8051092FD0586E0809303010E943A
:1043B0003B190E94B9190E9425210E94DF1C80919F
:1043C000CE019091CF016AE570E00E94FD2E892B0D
:1043D00009F043C0E091BE0636E03E9FF001112493
:1043E000E250FA4FE281E093BE062091FA05822F57
:1043F00065E00E94F12E839FA00111244C5F5F4F66
:10440000421B51099CE0949FB001959F700D1124AF
:104410006D5F7F4F7093F4056093F305239F9001C8
:1044200011242E5E3F4F482F58EE5403C001112433
:10443000820F931F2091CB013091CC01820F931FEB
:104440009093F6058093F5051092FB056091CA01E3
:104450008E2F0C94431A8F5F9BCF08950F930E9469
:104460003B190E94B9190E9425210E94DF1C20914E
:10447000C6013091C7014091C8015091C90100E0C7
:1044800066E38BE20E946F208CE00E943F16882337
:1044900039F01092030188ED9EE10F910C94A41D58
:1044A0000F9108950F930E943B190E94B9190E9421
:1044B00025212091C6013091C7014091C80150913A
:1044C000C90100E066E38BE20E946F208CE00E944D
:1044D0003F16882319F086E0809303010F91089519
:1044E0000E940D1E0E94241A8091FB05853038F42D
:1044F0008091CE0180FF0E94471D0C9425211092CF
:10450000FB058091F8058F7B8093F80586E080930A
:104510000301F3CF6F927F928F929F92AF92BF92DF
:10452000CF92DF92EF92FF920F931F93CF93DF937F
:104530000E940D1E0E94241AE091F805E5FDD2C1EB
:10454000E4FD09C18091CE0180FD41C00091CB0105
:104550001091CC016091F505601B8091F3050E94DC
:10456000BB1A893110F48093FA05C0914C01D0E058
:10457000FE01E45AF14EF4900E942C168F21F8129D
:1045800046C08091F8058C7F8093F8056091F50511
:104590007091F60540E08091F3059091F4050E943A
:1045A0005A17811114C06091F5057091F605601BD2
:1045B000710B00E021E050E040E08091F305909124
:1045C000F4050E94DD1A8823F9F00E94721688E033
:1045D0000E943F16882319F089E08093030184E04C
:1045E0000E943F16882309F4B6C0C091BE06809190
:1045F0004D01C81380C08091FA058C3009F07BC052
:1046000088E080930301A7C00E94471DE0CFFE0110
:10461000E35AF14EF4900E942C168F21F8121EC01E
:104620008091F8058D7F81608093F8056091F50594
:104630007091F60541E08091F3059091F4050E9498
:104640005A178111C4CF6091F5057091F605601B72
:10465000710B00E021E041E050E0AFCFFE01E25AF3
:10466000F14EF4900E942C168F21F8121EC08091FA
:10467000F8058E7F82608093F8056091F505709152
:10468000F60542E08091F3059091F4050E945A17D7
:1046900081119DCF6091F5057091F605601B710B3E
:1046A00000E021E042E050E088CFC15AD14EFE0147
:1046B000C4910E942C168C23C81389CF8091F805D1
:1046C00083608093F8056091F5057091F60543E0ED
:1046D0008091F3059091F4050E945A17811177CFCC
:1046E0006091F5057091F605601B710B00E021E00B
:1046F00043E050E062CF8091F8058370823009F486
:10470000ADC0833009F4CCC0813009F468C080E0CA
:104710000E94881B80E00E944B1B80912A08982FE2
:104720009770953089F48695869586952091FA053F
:104730002550330B8217130671F48091F8058068B9
:104740008093F8058BE05DCF2091FA052550330B5F
:10475000963008F063C08091F80583FF8CC190917A
:10476000FC059F5F9093FC052091CE013091CF0115
:1047700023703327232B21F424E082278093F8052C
:104780008091F80524E08227913F08F06DC1809365
:10479000F8058091F80584FD12C08091CE019091BA
:1047A000CF0166E070E00E94FD2ECAE1D8E0FAE099
:1047B000AF2EB12CADE08A2E892B09F465C1DF91B3
:1047C000CF911F910F91FF90EF90DF90CF90BF900E
:1047D000AF909F908F907F906F900C942521809147
:1047E000FA058A3031F481E00E94881B81E00E9442
:1047F0004B1B80912A08982F9770953041F486952D
:10480000869586952091FA052150330B93CF209100
:10481000FA052150330B963008F49DCF982F9695CA
:10482000969596959217130609F095CF91E08927F2
:1048300080932A08A6E0AC9FF0011124E250FA4FC1
:104840008381A89FD0011124A250BA4F858111966F
:104850009C911197892711968C937DCF8091FA05B1
:10486000863131F482E00E94881B82E00E944B1B5B
:1048700080912A08982F9770953049F486958695EF
:1048800086952091FA0530E02B5F3F4F53CF209162
:10489000FA0530E02B5F3F4F963008F0BFCF5BCF7B
:1048A0008091FA058E3031F483E00E94881B83E00A
:1048B0000E944B1B80912A08982F9770953049F4DD
:1048C0008695869586952091FA0530E02F5F3F4FBB
:1048D00031CF963008F43FCF2091FA0530E02F5FBA
:1048E0003F4F9CCF8091FB05853038F48091CE01FD
:1048F00080FD31CF0E94471D2ECF3091CA01832FFA
:104900008150990BDC01AA0FBB1FAF5EBE4FE37055
:10491000F0E036968091BE069DE0899FE00DF11D86
:1049200011248D919C91E80FF91F8491837082303E
:1049300069F0833009F479C0813009F07BC08AE0E6
:104940008093FA052AE047EF5FEF06C086E1809387
:10495000FA0526E14DED5FEF5093CC014093CB017A
:10496000E491F0E0F595E795F595E795E093BE06BF
:10497000822F65E00E94F12E682F70E0A6E08A9FEA
:10498000C00111240496821B9109FCE0FF2EF89EC1
:10499000D001F99EB00D112413962A3009F454C0A9
:1049A00008F04DC0223009F452C00A0F1B1F1093AB
:1049B000F4050093F305A6E02A9FC0011124429656
:1049C00018EE1603D001179FB00D11248A0F9B1FFC
:1049D0002A3009F446C0F0F5223009F442C0C80F6D
:1049E000D91FC40FD51FD093F605C093F5051092BB
:1049F000FB05632F8E2F0E94431A8091F8058F7D4F
:104A000080648093F80587E080930301DF91CF9164
:104A10001F910F91FF90EF90DF90CF90BF90AF90DC
:104A20009F908F907F906F9008958EE08093FA050D
:104A30002EE090CF82E08093FA0522E084CF2E30E2
:104A400031F0263109F0B1CF0AE010E0AECF06EF29
:104A50001FEFABCF2E3011F0263109F6C5E0D0E0C4
:104A6000BECFCBEFDFEFBBCF877F84608093F805AD
:104A70001092FC058ECE84FF90CE8AE080930301D5
:104A800088CEEBE0AE2EB12C8D818F5F83708D834D
:104A9000A091CA01A150BB0BAA0FBB1FAF5EBE4FB6
:104AA0008091BE06F501889DE00DF11D1124CF0116
:104AB000ED91FC91E80FF91FE491EE2351F08C8108
:104AC000E82EF12C87708130C1F148F0823009F472
:104AD0008BC026969BE0A916B10499F670CE63E0D0
:104AE000F594E7946A95E1F7F3E0EF22FF246A80FA
:104AF0007B80C880D98020E0A701B301C6010E9455
:104B000012171A2D1170811115C0012F20E0A70175
:104B1000B301C6010E94DD1A81110CC08C8190E0A6
:104B200023E0959587952A95E1F7612F83700E9480
:104B30001411CFCF61E0812F19C053E0F594E794B1
:104B40005A95E1F723E0E222FF246A807B80C88047
:104B5000D98020E0A701B301C6010E9412173A2DA7
:104B60003170932E882329F061E0892D0E944C1624
:104B7000B0CF032F20E0A701B301C6010E94DD1AC8
:104B80008111F2CF8C8190E043E0959587954A950D
:104B9000E1F7692D83700E941411EA80FB80C880C0
:104BA000D98043E350E08EE190E0F601FF27D70182
:104BB000BB279C012E513109BA016E177F0731F4D2
:104BC00089010E5E1F4FA017B10781F16C5071096A
:104BD0002A5F3F4F8217930781F70696445F5F4F26
:104BE0008C33910531F775CF33E0F594E7943A951E
:104BF000E1F783E0E822FF246A807B80C880D980C7
:104C000020E0A701B301C6010E9412171A2D1170EE
:104C1000882311F060E08FCF012F20E0A701B301BE
:104C2000C6010E94DD1A8111F5CF78CF6C80712CFE
:104C300083E0759467948A95E1F7A3E06A2277246C
:104C4000E1E06E1A710820E0A301B701C6010E94DD
:104C5000121781113ECF092D20E0A301B701C60133
:104C60000E94DD1A811135CF60E07FCF1F920F9235
:104C70000FB60F9211248F939F938091E100909132
:104C8000E100937F9093E10083FF0FC01092E90051
:104C900091E09093EB001092EC0092E39093ED0082
:104CA0001092F20598E09093F00082FF22C093E00A
:104CB0009093E9009091F200992319F09AE3909370
:104CC000E8009091E305992341F09091E30591501C
:104CD0009093E305911101C05D9A9091F10599239C
:104CE00041F09091F10591509093F105911101C01F
:104CF000289A84FF18C08091E2008E7E81608093A4
:104D0000E2008091E1008F7E8093E1008091E405D4
:104D10008E7E80618093E4059F918F910F900FBEEE
:104D20000F901F90189580FFF7CF8091E2008E7E44
:104D300080618093E2008091E1008E7E8093E100AB
:104D40008091E4058E7E8160E5CF1F920F920FB6B1
:104D50000F921124CF92DF92EF92FF920F931F9345
:104D60002F933F934F935F936F937F938F939F9373
:104D7000AF93BF93EF93FF93CF93DF93CDB7DEB79E
:104D80006C97DEBFCDBF1092E9008091E80083FFF1
:104D900025C068E0CE0145960E94D81282EF80932C
:104DA000E8008D8987FF39C09091E80090FFFCCF23
:104DB000982F907609F034C19E894F89588D2F899C
:104DC000F88C911131C0803861F58091E2058093B3
:104DD000F1001092F1008EEF8093E8006C960FB610
:104DE000F894DEBF0FBECDBFDF91CF91FF91EF9161
:104DF000BF91AF919F918F917F916F915F914F91F3
:104E00003F912F911F910F91FF90EF90DF90CF90E6
:104E10000F900FBE0F901F9018959EEF9093E80093
:104E2000C7CF1092F100D5CF913059F48111D3CF73
:104E30004130510581F68091E2058D7F8093E20536
:104E4000CACF933049F48111C6CF4130510519F6CC
:104E50008091E2058260F2CF953041F48091E800C4
:104E600080FFFCCF20682093E300B5CF963009F097
:104E7000A9C00B8D1C8D22E01092E9001092E00574
:104E80001092DF05F2122EC01092DE051092DD05A1
:104E90000E94A7121F8299E09983FA8291E09E8373
:104EA00090EA98879AEF99872091DF053091E00585
:104EB000275F3F4F3C832B838D831092E900109234
:104EC000E0051092DF051093DE050093DD0549E053
:104ED00050E0BE016F5F7F4F80E00E9481120E9410
:104EE000A71279CF1093DE050093DD050E948B1188
:104EF000DC0112960D911C910115110509F451C1A7
:104F0000D801ED91FC910480F581E02DBE016B5E2E
:104F10007F4FC8010995009709F03EC1F80100854F
:104F20001185EACFF3E0FF120EC08F89882309F4C0
:104F300040C0823061F440E860E181EC91E20E947F
:104F40004E12811148CF81E28093EB0047CF813030
:104F500029F440E86BE085EB91E2F1CF833099F7DB
:104F60000E948B11DC011296ED90FC908E010F5F78
:104F70001F4F6801E114F10479F0D701ED91FC9124
:104F80000680F781E02DB801C7010995080F111DB2
:104F9000F701E084F184EECFD8011C92F601019074
:104FA0000020E9F73197BF016C197D0940E0C60187
:104FB000C6CF6FE971E2FB01449150E080E80E94A6
:104FC000811209CF973009F4BECF983021F481E0E7
:104FD0008093F10000CF993009F0FDCE837009F085
:104FE000B2CFE6E1F1E081E031E096E321912223C6
:104FF00071F08093E9003093EB00DF0111972C9161
:105000002093EC009093ED008F5F873079F78EE767
:105010008093EA001092EA008F898093F205DBCE3C
:105020008B8D9C8D1092E9001092E0051092DF05A7
:105030009093DE058093DD05898D811192C08E8964
:105040009D89913A49F4813209F07DCF47E050E0E3
:1050500068E071E080E0B3CF913209F074CF833221
:1050600069F48F89988DB0E0A0E08093040190935B
:105070000501A0930601B0930701ADCE803269F41B
:105080008091E80082FFFCCF67E088E091E00E9419
:10509000D8128BEF8093E8009ECE823209F09BCE2F
:1050A0008F8980930F01EEEFFFE7859194918B3FFD
:1050B0009C4D51F1E0E0F8E08091080190910901E8
:1050C000A0910A01B0910B01803B9440A105B1056C
:1050D000F1F480910F0180FD1AC0EE3F8AE0F807DD
:1050E00089F587E797E791838083809160008093BB
:1050F000E10588E19BE00FB6F894A89580936000E5
:105100000FBE9093600067CEEEEFFAE0D5CF8081BE
:1051100091818737974709F05ECEA895809160000E
:105120008861809360008091E10580936000EE3F8C
:105130002AE0F20789F08091FE0A9091FF0A91839C
:10514000808349CE808191818737980751F290936F
:10515000FF0A8093FE0AC5CF1092FF0A1092FE0A42
:105160003ACE0E948B11DC0112960D911C91011513
:10517000110509F4E8CED801ED91FC910190F08180
:10518000E02DBE016B5E7F4FC8010995811123CED2
:10519000F80100851185EBCF181619060CF41BCE0B
:1051A000D2CEF1E0FF12BECE63EA71E204CF1F92CD
:1051B0000F920FB60F9211242F933F938F939F93CB
:1051C000AF93BF938091D5059091D605A091D70557
:1051D000B091D8053091D40523E0230F2D3758F531
:1051E0000196A11DB11D2093D4058093D505909300
:1051F000D605A093D705B093D8058091D905909195
:10520000DA05A091DB05B091DC050196A11DB11D69
:105210008093D9059093DA05A093DB05B093DC0564
:10522000BF91AF919F918F913F912F910F900FBEA2
:105230000F901F90189526E8230F0296A11DB11D0F
:10524000D2CF2F923F924F925F926F927F928F9226
:105250009F92AF92BF92CF92DF92EF92FF920F9305
:105260001F93CF93DF933FE2C32E31E0D32EC2EFE3
:10527000D6E010E000E0772473944BE1942E56E3DF
:10528000852E69E0462E6DE3562E22242A94322C78
:10529000EEA5EE23A9F08FA59E2F9370891708F431
:1052A0009BC0F0E0F595E795F595E795EE0FFF1FAC
:1052B000EC57FF4D85919491F601928381831FA64F
:1052C0009CA99923F9F08DA9292F2F77022E000C84
:1052D000330B821713060CF489C08A8197FF7FC0B5
:1052E00081508A838A8181117CC081E08A83EA812E
:1052F000F0E0EE0FFF1FEC57FF4D859194919EA3B8
:105300008DA31DAA58A5552321F13AA529A5311130
:1053100019C0422F407426FF6CC08DA19EA1850F3D
:10532000911D57FD9A9527FD69C097FD65C04423DF
:1053300009F466C0863BF4E29F0714F085EB94E223
:105340009EA38DA381E0830F8AA72F73321708F0E5
:105350001AA69BA5992371F0EA81EE2359F08DA539
:105360002CA5482F4F71322F3F71431708F04AC0C8
:105370008F5F8DA749A9442311F13AA9632F607467
:1053800036FF6CC08DA19EA12BA950E027FF69C0FC
:10539000840F951F97FD68C0662309F469C0863B9A
:1053A00044E2940714F085EB94E29EA38DA33F7131
:1053B000822F8F71831708F05DC02F5F2BAB89A1FF
:1053C0009AA1009709F45DC08F3F980709F49AC02D
:1053D00001979AA389A396C08F5F8FA771CF8F5F24
:1053E00080CF803408F483CF8FE380CF8F5F8DAB85
:1053F00089CF8FA190E093CF90E080E04111A0CFC2
:105400008FA3A0CF807EF1F480E28DA78DA5807E52
:1054100051F09F3F09F1292F22952F70E20F803420
:1054200011F49F70E90F88A9F0E0E80FF11D87FDE6
:10543000FA95EE0FFF1FEC57FF4D859194919EA3B7
:105440008DA398CF803231F426FD04C09F3F11F028
:1054500080E4DBCF1DA6DACFE0E0E1CF8FA190E0C2
:1054600093CF841B950B96CF90E080E061119DCF88
:105470008FA39DCF27FF02C01BAAA1CF80E88BABD3
:105480009ECFC8010496672C01C0660C8A95EAF786
:10549000909E5001919EB00C1124809EC001819E6F
:1054A000900D11249C012E50394F790188819981EA
:1054B000BC016F5F7F4F79836883FC014491403466
:1054C00008F07CC04A83442319F088A9480F4A8316
:1054D000EA81F0E0EE0FFF1FEC57FF4D85919491AC
:1054E0009EA38DA389A5811102C08FA58FA38CA532
:1054F00085FD1DA689A19AA10097C1F28F3F98074B
:1055000009F066CF20911001822F90E0002E02C09A
:10551000959587950A94E2F780FD0AC0033009F05B
:10552000F4C18091BB0790E09595879580933E01EB
:10553000207F39F58091120790914807890F90914B
:105540007E07890F9091B407890F09F4E6C18AECB0
:10555000A82E87E0B82E92EFE92E96E0F92EF701FB
:1055600080A10E94C813F7019183808312A211A227
:10557000F6E3EF0EF11CAE14BF0489F780EF8093C1
:1055800010010F5F1F4FE696F5E0CF0ED11C0430DF
:10559000110509F07DCEDF91CF911F910F91FF9002
:1055A000EF90DF90CF90BF90AF909F908F907F90C3
:1055B0006F905F904F903F902F900895403A08F081
:1055C00009C1E42FE054FF0BEC30F10509F4BFC032
:1055D0000CF04CC0E530F10509F4A2C0F4F4E2305F
:1055E000F10509F49DC094F4309709F491C0319706
:1055F00009F080CF029699838883FB01649168A7A4
:1056000080E0413409F080E489A774CFE330F105EC
:1056100009F493C0349771F36DCFE830F10509F4C4
:1056200062C0A4F4E630F10509F487C0379709F0A9
:1056300061CFFB0164916BA79C012D5F3F4F3983C4
:105640002883FC013296E491ECA754CFEA30F105AF
:1056500009F47BC002963B970CF471C09983888350
:10566000FB01849168A9680F68AB44CFE331F10571
:1056700009F477C064F5EF30F10509F470C0DCF48B
:10568000ED30F10509F469C03E9709F033CFFB0115
:105690002591349129AB9C012D5F3F4F398328839D
:1056A000FC0132962591349180E04E3409F080E47B
:1056B000820F8AAB1FCFE131F10509F450C03CF3F2
:1056C000029699838883FB0164916CAB13CFEC3510
:1056D000F10509F451C04CF4E431F10509F443C07B
:1056E000759709F007CF1BA605CFEE35F10509F434
:1056F0005CC00CF454C0EF35F10509F0FBCE80918D
:1057000010018625809310011FA23AA229A2F2CE91
:10571000029699838883FB0164916FA36FA7EACEF9
:10572000FB01649168A79C012D5F3F4F398328835B
:10573000FC013296E491E9A7DDCE18A6DBCE998371
:105740008883FB0164916EA7D5CE1EA6D3CE0296A8
:1057500099838883FB01649187CF18AACBCE19AABD
:10576000C9CE1CAAC7CEFFEFFBA7029699838883F8
:10577000FB0164916CA7BECE029699838883FB01DE
:105780006491E091F1066E0F6093F10670E0C20142
:105790000E94112F7093440160934301ABCE029697
:1057A00099838883FB016491EFCFA2EFB6E021E0FB
:1057B00030E0FC01E20FF31FE4919096EC93909798
:1057C0002F5F3F4FD6962530310599F7059699837F
:1057D000888390CE403E28F44F59550B5AA349A3D5
:1057E00089CE403EA9F4DE0190E080E09695982FA6
:1057F000882797958795ED91FD91E4912E2F2F772E
:10580000822BE7FDF3CF8F5B9F4F9AA389A372CEC4
:105810004C3F08F46FCE24E0240F223008F039C04A
:105820004C3FA9F1029699838883FB016491E8813A
:10583000F9819F012F5F3F4F39832883E4915CA159
:105840005E1701F14F8D842F90E07BA1D701A80F47
:10585000B91F51967C93519758965C93D501A80F28
:10586000B91FAA0FBB1FAE50B94F8091ED069091A2
:10587000EE06281B390B14963C932E9313974F5F1B
:105880004F8FECA36BA38CA10E94C813A0CF60E044
:10589000CECFDE0190E080E04E3F29F58BA1811153
:1058A0001FC0EF8DEE2379F3E150EF8FF0E0D501CB
:1058B000AE0FBF1FAA0FBB1FAE50B94F8091ED06B0
:1058C0009091EE0613962D913C91820F931F998330
:1058D0008883EE0DFF1D81898BA3808D8CA30ACE5A
:1058E00081508BA3D0CF9695982F88279795879531
:1058F000ED91FD91E4913E2F3F77832BE7FDF3CFB0
:10590000680F791F79836883F5CD8DA19EA1F6017B
:10591000928381838FA180830BCE88EDE2EFF6E046
:1059200011928A95E9F7109272002BCE2F922FB622
:105930002F9320912E01209520932E0109F08BC0EA
:10594000BF93AF930F921F9220913A0100903C01B8
:10595000020E00923C0120913B0110903D01121E6D
:1059600010923D01B12DB7FDB095BB0FA09139014B
:10597000B058BA02110CA12D2091300100903201D3
:10598000020E009232012091310110903301121E5B
:1059900010923301212D220F2121B0912F0127FDDB
:1059A000B195AB0F2091350100903701020E0092A6
:1059B00037012091360110903801121E10923801E3
:1059C000B091340117FCB195AB0FB1E000903F01ED
:1059D00010904001000C111C17FC0B2616FC0B2626
:1059E00000923F0110924001B0913E0117FCB19529
:1059F000AB0FB0910001AB0FA093CF00B091460167
:105A0000A0914501119729F0B0934601A09345015B
:105A10001EC0B0914401A0914301B0934601A093F0
:105A2000450178943F934F935F936F937F938F9348
:105A30009F93EF93FF9311240E942129FF91EF91EF
:105A40009F918F917F916F915F914F913F911F90A7
:105A50000F90AF91BF912F912FBE2F901895EAEC28
:105A6000F7E01382128288EE93E0A0E0B0E0848336
:105A70009583A683B78380E291E0918380838FEF43
:105A80009FEF95878487EAE1F8E014821286108AF6
:105A9000168A148E12A210A616A60895789484B5BC
:105AA000826084BD84B5816084BD85B5826085BD1A
:105AB00085B5816085BD80916E00816080936E00A8
:105AC000109281008091810082608093810080919A
:105AD000810081608093810080918000816080934B
